{"project/contracts/ordinary_chain/TransferContract.sol":{"TransferContract":{"abi":[{"inputs":[],"stateMutability":"nonpayable","type":"constructor"},{"anonymous":false,"inputs":[{"indexed":true,"internalType":"bytes32","name":"burnId","type":"bytes32"},{"indexed":true,"internalType":"address","name":"sender","type":"address"},{"indexed":false,"internalType":"uint256","name":"amount","type":"uint256"},{"indexed":false,"internalType":"bytes32","name":"hashCommitment","type":"bytes32"},{"indexed":false,"internalType":"uint256","name":"timeLock","type":"uint256"}],"name":"Burned","type":"event"},{"anonymous":false,"inputs":[{"indexed":true,"internalType":"bytes32","name":"serialNumber","type":"bytes32"},{"indexed":true,"internalType":"address","name":"receiver","type":"address"},{"indexed":false,"internalType":"uint256","name":"amount","type":"uint256"}],"name":"Minted","type":"event"},{"anonymous":false,"inputs":[{"indexed":true,"internalType":"bytes32","name":"burnId","type":"bytes32"},{"indexed":true,"internalType":"address","name":"sender","type":"address"},{"indexed":false,"internalType":"uint256","name":"amount","type":"uint256"}],"name":"Redeemed","type":"event"},{"inputs":[],"name":"DEFAULT_TIMELOCK","outputs":[{"internalType":"uint256","name":"","type":"uint256"}],"stateMutability":"view","type":"function"},{"inputs":[{"internalType":"bytes32","name":"hashCommitment","type":"bytes32"}],"name":"burn","outputs":[],"stateMutability":"payable","type":"function"},{"inputs":[{"internalType":"uint256","name":"","type":"uint256"}],"name":"burnIds","outputs":[{"internalType":"bytes32","name":"","type":"bytes32"}],"stateMutability":"view","type":"function"},{"inputs":[{"internalType":"bytes32[]","name":"hashCommitments","type":"bytes32[]"}],"name":"burnSplit","outputs":[{"internalType":"bytes32[]","name":"","type":"bytes32[]"}],"stateMutability":"payable","type":"function"},{"inputs":[{"internalType":"bytes32","name":"","type":"bytes32"}],"name":"burns","outputs":[{"internalType":"address","name":"sender","type":"address"},{"internalType":"uint256","name":"amount","type":"uint256"},{"internalType":"bytes32","name":"hashCommitment","type":"bytes32"},{"internalType":"uint256","name":"timeLock","type":"uint256"},{"internalType":"bool","name":"isRedeemed","type":"bool"},{"internalType":"bool","name":"isClaimed","type":"bool"}],"stateMutability":"view","type":"function"},{"inputs":[],"name":"getBurnCount","outputs":[{"internalType":"uint256","name":"","type":"uint256"}],"stateMutability":"view","type":"function"},{"inputs":[{"internalType":"bytes32","name":"burnId","type":"bytes32"}],"name":"getBurnRecord","outputs":[{"internalType":"address","name":"sender","type":"address"},{"internalType":"uint256","name":"amount","type":"uint256"},{"internalType":"bytes32","name":"hashCommitment","type":"bytes32"},{"internalType":"uint256","name":"timeLock","type":"uint256"},{"internalType":"bool","name":"isRedeemed","type":"bool"},{"internalType":"bool","name":"isClaimed","type":"bool"}],"stateMutability":"view","type":"function"},{"inputs":[{"internalType":"bytes32","name":"sn","type":"bytes32"}],"name":"isSerialNumberUsed","outputs":[{"internalType":"bool","name":"","type":"bool"}],"stateMutability":"view","type":"function"},{"inputs":[{"internalType":"bytes32","name":"serialNumber","type":"bytes32"},{"internalType":"uint256","name":"amount","type":"uint256"},{"internalType":"bytes32","name":"merkleRoot","type":"bytes32"},{"internalType":"uint256[2]","name":"proofA","type":"uint256[2]"},{"internalType":"uint256[2][2]","name":"proofB","type":"uint256[2][2]"},{"internalType":"uint256[2]","name":"proofC","type":"uint256[2]"}],"name":"mint","outputs":[],"stateMutability":"nonpayable","type":"function"},{"inputs":[{"internalType":"bytes32","name":"","type":"bytes32"}],"name":"mintedSerialNumbers","outputs":[{"internalType":"bool","name":"","type":"bool"}],"stateMutability":"view","type":"function"},{"inputs":[{"internalType":"bytes32","name":"","type":"bytes32"}],"name":"mints","outputs":[{"internalType":"bytes32","name":"serialNumber","type":"bytes32"},{"internalType":"address","name":"receiver","type":"address"},{"internalType":"uint256","name":"amount","type":"uint256"},{"internalType":"uint256","name":"timestamp","type":"uint256"}],"stateMutability":"view","type":"function"},{"inputs":[],"name":"owner","outputs":[{"internalType":"address","name":"","type":"address"}],"stateMutability":"view","type":"function"},{"inputs":[{"internalType":"bytes32","name":"burnId","type":"bytes32"},{"internalType":"bytes32","name":"serialNumber","type":"bytes32"},{"internalType":"uint256[2]","name":"proofA","type":"uint256[2]"},{"internalType":"uint256[2][2]","name":"proofB","type":"uint256[2][2]"},{"internalType":"uint256[2]","name":"proofC","type":"uint256[2]"}],"name":"redeem","outputs":[],"stateMutability":"nonpayable","type":"function"},{"inputs":[{"internalType":"uint256[2]","name":"alpha","type":"uint256[2]"},{"internalType":"uint256[2][2]","name":"beta","type":"uint256[2][2]"},{"internalType":"uint256[2][2]","name":"gamma","type":"uint256[2][2]"},{"internalType":"uint256[2][2]","name":"delta","type":"uint256[2][2]"},{"internalType":"uint256[2][]","name":"ic","type":"uint256[2][]"}],"name":"setMintVerifyingKey","outputs":[],"stateMutability":"nonpayable","type":"function"},{"inputs":[{"internalType":"uint256[2]","name":"alpha","type":"uint256[2]"},{"internalType":"uint256[2][2]","name":"beta","type":"uint256[2][2]"},{"internalType":"uint256[2][2]","name":"gamma","type":"uint256[2][2]"},{"internalType":"uint256[2][2]","name":"delta","type":"uint256[2][2]"},{"internalType":"uint256[2][]","name":"ic","type":"uint256[2][]"}],"name":"setRedeemVerifyingKey","outputs":[],"stateMutability":"nonpayable","type":"function"},{"stateMutability":"payable","type":"receive"}],"evm":{"bytecode":{"linkReferences":{},"object":"608060405234801561000f575f80fd5b50602280546001600160a01b03191633179055612aa48061002f5f395ff3fe6080604052600436106100e7575f3560e01c80638da5cb5b11610087578063d934427b11610057578063d934427b1461037e578063e7cf548c146103ac578063f1973dcb146103c0578063f28613811461041e575f80fd5b80638da5cb5b14610238578063906b1d2c1461026f578063b816eda21461033c578063c1c7fca31461035b575f80fd5b806354232273116100c2578063542322731461016957806356dc63cb146101885780636ed8c319146101f95780636ffcce7014610218575f80fd5b806308a1eee1146100f25780630a9b7c4e146101075780632eaa247114610126575f80fd5b366100ee57005b5f80fd5b61010561010036600461261a565b61043d565b005b348015610112575f80fd5b50610105610121366004612738565b6106a1565b348015610131575f80fd5b5061015461014036600461261a565b601f6020525f908152604090205460ff1681565b60405190151581526020015b60405180910390f35b348015610174575f80fd5b50610105610183366004612790565b610c5c565b348015610193575f80fd5b506101d16101a236600461261a565b602080525f9081526040902080546001820154600283015460039093015491926001600160a01b039091169184565b604080519485526001600160a01b039093166020850152918301526060820152608001610160565b348015610204575f80fd5b50610105610213366004612790565b610e56565b61022b610226366004612890565b61104b565b60405161016091906128ff565b348015610243575f80fd5b50602254610257906001600160a01b031681565b6040516001600160a01b039091168152602001610160565b34801561027a575f80fd5b5061030161028936600461261a565b5f908152601e6020908152604091829020825160c08101845281546001600160a01b03168082526001830154938201849052600283015494820185905260038301546060830181905260049093015460ff80821615156080850181905261010090920416151560a09093018390529095939493909190565b604080516001600160a01b039097168752602087019590955293850192909252606084015215156080830152151560a082015260c001610160565b348015610347575f80fd5b50610105610356366004612942565b611298565b348015610366575f80fd5b50610370610e1081565b604051908152602001610160565b348015610389575f80fd5b5061015461039836600461261a565b5f908152601f602052604090205460ff1690565b3480156103b7575f80fd5b50602154610370565b3480156103cb575f80fd5b506103016103da36600461261a565b601e6020525f9081526040902080546001820154600283015460038401546004909401546001600160a01b0390931693919290919060ff8082169161010090041686565b348015610429575f80fd5b5061037061043836600461261a565b611834565b5f34116104815760405162461bcd60e51b815260206004820152600d60248201526c09aeae6e840e6cadcc8408aa89609b1b60448201526064015b60405180910390fd5b61048a34611853565b6104cd5760405162461bcd60e51b815260206004820152601460248201527324b73b30b634b2103232b737b6b4b730ba34b7b760611b6044820152606401610478565b6021546040516bffffffffffffffffffffffff193360601b1660208201526034810183905243605482015260748101919091525f9060940160408051601f1981840301815291815281516020928301205f818152601e909352912060010154909150156105705760405162461bcd60e51b8152602060048201526011602482015270213ab9371024a21031b7b63634b9b4b7b760791b6044820152606401610478565b6040805160c08101825233815234602082015290810183905260608101610599610e10426129b6565b81525f60208083018290526040928301829052848252601e815290829020835181546001600160a01b0319166001600160a01b03909116178155838201516001808301919091558484015160028301556060808601516003840190815560808701516004909401805460a09098015161ffff1990981694151561ff0019169490941761010097151597909702969096179092556021805491820190557f3a6357012c1a3ae0a17d304c9920310382d968ebcc4b1771f41c6b304205b570018590559254825134815291820186905291810191909152339183917f7e9d822ff51edcfbf08dd4b4e06a1e5411885e31301814d43927da403341d58d910160405180910390a35050565b5f858152601e6020526040902060018101546106f05760405162461bcd60e51b815260206004820152600e60248201526d109d5c9b881b9bdd08199bdd5b9960921b6044820152606401610478565b80546001600160a01b0316331461073a5760405162461bcd60e51b815260206004820152600e60248201526d2737ba103a34329039b2b73232b960911b6044820152606401610478565b806003015442116107855760405162461bcd60e51b8152602060048201526015602482015274151a5b59481b1bd8dac81b9bdd08195e1c1a5c9959605a1b6044820152606401610478565b600481015460ff16156107cd5760405162461bcd60e51b815260206004820152601060248201526f105b1c9958591e481c995919595b595960821b6044820152606401610478565b6004810154610100900460ff16156108195760405162461bcd60e51b815260206004820152600f60248201526e105b1c9958591e4818db185a5b5959608a1b6044820152606401610478565b6040805160a08082018352865160608301908152602080890151608080860191909152918452845180860186528851815288820151818301528185015284518086018652875181528782015181830152848601528451600480825293810190955292935f939092919083019080368337019050509050336001600160a01b0316815f815181106108ab576108ab6129c9565b602002602001018181525050865f1c816001815181106108cd576108cd6129c9565b6020026020010181815250508260010154816002815181106108f1576108f16129c9565b60200260200101818152505082600201545f1c81600381518110610917576109176129c9565b6020908102919091018101919091526040805160e081018252600f805460a0830190815260105460c08401528252825160808101808552610b2995939492938501926011918391820190839060029082845b81548152602001906001019080831161096957505050918352505060408051808201918290526020909201919060028481019182845b81548152602001906001019080831161099f575050509190925250505081526040805160808101808352602090930192909160068501918391820190839060029082845b8154815260200190600101908083116109e357505050918352505060408051808201918290526020909201919060028481019182845b815481526020019060010190808311610a195750505091909252505050815260408051608081018083526020909301929091600a8501918391820190839060029082845b815481526020019060010190808311610a5d57505050918352505060408051808201918290526020909201919060028481019182845b815481526020019060010190808311610a93575050505050815250508152602001600e8201805480602002602001604051908101604052809291908181526020015f905b82821015610b1a578382905f5260205f2090600202016040518060400160405290815f820154815260200160018201548152505081526020019060010190610ad7565b505050508152505083836118ba565b610b6f5760405162461bcd60e51b81526020600482015260176024820152761692d4081d995c9a599a58d85d1a5bdb8819985a5b1959604a1b6044820152606401610478565b60048301805460ff191660019081179091558301546040515f9133918381818185875af1925050503d805f8114610bc1576040519150601f19603f3d011682016040523d82523d5f602084013e610bc6565b606091505b5050905080610c095760405162461bcd60e51b815260206004820152600f60248201526e151c985b9cd9995c8819985a5b1959608a1b6044820152606401610478565b336001600160a01b0316897f61d905e697374527439f5c64f060ae521e3b586e8f61ef3f160057e7150e153e8660010154604051610c4991815260200190565b60405180910390a3505050505050505050565b6022546001600160a01b03163314610ca35760405162461bcd60e51b815260206004820152600a60248201526927b7363c9037bbb732b960b11b6044820152606401610478565b60408051808201825286518082526020808901519281018390525f91909155600191909155815180830190925285518083528682015191830191909152600290610cef908290816124d2565b506020820151610d0590600280840191906124d2565b505060408051808201909152845180825260208087015190830152909150600690610d3390829060026124d2565b506020820151610d4990600280840191906124d2565b505060408051808201909152835180825260208086015190830152909150600a90610d7790829060026124d2565b506020820151610d8d90600280840191906124d2565b50610d9d9150600e90505f612510565b5f5b8151811015610e4e575f600e016040518060400160405280848481518110610dc957610dc96129c9565b60200260200101515f60028110610de257610de26129c9565b60200201518152602001848481518110610dfe57610dfe6129c9565b6020026020010151600160028110610e1857610e186129c9565b602090810291909101519091528254600181810185555f9485529382902083516002909202019081559101519082015501610d9f565b505050505050565b6022546001600160a01b03163314610e9d5760405162461bcd60e51b815260206004820152600a60248201526927b7363c9037bbb732b960b11b6044820152606401610478565b6040805180820182528651808252602080890151928101839052600f91909155601091909155815180830190925285518083528682015191830191909152601190610eeb90829060026124d2565b506020820151610f0190600280840191906124d2565b505060408051808201909152845180825260208087015190830152909150601590610f2f90829060026124d2565b506020820151610f4590600280840191906124d2565b505060408051808201909152835180825260208086015190830152909150601990610f7390829060026124d2565b506020820151610f8990600280840191906124d2565b50610f999150601d90505f612510565b5f5b8151811015610e4e57600f600e016040518060400160405280848481518110610fc657610fc66129c9565b60200260200101515f60028110610fdf57610fdf6129c9565b60200201518152602001848481518110610ffb57610ffb6129c9565b6020026020010151600160028110611015576110156129c9565b602090810291909101519091528254600181810185555f9485529382902083516002909202019081559101519082015501610f9b565b60605f341161108c5760405162461bcd60e51b815260206004820152600d60248201526c09aeae6e840e6cadcc8408aa89609b1b6044820152606401610478565b5f8061109734611be4565b91509150805f146111075760405162461bcd60e51b815260206004820152603460248201527f416d6f756e74206e6f74206465636f6d706f7361626c6520696e746f20737570604482015273706f727465642064656e6f6d696e6174696f6e7360601b6064820152608401610478565b5f805b600681101561113e57838160068110611125576111256129c9565b602002015161113490836129b6565b915060010161110a565b5084811461119a5760405162461bcd60e51b8152602060048201526024808201527f496e636f7272656374206e756d626572206f66206861736820636f6d6d69746d604482015263656e747360e01b6064820152608401610478565b5f8167ffffffffffffffff8111156111b4576111b4612631565b6040519080825280602002602001820160405280156111dd578160200160208202803683370190505b5090505f60065b8015611289575f6111f66001836129dd565b90505f5b87826006811061120c5761120c6129c9565b6020020151811015611274576112428b8b8681811061122d5761122d6129c9565b9050602002013561123d84611d3c565b611e0d565b858581518110611254576112546129c9565b602090810291909101015283611269816129f0565b9450506001016111fa565b5050808061128190612a08565b9150506111e4565b50909450505050505b92915050565b5f868152601f602052604090205460ff16156112f65760405162461bcd60e51b815260206004820152601a60248201527f53657269616c206e756d62657220616c726561647920757365640000000000006044820152606401610478565b6112ff85611853565b6113425760405162461bcd60e51b815260206004820152601460248201527324b73b30b634b2103232b737b6b4b730ba34b7b760611b6044820152606401610478565b844710156113925760405162461bcd60e51b815260206004820152601d60248201527f496e73756666696369656e7420636f6e74726163742062616c616e63650000006044820152606401610478565b6040805160a08082018352855160608301908152602080880151608080860191909152918452845180860186528751815287820151818301528185015284518086018652865181528682015181830152848601528451600480825293810190955292935f939092919083019080368337019050509050336001600160a01b0316815f81518110611424576114246129c9565b602002602001018181525050875f1c81600181518110611446576114466129c9565b6020026020010181815250508681600281518110611466576114666129c9565b602002602001018181525050855f1c81600381518110611488576114886129c9565b6020908102919091018101919091526040805160e0810182525f805460a0830190815260015460c084015282528251608081018085526002805495830195865261167a96949593948601939091839190839081906003606086018083116109695750505091835250506040805180820191829052600284810180548352602094850194929390926003870190850180831161099f57505050919092525050508152604080516080810180835260068501805493830193845260209094019391928391839060029060078901606086018083116109e357505050918352505060408051808201918290526002848101805483526020948501949293909260038701908501808311610a19575050509190925250505081526040805160808101808352600a85018054938301938452602090940193919283918390600290600b890160608601808311610a5d57505050918352505060408051808201918290526002848101805483526020948501949293909260038701908501808311610a93575050505050815250508152602001600e8201805480602002602001604051908101604052809291908181526020015f9082821015610b1a578382905f5260205f2090600202016040518060400160405290815f820154815260200160018201548152505081526020019060010190610ad7565b6116c05760405162461bcd60e51b81526020600482015260176024820152761692d4081d995c9a599a58d85d1a5bdb8819985a5b1959604a1b6044820152606401610478565b6001601f5f8a81526020019081526020015f205f6101000a81548160ff0219169083151502179055506040518060800160405280898152602001336001600160a01b031681526020018881526020014281525060205f8a81526020019081526020015f205f820151815f01556020820151816001015f6101000a8154816001600160a01b0302191690836001600160a01b0316021790555060408201518160020155606082015181600301559050505f336001600160a01b0316886040515f6040518083038185875af1925050503d805f81146117b8576040519150601f19603f3d011682016040523d82523d5f602084013e6117bd565b606091505b50509050806118005760405162461bcd60e51b815260206004820152600f60248201526e151c985b9cd9995c8819985a5b1959608a1b6044820152606401610478565b60405188815233908a907f1a49076e0e8c733171c5360d78c9ae8e19fef5a0720b926e72f78b7cc37618cd90602001610c49565b60218181548110611843575f80fd5b5f91825260209091200154905081565b5f66038d7ea4c6800082148061186f5750662386f26fc1000082145b80611881575067016345785d8a000082145b806118935750670de0b6b3a764000082145b806118a55750678ac7230489e8000082145b8061129257505068056bc75e2d631000001490565b5f836080015151825160016118cf91906129b6565b1461191c5760405162461bcd60e51b815260206004820152601c60248201527f496e76616c6964207075626c696320696e70757473206c656e677468000000006044820152606401610478565b5f5b82518110156119b7577f30644e72e131a029b85045b68181585d2833e84879b9709143e1f593f000000183828151811061195a5761195a6129c9565b6020026020010151106119af5760405162461bcd60e51b815260206004820152601a60248201527f5075626c696320696e7075742065786365656473206669656c640000000000006044820152606401610478565b60010161191e565b505f84608001515f815181106119cf576119cf6129c9565b602002602001015190505f5b8351811015611a4357611a3982611a3488608001518460016119fd91906129b6565b81518110611a0d57611a0d6129c9565b6020026020010151878581518110611a2757611a276129c9565b6020026020010151611ff0565b61207e565b91506001016119db565b5060408051600480825260a082019092525f91816020015b604080518082019091525f8082526020820152815260200190600190039081611a5b57505060408051600480825260a082019092529192505f9190602082015b611aa3612531565b815260200190600190039081611a9b5750508651909150611ac39061210a565b825f81518110611ad557611ad56129c9565b60200260200101819052508560200151815f81518110611af757611af76129c9565b6020026020010181905250865f015182600181518110611b1957611b196129c9565b6020026020010181905250866020015181600181518110611b3c57611b3c6129c9565b60200260200101819052508282600281518110611b5b57611b5b6129c9565b6020026020010181905250866040015181600281518110611b7e57611b7e6129c9565b6020026020010181905250856040015182600381518110611ba157611ba16129c9565b6020026020010181905250866060015181600381518110611bc457611bc46129c9565b6020026020010181905250611bd982826121c1565b979650505050505050565b611bec612556565b81611c0068056bc75e2d6310000082612a31565b60a08301819052611c1b9068056bc75e2d6310000090612a44565b611c2590826129dd565b9050611c39678ac7230489e8000082612a31565b60808301819052611c5390678ac7230489e8000090612a44565b611c5d90826129dd565b9050611c71670de0b6b3a764000082612a31565b60608301819052611c8b90670de0b6b3a764000090612a44565b611c9590826129dd565b9050611ca967016345785d8a000082612a31565b60408301819052611cc39067016345785d8a000090612a44565b611ccd90826129dd565b9050611ce0662386f26fc1000082612a31565b60208301819052611cf990662386f26fc1000090612a44565b611d0390826129dd565b9050611d1666038d7ea4c6800082612a31565b808352611d2b9066038d7ea4c6800090612a44565b611d3590826129dd565b9050915091565b5f815f03611d52575066038d7ea4c68000919050565b81600103611d685750662386f26fc10000919050565b81600203611d7f575067016345785d8a0000919050565b81600303611d965750670de0b6b3a7640000919050565b81600403611dad5750678ac7230489e80000919050565b81600503611dc5575068056bc75e2d63100000919050565b60405162461bcd60e51b815260206004820152601a60248201527f496e76616c69642064656e6f6d696e6174696f6e20696e6465780000000000006044820152606401610478565b6021546040516bffffffffffffffffffffffff193360601b1660208201526034810184905243605482015260748101919091525f90819060940160408051601f1981840301815291815281516020928301205f818152601e90935291206001015490915015611eb25760405162461bcd60e51b8152602060048201526011602482015270213ab9371024a21031b7b63634b9b4b7b760791b6044820152606401610478565b6040805160c0810182523381526020810185905290810185905260608101611edc610e10426129b6565b81525f60208083018290526040928301829052848252601e8152828220845181546001600160a01b039091166001600160a01b0319909116178155908401516001828101919091559284015160028201556060840151600382015560808401516004909101805460a09095015115156101000261ff00199215159290921661ffff1990951694909417179092556021805491820181559091527f3a6357012c1a3ae0a17d304c9920310382d968ebcc4b1771f41c6b304205b5700181905533817f7e9d822ff51edcfbf08dd4b4e06a1e5411885e31301814d43927da403341d58d8587611fcb610e10426129b6565b6040805193845260208401929092529082015260600160405180910390a39392505050565b604080518082019091525f808252602082015261200b612574565b835181526020808501519082015260408082018490525f908360608460076107d05a03fa9050806120765760405162461bcd60e51b8152602060048201526015602482015274189b8c8d4d94d8d85b185c935d5b0819985a5b1959605a1b6044820152606401610478565b505092915050565b604080518082019091525f8082526020820152612099612592565b835181526020808501518183015283516040808401919091529084015160608301525f908360808460066107d05a03fa9050806120765760405162461bcd60e51b815260206004820152600f60248201526e189b8c8d4d9059190819985a5b1959608a1b6044820152606401610478565b604080518082019091525f8082526020820152815115801561212e57506020820151155b1561214b575050604080518082019091525f808252602082015290565b6040518060400160405280835f015181526020017f30644e72e131a029b85045b68181585d97816a916871ca8d3c208c16d87cfd47846020015161218f9190612a5b565b6121b9907f30644e72e131a029b85045b68181585d97816a916871ca8d3c208c16d87cfd476129dd565b905292915050565b5f81518351146122135760405162461bcd60e51b815260206004820152601760248201527f50616972696e67206c656e677468206d69736d617463680000000000000000006044820152606401610478565b5f835160066122229190612a44565b90505f8167ffffffffffffffff81111561223e5761223e612631565b604051908082528060200260200182016040528015612267578160200160208202803683370190505b5090505f5b8551811015612462575f612281826006612a44565b9050868281518110612295576122956129c9565b60200260200101515f015183825f6122ad91906129b6565b815181106122bd576122bd6129c9565b6020026020010181815250508682815181106122db576122db6129c9565b602002602001015160200151838260016122f591906129b6565b81518110612305576123056129c9565b602002602001018181525050858281518110612323576123236129c9565b6020908102919091018101515101518361233e8360026129b6565b8151811061234e5761234e6129c9565b60200260200101818152505085828151811061236c5761236c6129c9565b60209081029190910101515151836123858360036129b6565b81518110612395576123956129c9565b6020026020010181815250508582815181106123b3576123b36129c9565b6020026020010151602001516001600281106123d1576123d16129c9565b6020020151836123e28360046129b6565b815181106123f2576123f26129c9565b602002602001018181525050858281518110612410576124106129c9565b6020026020010151602001515f6002811061242d5761242d6129c9565b60200201518361243e8360056129b6565b8151811061244e5761244e6129c9565b60209081029190910101525060010161226c565b5061246b6125b0565b5f602082602086026020860160086107d05a03fa9050806124c45760405162461bcd60e51b8152602060048201526013602482015272189b8c8d4d94185a5c9a5b99c819985a5b1959606a1b6044820152606401610478565b505160011495945050505050565b8260028101928215612500579160200282015b828111156125005782518255916020019190600101906124e5565b5061250c9291506125ce565b5090565b5080545f8255600202905f5260205f209081019061252e91906125e2565b50565b60405180604001604052806125446125fc565b81526020016125516125fc565b905290565b6040518060c001604052806006906020820280368337509192915050565b60405180606001604052806003906020820280368337509192915050565b60405180608001604052806004906020820280368337509192915050565b60405180602001604052806001906020820280368337509192915050565b5b8082111561250c575f81556001016125cf565b5b8082111561250c575f80825560018201556002016125e3565b60405180604001604052806002906020820280368337509192915050565b5f6020828403121561262a575f80fd5b5035919050565b634e487b7160e01b5f52604160045260245ffd5b6040805190810167ffffffffffffffff8111828210171561266857612668612631565b60405290565b604051601f8201601f1916810167ffffffffffffffff8111828210171561269757612697612631565b604052919050565b5f82601f8301126126ae575f80fd5b6126b6612645565b8060408401858111156126c7575f80fd5b845b818110156126e15780358452602093840193016126c9565b509095945050505050565b5f82601f8301126126fb575f80fd5b612703612645565b806080840185811115612714575f80fd5b845b818110156126e157612728878261269f565b8452602090930192604001612716565b5f805f805f610140868803121561274d575f80fd5b8535945060208601359350612765876040880161269f565b925061277487608088016126ec565b915061278487610100880161269f565b90509295509295909350565b5f805f805f6101e086880312156127a5575f80fd5b6127af878761269f565b945060406127c088604089016126ec565b94506127cf8860c089016126ec565b93506127df8861014089016126ec565b92506101c087013567ffffffffffffffff808211156127fc575f80fd5b818901915089601f83011261280f575f80fd5b813560208282111561282357612823612631565b61283260208360051b0161266e565b92508282845260208401935060208360061b86010192508c831115612855575f80fd5b6020850194505b8285101561287d5761286e8d8661269f565b8452938501939281019261285c565b8096505050505050509295509295909350565b5f80602083850312156128a1575f80fd5b823567ffffffffffffffff808211156128b8575f80fd5b818501915085601f8301126128cb575f80fd5b8135818111156128d9575f80fd5b8660208260051b85010111156128ed575f80fd5b60209290920196919550909350505050565b602080825282518282018190525f9190848201906040850190845b818110156129365783518352928401929184019160010161291a565b50909695505050505050565b5f805f805f806101608789031215612958575f80fd5b863595506020870135945060408701359350612977886060890161269f565b92506129868860a089016126ec565b915061299688610120890161269f565b90509295509295509295565b634e487b7160e01b5f52601160045260245ffd5b80820180821115611292576112926129a2565b634e487b7160e01b5f52603260045260245ffd5b81810381811115611292576112926129a2565b5f60018201612a0157612a016129a2565b5060010190565b5f81612a1657612a166129a2565b505f190190565b634e487b7160e01b5f52601260045260245ffd5b5f82612a3f57612a3f612a1d565b500490565b8082028115828204841417611292576112926129a2565b5f82612a6957612a69612a1d565b50069056fea2646970667358221220f0098b781f1c062e3104ca79ecf76f3802e33e3c64dd5b4ffd096d14df524d0b64736f6c63430008180033","opcodes":"PUSH1 0x80 PUSH1 0x40 MSTORE CALLVALUE DUP1 ISZERO PUSH2 0xF JUMPI PUSH0 DUP1 REVERT JUMPDEST POP PUSH1 0x22 DUP1 SLOAD PUSH1 0x1 PUSH1 0x1 PUSH1 0xA0 SHL SUB NOT AND CALLER OR SWAP1 SSTORE PUSH2 0x2AA4 DUP1 PUSH2 0x2F PUSH0 CODECOPY PUSH0 RETURN INVALID PUSH1 0x80 PUSH1 0x40 MSTORE PUSH1 0x4 CALLDATASIZE LT PUSH2 0xE7 JUMPI PUSH0 CALLDATALOAD PUSH1 0xE0 SHR DUP1 PUSH4 0x8DA5CB5B GT PUSH2 0x87 JUMPI DUP1 PUSH4 0xD934427B GT PUSH2 0x57 JUMPI DUP1 PUSH4 0xD934427B EQ PUSH2 0x37E JUMPI DUP1 PUSH4 0xE7CF548C EQ PUSH2 0x3AC JUMPI DUP1 PUSH4 0xF1973DCB EQ PUSH2 0x3C0 JUMPI DUP1 PUSH4 0xF2861381 EQ PUSH2 0x41E JUMPI PUSH0 DUP1 REVERT JUMPDEST DUP1 PUSH4 0x8DA5CB5B EQ PUSH2 0x238 JUMPI DUP1 PUSH4 0x906B1D2C EQ PUSH2 0x26F JUMPI DUP1 PUSH4 0xB816EDA2 EQ PUSH2 0x33C JUMPI DUP1 PUSH4 0xC1C7FCA3 EQ PUSH2 0x35B JUMPI PUSH0 DUP1 REVERT JUMPDEST DUP1 PUSH4 0x54232273 GT PUSH2 0xC2 JUMPI DUP1 PUSH4 0x54232273 EQ PUSH2 0x169 JUMPI DUP1 PUSH4 0x56DC63CB EQ PUSH2 0x188 JUMPI DUP1 PUSH4 0x6ED8C319 EQ PUSH2 0x1F9 JUMPI DUP1 PUSH4 0x6FFCCE70 EQ PUSH2 0x218 JUMPI PUSH0 DUP1 REVERT JUMPDEST DUP1 PUSH4 0x8A1EEE1 EQ PUSH2 0xF2 JUMPI DUP1 PUSH4 0xA9B7C4E EQ PUSH2 0x107 JUMPI DUP1 PUSH4 0x2EAA2471 EQ PUSH2 0x126 JUMPI PUSH0 DUP1 REVERT JUMPDEST CALLDATASIZE PUSH2 0xEE JUMPI STOP JUMPDEST PUSH0 DUP1 REVERT JUMPDEST PUSH2 0x105 PUSH2 0x100 CALLDATASIZE PUSH1 0x4 PUSH2 0x261A JUMP JUMPDEST PUSH2 0x43D JUMP JUMPDEST STOP JUMPDEST CALLVALUE DUP1 ISZERO PUSH2 0x112 JUMPI PUSH0 DUP1 REVERT JUMPDEST POP PUSH2 0x105 PUSH2 0x121 CALLDATASIZE PUSH1 0x4 PUSH2 0x2738 JUMP JUMPDEST PUSH2 0x6A1 JUMP JUMPDEST CALLVALUE DUP1 ISZERO PUSH2 0x131 JUMPI PUSH0 DUP1 REVERT JUMPDEST POP PUSH2 0x154 PUSH2 0x140 CALLDATASIZE PUSH1 0x4 PUSH2 0x261A JUMP JUMPDEST PUSH1 0x1F PUSH1 0x20 MSTORE PUSH0 SWAP1 DUP2 MSTORE PUSH1 0x40 SWAP1 KECCAK256 SLOAD PUSH1 0xFF AND DUP2 JUMP JUMPDEST PUSH1 0x40 MLOAD SWAP1 ISZERO ISZERO DUP2 MSTORE PUSH1 0x20 ADD JUMPDEST PUSH1 0x40 MLOAD DUP1 SWAP2 SUB SWAP1 RETURN JUMPDEST CALLVALUE DUP1 ISZERO PUSH2 0x174 JUMPI PUSH0 DUP1 REVERT JUMPDEST POP PUSH2 0x105 PUSH2 0x183 CALLDATASIZE PUSH1 0x4 PUSH2 0x2790 JUMP JUMPDEST PUSH2 0xC5C JUMP JUMPDEST CALLVALUE DUP1 ISZERO PUSH2 0x193 JUMPI PUSH0 DUP1 REVERT JUMPDEST POP PUSH2 0x1D1 PUSH2 0x1A2 CALLDATASIZE PUSH1 0x4 PUSH2 0x261A JUMP JUMPDEST PUSH1 0x20 DUP1 MSTORE PUSH0 SWAP1 DUP2 MSTORE PUSH1 0x40 SWAP1 KECCAK256 DUP1 SLOAD PUSH1 0x1 DUP3 ADD SLOAD PUSH1 0x2 DUP4 ADD SLOAD PUSH1 0x3 SWAP1 SWAP4 ADD SLOAD SWAP2 SWAP3 PUSH1 0x1 PUSH1 0x1 PUSH1 0xA0 SHL SUB SWAP1 SWAP2 AND SWAP2 DUP5 JUMP JUMPDEST PUSH1 0x40 DUP1 MLOAD SWAP5 DUP6 MSTORE PUSH1 0x1 PUSH1 0x1 PUSH1 0xA0 SHL SUB SWAP1 SWAP4 AND PUSH1 0x20 DUP6 ADD MSTORE SWAP2 DUP4 ADD MSTORE PUSH1 0x60 DUP3 ADD MSTORE PUSH1 0x80 ADD PUSH2 0x160 JUMP JUMPDEST CALLVALUE DUP1 ISZERO PUSH2 0x204 JUMPI PUSH0 DUP1 REVERT JUMPDEST POP PUSH2 0x105 PUSH2 0x213 CALLDATASIZE PUSH1 0x4 PUSH2 0x2790 JUMP JUMPDEST PUSH2 0xE56 JUMP JUMPDEST PUSH2 0x22B PUSH2 0x226 CALLDATASIZE PUSH1 0x4 PUSH2 0x2890 JUMP JUMPDEST PUSH2 0x104B JUMP JUMPDEST PUSH1 0x40 MLOAD PUSH2 0x160 SWAP2 SWAP1 PUSH2 0x28FF JUMP JUMPDEST CALLVALUE DUP1 ISZERO PUSH2 0x243 JUMPI PUSH0 DUP1 REVERT JUMPDEST POP PUSH1 0x22 SLOAD PUSH2 0x257 SWAP1 PUSH1 0x1 PUSH1 0x1 PUSH1 0xA0 SHL SUB AND DUP2 JUMP JUMPDEST PUSH1 0x40 MLOAD PUSH1 0x1 PUSH1 0x1 PUSH1 0xA0 SHL SUB SWAP1 SWAP2 AND DUP2 MSTORE PUSH1 0x20 ADD PUSH2 0x160 JUMP JUMPDEST CALLVALUE DUP1 ISZERO PUSH2 0x27A JUMPI PUSH0 DUP1 REVERT JUMPDEST POP PUSH2 0x301 PUSH2 0x289 CALLDATASIZE PUSH1 0x4 PUSH2 0x261A JUMP JUMPDEST PUSH0 SWAP1 DUP2 MSTORE PUSH1 0x1E PUSH1 0x20 SWAP1 DUP2 MSTORE PUSH1 0x40 SWAP2 DUP3 SWAP1 KECCAK256 DUP3 MLOAD PUSH1 0xC0 DUP2 ADD DUP5 MSTORE DUP2 SLOAD PUSH1 0x1 PUSH1 0x1 PUSH1 0xA0 SHL SUB AND DUP1 DUP3 MSTORE PUSH1 0x1 DUP4 ADD SLOAD SWAP4 DUP3 ADD DUP5 SWAP1 MSTORE PUSH1 0x2 DUP4 ADD SLOAD SWAP5 DUP3 ADD DUP6 SWAP1 MSTORE PUSH1 0x3 DUP4 ADD SLOAD PUSH1 0x60 DUP4 ADD DUP2 SWAP1 MSTORE PUSH1 0x4 SWAP1 SWAP4 ADD SLOAD PUSH1 0xFF DUP1 DUP3 AND ISZERO ISZERO PUSH1 0x80 DUP6 ADD DUP2 SWAP1 MSTORE PUSH2 0x100 SWAP1 SWAP3 DIV AND ISZERO ISZERO PUSH1 0xA0 SWAP1 SWAP4 ADD DUP4 SWAP1 MSTORE SWAP1 SWAP6 SWAP4 SWAP5 SWAP4 SWAP1 SWAP2 SWAP1 JUMP JUMPDEST PUSH1 0x40 DUP1 MLOAD PUSH1 0x1 PUSH1 0x1 PUSH1 0xA0 SHL SUB SWAP1 SWAP8 AND DUP8 MSTORE PUSH1 0x20 DUP8 ADD SWAP6 SWAP1 SWAP6 MSTORE SWAP4 DUP6 ADD SWAP3 SWAP1 SWAP3 MSTORE PUSH1 0x60 DUP5 ADD MSTORE ISZERO ISZERO PUSH1 0x80 DUP4 ADD MSTORE ISZERO ISZERO PUSH1 0xA0 DUP3 ADD MSTORE PUSH1 0xC0 ADD PUSH2 0x160 JUMP JUMPDEST CALLVALUE DUP1 ISZERO PUSH2 0x347 JUMPI PUSH0 DUP1 REVERT JUMPDEST POP PUSH2 0x105 PUSH2 0x356 CALLDATASIZE PUSH1 0x4 PUSH2 0x2942 JUMP JUMPDEST PUSH2 0x1298 JUMP JUMPDEST CALLVALUE DUP1 ISZERO PUSH2 0x366 JUMPI PUSH0 DUP1 REVERT JUMPDEST POP PUSH2 0x370 PUSH2 0xE10 DUP2 JUMP JUMPDEST PUSH1 0x40 MLOAD SWAP1 DUP2 MSTORE PUSH1 0x20 ADD PUSH2 0x160 JUMP JUMPDEST CALLVALUE DUP1 ISZERO PUSH2 0x389 JUMPI PUSH0 DUP1 REVERT JUMPDEST POP PUSH2 0x154 PUSH2 0x398 CALLDATASIZE PUSH1 0x4 PUSH2 0x261A JUMP JUMPDEST PUSH0 SWAP1 DUP2 MSTORE PUSH1 0x1F PUSH1 0x20 MSTORE PUSH1 0x40 SWAP1 KECCAK256 SLOAD PUSH1 0xFF AND SWAP1 JUMP JUMPDEST CALLVALUE DUP1 ISZERO PUSH2 0x3B7 JUMPI PUSH0 DUP1 REVERT JUMPDEST POP PUSH1 0x21 SLOAD PUSH2 0x370 JUMP JUMPDEST CALLVALUE DUP1 ISZERO PUSH2 0x3CB JUMPI PUSH0 DUP1 REVERT JUMPDEST POP PUSH2 0x301 PUSH2 0x3DA CALLDATASIZE PUSH1 0x4 PUSH2 0x261A JUMP JUMPDEST PUSH1 0x1E PUSH1 0x20 MSTORE PUSH0 SWAP1 DUP2 MSTORE PUSH1 0x40 SWAP1 KECCAK256 DUP1 SLOAD PUSH1 0x1 DUP3 ADD SLOAD PUSH1 0x2 DUP4 ADD SLOAD PUSH1 0x3 DUP5 ADD SLOAD PUSH1 0x4 SWAP1 SWAP5 ADD SLOAD PUSH1 0x1 PUSH1 0x1 PUSH1 0xA0 SHL SUB SWAP1 SWAP4 AND SWAP4 SWAP2 SWAP3 SWAP1 SWAP2 SWAP1 PUSH1 0xFF DUP1 DUP3 AND SWAP2 PUSH2 0x100 SWAP1 DIV AND DUP7 JUMP JUMPDEST CALLVALUE DUP1 ISZERO PUSH2 0x429 JUMPI PUSH0 DUP1 REVERT JUMPDEST POP PUSH2 0x370 PUSH2 0x438 CALLDATASIZE PUSH1 0x4 PUSH2 0x261A JUMP JUMPDEST PUSH2 0x1834 JUMP JUMPDEST PUSH0 CALLVALUE GT PUSH2 0x481 JUMPI PUSH1 0x40 MLOAD PUSH3 0x461BCD PUSH1 0xE5 SHL DUP2 MSTORE PUSH1 0x20 PUSH1 0x4 DUP3 ADD MSTORE PUSH1 0xD PUSH1 0x24 DUP3 ADD MSTORE PUSH13 0x9AEAE6E840E6CADCC8408AA89 PUSH1 0x9B SHL PUSH1 0x44 DUP3 ADD MSTORE PUSH1 0x64 ADD JUMPDEST PUSH1 0x40 MLOAD DUP1 SWAP2 SUB SWAP1 REVERT JUMPDEST PUSH2 0x48A CALLVALUE PUSH2 0x1853 JUMP JUMPDEST PUSH2 0x4CD JUMPI PUSH1 0x40 MLOAD PUSH3 0x461BCD PUSH1 0xE5 SHL DUP2 MSTORE PUSH1 0x20 PUSH1 0x4 DUP3 ADD MSTORE PUSH1 0x14 PUSH1 0x24 DUP3 ADD MSTORE PUSH20 0x24B73B30B634B2103232B737B6B4B730BA34B7B7 PUSH1 0x61 SHL PUSH1 0x44 DUP3 ADD MSTORE PUSH1 0x64 ADD PUSH2 0x478 JUMP JUMPDEST PUSH1 0x21 SLOAD PUSH1 0x40 MLOAD PUSH12 0xFFFFFFFFFFFFFFFFFFFFFFFF NOT CALLER PUSH1 0x60 SHL AND PUSH1 0x20 DUP3 ADD MSTORE PUSH1 0x34 DUP2 ADD DUP4 SWAP1 MSTORE NUMBER PUSH1 0x54 DUP3 ADD MSTORE PUSH1 0x74 DUP2 ADD SWAP2 SWAP1 SWAP2 MSTORE PUSH0 SWAP1 PUSH1 0x94 ADD PUSH1 0x40 DUP1 MLOAD PUSH1 0x1F NOT DUP2 DUP5 SUB ADD DUP2 MSTORE SWAP2 DUP2 MSTORE DUP2 MLOAD PUSH1 0x20 SWAP3 DUP4 ADD KECCAK256 PUSH0 DUP2 DUP2 MSTORE PUSH1 0x1E SWAP1 SWAP4 MSTORE SWAP2 KECCAK256 PUSH1 0x1 ADD SLOAD SWAP1 SWAP2 POP ISZERO PUSH2 0x570 JUMPI PUSH1 0x40 MLOAD PUSH3 0x461BCD PUSH1 0xE5 SHL DUP2 MSTORE PUSH1 0x20 PUSH1 0x4 DUP3 ADD MSTORE PUSH1 0x11 PUSH1 0x24 DUP3 ADD MSTORE PUSH17 0x213AB9371024A21031B7B63634B9B4B7B7 PUSH1 0x79 SHL PUSH1 0x44 DUP3 ADD MSTORE PUSH1 0x64 ADD PUSH2 0x478 JUMP JUMPDEST PUSH1 0x40 DUP1 MLOAD PUSH1 0xC0 DUP2 ADD DUP3 MSTORE CALLER DUP2 MSTORE CALLVALUE PUSH1 0x20 DUP3 ADD MSTORE SWAP1 DUP2 ADD DUP4 SWAP1 MSTORE PUSH1 0x60 DUP2 ADD PUSH2 0x599 PUSH2 0xE10 TIMESTAMP PUSH2 0x29B6 JUMP JUMPDEST DUP2 MSTORE PUSH0 PUSH1 0x20 DUP1 DUP4 ADD DUP3 SWAP1 MSTORE PUSH1 0x40 SWAP3 DUP4 ADD DUP3 SWAP1 MSTORE DUP5 DUP3 MSTORE PUSH1 0x1E DUP2 MSTORE SWAP1 DUP3 SWAP1 KECCAK256 DUP4 MLOAD DUP2 SLOAD PUSH1 0x1 PUSH1 0x1 PUSH1 0xA0 SHL SUB NOT AND PUSH1 0x1 PUSH1 0x1 PUSH1 0xA0 SHL SUB SWAP1 SWAP2 AND OR DUP2 SSTORE DUP4 DUP3 ADD MLOAD PUSH1 0x1 DUP1 DUP4 ADD SWAP2 SWAP1 SWAP2 SSTORE DUP5 DUP5 ADD MLOAD PUSH1 0x2 DUP4 ADD SSTORE PUSH1 0x60 DUP1 DUP7 ADD MLOAD PUSH1 0x3 DUP5 ADD SWAP1 DUP2 SSTORE PUSH1 0x80 DUP8 ADD MLOAD PUSH1 0x4 SWAP1 SWAP5 ADD DUP1 SLOAD PUSH1 0xA0 SWAP1 SWAP9 ADD MLOAD PUSH2 0xFFFF NOT SWAP1 SWAP9 AND SWAP5 ISZERO ISZERO PUSH2 0xFF00 NOT AND SWAP5 SWAP1 SWAP5 OR PUSH2 0x100 SWAP8 ISZERO ISZERO SWAP8 SWAP1 SWAP8 MUL SWAP7 SWAP1 SWAP7 OR SWAP1 SWAP3 SSTORE PUSH1 0x21 DUP1 SLOAD SWAP2 DUP3 ADD SWAP1 SSTORE PUSH32 0x3A6357012C1A3AE0A17D304C9920310382D968EBCC4B1771F41C6B304205B570 ADD DUP6 SWAP1 SSTORE SWAP3 SLOAD DUP3 MLOAD CALLVALUE DUP2 MSTORE SWAP2 DUP3 ADD DUP7 SWAP1 MSTORE SWAP2 DUP2 ADD SWAP2 SWAP1 SWAP2 MSTORE CALLER SWAP2 DUP4 SWAP2 PUSH32 0x7E9D822FF51EDCFBF08DD4B4E06A1E5411885E31301814D43927DA403341D58D SWAP2 ADD PUSH1 0x40 MLOAD DUP1 SWAP2 SUB SWAP1 LOG3 POP POP JUMP JUMPDEST PUSH0 DUP6 DUP2 MSTORE PUSH1 0x1E PUSH1 0x20 MSTORE PUSH1 0x40 SWAP1 KECCAK256 PUSH1 0x1 DUP2 ADD SLOAD PUSH2 0x6F0 JUMPI PUSH1 0x40 MLOAD PUSH3 0x461BCD PUSH1 0xE5 SHL DUP2 MSTORE PUSH1 0x20 PUSH1 0x4 DUP3 ADD MSTORE PUSH1 0xE PUSH1 0x24 DUP3 ADD MSTORE PUSH14 0x109D5C9B881B9BDD08199BDD5B99 PUSH1 0x92 SHL PUSH1 0x44 DUP3 ADD MSTORE PUSH1 0x64 ADD PUSH2 0x478 JUMP JUMPDEST DUP1 SLOAD PUSH1 0x1 PUSH1 0x1 PUSH1 0xA0 SHL SUB AND CALLER EQ PUSH2 0x73A JUMPI PUSH1 0x40 MLOAD PUSH3 0x461BCD PUSH1 0xE5 SHL DUP2 MSTORE PUSH1 0x20 PUSH1 0x4 DUP3 ADD MSTORE PUSH1 0xE PUSH1 0x24 DUP3 ADD MSTORE PUSH14 0x2737BA103A34329039B2B73232B9 PUSH1 0x91 SHL PUSH1 0x44 DUP3 ADD MSTORE PUSH1 0x64 ADD PUSH2 0x478 JUMP JUMPDEST DUP1 PUSH1 0x3 ADD SLOAD TIMESTAMP GT PUSH2 0x785 JUMPI PUSH1 0x40 MLOAD PUSH3 0x461BCD PUSH1 0xE5 SHL DUP2 MSTORE PUSH1 0x20 PUSH1 0x4 DUP3 ADD MSTORE PUSH1 0x15 PUSH1 0x24 DUP3 ADD MSTORE PUSH21 0x151A5B59481B1BD8DAC81B9BDD08195E1C1A5C9959 PUSH1 0x5A SHL PUSH1 0x44 DUP3 ADD MSTORE PUSH1 0x64 ADD PUSH2 0x478 JUMP JUMPDEST PUSH1 0x4 DUP2 ADD SLOAD PUSH1 0xFF AND ISZERO PUSH2 0x7CD JUMPI PUSH1 0x40 MLOAD PUSH3 0x461BCD PUSH1 0xE5 SHL DUP2 MSTORE PUSH1 0x20 PUSH1 0x4 DUP3 ADD MSTORE PUSH1 0x10 PUSH1 0x24 DUP3 ADD MSTORE PUSH16 0x105B1C9958591E481C995919595B5959 PUSH1 0x82 SHL PUSH1 0x44 DUP3 ADD MSTORE PUSH1 0x64 ADD PUSH2 0x478 JUMP JUMPDEST PUSH1 0x4 DUP2 ADD SLOAD PUSH2 0x100 SWAP1 DIV PUSH1 0xFF AND ISZERO PUSH2 0x819 JUMPI PUSH1 0x40 MLOAD PUSH3 0x461BCD PUSH1 0xE5 SHL DUP2 MSTORE PUSH1 0x20 PUSH1 0x4 DUP3 ADD MSTORE PUSH1 0xF PUSH1 0x24 DUP3 ADD MSTORE PUSH15 0x105B1C9958591E4818DB185A5B5959 PUSH1 0x8A SHL PUSH1 0x44 DUP3 ADD MSTORE PUSH1 0x64 ADD PUSH2 0x478 JUMP JUMPDEST PUSH1 0x40 DUP1 MLOAD PUSH1 0xA0 DUP1 DUP3 ADD DUP4 MSTORE DUP7 MLOAD PUSH1 0x60 DUP4 ADD SWAP1 DUP2 MSTORE PUSH1 0x20 DUP1 DUP10 ADD MLOAD PUSH1 0x80 DUP1 DUP7 ADD SWAP2 SWAP1 SWAP2 MSTORE SWAP2 DUP5 MSTORE DUP5 MLOAD DUP1 DUP7 ADD DUP7 MSTORE DUP9 MLOAD DUP2 MSTORE DUP9 DUP3 ADD MLOAD DUP2 DUP4 ADD MSTORE DUP2 DUP6 ADD MSTORE DUP5 MLOAD DUP1 DUP7 ADD DUP7 MSTORE DUP8 MLOAD DUP2 MSTORE DUP8 DUP3 ADD MLOAD DUP2 DUP4 ADD MSTORE DUP5 DUP7 ADD MSTORE DUP5 MLOAD PUSH1 0x4 DUP1 DUP3 MSTORE SWAP4 DUP2 ADD SWAP1 SWAP6 MSTORE SWAP3 SWAP4 PUSH0 SWAP4 SWAP1 SWAP3 SWAP2 SWAP1 DUP4 ADD SWAP1 DUP1 CALLDATASIZE DUP4 CALLDATACOPY ADD SWAP1 POP POP SWAP1 POP CALLER PUSH1 0x1 PUSH1 0x1 PUSH1 0xA0 SHL SUB AND DUP2 PUSH0 DUP2 MLOAD DUP2 LT PUSH2 0x8AB JUMPI PUSH2 0x8AB PUSH2 0x29C9 JUMP JUMPDEST PUSH1 0x20 MUL PUSH1 0x20 ADD ADD DUP2 DUP2 MSTORE POP POP DUP7 PUSH0 SHR DUP2 PUSH1 0x1 DUP2 MLOAD DUP2 LT PUSH2 0x8CD JUMPI PUSH2 0x8CD PUSH2 0x29C9 JUMP JUMPDEST PUSH1 0x20 MUL PUSH1 0x20 ADD ADD DUP2 DUP2 MSTORE POP POP DUP3 PUSH1 0x1 ADD SLOAD DUP2 PUSH1 0x2 DUP2 MLOAD DUP2 LT PUSH2 0x8F1 JUMPI PUSH2 0x8F1 PUSH2 0x29C9 JUMP JUMPDEST PUSH1 0x20 MUL PUSH1 0x20 ADD ADD DUP2 DUP2 MSTORE POP POP DUP3 PUSH1 0x2 ADD SLOAD PUSH0 SHR DUP2 PUSH1 0x3 DUP2 MLOAD DUP2 LT PUSH2 0x917 JUMPI PUSH2 0x917 PUSH2 0x29C9 JUMP JUMPDEST PUSH1 0x20 SWAP1 DUP2 MUL SWAP2 SWAP1 SWAP2 ADD DUP2 ADD SWAP2 SWAP1 SWAP2 MSTORE PUSH1 0x40 DUP1 MLOAD PUSH1 0xE0 DUP2 ADD DUP3 MSTORE PUSH1 0xF DUP1 SLOAD PUSH1 0xA0 DUP4 ADD SWAP1 DUP2 MSTORE PUSH1 0x10 SLOAD PUSH1 0xC0 DUP5 ADD MSTORE DUP3 MSTORE DUP3 MLOAD PUSH1 0x80 DUP2 ADD DUP1 DUP6 MSTORE PUSH2 0xB29 SWAP6 SWAP4 SWAP5 SWAP3 SWAP4 DUP6 ADD SWAP3 PUSH1 0x11 SWAP2 DUP4 SWAP2 DUP3 ADD SWAP1 DUP4 SWAP1 PUSH1 0x2 SWAP1 DUP3 DUP5 JUMPDEST DUP2 SLOAD DUP2 MSTORE PUSH1 0x20 ADD SWAP1 PUSH1 0x1 ADD SWAP1 DUP1 DUP4 GT PUSH2 0x969 JUMPI POP POP POP SWAP2 DUP4 MSTORE POP POP PUSH1 0x40 DUP1 MLOAD DUP1 DUP3 ADD SWAP2 DUP3 SWAP1 MSTORE PUSH1 0x20 SWAP1 SWAP3 ADD SWAP2 SWAP1 PUSH1 0x2 DUP5 DUP2 ADD SWAP2 DUP3 DUP5 JUMPDEST DUP2 SLOAD DUP2 MSTORE PUSH1 0x20 ADD SWAP1 PUSH1 0x1 ADD SWAP1 DUP1 DUP4 GT PUSH2 0x99F JUMPI POP POP POP SWAP2 SWAP1 SWAP3 MSTORE POP POP POP DUP2 MSTORE PUSH1 0x40 DUP1 MLOAD PUSH1 0x80 DUP2 ADD DUP1 DUP4 MSTORE PUSH1 0x20 SWAP1 SWAP4 ADD SWAP3 SWAP1 SWAP2 PUSH1 0x6 DUP6 ADD SWAP2 DUP4 SWAP2 DUP3 ADD SWAP1 DUP4 SWAP1 PUSH1 0x2 SWAP1 DUP3 DUP5 JUMPDEST DUP2 SLOAD DUP2 MSTORE PUSH1 0x20 ADD SWAP1 PUSH1 0x1 ADD SWAP1 DUP1 DUP4 GT PUSH2 0x9E3 JUMPI POP POP POP SWAP2 DUP4 MSTORE POP POP PUSH1 0x40 DUP1 MLOAD DUP1 DUP3 ADD SWAP2 DUP3 SWAP1 MSTORE PUSH1 0x20 SWAP1 SWAP3 ADD SWAP2 SWAP1 PUSH1 0x2 DUP5 DUP2 ADD SWAP2 DUP3 DUP5 JUMPDEST DUP2 SLOAD DUP2 MSTORE PUSH1 0x20 ADD SWAP1 PUSH1 0x1 ADD SWAP1 DUP1 DUP4 GT PUSH2 0xA19 JUMPI POP POP POP SWAP2 SWAP1 SWAP3 MSTORE POP POP POP DUP2 MSTORE PUSH1 0x40 DUP1 MLOAD PUSH1 0x80 DUP2 ADD DUP1 DUP4 MSTORE PUSH1 0x20 SWAP1 SWAP4 ADD SWAP3 SWAP1 SWAP2 PUSH1 0xA DUP6 ADD SWAP2 DUP4 SWAP2 DUP3 ADD SWAP1 DUP4 SWAP1 PUSH1 0x2 SWAP1 DUP3 DUP5 JUMPDEST DUP2 SLOAD DUP2 MSTORE PUSH1 0x20 ADD SWAP1 PUSH1 0x1 ADD SWAP1 DUP1 DUP4 GT PUSH2 0xA5D JUMPI POP POP POP SWAP2 DUP4 MSTORE POP POP PUSH1 0x40 DUP1 MLOAD DUP1 DUP3 ADD SWAP2 DUP3 SWAP1 MSTORE PUSH1 0x20 SWAP1 SWAP3 ADD SWAP2 SWAP1 PUSH1 0x2 DUP5 DUP2 ADD SWAP2 DUP3 DUP5 JUMPDEST DUP2 SLOAD DUP2 MSTORE PUSH1 0x20 ADD SWAP1 PUSH1 0x1 ADD SWAP1 DUP1 DUP4 GT PUSH2 0xA93 JUMPI POP POP POP POP POP DUP2 MSTORE POP POP DUP2 MSTORE PUSH1 0x20 ADD PUSH1 0xE DUP3 ADD DUP1 SLOAD DUP1 PUSH1 0x20 MUL PUSH1 0x20 ADD PUSH1 0x40 MLOAD SWAP1 DUP2 ADD PUSH1 0x40 MSTORE DUP1 SWAP3 SWAP2 SWAP1 DUP2 DUP2 MSTORE PUSH1 0x20 ADD PUSH0 SWAP1 JUMPDEST DUP3 DUP3 LT ISZERO PUSH2 0xB1A JUMPI DUP4 DUP3 SWAP1 PUSH0 MSTORE PUSH1 0x20 PUSH0 KECCAK256 SWAP1 PUSH1 0x2 MUL ADD PUSH1 0x40 MLOAD DUP1 PUSH1 0x40 ADD PUSH1 0x40 MSTORE SWAP1 DUP2 PUSH0 DUP3 ADD SLOAD DUP2 MSTORE PUSH1 0x20 ADD PUSH1 0x1 DUP3 ADD SLOAD DUP2 MSTORE POP POP DUP2 MSTORE PUSH1 0x20 ADD SWAP1 PUSH1 0x1 ADD SWAP1 PUSH2 0xAD7 JUMP JUMPDEST POP POP POP POP DUP2 MSTORE POP POP DUP4 DUP4 PUSH2 0x18BA JUMP JUMPDEST PUSH2 0xB6F JUMPI PUSH1 0x40 MLOAD PUSH3 0x461BCD PUSH1 0xE5 SHL DUP2 MSTORE PUSH1 0x20 PUSH1 0x4 DUP3 ADD MSTORE PUSH1 0x17 PUSH1 0x24 DUP3 ADD MSTORE PUSH23 0x1692D4081D995C9A599A58D85D1A5BDB8819985A5B1959 PUSH1 0x4A SHL PUSH1 0x44 DUP3 ADD MSTORE PUSH1 0x64 ADD PUSH2 0x478 JUMP JUMPDEST PUSH1 0x4 DUP4 ADD DUP1 SLOAD PUSH1 0xFF NOT AND PUSH1 0x1 SWAP1 DUP2 OR SWAP1 SWAP2 SSTORE DUP4 ADD SLOAD PUSH1 0x40 MLOAD PUSH0 SWAP2 CALLER SWAP2 DUP4 DUP2 DUP2 DUP2 DUP6 DUP8 GAS CALL SWAP3 POP POP POP RETURNDATASIZE DUP1 PUSH0 DUP2 EQ PUSH2 0xBC1 JUMPI PUSH1 0x40 MLOAD SWAP2 POP PUSH1 0x1F NOT PUSH1 0x3F RETURNDATASIZE ADD AND DUP3 ADD PUSH1 0x40 MSTORE RETURNDATASIZE DUP3 MSTORE RETURNDATASIZE PUSH0 PUSH1 0x20 DUP5 ADD RETURNDATACOPY PUSH2 0xBC6 JUMP JUMPDEST PUSH1 0x60 SWAP2 POP JUMPDEST POP POP SWAP1 POP DUP1 PUSH2 0xC09 JUMPI PUSH1 0x40 MLOAD PUSH3 0x461BCD PUSH1 0xE5 SHL DUP2 MSTORE PUSH1 0x20 PUSH1 0x4 DUP3 ADD MSTORE PUSH1 0xF PUSH1 0x24 DUP3 ADD MSTORE PUSH15 0x151C985B9CD9995C8819985A5B1959 PUSH1 0x8A SHL PUSH1 0x44 DUP3 ADD MSTORE PUSH1 0x64 ADD PUSH2 0x478 JUMP JUMPDEST CALLER PUSH1 0x1 PUSH1 0x1 PUSH1 0xA0 SHL SUB AND DUP10 PUSH32 0x61D905E697374527439F5C64F060AE521E3B586E8F61EF3F160057E7150E153E DUP7 PUSH1 0x1 ADD SLOAD PUSH1 0x40 MLOAD PUSH2 0xC49 SWAP2 DUP2 MSTORE PUSH1 0x20 ADD SWAP1 JUMP JUMPDEST PUSH1 0x40 MLOAD DUP1 SWAP2 SUB SWAP1 LOG3 POP POP POP POP POP POP POP POP POP JUMP JUMPDEST PUSH1 0x22 SLOAD PUSH1 0x1 PUSH1 0x1 PUSH1 0xA0 SHL SUB AND CALLER EQ PUSH2 0xCA3 JUMPI PUSH1 0x40 MLOAD PUSH3 0x461BCD PUSH1 0xE5 SHL DUP2 MSTORE PUSH1 0x20 PUSH1 0x4 DUP3 ADD MSTORE PUSH1 0xA PUSH1 0x24 DUP3 ADD MSTORE PUSH10 0x27B7363C9037BBB732B9 PUSH1 0xB1 SHL PUSH1 0x44 DUP3 ADD MSTORE PUSH1 0x64 ADD PUSH2 0x478 JUMP JUMPDEST PUSH1 0x40 DUP1 MLOAD DUP1 DUP3 ADD DUP3 MSTORE DUP7 MLOAD DUP1 DUP3 MSTORE PUSH1 0x20 DUP1 DUP10 ADD MLOAD SWAP3 DUP2 ADD DUP4 SWAP1 MSTORE PUSH0 SWAP2 SWAP1 SWAP2 SSTORE PUSH1 0x1 SWAP2 SWAP1 SWAP2 SSTORE DUP2 MLOAD DUP1 DUP4 ADD SWAP1 SWAP3 MSTORE DUP6 MLOAD DUP1 DUP4 MSTORE DUP7 DUP3 ADD MLOAD SWAP2 DUP4 ADD SWAP2 SWAP1 SWAP2 MSTORE PUSH1 0x2 SWAP1 PUSH2 0xCEF SWAP1 DUP3 SWAP1 DUP2 PUSH2 0x24D2 JUMP JUMPDEST POP PUSH1 0x20 DUP3 ADD MLOAD PUSH2 0xD05 SWAP1 PUSH1 0x2 DUP1 DUP5 ADD SWAP2 SWAP1 PUSH2 0x24D2 JUMP JUMPDEST POP POP PUSH1 0x40 DUP1 MLOAD DUP1 DUP3 ADD SWAP1 SWAP2 MSTORE DUP5 MLOAD DUP1 DUP3 MSTORE PUSH1 0x20 DUP1 DUP8 ADD MLOAD SWAP1 DUP4 ADD MSTORE SWAP1 SWAP2 POP PUSH1 0x6 SWAP1 PUSH2 0xD33 SWAP1 DUP3 SWAP1 PUSH1 0x2 PUSH2 0x24D2 JUMP JUMPDEST POP PUSH1 0x20 DUP3 ADD MLOAD PUSH2 0xD49 SWAP1 PUSH1 0x2 DUP1 DUP5 ADD SWAP2 SWAP1 PUSH2 0x24D2 JUMP JUMPDEST POP POP PUSH1 0x40 DUP1 MLOAD DUP1 DUP3 ADD SWAP1 SWAP2 MSTORE DUP4 MLOAD DUP1 DUP3 MSTORE PUSH1 0x20 DUP1 DUP7 ADD MLOAD SWAP1 DUP4 ADD MSTORE SWAP1 SWAP2 POP PUSH1 0xA SWAP1 PUSH2 0xD77 SWAP1 DUP3 SWAP1 PUSH1 0x2 PUSH2 0x24D2 JUMP JUMPDEST POP PUSH1 0x20 DUP3 ADD MLOAD PUSH2 0xD8D SWAP1 PUSH1 0x2 DUP1 DUP5 ADD SWAP2 SWAP1 PUSH2 0x24D2 JUMP JUMPDEST POP PUSH2 0xD9D SWAP2 POP PUSH1 0xE SWAP1 POP PUSH0 PUSH2 0x2510 JUMP JUMPDEST PUSH0 JUMPDEST DUP2 MLOAD DUP2 LT ISZERO PUSH2 0xE4E JUMPI PUSH0 PUSH1 0xE ADD PUSH1 0x40 MLOAD DUP1 PUSH1 0x40 ADD PUSH1 0x40 MSTORE DUP1 DUP5 DUP5 DUP2 MLOAD DUP2 LT PUSH2 0xDC9 JUMPI PUSH2 0xDC9 PUSH2 0x29C9 JUMP JUMPDEST PUSH1 0x20 MUL PUSH1 0x20 ADD ADD MLOAD PUSH0 PUSH1 0x2 DUP2 LT PUSH2 0xDE2 JUMPI PUSH2 0xDE2 PUSH2 0x29C9 JUMP JUMPDEST PUSH1 0x20 MUL ADD MLOAD DUP2 MSTORE PUSH1 0x20 ADD DUP5 DUP5 DUP2 MLOAD DUP2 LT PUSH2 0xDFE JUMPI PUSH2 0xDFE PUSH2 0x29C9 JUMP JUMPDEST PUSH1 0x20 MUL PUSH1 0x20 ADD ADD MLOAD PUSH1 0x1 PUSH1 0x2 DUP2 LT PUSH2 0xE18 JUMPI PUSH2 0xE18 PUSH2 0x29C9 JUMP JUMPDEST PUSH1 0x20 SWAP1 DUP2 MUL SWAP2 SWAP1 SWAP2 ADD MLOAD SWAP1 SWAP2 MSTORE DUP3 SLOAD PUSH1 0x1 DUP2 DUP2 ADD DUP6 SSTORE PUSH0 SWAP5 DUP6 MSTORE SWAP4 DUP3 SWAP1 KECCAK256 DUP4 MLOAD PUSH1 0x2 SWAP1 SWAP3 MUL ADD SWAP1 DUP2 SSTORE SWAP2 ADD MLOAD SWAP1 DUP3 ADD SSTORE ADD PUSH2 0xD9F JUMP JUMPDEST POP POP POP POP POP POP JUMP JUMPDEST PUSH1 0x22 SLOAD PUSH1 0x1 PUSH1 0x1 PUSH1 0xA0 SHL SUB AND CALLER EQ PUSH2 0xE9D JUMPI PUSH1 0x40 MLOAD PUSH3 0x461BCD PUSH1 0xE5 SHL DUP2 MSTORE PUSH1 0x20 PUSH1 0x4 DUP3 ADD MSTORE PUSH1 0xA PUSH1 0x24 DUP3 ADD MSTORE PUSH10 0x27B7363C9037BBB732B9 PUSH1 0xB1 SHL PUSH1 0x44 DUP3 ADD MSTORE PUSH1 0x64 ADD PUSH2 0x478 JUMP JUMPDEST PUSH1 0x40 DUP1 MLOAD DUP1 DUP3 ADD DUP3 MSTORE DUP7 MLOAD DUP1 DUP3 MSTORE PUSH1 0x20 DUP1 DUP10 ADD MLOAD SWAP3 DUP2 ADD DUP4 SWAP1 MSTORE PUSH1 0xF SWAP2 SWAP1 SWAP2 SSTORE PUSH1 0x10 SWAP2 SWAP1 SWAP2 SSTORE DUP2 MLOAD DUP1 DUP4 ADD SWAP1 SWAP3 MSTORE DUP6 MLOAD DUP1 DUP4 MSTORE DUP7 DUP3 ADD MLOAD SWAP2 DUP4 ADD SWAP2 SWAP1 SWAP2 MSTORE PUSH1 0x11 SWAP1 PUSH2 0xEEB SWAP1 DUP3 SWAP1 PUSH1 0x2 PUSH2 0x24D2 JUMP JUMPDEST POP PUSH1 0x20 DUP3 ADD MLOAD PUSH2 0xF01 SWAP1 PUSH1 0x2 DUP1 DUP5 ADD SWAP2 SWAP1 PUSH2 0x24D2 JUMP JUMPDEST POP POP PUSH1 0x40 DUP1 MLOAD DUP1 DUP3 ADD SWAP1 SWAP2 MSTORE DUP5 MLOAD DUP1 DUP3 MSTORE PUSH1 0x20 DUP1 DUP8 ADD MLOAD SWAP1 DUP4 ADD MSTORE SWAP1 SWAP2 POP PUSH1 0x15 SWAP1 PUSH2 0xF2F SWAP1 DUP3 SWAP1 PUSH1 0x2 PUSH2 0x24D2 JUMP JUMPDEST POP PUSH1 0x20 DUP3 ADD MLOAD PUSH2 0xF45 SWAP1 PUSH1 0x2 DUP1 DUP5 ADD SWAP2 SWAP1 PUSH2 0x24D2 JUMP JUMPDEST POP POP PUSH1 0x40 DUP1 MLOAD DUP1 DUP3 ADD SWAP1 SWAP2 MSTORE DUP4 MLOAD DUP1 DUP3 MSTORE PUSH1 0x20 DUP1 DUP7 ADD MLOAD SWAP1 DUP4 ADD MSTORE SWAP1 SWAP2 POP PUSH1 0x19 SWAP1 PUSH2 0xF73 SWAP1 DUP3 SWAP1 PUSH1 0x2 PUSH2 0x24D2 JUMP JUMPDEST POP PUSH1 0x20 DUP3 ADD MLOAD PUSH2 0xF89 SWAP1 PUSH1 0x2 DUP1 DUP5 ADD SWAP2 SWAP1 PUSH2 0x24D2 JUMP JUMPDEST POP PUSH2 0xF99 SWAP2 POP PUSH1 0x1D SWAP1 POP PUSH0 PUSH2 0x2510 JUMP JUMPDEST PUSH0 JUMPDEST DUP2 MLOAD DUP2 LT ISZERO PUSH2 0xE4E JUMPI PUSH1 0xF PUSH1 0xE ADD PUSH1 0x40 MLOAD DUP1 PUSH1 0x40 ADD PUSH1 0x40 MSTORE DUP1 DUP5 DUP5 DUP2 MLOAD DUP2 LT PUSH2 0xFC6 JUMPI PUSH2 0xFC6 PUSH2 0x29C9 JUMP JUMPDEST PUSH1 0x20 MUL PUSH1 0x20 ADD ADD MLOAD PUSH0 PUSH1 0x2 DUP2 LT PUSH2 0xFDF JUMPI PUSH2 0xFDF PUSH2 0x29C9 JUMP JUMPDEST PUSH1 0x20 MUL ADD MLOAD DUP2 MSTORE PUSH1 0x20 ADD DUP5 DUP5 DUP2 MLOAD DUP2 LT PUSH2 0xFFB JUMPI PUSH2 0xFFB PUSH2 0x29C9 JUMP JUMPDEST PUSH1 0x20 MUL PUSH1 0x20 ADD ADD MLOAD PUSH1 0x1 PUSH1 0x2 DUP2 LT PUSH2 0x1015 JUMPI PUSH2 0x1015 PUSH2 0x29C9 JUMP JUMPDEST PUSH1 0x20 SWAP1 DUP2 MUL SWAP2 SWAP1 SWAP2 ADD MLOAD SWAP1 SWAP2 MSTORE DUP3 SLOAD PUSH1 0x1 DUP2 DUP2 ADD DUP6 SSTORE PUSH0 SWAP5 DUP6 MSTORE SWAP4 DUP3 SWAP1 KECCAK256 DUP4 MLOAD PUSH1 0x2 SWAP1 SWAP3 MUL ADD SWAP1 DUP2 SSTORE SWAP2 ADD MLOAD SWAP1 DUP3 ADD SSTORE ADD PUSH2 0xF9B JUMP JUMPDEST PUSH1 0x60 PUSH0 CALLVALUE GT PUSH2 0x108C JUMPI PUSH1 0x40 MLOAD PUSH3 0x461BCD PUSH1 0xE5 SHL DUP2 MSTORE PUSH1 0x20 PUSH1 0x4 DUP3 ADD MSTORE PUSH1 0xD PUSH1 0x24 DUP3 ADD MSTORE PUSH13 0x9AEAE6E840E6CADCC8408AA89 PUSH1 0x9B SHL PUSH1 0x44 DUP3 ADD MSTORE PUSH1 0x64 ADD PUSH2 0x478 JUMP JUMPDEST PUSH0 DUP1 PUSH2 0x1097 CALLVALUE PUSH2 0x1BE4 JUMP JUMPDEST SWAP2 POP SWAP2 POP DUP1 PUSH0 EQ PUSH2 0x1107 JUMPI PUSH1 0x40 MLOAD PUSH3 0x461BCD PUSH1 0xE5 SHL DUP2 MSTORE PUSH1 0x20 PUSH1 0x4 DUP3 ADD MSTORE PUSH1 0x34 PUSH1 0x24 DUP3 ADD MSTORE PUSH32 0x416D6F756E74206E6F74206465636F6D706F7361626C6520696E746F20737570 PUSH1 0x44 DUP3 ADD MSTORE PUSH20 0x706F727465642064656E6F6D696E6174696F6E73 PUSH1 0x60 SHL PUSH1 0x64 DUP3 ADD MSTORE PUSH1 0x84 ADD PUSH2 0x478 JUMP JUMPDEST PUSH0 DUP1 JUMPDEST PUSH1 0x6 DUP2 LT ISZERO PUSH2 0x113E JUMPI DUP4 DUP2 PUSH1 0x6 DUP2 LT PUSH2 0x1125 JUMPI PUSH2 0x1125 PUSH2 0x29C9 JUMP JUMPDEST PUSH1 0x20 MUL ADD MLOAD PUSH2 0x1134 SWAP1 DUP4 PUSH2 0x29B6 JUMP JUMPDEST SWAP2 POP PUSH1 0x1 ADD PUSH2 0x110A JUMP JUMPDEST POP DUP5 DUP2 EQ PUSH2 0x119A JUMPI PUSH1 0x40 MLOAD PUSH3 0x461BCD PUSH1 0xE5 SHL DUP2 MSTORE PUSH1 0x20 PUSH1 0x4 DUP3 ADD MSTORE PUSH1 0x24 DUP1 DUP3 ADD MSTORE PUSH32 0x496E636F7272656374206E756D626572206F66206861736820636F6D6D69746D PUSH1 0x44 DUP3 ADD MSTORE PUSH4 0x656E7473 PUSH1 0xE0 SHL PUSH1 0x64 DUP3 ADD MSTORE PUSH1 0x84 ADD PUSH2 0x478 JUMP JUMPDEST PUSH0 DUP2 PUSH8 0xFFFFFFFFFFFFFFFF DUP2 GT ISZERO PUSH2 0x11B4 JUMPI PUSH2 0x11B4 PUSH2 0x2631 JUMP JUMPDEST PUSH1 0x40 MLOAD SWAP1 DUP1 DUP3 MSTORE DUP1 PUSH1 0x20 MUL PUSH1 0x20 ADD DUP3 ADD PUSH1 0x40 MSTORE DUP1 ISZERO PUSH2 0x11DD JUMPI DUP2 PUSH1 0x20 ADD PUSH1 0x20 DUP3 MUL DUP1 CALLDATASIZE DUP4 CALLDATACOPY ADD SWAP1 POP JUMPDEST POP SWAP1 POP PUSH0 PUSH1 0x6 JUMPDEST DUP1 ISZERO PUSH2 0x1289 JUMPI PUSH0 PUSH2 0x11F6 PUSH1 0x1 DUP4 PUSH2 0x29DD JUMP JUMPDEST SWAP1 POP PUSH0 JUMPDEST DUP8 DUP3 PUSH1 0x6 DUP2 LT PUSH2 0x120C JUMPI PUSH2 0x120C PUSH2 0x29C9 JUMP JUMPDEST PUSH1 0x20 MUL ADD MLOAD DUP2 LT ISZERO PUSH2 0x1274 JUMPI PUSH2 0x1242 DUP12 DUP12 DUP7 DUP2 DUP2 LT PUSH2 0x122D JUMPI PUSH2 0x122D PUSH2 0x29C9 JUMP JUMPDEST SWAP1 POP PUSH1 0x20 MUL ADD CALLDATALOAD PUSH2 0x123D DUP5 PUSH2 0x1D3C JUMP JUMPDEST PUSH2 0x1E0D JUMP JUMPDEST DUP6 DUP6 DUP2 MLOAD DUP2 LT PUSH2 0x1254 JUMPI PUSH2 0x1254 PUSH2 0x29C9 JUMP JUMPDEST PUSH1 0x20 SWAP1 DUP2 MUL SWAP2 SWAP1 SWAP2 ADD ADD MSTORE DUP4 PUSH2 0x1269 DUP2 PUSH2 0x29F0 JUMP JUMPDEST SWAP5 POP POP PUSH1 0x1 ADD PUSH2 0x11FA JUMP JUMPDEST POP POP DUP1 DUP1 PUSH2 0x1281 SWAP1 PUSH2 0x2A08 JUMP JUMPDEST SWAP2 POP POP PUSH2 0x11E4 JUMP JUMPDEST POP SWAP1 SWAP5 POP POP POP POP POP JUMPDEST SWAP3 SWAP2 POP POP JUMP JUMPDEST PUSH0 DUP7 DUP2 MSTORE PUSH1 0x1F PUSH1 0x20 MSTORE PUSH1 0x40 SWAP1 KECCAK256 SLOAD PUSH1 0xFF AND ISZERO PUSH2 0x12F6 JUMPI PUSH1 0x40 MLOAD PUSH3 0x461BCD PUSH1 0xE5 SHL DUP2 MSTORE PUSH1 0x20 PUSH1 0x4 DUP3 ADD MSTORE PUSH1 0x1A PUSH1 0x24 DUP3 ADD MSTORE PUSH32 0x53657269616C206E756D62657220616C72656164792075736564000000000000 PUSH1 0x44 DUP3 ADD MSTORE PUSH1 0x64 ADD PUSH2 0x478 JUMP JUMPDEST PUSH2 0x12FF DUP6 PUSH2 0x1853 JUMP JUMPDEST PUSH2 0x1342 JUMPI PUSH1 0x40 MLOAD PUSH3 0x461BCD PUSH1 0xE5 SHL DUP2 MSTORE PUSH1 0x20 PUSH1 0x4 DUP3 ADD MSTORE PUSH1 0x14 PUSH1 0x24 DUP3 ADD MSTORE PUSH20 0x24B73B30B634B2103232B737B6B4B730BA34B7B7 PUSH1 0x61 SHL PUSH1 0x44 DUP3 ADD MSTORE PUSH1 0x64 ADD PUSH2 0x478 JUMP JUMPDEST DUP5 SELFBALANCE LT ISZERO PUSH2 0x1392 JUMPI PUSH1 0x40 MLOAD PUSH3 0x461BCD PUSH1 0xE5 SHL DUP2 MSTORE PUSH1 0x20 PUSH1 0x4 DUP3 ADD MSTORE PUSH1 0x1D PUSH1 0x24 DUP3 ADD MSTORE PUSH32 0x496E73756666696369656E7420636F6E74726163742062616C616E6365000000 PUSH1 0x44 DUP3 ADD MSTORE PUSH1 0x64 ADD PUSH2 0x478 JUMP JUMPDEST PUSH1 0x40 DUP1 MLOAD PUSH1 0xA0 DUP1 DUP3 ADD DUP4 MSTORE DUP6 MLOAD PUSH1 0x60 DUP4 ADD SWAP1 DUP2 MSTORE PUSH1 0x20 DUP1 DUP9 ADD MLOAD PUSH1 0x80 DUP1 DUP7 ADD SWAP2 SWAP1 SWAP2 MSTORE SWAP2 DUP5 MSTORE DUP5 MLOAD DUP1 DUP7 ADD DUP7 MSTORE DUP8 MLOAD DUP2 MSTORE DUP8 DUP3 ADD MLOAD DUP2 DUP4 ADD MSTORE DUP2 DUP6 ADD MSTORE DUP5 MLOAD DUP1 DUP7 ADD DUP7 MSTORE DUP7 MLOAD DUP2 MSTORE DUP7 DUP3 ADD MLOAD DUP2 DUP4 ADD MSTORE DUP5 DUP7 ADD MSTORE DUP5 MLOAD PUSH1 0x4 DUP1 DUP3 MSTORE SWAP4 DUP2 ADD SWAP1 SWAP6 MSTORE SWAP3 SWAP4 PUSH0 SWAP4 SWAP1 SWAP3 SWAP2 SWAP1 DUP4 ADD SWAP1 DUP1 CALLDATASIZE DUP4 CALLDATACOPY ADD SWAP1 POP POP SWAP1 POP CALLER PUSH1 0x1 PUSH1 0x1 PUSH1 0xA0 SHL SUB AND DUP2 PUSH0 DUP2 MLOAD DUP2 LT PUSH2 0x1424 JUMPI PUSH2 0x1424 PUSH2 0x29C9 JUMP JUMPDEST PUSH1 0x20 MUL PUSH1 0x20 ADD ADD DUP2 DUP2 MSTORE POP POP DUP8 PUSH0 SHR DUP2 PUSH1 0x1 DUP2 MLOAD DUP2 LT PUSH2 0x1446 JUMPI PUSH2 0x1446 PUSH2 0x29C9 JUMP JUMPDEST PUSH1 0x20 MUL PUSH1 0x20 ADD ADD DUP2 DUP2 MSTORE POP POP DUP7 DUP2 PUSH1 0x2 DUP2 MLOAD DUP2 LT PUSH2 0x1466 JUMPI PUSH2 0x1466 PUSH2 0x29C9 JUMP JUMPDEST PUSH1 0x20 MUL PUSH1 0x20 ADD ADD DUP2 DUP2 MSTORE POP POP DUP6 PUSH0 SHR DUP2 PUSH1 0x3 DUP2 MLOAD DUP2 LT PUSH2 0x1488 JUMPI PUSH2 0x1488 PUSH2 0x29C9 JUMP JUMPDEST PUSH1 0x20 SWAP1 DUP2 MUL SWAP2 SWAP1 SWAP2 ADD DUP2 ADD SWAP2 SWAP1 SWAP2 MSTORE PUSH1 0x40 DUP1 MLOAD PUSH1 0xE0 DUP2 ADD DUP3 MSTORE PUSH0 DUP1 SLOAD PUSH1 0xA0 DUP4 ADD SWAP1 DUP2 MSTORE PUSH1 0x1 SLOAD PUSH1 0xC0 DUP5 ADD MSTORE DUP3 MSTORE DUP3 MLOAD PUSH1 0x80 DUP2 ADD DUP1 DUP6 MSTORE PUSH1 0x2 DUP1 SLOAD SWAP6 DUP4 ADD SWAP6 DUP7 MSTORE PUSH2 0x167A SWAP7 SWAP5 SWAP6 SWAP4 SWAP5 DUP7 ADD SWAP4 SWAP1 SWAP2 DUP4 SWAP2 SWAP1 DUP4 SWAP1 DUP2 SWAP1 PUSH1 0x3 PUSH1 0x60 DUP7 ADD DUP1 DUP4 GT PUSH2 0x969 JUMPI POP POP POP SWAP2 DUP4 MSTORE POP POP PUSH1 0x40 DUP1 MLOAD DUP1 DUP3 ADD SWAP2 DUP3 SWAP1 MSTORE PUSH1 0x2 DUP5 DUP2 ADD DUP1 SLOAD DUP4 MSTORE PUSH1 0x20 SWAP5 DUP6 ADD SWAP5 SWAP3 SWAP4 SWAP1 SWAP3 PUSH1 0x3 DUP8 ADD SWAP1 DUP6 ADD DUP1 DUP4 GT PUSH2 0x99F JUMPI POP POP POP SWAP2 SWAP1 SWAP3 MSTORE POP POP POP DUP2 MSTORE PUSH1 0x40 DUP1 MLOAD PUSH1 0x80 DUP2 ADD DUP1 DUP4 MSTORE PUSH1 0x6 DUP6 ADD DUP1 SLOAD SWAP4 DUP4 ADD SWAP4 DUP5 MSTORE PUSH1 0x20 SWAP1 SWAP5 ADD SWAP4 SWAP2 SWAP3 DUP4 SWAP2 DUP4 SWAP1 PUSH1 0x2 SWAP1 PUSH1 0x7 DUP10 ADD PUSH1 0x60 DUP7 ADD DUP1 DUP4 GT PUSH2 0x9E3 JUMPI POP POP POP SWAP2 DUP4 MSTORE POP POP PUSH1 0x40 DUP1 MLOAD DUP1 DUP3 ADD SWAP2 DUP3 SWAP1 MSTORE PUSH1 0x2 DUP5 DUP2 ADD DUP1 SLOAD DUP4 MSTORE PUSH1 0x20 SWAP5 DUP6 ADD SWAP5 SWAP3 SWAP4 SWAP1 SWAP3 PUSH1 0x3 DUP8 ADD SWAP1 DUP6 ADD DUP1 DUP4 GT PUSH2 0xA19 JUMPI POP POP POP SWAP2 SWAP1 SWAP3 MSTORE POP POP POP DUP2 MSTORE PUSH1 0x40 DUP1 MLOAD PUSH1 0x80 DUP2 ADD DUP1 DUP4 MSTORE PUSH1 0xA DUP6 ADD DUP1 SLOAD SWAP4 DUP4 ADD SWAP4 DUP5 MSTORE PUSH1 0x20 SWAP1 SWAP5 ADD SWAP4 SWAP2 SWAP3 DUP4 SWAP2 DUP4 SWAP1 PUSH1 0x2 SWAP1 PUSH1 0xB DUP10 ADD PUSH1 0x60 DUP7 ADD DUP1 DUP4 GT PUSH2 0xA5D JUMPI POP POP POP SWAP2 DUP4 MSTORE POP POP PUSH1 0x40 DUP1 MLOAD DUP1 DUP3 ADD SWAP2 DUP3 SWAP1 MSTORE PUSH1 0x2 DUP5 DUP2 ADD DUP1 SLOAD DUP4 MSTORE PUSH1 0x20 SWAP5 DUP6 ADD SWAP5 SWAP3 SWAP4 SWAP1 SWAP3 PUSH1 0x3 DUP8 ADD SWAP1 DUP6 ADD DUP1 DUP4 GT PUSH2 0xA93 JUMPI POP POP POP POP POP DUP2 MSTORE POP POP DUP2 MSTORE PUSH1 0x20 ADD PUSH1 0xE DUP3 ADD DUP1 SLOAD DUP1 PUSH1 0x20 MUL PUSH1 0x20 ADD PUSH1 0x40 MLOAD SWAP1 DUP2 ADD PUSH1 0x40 MSTORE DUP1 SWAP3 SWAP2 SWAP1 DUP2 DUP2 MSTORE PUSH1 0x20 ADD PUSH0 SWAP1 DUP3 DUP3 LT ISZERO PUSH2 0xB1A JUMPI DUP4 DUP3 SWAP1 PUSH0 MSTORE PUSH1 0x20 PUSH0 KECCAK256 SWAP1 PUSH1 0x2 MUL ADD PUSH1 0x40 MLOAD DUP1 PUSH1 0x40 ADD PUSH1 0x40 MSTORE SWAP1 DUP2 PUSH0 DUP3 ADD SLOAD DUP2 MSTORE PUSH1 0x20 ADD PUSH1 0x1 DUP3 ADD SLOAD DUP2 MSTORE POP POP DUP2 MSTORE PUSH1 0x20 ADD SWAP1 PUSH1 0x1 ADD SWAP1 PUSH2 0xAD7 JUMP JUMPDEST PUSH2 0x16C0 JUMPI PUSH1 0x40 MLOAD PUSH3 0x461BCD PUSH1 0xE5 SHL DUP2 MSTORE PUSH1 0x20 PUSH1 0x4 DUP3 ADD MSTORE PUSH1 0x17 PUSH1 0x24 DUP3 ADD MSTORE PUSH23 0x1692D4081D995C9A599A58D85D1A5BDB8819985A5B1959 PUSH1 0x4A SHL PUSH1 0x44 DUP3 ADD MSTORE PUSH1 0x64 ADD PUSH2 0x478 JUMP JUMPDEST PUSH1 0x1 PUSH1 0x1F PUSH0 DUP11 DUP2 MSTORE PUSH1 0x20 ADD SWAP1 DUP2 MSTORE PUSH1 0x20 ADD PUSH0 KECCAK256 PUSH0 PUSH2 0x100 EXP DUP2 SLOAD DUP2 PUSH1 0xFF MUL NOT AND SWAP1 DUP4 ISZERO ISZERO MUL OR SWAP1 SSTORE POP PUSH1 0x40 MLOAD DUP1 PUSH1 0x80 ADD PUSH1 0x40 MSTORE DUP1 DUP10 DUP2 MSTORE PUSH1 0x20 ADD CALLER PUSH1 0x1 PUSH1 0x1 PUSH1 0xA0 SHL SUB AND DUP2 MSTORE PUSH1 0x20 ADD DUP9 DUP2 MSTORE PUSH1 0x20 ADD TIMESTAMP DUP2 MSTORE POP PUSH1 0x20 PUSH0 DUP11 DUP2 MSTORE PUSH1 0x20 ADD SWAP1 DUP2 MSTORE PUSH1 0x20 ADD PUSH0 KECCAK256 PUSH0 DUP3 ADD MLOAD DUP2 PUSH0 ADD SSTORE PUSH1 0x20 DUP3 ADD MLOAD DUP2 PUSH1 0x1 ADD PUSH0 PUSH2 0x100 EXP DUP2 SLOAD DUP2 PUSH1 0x1 PUSH1 0x1 PUSH1 0xA0 SHL SUB MUL NOT AND SWAP1 DUP4 PUSH1 0x1 PUSH1 0x1 PUSH1 0xA0 SHL SUB AND MUL OR SWAP1 SSTORE POP PUSH1 0x40 DUP3 ADD MLOAD DUP2 PUSH1 0x2 ADD SSTORE PUSH1 0x60 DUP3 ADD MLOAD DUP2 PUSH1 0x3 ADD SSTORE SWAP1 POP POP PUSH0 CALLER PUSH1 0x1 PUSH1 0x1 PUSH1 0xA0 SHL SUB AND DUP9 PUSH1 0x40 MLOAD PUSH0 PUSH1 0x40 MLOAD DUP1 DUP4 SUB DUP2 DUP6 DUP8 GAS CALL SWAP3 POP POP POP RETURNDATASIZE DUP1 PUSH0 DUP2 EQ PUSH2 0x17B8 JUMPI PUSH1 0x40 MLOAD SWAP2 POP PUSH1 0x1F NOT PUSH1 0x3F RETURNDATASIZE ADD AND DUP3 ADD PUSH1 0x40 MSTORE RETURNDATASIZE DUP3 MSTORE RETURNDATASIZE PUSH0 PUSH1 0x20 DUP5 ADD RETURNDATACOPY PUSH2 0x17BD JUMP JUMPDEST PUSH1 0x60 SWAP2 POP JUMPDEST POP POP SWAP1 POP DUP1 PUSH2 0x1800 JUMPI PUSH1 0x40 MLOAD PUSH3 0x461BCD PUSH1 0xE5 SHL DUP2 MSTORE PUSH1 0x20 PUSH1 0x4 DUP3 ADD MSTORE PUSH1 0xF PUSH1 0x24 DUP3 ADD MSTORE PUSH15 0x151C985B9CD9995C8819985A5B1959 PUSH1 0x8A SHL PUSH1 0x44 DUP3 ADD MSTORE PUSH1 0x64 ADD PUSH2 0x478 JUMP JUMPDEST PUSH1 0x40 MLOAD DUP9 DUP2 MSTORE CALLER SWAP1 DUP11 SWAP1 PUSH32 0x1A49076E0E8C733171C5360D78C9AE8E19FEF5A0720B926E72F78B7CC37618CD SWAP1 PUSH1 0x20 ADD PUSH2 0xC49 JUMP JUMPDEST PUSH1 0x21 DUP2 DUP2 SLOAD DUP2 LT PUSH2 0x1843 JUMPI PUSH0 DUP1 REVERT JUMPDEST PUSH0 SWAP2 DUP3 MSTORE PUSH1 0x20 SWAP1 SWAP2 KECCAK256 ADD SLOAD SWAP1 POP DUP2 JUMP JUMPDEST PUSH0 PUSH7 0x38D7EA4C68000 DUP3 EQ DUP1 PUSH2 0x186F JUMPI POP PUSH7 0x2386F26FC10000 DUP3 EQ JUMPDEST DUP1 PUSH2 0x1881 JUMPI POP PUSH8 0x16345785D8A0000 DUP3 EQ JUMPDEST DUP1 PUSH2 0x1893 JUMPI POP PUSH8 0xDE0B6B3A7640000 DUP3 EQ JUMPDEST DUP1 PUSH2 0x18A5 JUMPI POP PUSH8 0x8AC7230489E80000 DUP3 EQ JUMPDEST DUP1 PUSH2 0x1292 JUMPI POP POP PUSH9 0x56BC75E2D63100000 EQ SWAP1 JUMP JUMPDEST PUSH0 DUP4 PUSH1 0x80 ADD MLOAD MLOAD DUP3 MLOAD PUSH1 0x1 PUSH2 0x18CF SWAP2 SWAP1 PUSH2 0x29B6 JUMP JUMPDEST EQ PUSH2 0x191C JUMPI PUSH1 0x40 MLOAD PUSH3 0x461BCD PUSH1 0xE5 SHL DUP2 MSTORE PUSH1 0x20 PUSH1 0x4 DUP3 ADD MSTORE PUSH1 0x1C PUSH1 0x24 DUP3 ADD MSTORE PUSH32 0x496E76616C6964207075626C696320696E70757473206C656E67746800000000 PUSH1 0x44 DUP3 ADD MSTORE PUSH1 0x64 ADD PUSH2 0x478 JUMP JUMPDEST PUSH0 JUMPDEST DUP3 MLOAD DUP2 LT ISZERO PUSH2 0x19B7 JUMPI PUSH32 0x30644E72E131A029B85045B68181585D2833E84879B9709143E1F593F0000001 DUP4 DUP3 DUP2 MLOAD DUP2 LT PUSH2 0x195A JUMPI PUSH2 0x195A PUSH2 0x29C9 JUMP JUMPDEST PUSH1 0x20 MUL PUSH1 0x20 ADD ADD MLOAD LT PUSH2 0x19AF JUMPI PUSH1 0x40 MLOAD PUSH3 0x461BCD PUSH1 0xE5 SHL DUP2 MSTORE PUSH1 0x20 PUSH1 0x4 DUP3 ADD MSTORE PUSH1 0x1A PUSH1 0x24 DUP3 ADD MSTORE PUSH32 0x5075626C696320696E7075742065786365656473206669656C64000000000000 PUSH1 0x44 DUP3 ADD MSTORE PUSH1 0x64 ADD PUSH2 0x478 JUMP JUMPDEST PUSH1 0x1 ADD PUSH2 0x191E JUMP JUMPDEST POP PUSH0 DUP5 PUSH1 0x80 ADD MLOAD PUSH0 DUP2 MLOAD DUP2 LT PUSH2 0x19CF JUMPI PUSH2 0x19CF PUSH2 0x29C9 JUMP JUMPDEST PUSH1 0x20 MUL PUSH1 0x20 ADD ADD MLOAD SWAP1 POP PUSH0 JUMPDEST DUP4 MLOAD DUP2 LT ISZERO PUSH2 0x1A43 JUMPI PUSH2 0x1A39 DUP3 PUSH2 0x1A34 DUP9 PUSH1 0x80 ADD MLOAD DUP5 PUSH1 0x1 PUSH2 0x19FD SWAP2 SWAP1 PUSH2 0x29B6 JUMP JUMPDEST DUP2 MLOAD DUP2 LT PUSH2 0x1A0D JUMPI PUSH2 0x1A0D PUSH2 0x29C9 JUMP JUMPDEST PUSH1 0x20 MUL PUSH1 0x20 ADD ADD MLOAD DUP8 DUP6 DUP2 MLOAD DUP2 LT PUSH2 0x1A27 JUMPI PUSH2 0x1A27 PUSH2 0x29C9 JUMP JUMPDEST PUSH1 0x20 MUL PUSH1 0x20 ADD ADD MLOAD PUSH2 0x1FF0 JUMP JUMPDEST PUSH2 0x207E JUMP JUMPDEST SWAP2 POP PUSH1 0x1 ADD PUSH2 0x19DB JUMP JUMPDEST POP PUSH1 0x40 DUP1 MLOAD PUSH1 0x4 DUP1 DUP3 MSTORE PUSH1 0xA0 DUP3 ADD SWAP1 SWAP3 MSTORE PUSH0 SWAP2 DUP2 PUSH1 0x20 ADD JUMPDEST PUSH1 0x40 DUP1 MLOAD DUP1 DUP3 ADD SWAP1 SWAP2 MSTORE PUSH0 DUP1 DUP3 MSTORE PUSH1 0x20 DUP3 ADD MSTORE DUP2 MSTORE PUSH1 0x20 ADD SWAP1 PUSH1 0x1 SWAP1 SUB SWAP1 DUP2 PUSH2 0x1A5B JUMPI POP POP PUSH1 0x40 DUP1 MLOAD PUSH1 0x4 DUP1 DUP3 MSTORE PUSH1 0xA0 DUP3 ADD SWAP1 SWAP3 MSTORE SWAP2 SWAP3 POP PUSH0 SWAP2 SWAP1 PUSH1 0x20 DUP3 ADD JUMPDEST PUSH2 0x1AA3 PUSH2 0x2531 JUMP JUMPDEST DUP2 MSTORE PUSH1 0x20 ADD SWAP1 PUSH1 0x1 SWAP1 SUB SWAP1 DUP2 PUSH2 0x1A9B JUMPI POP POP DUP7 MLOAD SWAP1 SWAP2 POP PUSH2 0x1AC3 SWAP1 PUSH2 0x210A JUMP JUMPDEST DUP3 PUSH0 DUP2 MLOAD DUP2 LT PUSH2 0x1AD5 JUMPI PUSH2 0x1AD5 PUSH2 0x29C9 JUMP JUMPDEST PUSH1 0x20 MUL PUSH1 0x20 ADD ADD DUP2 SWAP1 MSTORE POP DUP6 PUSH1 0x20 ADD MLOAD DUP2 PUSH0 DUP2 MLOAD DUP2 LT PUSH2 0x1AF7 JUMPI PUSH2 0x1AF7 PUSH2 0x29C9 JUMP JUMPDEST PUSH1 0x20 MUL PUSH1 0x20 ADD ADD DUP2 SWAP1 MSTORE POP DUP7 PUSH0 ADD MLOAD DUP3 PUSH1 0x1 DUP2 MLOAD DUP2 LT PUSH2 0x1B19 JUMPI PUSH2 0x1B19 PUSH2 0x29C9 JUMP JUMPDEST PUSH1 0x20 MUL PUSH1 0x20 ADD ADD DUP2 SWAP1 MSTORE POP DUP7 PUSH1 0x20 ADD MLOAD DUP2 PUSH1 0x1 DUP2 MLOAD DUP2 LT PUSH2 0x1B3C JUMPI PUSH2 0x1B3C PUSH2 0x29C9 JUMP JUMPDEST PUSH1 0x20 MUL PUSH1 0x20 ADD ADD DUP2 SWAP1 MSTORE POP DUP3 DUP3 PUSH1 0x2 DUP2 MLOAD DUP2 LT PUSH2 0x1B5B JUMPI PUSH2 0x1B5B PUSH2 0x29C9 JUMP JUMPDEST PUSH1 0x20 MUL PUSH1 0x20 ADD ADD DUP2 SWAP1 MSTORE POP DUP7 PUSH1 0x40 ADD MLOAD DUP2 PUSH1 0x2 DUP2 MLOAD DUP2 LT PUSH2 0x1B7E JUMPI PUSH2 0x1B7E PUSH2 0x29C9 JUMP JUMPDEST PUSH1 0x20 MUL PUSH1 0x20 ADD ADD DUP2 SWAP1 MSTORE POP DUP6 PUSH1 0x40 ADD MLOAD DUP3 PUSH1 0x3 DUP2 MLOAD DUP2 LT PUSH2 0x1BA1 JUMPI PUSH2 0x1BA1 PUSH2 0x29C9 JUMP JUMPDEST PUSH1 0x20 MUL PUSH1 0x20 ADD ADD DUP2 SWAP1 MSTORE POP DUP7 PUSH1 0x60 ADD MLOAD DUP2 PUSH1 0x3 DUP2 MLOAD DUP2 LT PUSH2 0x1BC4 JUMPI PUSH2 0x1BC4 PUSH2 0x29C9 JUMP JUMPDEST PUSH1 0x20 MUL PUSH1 0x20 ADD ADD DUP2 SWAP1 MSTORE POP PUSH2 0x1BD9 DUP3 DUP3 PUSH2 0x21C1 JUMP JUMPDEST SWAP8 SWAP7 POP POP POP POP POP POP POP JUMP JUMPDEST PUSH2 0x1BEC PUSH2 0x2556 JUMP JUMPDEST DUP2 PUSH2 0x1C00 PUSH9 0x56BC75E2D63100000 DUP3 PUSH2 0x2A31 JUMP JUMPDEST PUSH1 0xA0 DUP4 ADD DUP2 SWAP1 MSTORE PUSH2 0x1C1B SWAP1 PUSH9 0x56BC75E2D63100000 SWAP1 PUSH2 0x2A44 JUMP JUMPDEST PUSH2 0x1C25 SWAP1 DUP3 PUSH2 0x29DD JUMP JUMPDEST SWAP1 POP PUSH2 0x1C39 PUSH8 0x8AC7230489E80000 DUP3 PUSH2 0x2A31 JUMP JUMPDEST PUSH1 0x80 DUP4 ADD DUP2 SWAP1 MSTORE PUSH2 0x1C53 SWAP1 PUSH8 0x8AC7230489E80000 SWAP1 PUSH2 0x2A44 JUMP JUMPDEST PUSH2 0x1C5D SWAP1 DUP3 PUSH2 0x29DD JUMP JUMPDEST SWAP1 POP PUSH2 0x1C71 PUSH8 0xDE0B6B3A7640000 DUP3 PUSH2 0x2A31 JUMP JUMPDEST PUSH1 0x60 DUP4 ADD DUP2 SWAP1 MSTORE PUSH2 0x1C8B SWAP1 PUSH8 0xDE0B6B3A7640000 SWAP1 PUSH2 0x2A44 JUMP JUMPDEST PUSH2 0x1C95 SWAP1 DUP3 PUSH2 0x29DD JUMP JUMPDEST SWAP1 POP PUSH2 0x1CA9 PUSH8 0x16345785D8A0000 DUP3 PUSH2 0x2A31 JUMP JUMPDEST PUSH1 0x40 DUP4 ADD DUP2 SWAP1 MSTORE PUSH2 0x1CC3 SWAP1 PUSH8 0x16345785D8A0000 SWAP1 PUSH2 0x2A44 JUMP JUMPDEST PUSH2 0x1CCD SWAP1 DUP3 PUSH2 0x29DD JUMP JUMPDEST SWAP1 POP PUSH2 0x1CE0 PUSH7 0x2386F26FC10000 DUP3 PUSH2 0x2A31 JUMP JUMPDEST PUSH1 0x20 DUP4 ADD DUP2 SWAP1 MSTORE PUSH2 0x1CF9 SWAP1 PUSH7 0x2386F26FC10000 SWAP1 PUSH2 0x2A44 JUMP JUMPDEST PUSH2 0x1D03 SWAP1 DUP3 PUSH2 0x29DD JUMP JUMPDEST SWAP1 POP PUSH2 0x1D16 PUSH7 0x38D7EA4C68000 DUP3 PUSH2 0x2A31 JUMP JUMPDEST DUP1 DUP4 MSTORE PUSH2 0x1D2B SWAP1 PUSH7 0x38D7EA4C68000 SWAP1 PUSH2 0x2A44 JUMP JUMPDEST PUSH2 0x1D35 SWAP1 DUP3 PUSH2 0x29DD JUMP JUMPDEST SWAP1 POP SWAP2 POP SWAP2 JUMP JUMPDEST PUSH0 DUP2 PUSH0 SUB PUSH2 0x1D52 JUMPI POP PUSH7 0x38D7EA4C68000 SWAP2 SWAP1 POP JUMP JUMPDEST DUP2 PUSH1 0x1 SUB PUSH2 0x1D68 JUMPI POP PUSH7 0x2386F26FC10000 SWAP2 SWAP1 POP JUMP JUMPDEST DUP2 PUSH1 0x2 SUB PUSH2 0x1D7F JUMPI POP PUSH8 0x16345785D8A0000 SWAP2 SWAP1 POP JUMP JUMPDEST DUP2 PUSH1 0x3 SUB PUSH2 0x1D96 JUMPI POP PUSH8 0xDE0B6B3A7640000 SWAP2 SWAP1 POP JUMP JUMPDEST DUP2 PUSH1 0x4 SUB PUSH2 0x1DAD JUMPI POP PUSH8 0x8AC7230489E80000 SWAP2 SWAP1 POP JUMP JUMPDEST DUP2 PUSH1 0x5 SUB PUSH2 0x1DC5 JUMPI POP PUSH9 0x56BC75E2D63100000 SWAP2 SWAP1 POP JUMP JUMPDEST PUSH1 0x40 MLOAD PUSH3 0x461BCD PUSH1 0xE5 SHL DUP2 MSTORE PUSH1 0x20 PUSH1 0x4 DUP3 ADD MSTORE PUSH1 0x1A PUSH1 0x24 DUP3 ADD MSTORE PUSH32 0x496E76616C69642064656E6F6D696E6174696F6E20696E646578000000000000 PUSH1 0x44 DUP3 ADD MSTORE PUSH1 0x64 ADD PUSH2 0x478 JUMP JUMPDEST PUSH1 0x21 SLOAD PUSH1 0x40 MLOAD PUSH12 0xFFFFFFFFFFFFFFFFFFFFFFFF NOT CALLER PUSH1 0x60 SHL AND PUSH1 0x20 DUP3 ADD MSTORE PUSH1 0x34 DUP2 ADD DUP5 SWAP1 MSTORE NUMBER PUSH1 0x54 DUP3 ADD MSTORE PUSH1 0x74 DUP2 ADD SWAP2 SWAP1 SWAP2 MSTORE PUSH0 SWAP1 DUP2 SWAP1 PUSH1 0x94 ADD PUSH1 0x40 DUP1 MLOAD PUSH1 0x1F NOT DUP2 DUP5 SUB ADD DUP2 MSTORE SWAP2 DUP2 MSTORE DUP2 MLOAD PUSH1 0x20 SWAP3 DUP4 ADD KECCAK256 PUSH0 DUP2 DUP2 MSTORE PUSH1 0x1E SWAP1 SWAP4 MSTORE SWAP2 KECCAK256 PUSH1 0x1 ADD SLOAD SWAP1 SWAP2 POP ISZERO PUSH2 0x1EB2 JUMPI PUSH1 0x40 MLOAD PUSH3 0x461BCD PUSH1 0xE5 SHL DUP2 MSTORE PUSH1 0x20 PUSH1 0x4 DUP3 ADD MSTORE PUSH1 0x11 PUSH1 0x24 DUP3 ADD MSTORE PUSH17 0x213AB9371024A21031B7B63634B9B4B7B7 PUSH1 0x79 SHL PUSH1 0x44 DUP3 ADD MSTORE PUSH1 0x64 ADD PUSH2 0x478 JUMP JUMPDEST PUSH1 0x40 DUP1 MLOAD PUSH1 0xC0 DUP2 ADD DUP3 MSTORE CALLER DUP2 MSTORE PUSH1 0x20 DUP2 ADD DUP6 SWAP1 MSTORE SWAP1 DUP2 ADD DUP6 SWAP1 MSTORE PUSH1 0x60 DUP2 ADD PUSH2 0x1EDC PUSH2 0xE10 TIMESTAMP PUSH2 0x29B6 JUMP JUMPDEST DUP2 MSTORE PUSH0 PUSH1 0x20 DUP1 DUP4 ADD DUP3 SWAP1 MSTORE PUSH1 0x40 SWAP3 DUP4 ADD DUP3 SWAP1 MSTORE DUP5 DUP3 MSTORE PUSH1 0x1E DUP2 MSTORE DUP3 DUP3 KECCAK256 DUP5 MLOAD DUP2 SLOAD PUSH1 0x1 PUSH1 0x1 PUSH1 0xA0 SHL SUB SWAP1 SWAP2 AND PUSH1 0x1 PUSH1 0x1 PUSH1 0xA0 SHL SUB NOT SWAP1 SWAP2 AND OR DUP2 SSTORE SWAP1 DUP5 ADD MLOAD PUSH1 0x1 DUP3 DUP2 ADD SWAP2 SWAP1 SWAP2 SSTORE SWAP3 DUP5 ADD MLOAD PUSH1 0x2 DUP3 ADD SSTORE PUSH1 0x60 DUP5 ADD MLOAD PUSH1 0x3 DUP3 ADD SSTORE PUSH1 0x80 DUP5 ADD MLOAD PUSH1 0x4 SWAP1 SWAP2 ADD DUP1 SLOAD PUSH1 0xA0 SWAP1 SWAP6 ADD MLOAD ISZERO ISZERO PUSH2 0x100 MUL PUSH2 0xFF00 NOT SWAP3 ISZERO ISZERO SWAP3 SWAP1 SWAP3 AND PUSH2 0xFFFF NOT SWAP1 SWAP6 AND SWAP5 SWAP1 SWAP5 OR OR SWAP1 SWAP3 SSTORE PUSH1 0x21 DUP1 SLOAD SWAP2 DUP3 ADD DUP2 SSTORE SWAP1 SWAP2 MSTORE PUSH32 0x3A6357012C1A3AE0A17D304C9920310382D968EBCC4B1771F41C6B304205B570 ADD DUP2 SWAP1 SSTORE CALLER DUP2 PUSH32 0x7E9D822FF51EDCFBF08DD4B4E06A1E5411885E31301814D43927DA403341D58D DUP6 DUP8 PUSH2 0x1FCB PUSH2 0xE10 TIMESTAMP PUSH2 0x29B6 JUMP JUMPDEST PUSH1 0x40 DUP1 MLOAD SWAP4 DUP5 MSTORE PUSH1 0x20 DUP5 ADD SWAP3 SWAP1 SWAP3 MSTORE SWAP1 DUP3 ADD MSTORE PUSH1 0x60 ADD PUSH1 0x40 MLOAD DUP1 SWAP2 SUB SWAP1 LOG3 SWAP4 SWAP3 POP POP POP JUMP JUMPDEST PUSH1 0x40 DUP1 MLOAD DUP1 DUP3 ADD SWAP1 SWAP2 MSTORE PUSH0 DUP1 DUP3 MSTORE PUSH1 0x20 DUP3 ADD MSTORE PUSH2 0x200B PUSH2 0x2574 JUMP JUMPDEST DUP4 MLOAD DUP2 MSTORE PUSH1 0x20 DUP1 DUP6 ADD MLOAD SWAP1 DUP3 ADD MSTORE PUSH1 0x40 DUP1 DUP3 ADD DUP5 SWAP1 MSTORE PUSH0 SWAP1 DUP4 PUSH1 0x60 DUP5 PUSH1 0x7 PUSH2 0x7D0 GAS SUB STATICCALL SWAP1 POP DUP1 PUSH2 0x2076 JUMPI PUSH1 0x40 MLOAD PUSH3 0x461BCD PUSH1 0xE5 SHL DUP2 MSTORE PUSH1 0x20 PUSH1 0x4 DUP3 ADD MSTORE PUSH1 0x15 PUSH1 0x24 DUP3 ADD MSTORE PUSH21 0x189B8C8D4D94D8D85B185C935D5B0819985A5B1959 PUSH1 0x5A SHL PUSH1 0x44 DUP3 ADD MSTORE PUSH1 0x64 ADD PUSH2 0x478 JUMP JUMPDEST POP POP SWAP3 SWAP2 POP POP JUMP JUMPDEST PUSH1 0x40 DUP1 MLOAD DUP1 DUP3 ADD SWAP1 SWAP2 MSTORE PUSH0 DUP1 DUP3 MSTORE PUSH1 0x20 DUP3 ADD MSTORE PUSH2 0x2099 PUSH2 0x2592 JUMP JUMPDEST DUP4 MLOAD DUP2 MSTORE PUSH1 0x20 DUP1 DUP6 ADD MLOAD DUP2 DUP4 ADD MSTORE DUP4 MLOAD PUSH1 0x40 DUP1 DUP5 ADD SWAP2 SWAP1 SWAP2 MSTORE SWAP1 DUP5 ADD MLOAD PUSH1 0x60 DUP4 ADD MSTORE PUSH0 SWAP1 DUP4 PUSH1 0x80 DUP5 PUSH1 0x6 PUSH2 0x7D0 GAS SUB STATICCALL SWAP1 POP DUP1 PUSH2 0x2076 JUMPI PUSH1 0x40 MLOAD PUSH3 0x461BCD PUSH1 0xE5 SHL DUP2 MSTORE PUSH1 0x20 PUSH1 0x4 DUP3 ADD MSTORE PUSH1 0xF PUSH1 0x24 DUP3 ADD MSTORE PUSH15 0x189B8C8D4D9059190819985A5B1959 PUSH1 0x8A SHL PUSH1 0x44 DUP3 ADD MSTORE PUSH1 0x64 ADD PUSH2 0x478 JUMP JUMPDEST PUSH1 0x40 DUP1 MLOAD DUP1 DUP3 ADD SWAP1 SWAP2 MSTORE PUSH0 DUP1 DUP3 MSTORE PUSH1 0x20 DUP3 ADD MSTORE DUP2 MLOAD ISZERO DUP1 ISZERO PUSH2 0x212E JUMPI POP PUSH1 0x20 DUP3 ADD MLOAD ISZERO JUMPDEST ISZERO PUSH2 0x214B JUMPI POP POP PUSH1 0x40 DUP1 MLOAD DUP1 DUP3 ADD SWAP1 SWAP2 MSTORE PUSH0 DUP1 DUP3 MSTORE PUSH1 0x20 DUP3 ADD MSTORE SWAP1 JUMP JUMPDEST PUSH1 0x40 MLOAD DUP1 PUSH1 0x40 ADD PUSH1 0x40 MSTORE DUP1 DUP4 PUSH0 ADD MLOAD DUP2 MSTORE PUSH1 0x20 ADD PUSH32 0x30644E72E131A029B85045B68181585D97816A916871CA8D3C208C16D87CFD47 DUP5 PUSH1 0x20 ADD MLOAD PUSH2 0x218F SWAP2 SWAP1 PUSH2 0x2A5B JUMP JUMPDEST PUSH2 0x21B9 SWAP1 PUSH32 0x30644E72E131A029B85045B68181585D97816A916871CA8D3C208C16D87CFD47 PUSH2 0x29DD JUMP JUMPDEST SWAP1 MSTORE SWAP3 SWAP2 POP POP JUMP JUMPDEST PUSH0 DUP2 MLOAD DUP4 MLOAD EQ PUSH2 0x2213 JUMPI PUSH1 0x40 MLOAD PUSH3 0x461BCD PUSH1 0xE5 SHL DUP2 MSTORE PUSH1 0x20 PUSH1 0x4 DUP3 ADD MSTORE PUSH1 0x17 PUSH1 0x24 DUP3 ADD MSTORE PUSH32 0x50616972696E67206C656E677468206D69736D61746368000000000000000000 PUSH1 0x44 DUP3 ADD MSTORE PUSH1 0x64 ADD PUSH2 0x478 JUMP JUMPDEST PUSH0 DUP4 MLOAD PUSH1 0x6 PUSH2 0x2222 SWAP2 SWAP1 PUSH2 0x2A44 JUMP JUMPDEST SWAP1 POP PUSH0 DUP2 PUSH8 0xFFFFFFFFFFFFFFFF DUP2 GT ISZERO PUSH2 0x223E JUMPI PUSH2 0x223E PUSH2 0x2631 JUMP JUMPDEST PUSH1 0x40 MLOAD SWAP1 DUP1 DUP3 MSTORE DUP1 PUSH1 0x20 MUL PUSH1 0x20 ADD DUP3 ADD PUSH1 0x40 MSTORE DUP1 ISZERO PUSH2 0x2267 JUMPI DUP2 PUSH1 0x20 ADD PUSH1 0x20 DUP3 MUL DUP1 CALLDATASIZE DUP4 CALLDATACOPY ADD SWAP1 POP JUMPDEST POP SWAP1 POP PUSH0 JUMPDEST DUP6 MLOAD DUP2 LT ISZERO PUSH2 0x2462 JUMPI PUSH0 PUSH2 0x2281 DUP3 PUSH1 0x6 PUSH2 0x2A44 JUMP JUMPDEST SWAP1 POP DUP7 DUP3 DUP2 MLOAD DUP2 LT PUSH2 0x2295 JUMPI PUSH2 0x2295 PUSH2 0x29C9 JUMP JUMPDEST PUSH1 0x20 MUL PUSH1 0x20 ADD ADD MLOAD PUSH0 ADD MLOAD DUP4 DUP3 PUSH0 PUSH2 0x22AD SWAP2 SWAP1 PUSH2 0x29B6 JUMP JUMPDEST DUP2 MLOAD DUP2 LT PUSH2 0x22BD JUMPI PUSH2 0x22BD PUSH2 0x29C9 JUMP JUMPDEST PUSH1 0x20 MUL PUSH1 0x20 ADD ADD DUP2 DUP2 MSTORE POP POP DUP7 DUP3 DUP2 MLOAD DUP2 LT PUSH2 0x22DB JUMPI PUSH2 0x22DB PUSH2 0x29C9 JUMP JUMPDEST PUSH1 0x20 MUL PUSH1 0x20 ADD ADD MLOAD PUSH1 0x20 ADD MLOAD DUP4 DUP3 PUSH1 0x1 PUSH2 0x22F5 SWAP2 SWAP1 PUSH2 0x29B6 JUMP JUMPDEST DUP2 MLOAD DUP2 LT PUSH2 0x2305 JUMPI PUSH2 0x2305 PUSH2 0x29C9 JUMP JUMPDEST PUSH1 0x20 MUL PUSH1 0x20 ADD ADD DUP2 DUP2 MSTORE POP POP DUP6 DUP3 DUP2 MLOAD DUP2 LT PUSH2 0x2323 JUMPI PUSH2 0x2323 PUSH2 0x29C9 JUMP JUMPDEST PUSH1 0x20 SWAP1 DUP2 MUL SWAP2 SWAP1 SWAP2 ADD DUP2 ADD MLOAD MLOAD ADD MLOAD DUP4 PUSH2 0x233E DUP4 PUSH1 0x2 PUSH2 0x29B6 JUMP JUMPDEST DUP2 MLOAD DUP2 LT PUSH2 0x234E JUMPI PUSH2 0x234E PUSH2 0x29C9 JUMP JUMPDEST PUSH1 0x20 MUL PUSH1 0x20 ADD ADD DUP2 DUP2 MSTORE POP POP DUP6 DUP3 DUP2 MLOAD DUP2 LT PUSH2 0x236C JUMPI PUSH2 0x236C PUSH2 0x29C9 JUMP JUMPDEST PUSH1 0x20 SWAP1 DUP2 MUL SWAP2 SWAP1 SWAP2 ADD ADD MLOAD MLOAD MLOAD DUP4 PUSH2 0x2385 DUP4 PUSH1 0x3 PUSH2 0x29B6 JUMP JUMPDEST DUP2 MLOAD DUP2 LT PUSH2 0x2395 JUMPI PUSH2 0x2395 PUSH2 0x29C9 JUMP JUMPDEST PUSH1 0x20 MUL PUSH1 0x20 ADD ADD DUP2 DUP2 MSTORE POP POP DUP6 DUP3 DUP2 MLOAD DUP2 LT PUSH2 0x23B3 JUMPI PUSH2 0x23B3 PUSH2 0x29C9 JUMP JUMPDEST PUSH1 0x20 MUL PUSH1 0x20 ADD ADD MLOAD PUSH1 0x20 ADD MLOAD PUSH1 0x1 PUSH1 0x2 DUP2 LT PUSH2 0x23D1 JUMPI PUSH2 0x23D1 PUSH2 0x29C9 JUMP JUMPDEST PUSH1 0x20 MUL ADD MLOAD DUP4 PUSH2 0x23E2 DUP4 PUSH1 0x4 PUSH2 0x29B6 JUMP JUMPDEST DUP2 MLOAD DUP2 LT PUSH2 0x23F2 JUMPI PUSH2 0x23F2 PUSH2 0x29C9 JUMP JUMPDEST PUSH1 0x20 MUL PUSH1 0x20 ADD ADD DUP2 DUP2 MSTORE POP POP DUP6 DUP3 DUP2 MLOAD DUP2 LT PUSH2 0x2410 JUMPI PUSH2 0x2410 PUSH2 0x29C9 JUMP JUMPDEST PUSH1 0x20 MUL PUSH1 0x20 ADD ADD MLOAD PUSH1 0x20 ADD MLOAD PUSH0 PUSH1 0x2 DUP2 LT PUSH2 0x242D JUMPI PUSH2 0x242D PUSH2 0x29C9 JUMP JUMPDEST PUSH1 0x20 MUL ADD MLOAD DUP4 PUSH2 0x243E DUP4 PUSH1 0x5 PUSH2 0x29B6 JUMP JUMPDEST DUP2 MLOAD DUP2 LT PUSH2 0x244E JUMPI PUSH2 0x244E PUSH2 0x29C9 JUMP JUMPDEST PUSH1 0x20 SWAP1 DUP2 MUL SWAP2 SWAP1 SWAP2 ADD ADD MSTORE POP PUSH1 0x1 ADD PUSH2 0x226C JUMP JUMPDEST POP PUSH2 0x246B PUSH2 0x25B0 JUMP JUMPDEST PUSH0 PUSH1 0x20 DUP3 PUSH1 0x20 DUP7 MUL PUSH1 0x20 DUP7 ADD PUSH1 0x8 PUSH2 0x7D0 GAS SUB STATICCALL SWAP1 POP DUP1 PUSH2 0x24C4 JUMPI PUSH1 0x40 MLOAD PUSH3 0x461BCD PUSH1 0xE5 SHL DUP2 MSTORE PUSH1 0x20 PUSH1 0x4 DUP3 ADD MSTORE PUSH1 0x13 PUSH1 0x24 DUP3 ADD MSTORE PUSH19 0x189B8C8D4D94185A5C9A5B99C819985A5B1959 PUSH1 0x6A SHL PUSH1 0x44 DUP3 ADD MSTORE PUSH1 0x64 ADD PUSH2 0x478 JUMP JUMPDEST POP MLOAD PUSH1 0x1 EQ SWAP6 SWAP5 POP POP POP POP POP JUMP JUMPDEST DUP3 PUSH1 0x2 DUP2 ADD SWAP3 DUP3 ISZERO PUSH2 0x2500 JUMPI SWAP2 PUSH1 0x20 MUL DUP3 ADD JUMPDEST DUP3 DUP2 GT ISZERO PUSH2 0x2500 JUMPI DUP3 MLOAD DUP3 SSTORE SWAP2 PUSH1 0x20 ADD SWAP2 SWAP1 PUSH1 0x1 ADD SWAP1 PUSH2 0x24E5 JUMP JUMPDEST POP PUSH2 0x250C SWAP3 SWAP2 POP PUSH2 0x25CE JUMP JUMPDEST POP SWAP1 JUMP JUMPDEST POP DUP1 SLOAD PUSH0 DUP3 SSTORE PUSH1 0x2 MUL SWAP1 PUSH0 MSTORE PUSH1 0x20 PUSH0 KECCAK256 SWAP1 DUP2 ADD SWAP1 PUSH2 0x252E SWAP2 SWAP1 PUSH2 0x25E2 JUMP JUMPDEST POP JUMP JUMPDEST PUSH1 0x40 MLOAD DUP1 PUSH1 0x40 ADD PUSH1 0x40 MSTORE DUP1 PUSH2 0x2544 PUSH2 0x25FC JUMP JUMPDEST DUP2 MSTORE PUSH1 0x20 ADD PUSH2 0x2551 PUSH2 0x25FC JUMP JUMPDEST SWAP1 MSTORE SWAP1 JUMP JUMPDEST PUSH1 0x40 MLOAD DUP1 PUSH1 0xC0 ADD PUSH1 0x40 MSTORE DUP1 PUSH1 0x6 SWAP1 PUSH1 0x20 DUP3 MUL DUP1 CALLDATASIZE DUP4 CALLDATACOPY POP SWAP2 SWAP3 SWAP2 POP POP JUMP JUMPDEST PUSH1 0x40 MLOAD DUP1 PUSH1 0x60 ADD PUSH1 0x40 MSTORE DUP1 PUSH1 0x3 SWAP1 PUSH1 0x20 DUP3 MUL DUP1 CALLDATASIZE DUP4 CALLDATACOPY POP SWAP2 SWAP3 SWAP2 POP POP JUMP JUMPDEST PUSH1 0x40 MLOAD DUP1 PUSH1 0x80 ADD PUSH1 0x40 MSTORE DUP1 PUSH1 0x4 SWAP1 PUSH1 0x20 DUP3 MUL DUP1 CALLDATASIZE DUP4 CALLDATACOPY POP SWAP2 SWAP3 SWAP2 POP POP JUMP JUMPDEST PUSH1 0x40 MLOAD DUP1 PUSH1 0x20 ADD PUSH1 0x40 MSTORE DUP1 PUSH1 0x1 SWAP1 PUSH1 0x20 DUP3 MUL DUP1 CALLDATASIZE DUP4 CALLDATACOPY POP SWAP2 SWAP3 SWAP2 POP POP JUMP JUMPDEST JUMPDEST DUP1 DUP3 GT ISZERO PUSH2 0x250C JUMPI PUSH0 DUP2 SSTORE PUSH1 0x1 ADD PUSH2 0x25CF JUMP JUMPDEST JUMPDEST DUP1 DUP3 GT ISZERO PUSH2 0x250C JUMPI PUSH0 DUP1 DUP3 SSTORE PUSH1 0x1 DUP3 ADD SSTORE PUSH1 0x2 ADD PUSH2 0x25E3 JUMP JUMPDEST PUSH1 0x40 MLOAD DUP1 PUSH1 0x40 ADD PUSH1 0x40 MSTORE DUP1 PUSH1 0x2 SWAP1 PUSH1 0x20 DUP3 MUL DUP1 CALLDATASIZE DUP4 CALLDATACOPY POP SWAP2 SWAP3 SWAP2 POP POP JUMP JUMPDEST PUSH0 PUSH1 0x20 DUP3 DUP5 SUB SLT ISZERO PUSH2 0x262A JUMPI PUSH0 DUP1 REVERT JUMPDEST POP CALLDATALOAD SWAP2 SWAP1 POP JUMP JUMPDEST PUSH4 0x4E487B71 PUSH1 0xE0 SHL PUSH0 MSTORE PUSH1 0x41 PUSH1 0x4 MSTORE PUSH1 0x24 PUSH0 REVERT JUMPDEST PUSH1 0x40 DUP1 MLOAD SWAP1 DUP2 ADD PUSH8 0xFFFFFFFFFFFFFFFF DUP2 GT DUP3 DUP3 LT OR ISZERO PUSH2 0x2668 JUMPI PUSH2 0x2668 PUSH2 0x2631 JUMP JUMPDEST PUSH1 0x40 MSTORE SWAP1 JUMP JUMPDEST PUSH1 0x40 MLOAD PUSH1 0x1F DUP3 ADD PUSH1 0x1F NOT AND DUP2 ADD PUSH8 0xFFFFFFFFFFFFFFFF DUP2 GT DUP3 DUP3 LT OR ISZERO PUSH2 0x2697 JUMPI PUSH2 0x2697 PUSH2 0x2631 JUMP JUMPDEST PUSH1 0x40 MSTORE SWAP2 SWAP1 POP JUMP JUMPDEST PUSH0 DUP3 PUSH1 0x1F DUP4 ADD SLT PUSH2 0x26AE JUMPI PUSH0 DUP1 REVERT JUMPDEST PUSH2 0x26B6 PUSH2 0x2645 JUMP JUMPDEST DUP1 PUSH1 0x40 DUP5 ADD DUP6 DUP2 GT ISZERO PUSH2 0x26C7 JUMPI PUSH0 DUP1 REVERT JUMPDEST DUP5 JUMPDEST DUP2 DUP2 LT ISZERO PUSH2 0x26E1 JUMPI DUP1 CALLDATALOAD DUP5 MSTORE PUSH1 0x20 SWAP4 DUP5 ADD SWAP4 ADD PUSH2 0x26C9 JUMP JUMPDEST POP SWAP1 SWAP6 SWAP5 POP POP POP POP POP JUMP JUMPDEST PUSH0 DUP3 PUSH1 0x1F DUP4 ADD SLT PUSH2 0x26FB JUMPI PUSH0 DUP1 REVERT JUMPDEST PUSH2 0x2703 PUSH2 0x2645 JUMP JUMPDEST DUP1 PUSH1 0x80 DUP5 ADD DUP6 DUP2 GT ISZERO PUSH2 0x2714 JUMPI PUSH0 DUP1 REVERT JUMPDEST DUP5 JUMPDEST DUP2 DUP2 LT ISZERO PUSH2 0x26E1 JUMPI PUSH2 0x2728 DUP8 DUP3 PUSH2 0x269F JUMP JUMPDEST DUP5 MSTORE PUSH1 0x20 SWAP1 SWAP4 ADD SWAP3 PUSH1 0x40 ADD PUSH2 0x2716 JUMP JUMPDEST PUSH0 DUP1 PUSH0 DUP1 PUSH0 PUSH2 0x140 DUP7 DUP9 SUB SLT ISZERO PUSH2 0x274D JUMPI PUSH0 DUP1 REVERT JUMPDEST DUP6 CALLDATALOAD SWAP5 POP PUSH1 0x20 DUP7 ADD CALLDATALOAD SWAP4 POP PUSH2 0x2765 DUP8 PUSH1 0x40 DUP9 ADD PUSH2 0x269F JUMP JUMPDEST SWAP3 POP PUSH2 0x2774 DUP8 PUSH1 0x80 DUP9 ADD PUSH2 0x26EC JUMP JUMPDEST SWAP2 POP PUSH2 0x2784 DUP8 PUSH2 0x100 DUP9 ADD PUSH2 0x269F JUMP JUMPDEST SWAP1 POP SWAP3 SWAP6 POP SWAP3 SWAP6 SWAP1 SWAP4 POP JUMP JUMPDEST PUSH0 DUP1 PUSH0 DUP1 PUSH0 PUSH2 0x1E0 DUP7 DUP9 SUB SLT ISZERO PUSH2 0x27A5 JUMPI PUSH0 DUP1 REVERT JUMPDEST PUSH2 0x27AF DUP8 DUP8 PUSH2 0x269F JUMP JUMPDEST SWAP5 POP PUSH1 0x40 PUSH2 0x27C0 DUP9 PUSH1 0x40 DUP10 ADD PUSH2 0x26EC JUMP JUMPDEST SWAP5 POP PUSH2 0x27CF DUP9 PUSH1 0xC0 DUP10 ADD PUSH2 0x26EC JUMP JUMPDEST SWAP4 POP PUSH2 0x27DF DUP9 PUSH2 0x140 DUP10 ADD PUSH2 0x26EC JUMP JUMPDEST SWAP3 POP PUSH2 0x1C0 DUP8 ADD CALLDATALOAD PUSH8 0xFFFFFFFFFFFFFFFF DUP1 DUP3 GT ISZERO PUSH2 0x27FC JUMPI PUSH0 DUP1 REVERT JUMPDEST DUP2 DUP10 ADD SWAP2 POP DUP10 PUSH1 0x1F DUP4 ADD SLT PUSH2 0x280F JUMPI PUSH0 DUP1 REVERT JUMPDEST DUP2 CALLDATALOAD PUSH1 0x20 DUP3 DUP3 GT ISZERO PUSH2 0x2823 JUMPI PUSH2 0x2823 PUSH2 0x2631 JUMP JUMPDEST PUSH2 0x2832 PUSH1 0x20 DUP4 PUSH1 0x5 SHL ADD PUSH2 0x266E JUMP JUMPDEST SWAP3 POP DUP3 DUP3 DUP5 MSTORE PUSH1 0x20 DUP5 ADD SWAP4 POP PUSH1 0x20 DUP4 PUSH1 0x6 SHL DUP7 ADD ADD SWAP3 POP DUP13 DUP4 GT ISZERO PUSH2 0x2855 JUMPI PUSH0 DUP1 REVERT JUMPDEST PUSH1 0x20 DUP6 ADD SWAP5 POP JUMPDEST DUP3 DUP6 LT ISZERO PUSH2 0x287D JUMPI PUSH2 0x286E DUP14 DUP7 PUSH2 0x269F JUMP JUMPDEST DUP5 MSTORE SWAP4 DUP6 ADD SWAP4 SWAP3 DUP2 ADD SWAP3 PUSH2 0x285C JUMP JUMPDEST DUP1 SWAP7 POP POP POP POP POP POP POP SWAP3 SWAP6 POP SWAP3 SWAP6 SWAP1 SWAP4 POP JUMP JUMPDEST PUSH0 DUP1 PUSH1 0x20 DUP4 DUP6 SUB SLT ISZERO PUSH2 0x28A1 JUMPI PUSH0 DUP1 REVERT JUMPDEST DUP3 CALLDATALOAD PUSH8 0xFFFFFFFFFFFFFFFF DUP1 DUP3 GT ISZERO PUSH2 0x28B8 JUMPI PUSH0 DUP1 REVERT JUMPDEST DUP2 DUP6 ADD SWAP2 POP DUP6 PUSH1 0x1F DUP4 ADD SLT PUSH2 0x28CB JUMPI PUSH0 DUP1 REVERT JUMPDEST DUP2 CALLDATALOAD DUP2 DUP2 GT ISZERO PUSH2 0x28D9 JUMPI PUSH0 DUP1 REVERT JUMPDEST DUP7 PUSH1 0x20 DUP3 PUSH1 0x5 SHL DUP6 ADD ADD GT ISZERO PUSH2 0x28ED JUMPI PUSH0 DUP1 REVERT JUMPDEST PUSH1 0x20 SWAP3 SWAP1 SWAP3 ADD SWAP7 SWAP2 SWAP6 POP SWAP1 SWAP4 POP POP POP POP JUMP JUMPDEST PUSH1 0x20 DUP1 DUP3 MSTORE DUP3 MLOAD DUP3 DUP3 ADD DUP2 SWAP1 MSTORE PUSH0 SWAP2 SWAP1 DUP5 DUP3 ADD SWAP1 PUSH1 0x40 DUP6 ADD SWAP1 DUP5 JUMPDEST DUP2 DUP2 LT ISZERO PUSH2 0x2936 JUMPI DUP4 MLOAD DUP4 MSTORE SWAP3 DUP5 ADD SWAP3 SWAP2 DUP5 ADD SWAP2 PUSH1 0x1 ADD PUSH2 0x291A JUMP JUMPDEST POP SWAP1 SWAP7 SWAP6 POP POP POP POP POP POP JUMP JUMPDEST PUSH0 DUP1 PUSH0 DUP1 PUSH0 DUP1 PUSH2 0x160 DUP8 DUP10 SUB SLT ISZERO PUSH2 0x2958 JUMPI PUSH0 DUP1 REVERT JUMPDEST DUP7 CALLDATALOAD SWAP6 POP PUSH1 0x20 DUP8 ADD CALLDATALOAD SWAP5 POP PUSH1 0x40 DUP8 ADD CALLDATALOAD SWAP4 POP PUSH2 0x2977 DUP9 PUSH1 0x60 DUP10 ADD PUSH2 0x269F JUMP JUMPDEST SWAP3 POP PUSH2 0x2986 DUP9 PUSH1 0xA0 DUP10 ADD PUSH2 0x26EC JUMP JUMPDEST SWAP2 POP PUSH2 0x2996 DUP9 PUSH2 0x120 DUP10 ADD PUSH2 0x269F JUMP JUMPDEST SWAP1 POP SWAP3 SWAP6 POP SWAP3 SWAP6 POP SWAP3 SWAP6 JUMP JUMPDEST PUSH4 0x4E487B71 PUSH1 0xE0 SHL PUSH0 MSTORE PUSH1 0x11 PUSH1 0x4 MSTORE PUSH1 0x24 PUSH0 REVERT JUMPDEST DUP1 DUP3 ADD DUP1 DUP3 GT ISZERO PUSH2 0x1292 JUMPI PUSH2 0x1292 PUSH2 0x29A2 JUMP JUMPDEST PUSH4 0x4E487B71 PUSH1 0xE0 SHL PUSH0 MSTORE PUSH1 0x32 PUSH1 0x4 MSTORE PUSH1 0x24 PUSH0 REVERT JUMPDEST DUP2 DUP2 SUB DUP2 DUP2 GT ISZERO PUSH2 0x1292 JUMPI PUSH2 0x1292 PUSH2 0x29A2 JUMP JUMPDEST PUSH0 PUSH1 0x1 DUP3 ADD PUSH2 0x2A01 JUMPI PUSH2 0x2A01 PUSH2 0x29A2 JUMP JUMPDEST POP PUSH1 0x1 ADD SWAP1 JUMP JUMPDEST PUSH0 DUP2 PUSH2 0x2A16 JUMPI PUSH2 0x2A16 PUSH2 0x29A2 JUMP JUMPDEST POP PUSH0 NOT ADD SWAP1 JUMP JUMPDEST PUSH4 0x4E487B71 PUSH1 0xE0 SHL PUSH0 MSTORE PUSH1 0x12 PUSH1 0x4 MSTORE PUSH1 0x24 PUSH0 REVERT JUMPDEST PUSH0 DUP3 PUSH2 0x2A3F JUMPI PUSH2 0x2A3F PUSH2 0x2A1D JUMP JUMPDEST POP DIV SWAP1 JUMP JUMPDEST DUP1 DUP3 MUL DUP2 ISZERO DUP3 DUP3 DIV DUP5 EQ OR PUSH2 0x1292 JUMPI PUSH2 0x1292 PUSH2 0x29A2 JUMP JUMPDEST PUSH0 DUP3 PUSH2 0x2A69 JUMPI PUSH2 0x2A69 PUSH2 0x2A1D JUMP JUMPDEST POP MOD SWAP1 JUMP INVALID LOG2 PUSH5 0x6970667358 0x22 SLT KECCAK256 CREATE MULMOD DUP12 PUSH25 0x1F1C062E3104CA79ECF76F3802E33E3C64DD5B4FFD096D14DF MSTORE 0x4D SIGNEXTEND PUSH5 0x736F6C6343 STOP ADDMOD XOR STOP CALLER "},"methodIdentifiers":{"DEFAULT_TIMELOCK()":"c1c7fca3","burn(bytes32)":"08a1eee1","burnIds(uint256)":"f2861381","burnSplit(bytes32[])":"6ffcce70","burns(bytes32)":"f1973dcb","getBurnCount()":"e7cf548c","getBurnRecord(bytes32)":"906b1d2c","isSerialNumberUsed(bytes32)":"d934427b","mint(bytes32,uint256,bytes32,uint256[2],uint256[2][2],uint256[2])":"b816eda2","mintedSerialNumbers(bytes32)":"2eaa2471","mints(bytes32)":"56dc63cb","owner()":"8da5cb5b","redeem(bytes32,bytes32,uint256[2],uint256[2][2],uint256[2])":"0a9b7c4e","setMintVerifyingKey(uint256[2],uint256[2][2],uint256[2][2],uint256[2][2],uint256[2][])":"54232273","setRedeemVerifyingKey(uint256[2],uint256[2][2],uint256[2][2],uint256[2][2],uint256[2][])":"6ed8c319"}}}}}