{"project/contracts/audit_chain/AuditContract.sol":{"AuditContract":{"abi":[{"inputs":[],"stateMutability":"nonpayable","type":"constructor"},{"anonymous":false,"inputs":[{"indexed":true,"internalType":"uint256","name":"nodeId","type":"uint256"},{"indexed":false,"internalType":"bytes32","name":"aggregatedRoot","type":"bytes32"}],"name":"AggregatedCommitSubmitted","type":"event"},{"anonymous":false,"inputs":[{"indexed":true,"internalType":"address","name":"auditor","type":"address"}],"name":"AuditorRegistered","type":"event"},{"anonymous":false,"inputs":[{"indexed":true,"internalType":"uint256","name":"chainId","type":"uint256"},{"indexed":false,"internalType":"bytes32","name":"initialRoot","type":"bytes32"}],"name":"ChainRegistered","type":"event"},{"anonymous":false,"inputs":[{"indexed":true,"internalType":"bytes32","name":"commitId","type":"bytes32"},{"indexed":true,"internalType":"address","name":"committer","type":"address"},{"indexed":true,"internalType":"uint256","name":"chainId","type":"uint256"},{"indexed":false,"internalType":"bytes32","name":"oldRoot","type":"bytes32"},{"indexed":false,"internalType":"bytes32","name":"newRoot","type":"bytes32"}],"name":"CommitSubmitted","type":"event"},{"anonymous":false,"inputs":[{"indexed":true,"internalType":"bytes32","name":"commitId","type":"bytes32"},{"indexed":true,"internalType":"uint256","name":"chainId","type":"uint256"},{"indexed":false,"internalType":"bytes32","name":"newRoot","type":"bytes32"},{"indexed":false,"internalType":"address","name":"verifier","type":"address"}],"name":"CommitVerified","type":"event"},{"anonymous":false,"inputs":[{"indexed":true,"internalType":"address","name":"committer","type":"address"},{"indexed":false,"internalType":"uint256[]","name":"chainIds","type":"uint256[]"}],"name":"CommitterRegistered","type":"event"},{"anonymous":false,"inputs":[{"indexed":true,"internalType":"address","name":"committer","type":"address"},{"indexed":false,"internalType":"uint256","name":"amount","type":"uint256"},{"indexed":false,"internalType":"bytes32","name":"commitId","type":"bytes32"}],"name":"CommitterSlashed","type":"event"},{"anonymous":false,"inputs":[{"indexed":true,"internalType":"address","name":"committer","type":"address"},{"indexed":false,"internalType":"uint256","name":"amount","type":"uint256"}],"name":"RewardClaimed","type":"event"},{"anonymous":false,"inputs":[{"indexed":true,"internalType":"uint256","name":"nodeId","type":"uint256"},{"indexed":false,"internalType":"uint256","name":"parentNodeId","type":"uint256"},{"indexed":false,"internalType":"address","name":"committer","type":"address"}],"name":"TreeNodeCreated","type":"event"},{"inputs":[],"name":"MIN_COMMITTER_STAKE","outputs":[{"internalType":"uint256","name":"","type":"uint256"}],"stateMutability":"view","type":"function"},{"inputs":[],"name":"SLASH_AMOUNT","outputs":[{"internalType":"uint256","name":"","type":"uint256"}],"stateMutability":"view","type":"function"},{"inputs":[],"name":"auditorCount","outputs":[{"internalType":"uint256","name":"","type":"uint256"}],"stateMutability":"view","type":"function"},{"inputs":[{"internalType":"address","name":"","type":"address"}],"name":"auditors","outputs":[{"internalType":"bool","name":"","type":"bool"}],"stateMutability":"view","type":"function"},{"inputs":[{"internalType":"uint256","name":"","type":"uint256"}],"name":"chainList","outputs":[{"internalType":"uint256","name":"","type":"uint256"}],"stateMutability":"view","type":"function"},{"inputs":[{"internalType":"uint256","name":"","type":"uint256"},{"internalType":"uint256","name":"","type":"uint256"}],"name":"chainStateHistory","outputs":[{"internalType":"bytes32","name":"","type":"bytes32"}],"stateMutability":"view","type":"function"},{"inputs":[{"internalType":"uint256","name":"","type":"uint256"}],"name":"chains","outputs":[{"internalType":"uint256","name":"chainId","type":"uint256"},{"internalType":"bytes32","name":"latestStateRoot","type":"bytes32"},{"internalType":"uint256","name":"lastUpdateBlock","type":"uint256"},{"internalType":"uint256","name":"totalCommits","type":"uint256"},{"internalType":"bool","name":"isActive","type":"bool"}],"stateMutability":"view","type":"function"},{"inputs":[],"name":"claimRewards","outputs":[],"stateMutability":"nonpayable","type":"function"},{"inputs":[{"internalType":"uint256","name":"","type":"uint256"}],"name":"commitIds","outputs":[{"internalType":"bytes32","name":"","type":"bytes32"}],"stateMutability":"view","type":"function"},{"inputs":[{"internalType":"bytes32","name":"","type":"bytes32"}],"name":"commits","outputs":[{"internalType":"address","name":"committer","type":"address"},{"internalType":"uint256","name":"chainId","type":"uint256"},{"internalType":"bytes32","name":"oldStateRoot","type":"bytes32"},{"internalType":"bytes32","name":"newStateRoot","type":"bytes32"},{"internalType":"uint256","name":"timestamp","type":"uint256"},{"internalType":"bool","name":"isVerified","type":"bool"}],"stateMutability":"view","type":"function"},{"inputs":[{"internalType":"uint256","name":"","type":"uint256"}],"name":"committerList","outputs":[{"internalType":"address","name":"","type":"address"}],"stateMutability":"view","type":"function"},{"inputs":[{"internalType":"address","name":"","type":"address"}],"name":"committerStakes","outputs":[{"internalType":"uint256","name":"","type":"uint256"}],"stateMutability":"view","type":"function"},{"inputs":[{"internalType":"address","name":"","type":"address"}],"name":"committers","outputs":[{"internalType":"address","name":"addr","type":"address"},{"internalType":"uint256","name":"totalCommits","type":"uint256"},{"internalType":"uint256","name":"rewards","type":"uint256"},{"internalType":"bool","name":"isRegistered","type":"bool"}],"stateMutability":"view","type":"function"},{"inputs":[{"internalType":"uint256","name":"parentNodeId","type":"uint256"},{"internalType":"uint256[]","name":"childChainIds","type":"uint256[]"},{"internalType":"address","name":"committer","type":"address"}],"name":"createTreeNode","outputs":[{"internalType":"uint256","name":"","type":"uint256"}],"stateMutability":"nonpayable","type":"function"},{"inputs":[],"name":"getChainCount","outputs":[{"internalType":"uint256","name":"","type":"uint256"}],"stateMutability":"view","type":"function"},{"inputs":[{"internalType":"uint256","name":"chainId","type":"uint256"}],"name":"getChainStateHistoryLength","outputs":[{"internalType":"uint256","name":"","type":"uint256"}],"stateMutability":"view","type":"function"},{"inputs":[{"internalType":"uint256","name":"chainId","type":"uint256"},{"internalType":"uint256","name":"index","type":"uint256"}],"name":"getChainStateRoot","outputs":[{"internalType":"bytes32","name":"","type":"bytes32"}],"stateMutability":"view","type":"function"},{"inputs":[],"name":"getCommitCount","outputs":[{"internalType":"uint256","name":"","type":"uint256"}],"stateMutability":"view","type":"function"},{"inputs":[],"name":"getCommitterCount","outputs":[{"internalType":"uint256","name":"","type":"uint256"}],"stateMutability":"view","type":"function"},{"inputs":[{"internalType":"address","name":"addr","type":"address"}],"name":"getCommitterInfo","outputs":[{"internalType":"uint256","name":"totalCommits","type":"uint256"},{"internalType":"uint256","name":"rewards","type":"uint256"},{"internalType":"bool","name":"isRegistered","type":"bool"}],"stateMutability":"view","type":"function"},{"inputs":[{"internalType":"uint256","name":"nodeId","type":"uint256"}],"name":"getTreeNodeChildren","outputs":[{"internalType":"uint256[]","name":"childChains","type":"uint256[]"},{"internalType":"uint256[]","name":"childNodes","type":"uint256[]"}],"stateMutability":"view","type":"function"},{"inputs":[{"internalType":"bytes32","name":"commitId","type":"bytes32"}],"name":"isCommitVerified","outputs":[{"internalType":"bool","name":"","type":"bool"}],"stateMutability":"view","type":"function"},{"inputs":[],"name":"minAuditors","outputs":[{"internalType":"uint256","name":"","type":"uint256"}],"stateMutability":"view","type":"function"},{"inputs":[],"name":"nextNodeId","outputs":[{"internalType":"uint256","name":"","type":"uint256"}],"stateMutability":"view","type":"function"},{"inputs":[{"internalType":"uint256","name":"","type":"uint256"}],"name":"nodeList","outputs":[{"internalType":"uint256","name":"","type":"uint256"}],"stateMutability":"view","type":"function"},{"inputs":[],"name":"owner","outputs":[{"internalType":"address","name":"","type":"address"}],"stateMutability":"view","type":"function"},{"inputs":[{"internalType":"address","name":"auditor","type":"address"}],"name":"registerAuditor","outputs":[],"stateMutability":"nonpayable","type":"function"},{"inputs":[{"internalType":"uint256","name":"chainId","type":"uint256"},{"internalType":"bytes32","name":"initialRoot","type":"bytes32"}],"name":"registerChain","outputs":[],"stateMutability":"nonpayable","type":"function"},{"inputs":[{"internalType":"uint256[]","name":"chainIds","type":"uint256[]"}],"name":"registerCommitter","outputs":[],"stateMutability":"payable","type":"function"},{"inputs":[],"name":"rewardPerCommit","outputs":[{"internalType":"uint256","name":"","type":"uint256"}],"stateMutability":"view","type":"function"},{"inputs":[{"internalType":"uint256[2]","name":"alpha","type":"uint256[2]"},{"internalType":"uint256[2][2]","name":"beta","type":"uint256[2][2]"},{"internalType":"uint256[2][2]","name":"gamma","type":"uint256[2][2]"},{"internalType":"uint256[2][2]","name":"delta","type":"uint256[2][2]"},{"internalType":"uint256[2][]","name":"ic","type":"uint256[2][]"}],"name":"setVerifyingKey","outputs":[],"stateMutability":"nonpayable","type":"function"},{"inputs":[{"internalType":"bytes32","name":"commitId","type":"bytes32"}],"name":"slashCommitter","outputs":[],"stateMutability":"nonpayable","type":"function"},{"inputs":[{"internalType":"uint256","name":"nodeId","type":"uint256"},{"internalType":"bytes32[]","name":"childRoots","type":"bytes32[]"},{"internalType":"bytes32","name":"aggregatedRoot","type":"bytes32"},{"internalType":"uint256[2]","name":"proofA","type":"uint256[2]"},{"internalType":"uint256[2][2]","name":"proofB","type":"uint256[2][2]"},{"internalType":"uint256[2]","name":"proofC","type":"uint256[2]"}],"name":"submitAggregatedCommit","outputs":[],"stateMutability":"nonpayable","type":"function"},{"inputs":[{"internalType":"uint256","name":"chainId","type":"uint256"},{"internalType":"bytes32","name":"oldStateRoot","type":"bytes32"},{"internalType":"bytes32","name":"newStateRoot","type":"bytes32"},{"internalType":"uint256[2]","name":"proofA","type":"uint256[2]"},{"internalType":"uint256[2][2]","name":"proofB","type":"uint256[2][2]"},{"internalType":"uint256[2]","name":"proofC","type":"uint256[2]"}],"name":"submitCommit","outputs":[],"stateMutability":"nonpayable","type":"function"},{"inputs":[{"internalType":"uint256","name":"","type":"uint256"}],"name":"treeNodes","outputs":[{"internalType":"uint256","name":"nodeId","type":"uint256"},{"internalType":"uint256","name":"parentNodeId","type":"uint256"},{"internalType":"bytes32","name":"aggregatedRoot","type":"bytes32"},{"internalType":"address","name":"assignedCommitter","type":"address"},{"internalType":"bool","name":"isActive","type":"bool"}],"stateMutability":"view","type":"function"},{"inputs":[{"internalType":"bytes32","name":"commitId","type":"bytes32"},{"internalType":"uint256[2]","name":"proofA","type":"uint256[2]"},{"internalType":"uint256[2][2]","name":"proofB","type":"uint256[2][2]"},{"internalType":"uint256[2]","name":"proofC","type":"uint256[2]"}],"name":"verifyCommit","outputs":[],"stateMutability":"nonpayable","type":"function"},{"stateMutability":"payable","type":"receive"}],"evm":{"bytecode":{"linkReferences":{},"object":"608060405266038d7ea4c6800060165560016019556001601e55348015610024575f80fd5b50601880546001600160a01b031916339081179091555f908152601a60205260409020805460ff19166001908117909155601b55613539806100655f395ff3fe60806040526004361061020a575f3560e01c80636c5611671161011357806393fd1a061161009d578063def156271161006d578063def1562714610790578063df9a4f56146107bb578063e46dcc59146107da578063f1bed7e0146107f9578063f1f021cb1461080d575f80fd5b806393fd1a0614610702578063993240391461073e578063d25d23bd1461075d578063d6fb789314610771575f80fd5b806379cf0cfb116100e357806379cf0cfb146106675780637a77473d146106865780638da5cb5b146106a55780638e16f159146106c45780639027ff3b146106e3575f80fd5b80636c561167146105f15780636dd072fe1461060657806370d487981461063357806376bdac2c14610652575f80fd5b80633dde5ede116101945780634ee6a6a6116101645780634ee6a6a61461044857806351d58969146104d0578063550325b5146104ef5780635f4fea26146105645780635fa22269146105dd575f80fd5b80633dde5ede1461032a57806346b7170614610345578063478857811461038657806347f9aa9f1461041a575f80fd5b806320eca391116101da57806320eca3911461029057806322491525146102a557806328d819b7146102dc578063372500ab146102fb578063377206061461030f575f80fd5b806306222e8614610215578063115f574c146102365780631666990e1461025e578063208f2a3114610271575f80fd5b3661021157005b5f80fd5b348015610220575f80fd5b5061023461022f366004612ffc565b610838565b005b348015610241575f80fd5b5061024b601b5481565b6040519081526020015b60405180910390f35b61023461026c36600461306d565b610d3a565b34801561027c575f80fd5b5061024b61028b3660046130f3565b610f8e565b34801561029b575f80fd5b5061024b601e5481565b3480156102b0575f80fd5b506102c46102bf3660046130f3565b610fad565b6040516001600160a01b039091168152602001610255565b3480156102e7575f80fd5b506102346102f6366004613152565b610fd5565b348015610306575f80fd5b5061023461151d565b34801561031a575f80fd5b5061024b6706f05b59d3b2000081565b348015610335575f80fd5b5061024b670de0b6b3a764000081565b348015610350575f80fd5b5061037661035f3660046130f3565b5f9081526011602052604090206005015460ff1690565b6040519015158152602001610255565b348015610391575f80fd5b506103e16103a03660046130f3565b60116020525f90815260409020805460018201546002830154600384015460048501546005909501546001600160a01b039094169492939192909160ff1686565b604080516001600160a01b03909716875260208701959095529385019290925260608401526080830152151560a082015260c001610255565b348015610425575f80fd5b506103766104343660046131f4565b601a6020525f908152604090205460ff1681565b348015610453575f80fd5b5061049d6104623660046130f3565b601c6020525f90815260409020805460018201546004830154600590930154919290916001600160a01b03811690600160a01b900460ff1685565b604080519586526020860194909452928401919091526001600160a01b031660608301521515608082015260a001610255565b3480156104db575f80fd5b506102346104ea366004613214565b61167e565b3480156104fa575f80fd5b5061053a6105093660046130f3565b600f6020525f9081526040902080546001820154600283015460038401546004909401549293919290919060ff1685565b6040805195865260208601949094529284019190915260608301521515608082015260a001610255565b34801561056f575f80fd5b506105b161057e3660046131f4565b60136020525f908152604090208054600282015460038301546004909301546001600160a01b0390921692909160ff1684565b604080516001600160a01b03909516855260208501939093529183015215156060820152608001610255565b3480156105e8575f80fd5b5060145461024b565b3480156105fc575f80fd5b5061024b60165481565b348015610611575f80fd5b506106256106203660046130f3565b6117ec565b60405161025592919061326e565b34801561063e575f80fd5b5061024b61064d3660046130f3565b6118ac565b34801561065d575f80fd5b5061024b60195481565b348015610672575f80fd5b5061024b61068136600461329b565b6118bb565b348015610691575f80fd5b5061024b6106a0366004613214565b611c1c565b3480156106b0575f80fd5b506018546102c4906001600160a01b031681565b3480156106cf575f80fd5b5061024b6106de3660046130f3565b611c4d565b3480156106ee575f80fd5b5061024b6106fd366004613214565b611c5c565b34801561070d575f80fd5b5061072161071c3660046131f4565b611c87565b604080519384526020840192909252151590820152606001610255565b348015610749575f80fd5b506102346107583660046132ea565b611d51565b348015610768575f80fd5b5060105461024b565b34801561077c575f80fd5b5061023461078b3660046130f3565b611f2e565b34801561079b575f80fd5b5061024b6107aa3660046130f3565b5f9081526015602052604090205490565b3480156107c6575f80fd5b506102346107d53660046131f4565b6121ae565b3480156107e5575f80fd5b506102346107f43660046133d1565b6122a0565b348015610804575f80fd5b5060125461024b565b348015610818575f80fd5b5061024b6108273660046131f4565b60176020525f908152604090205481565b335f908152601a602052604090205460ff1661088c5760405162461bcd60e51b815260206004820152600e60248201526d2737ba1030b71030bab234ba37b960911b60448201526064015b60405180910390fd5b5f84815260116020526040902060048101546108dd5760405162461bcd60e51b815260206004820152601060248201526f10dbdb5b5a5d081b9bdd08199bdd5b9960821b6044820152606401610883565b600581015460ff16156109255760405162461bcd60e51b815260206004820152601060248201526f105b1c9958591e481d995c9a599a595960821b6044820152606401610883565b6040805160a0810182528551606080830191825260208089015160808501529183528351808501855287518152878301518184015282840152835180850185528651815286830151818401528385015283516002808252918101855292935f93928301908036833701905050905082600201545f1c815f815181106109ac576109ac613431565b60200260200101818152505082600301545f1c816001815181106109d2576109d2613431565b6020908102919091018101919091526040805160e0810182525f805460a0830190815260015460c08401528252825160808101808552610be2959394929385019260029183918201908390819081845b815481526020019060010190808311610a2257505050918352505060408051808201918290526020909201919060028481019182845b815481526020019060010190808311610a58575050509190925250505081526040805160808101808352602090930192909160068501918391820190839060029082845b815481526020019060010190808311610a9c57505050918352505060408051808201918290526020909201919060028481019182845b815481526020019060010190808311610ad25750505091909252505050815260408051608081018083526020909301929091600a8501918391820190839060029082845b815481526020019060010190808311610b1657505050918352505060408051808201918290526020909201919060028481019182845b815481526020019060010190808311610b4c575050505050815250508152602001600e8201805480602002602001604051908101604052809291908181526020015f905b82821015610bd3578382905f5260205f2090600202016040518060400160405290815f820154815260200160018201548152505081526020019060010190610b90565b50505050815250508383612587565b610c2e5760405162461bcd60e51b815260206004820152601f60248201527f41756469742070726f6f6620766572696669636174696f6e206661696c6564006044820152606401610883565b60058301805460ff19166001908117909155838101545f908152600f6020526040812060038087015493820193909355436002820155918201805491610c7383613459565b90915550506001808501545f9081526015602090815260408083206003890154815495860182559084528284209094019390935586546001600160a01b03168252601390529081206002810180549192610ccc83613459565b9190505550601654816003015f828254610ce69190613471565b909155505060018501546003860154604080519182523360208301528b917f014d6f70053a077a975599f4c489c65dc6d8b5139ec36dde096dcf77235e611e910160405180910390a3505050505050505050565b335f9081526013602052604090206004015460ff1615610d915760405162461bcd60e51b8152602060048201526012602482015271105b1c9958591e481c9959da5cdd195c995960721b6044820152606401610883565b670de0b6b3a7640000341015610dde5760405162461bcd60e51b8152602060048201526012602482015271496e73756666696369656e74207374616b6560701b6044820152606401610883565b5f5b8151811015610e6957600f5f838381518110610dfe57610dfe613431565b60209081029190910181015182528101919091526040015f206004015460ff16610e615760405162461bcd60e51b815260206004820152601460248201527310da185a5b881b9bdd081c9959da5cdd195c995960621b6044820152606401610883565b600101610de0565b506040805160a0810182523380825260208083018581525f848601819052606085018190526001608086018190529381526013835294909420835181546001600160a01b0319166001600160a01b0390911617815593518051939493610ed6938501929190910190612d93565b506040828101516002830155606083015160038301556080909201516004909101805460ff1916911515919091179055335f81815260176020528281203490556014805460018101825591527fce6d7b5282bd9a3661ae061feed1dbda4e52ab073b1f9285be6e155d9c38d4ec0180546001600160a01b0319168217905590517fe31883c364687c182b88cbb1268e64b59f0ed8889554f38c5f49787946c2fd5490610f83908490613484565b60405180910390a250565b601d8181548110610f9d575f80fd5b5f91825260209091200154905081565b60148181548110610fbc575f80fd5b5f918252602090912001546001600160a01b0316905081565b5f878152601c602052604090206005810154600160a01b900460ff1661102f5760405162461bcd60e51b815260206004820152600f60248201526e4e6f6465206e6f742061637469766560881b6044820152606401610883565b60058101546001600160a01b031633146110845760405162461bcd60e51b81526020600482015260166024820152752737ba1030b9b9b4b3b732b21031b7b6b6b4ba3a32b960511b6044820152606401610883565b600381015460028201546110989190613471565b86146110dc5760405162461bcd60e51b81526020600482015260136024820152720a4dedee840c6deeadce840dad2e6dac2e8c6d606b1b6044820152606401610883565b6040805160a0810182528551606080830191825260208089015160808501529183528351808501855287518152878301518184015282840152835180850185528651815286830151818401528385015283516002808252918101855292935f93928301908036833701905050905082600401545f1c815f8151811061116357611163613431565b602002602001018181525050865f1c8160018151811061118557611185613431565b6020908102919091018101919091526040805160e0810182525f805460a0830190815260015460c08401528252825160808101808552600280549583019586526113779694959394860193909183919083908190600360608601808311610a2257505050918352505060408051808201918290526002848101805483526020948501949293909260038701908501808311610a585750505091909252505050815260408051608081018083526006850180549383019384526020909401939192839183906002906007890160608601808311610a9c57505050918352505060408051808201918290526002848101805483526020948501949293909260038701908501808311610ad2575050509190925250505081526040805160808101808352600a85018054938301938452602090940193919283918390600290600b890160608601808311610b1657505050918352505060408051808201918290526002848101805483526020948501949293909260038701908501808311610b4c575050505050815250508152602001600e8201805480602002602001604051908101604052809291908181526020015f9082821015610bd3578382905f5260205f2090600202016040518060400160405290815f820154815260200160018201548152505081526020019060010190610b90565b6113cf5760405162461bcd60e51b8152602060048201526024808201527f416767726567617465642070726f6f6620766572696669636174696f6e2066616044820152631a5b195960e21b6064820152608401610883565b5f5b6002840154811015611495575f8460020182815481106113f3576113f3613431565b905f5260205f20015490508a8a8381811061141057611410613431565b5f848152600f60209081526040822092029390930135600182015543600282015560030180549290915061144383613459565b90915550505f8181526015602052604090208b8b8481811061146757611467613431565b8354600180820186555f958652602095869020929095029390930135920191909155509190910190506113d1565b5060048301879055335f90815260136020526040812060028101805491926114bc83613459565b9190505550601654816003015f8282546114d69190613471565b90915550506040518881528b907f5a404a1779052a974fee1066a42e51994e81cda626020724e4c4fd3b14069e8d9060200160405180910390a25050505050505050505050565b335f908152601360205260409020600481015460ff166115715760405162461bcd60e51b815260206004820152600f60248201526e2737ba10309031b7b6b6b4ba3a32b960891b6044820152606401610883565b5f8160030154116115b15760405162461bcd60e51b815260206004820152600a6024820152694e6f207265776172647360b01b6044820152606401610883565b6003810180545f91829055604051909190339083908381818185875af1925050503d805f81146115fc576040519150601f19603f3d011682016040523d82523d5f602084013e611601565b606091505b50509050806116445760405162461bcd60e51b815260206004820152600f60248201526e151c985b9cd9995c8819985a5b1959608a1b6044820152606401610883565b60405182815233907f106f923f993c2149d49b4255ff723acafa1f2d94393f561d3eda32ae348f72419060200160405180910390a2505050565b6018546001600160a01b031633146116a85760405162461bcd60e51b815260040161088390613496565b5f828152600f602052604090206004015460ff16156117095760405162461bcd60e51b815260206004820152601860248201527f436861696e20616c7265616479207265676973746572656400000000000000006044820152606401610883565b6040805160a0810182528381526020808201848152438385019081525f606085018181526001608087018181528a8452600f8752888420975188559451878201559251600287015551600386015591516004909401805460ff191694151594909417909355601080548085019091557f1b6847dc741a1b0cd08d278845f9d819d87b734759afb55fe2de5cb82a9ae6720186905560158252838120805493840181558152819020909101839055905182815283917f02c698cb2acce446d2f91f2b451c3776e20fd161c697ab5d1cf06c6b1dac1f2f910160405180910390a25050565b5f818152601c602090815260409182902060028101805484518185028101850190955280855260609485946003850192849183018282801561184b57602002820191905f5260205f20905b815481526020019060010190808311611837575b505050505091508080548060200260200160405190810160405280929190818152602001828054801561189b57602002820191905f5260205f20905b815481526020019060010190808311611887575b505050505090509250925050915091565b60108181548110610f9d575f80fd5b6018545f906001600160a01b031633146118e75760405162461bcd60e51b815260040161088390613496565b6001600160a01b0382165f9081526013602052604090206004015460ff166119515760405162461bcd60e51b815260206004820152601860248201527f436f6d6d6974746572206e6f74207265676973746572656400000000000000006044820152606401610883565b5f5b838110156119e357600f5f86868481811061197057611970613431565b602090810292909201358352508101919091526040015f206004015460ff166119db5760405162461bcd60e51b815260206004820152601a60248201527f4368696c6420636861696e206e6f7420726567697374657265640000000000006044820152606401610883565b600101611953565b508415611a49575f858152601c6020526040902060050154600160a01b900460ff16611a495760405162461bcd60e51b815260206004820152601560248201527414185c995b9d081b9bd919481b9bdd08199bdd5b99605a1b6044820152606401610883565b601e80545f9182611a5983613459565b9190505590506040518060e001604052808281526020018781526020018686808060200260200160405190810160405280939291908181526020018383602002808284375f92018290525093855250506040805183815260208082018352808601919091528185018490526001600160a01b038916606086015260016080909501859052868452601c8152928190208551815585840151948101949094558401518051611b10936002860193509190910190612d93565b5060608201518051611b2c916003840191602090910190612d93565b506080820151600482015560a08201516005909101805460c0909301511515600160a01b026001600160a81b03199093166001600160a01b03909216919091179190911790558515611b9c575f868152601c60209081526040822060030180546001810182559083529120018190555b601d80546001810182555f919091527f6d4407e7be21f808e6509aa9fa9143369579dd7d760fe20a2c09680fc146134f01819055604080518781526001600160a01b038516602082015282917f67c6b0970f5c82d489bb3163ea8ec1ae68d61dc6f27e2476ed1055e06bccd811910160405180910390a295945050505050565b5f828152601560205260408120805483908110611c3b57611c3b613431565b905f5260205f20015490505b92915050565b60128181548110610f9d575f80fd5b6015602052815f5260405f208181548110611c75575f80fd5b905f5260205f20015f91509150505481565b6001600160a01b038082165f908152601360209081526040808320815160a08101835281549095168552600181018054835181860281018601909452808452949586958695869592949385820193929091830182828015611d0557602002820191905f5260205f20905b815481526020019060010190808311611cf1575b505050918352505060028201546020820152600382015460408083019190915260049092015460ff16151560609182015290820151908201516080909201519097919650945092505050565b6018546001600160a01b03163314611d7b5760405162461bcd60e51b815260040161088390613496565b60408051808201825286518082526020808901519281018390525f91909155600191909155815180830190925285518083528682015191830191909152600290611dc790829081612ddc565b506020820151611ddd9060028084019190612ddc565b505060408051808201909152845180825260208087015190830152909150600690611e0b9082906002612ddc565b506020820151611e219060028084019190612ddc565b505060408051808201909152835180825260208086015190830152909150600a90611e4f9082906002612ddc565b506020820151611e659060028084019190612ddc565b50611e759150600e90505f612e09565b5f5b8151811015611f26575f600e016040518060400160405280848481518110611ea157611ea1613431565b60200260200101515f60028110611eba57611eba613431565b60200201518152602001848481518110611ed657611ed6613431565b6020026020010151600160028110611ef057611ef0613431565b602090810291909101519091528254600181810185555f9485529382902083516002909202019081559101519082015501611e77565b505050505050565b335f908152601a602052604090205460ff16611f7d5760405162461bcd60e51b815260206004820152600e60248201526d2737ba1030b71030bab234ba37b960911b6044820152606401610883565b5f8181526011602052604090206004810154611fce5760405162461bcd60e51b815260206004820152601060248201526f10dbdb5b5a5d081b9bdd08199bdd5b9960821b6044820152606401610883565b600581015460ff16156120235760405162461bcd60e51b815260206004820152601960248201527f416c72656164792076657269666965642061732076616c6964000000000000006044820152606401610883565b80546001600160a01b03165f818152601760205260409020546706f05b59d3b2000011156120935760405162461bcd60e51b815260206004820152601b60248201527f496e73756666696369656e74207374616b6520746f20736c61736800000000006044820152606401610883565b6001600160a01b0381165f90815260176020526040812080546706f05b59d3b2000092906120c29084906134ba565b90915550506040515f9033906706f05b59d3b20000908381818185875af1925050503d805f811461210e576040519150601f19603f3d011682016040523d82523d5f602084013e612113565b606091505b505090508061215c5760405162461bcd60e51b815260206004820152601560248201527414db185cda081d1c985b9cd9995c8819985a5b1959605a1b6044820152606401610883565b604080516706f05b59d3b200008152602081018690526001600160a01b038416917f92225e2a729727e349c9f6c18841822c01b9f8ef4de8f9cdbdd66a431a7a6a9b910160405180910390a250505050565b6018546001600160a01b031633146121d85760405162461bcd60e51b815260040161088390613496565b6001600160a01b0381165f908152601a602052604090205460ff16156122355760405162461bcd60e51b8152602060048201526012602482015271105b1c9958591e481c9959da5cdd195c995960721b6044820152606401610883565b6001600160a01b0381165f908152601a60205260408120805460ff19166001179055601b80549161226583613459565b90915550506040516001600160a01b038216907fea5f6444a82c5a256b72b475714978ac87af927f8f6881498833df35cdc675d7905f90a250565b335f9081526013602052604090206004015460ff166123015760405162461bcd60e51b815260206004820152601a60248201527f4e6f742061207265676973746572656420636f6d6d69747465720000000000006044820152606401610883565b5f868152600f602052604090206004015460ff166123545760405162461bcd60e51b815260206004820152601060248201526f436861696e206e6f742061637469766560801b6044820152606401610883565b5f868152600f602052604090206001015485146123d95760405162461bcd60e51b815260206004820152603860248201527f4f6c6420726f6f74206d69736d61746368202d206d75737420636861696e206660448201527f726f6d206c617465737420766572696669656420726f6f7400000000000000006064820152608401610883565b6040516bffffffffffffffffffffffff193360601b1660208201526034810187905260548101869052607481018590524360948201525f9060b40160408051601f1981840301815291815281516020928301205f8181526011909352912060040154909150156124815760405162461bcd60e51b815260206004820152601360248201527221b7b6b6b4ba1024a21031b7b63634b9b4b7b760691b6044820152606401610883565b6040805160c0810182523380825260208083018b81528385018b8152606085018b815242608087019081525f60a088018181528a825260118752898220985189546001600160a01b0319166001600160a01b0390911617895594516001808a0191909155935160028901559151600388015551600487015591516005909501805460ff19169515159590951790945560128054948501815590527fbb8a6a4669ba250d26cd7a459eca9d215f8307e33aebe50379bc5a3617ec344490920184905582518981529182018890528992909184917ffd57ae7ef8581a8e9af12e7408dcf1ca9021e8cb25ffe3c72933ae9e04b1358f910160405180910390a450505050505050565b5f8360800151518251600161259c9190613471565b146125e95760405162461bcd60e51b815260206004820152601c60248201527f496e76616c6964207075626c696320696e70757473206c656e677468000000006044820152606401610883565b5f5b8251811015612684577f30644e72e131a029b85045b68181585d2833e84879b9709143e1f593f000000183828151811061262757612627613431565b60200260200101511061267c5760405162461bcd60e51b815260206004820152601a60248201527f5075626c696320696e7075742065786365656473206669656c640000000000006044820152606401610883565b6001016125eb565b505f84608001515f8151811061269c5761269c613431565b602002602001015190505f5b8351811015612710576127068261270188608001518460016126ca9190613471565b815181106126da576126da613431565b60200260200101518785815181106126f4576126f4613431565b60200260200101516128b1565b61293f565b91506001016126a8565b5060408051600480825260a082019092525f91816020015b604080518082019091525f808252602082015281526020019060019003908161272857505060408051600480825260a082019092529192505f9190602082015b612770612e2a565b8152602001906001900390816127685750508651909150612790906129cb565b825f815181106127a2576127a2613431565b60200260200101819052508560200151815f815181106127c4576127c4613431565b6020026020010181905250865f0151826001815181106127e6576127e6613431565b602002602001018190525086602001518160018151811061280957612809613431565b6020026020010181905250828260028151811061282857612828613431565b602002602001018190525086604001518160028151811061284b5761284b613431565b602002602001018190525085604001518260038151811061286e5761286e613431565b602002602001018190525086606001518160038151811061289157612891613431565b60200260200101819052506128a68282612a82565b979650505050505050565b604080518082019091525f80825260208201526128cc612e4f565b835181526020808501519082015260408082018490525f908360608460076107d05a03fa9050806129375760405162461bcd60e51b8152602060048201526015602482015274189b8c8d4d94d8d85b185c935d5b0819985a5b1959605a1b6044820152606401610883565b505092915050565b604080518082019091525f808252602082015261295a612e6d565b835181526020808501518183015283516040808401919091529084015160608301525f908360808460066107d05a03fa9050806129375760405162461bcd60e51b815260206004820152600f60248201526e189b8c8d4d9059190819985a5b1959608a1b6044820152606401610883565b604080518082019091525f808252602082015281511580156129ef57506020820151155b15612a0c575050604080518082019091525f808252602082015290565b6040518060400160405280835f015181526020017f30644e72e131a029b85045b68181585d97816a916871ca8d3c208c16d87cfd478460200151612a5091906134cd565b612a7a907f30644e72e131a029b85045b68181585d97816a916871ca8d3c208c16d87cfd476134ba565b905292915050565b5f8151835114612ad45760405162461bcd60e51b815260206004820152601760248201527f50616972696e67206c656e677468206d69736d617463680000000000000000006044820152606401610883565b5f83516006612ae391906134ec565b90505f8167ffffffffffffffff811115612aff57612aff612ef5565b604051908082528060200260200182016040528015612b28578160200160208202803683370190505b5090505f5b8551811015612d23575f612b428260066134ec565b9050868281518110612b5657612b56613431565b60200260200101515f015183825f612b6e9190613471565b81518110612b7e57612b7e613431565b602002602001018181525050868281518110612b9c57612b9c613431565b60200260200101516020015183826001612bb69190613471565b81518110612bc657612bc6613431565b602002602001018181525050858281518110612be457612be4613431565b60209081029190910181015151015183612bff836002613471565b81518110612c0f57612c0f613431565b602002602001018181525050858281518110612c2d57612c2d613431565b6020908102919091010151515183612c46836003613471565b81518110612c5657612c56613431565b602002602001018181525050858281518110612c7457612c74613431565b602002602001015160200151600160028110612c9257612c92613431565b602002015183612ca3836004613471565b81518110612cb357612cb3613431565b602002602001018181525050858281518110612cd157612cd1613431565b6020026020010151602001515f60028110612cee57612cee613431565b602002015183612cff836005613471565b81518110612d0f57612d0f613431565b602090810291909101015250600101612b2d565b50612d2c612e8b565b5f602082602086026020860160086107d05a03fa905080612d855760405162461bcd60e51b8152602060048201526013602482015272189b8c8d4d94185a5c9a5b99c819985a5b1959606a1b6044820152606401610883565b505160011495945050505050565b828054828255905f5260205f20908101928215612dcc579160200282015b82811115612dcc578251825591602001919060010190612db1565b50612dd8929150612ea9565b5090565b8260028101928215612dcc5791602002820182811115612dcc578251825591602001919060010190612db1565b5080545f8255600202905f5260205f2090810190612e279190612ebd565b50565b6040518060400160405280612e3d612ed7565b8152602001612e4a612ed7565b905290565b60405180606001604052806003906020820280368337509192915050565b60405180608001604052806004906020820280368337509192915050565b60405180602001604052806001906020820280368337509192915050565b5b80821115612dd8575f8155600101612eaa565b5b80821115612dd8575f8082556001820155600201612ebe565b60405180604001604052806002906020820280368337509192915050565b634e487b7160e01b5f52604160045260245ffd5b6040805190810167ffffffffffffffff81118282101715612f2c57612f2c612ef5565b60405290565b604051601f8201601f1916810167ffffffffffffffff81118282101715612f5b57612f5b612ef5565b604052919050565b5f82601f830112612f72575f80fd5b612f7a612f09565b806040840185811115612f8b575f80fd5b845b81811015612fa5578035845260209384019301612f8d565b509095945050505050565b5f82601f830112612fbf575f80fd5b612fc7612f09565b806080840185811115612fd8575f80fd5b845b81811015612fa557612fec8782612f63565b8452602090930192604001612fda565b5f805f806101208587031215613010575f80fd5b843593506130218660208701612f63565b92506130308660608701612fb0565b915061303f8660e08701612f63565b905092959194509250565b5f67ffffffffffffffff82111561306357613063612ef5565b5060051b60200190565b5f602080838503121561307e575f80fd5b823567ffffffffffffffff811115613094575f80fd5b8301601f810185136130a4575f80fd5b80356130b76130b28261304a565b612f32565b81815260059190911b820183019083810190878311156130d5575f80fd5b928401925b828410156128a6578335825292840192908401906130da565b5f60208284031215613103575f80fd5b5035919050565b5f8083601f84011261311a575f80fd5b50813567ffffffffffffffff811115613131575f80fd5b6020830191508360208260051b850101111561314b575f80fd5b9250929050565b5f805f805f805f610160888a031215613169575f80fd5b87359650602088013567ffffffffffffffff811115613186575f80fd5b6131928a828b0161310a565b909750955050604088013593506131ac8960608a01612f63565b92506131bb8960a08a01612fb0565b91506131cb896101208a01612f63565b905092959891949750929550565b80356001600160a01b03811681146131ef575f80fd5b919050565b5f60208284031215613204575f80fd5b61320d826131d9565b9392505050565b5f8060408385031215613225575f80fd5b50508035926020909101359150565b5f815180845260208085019450602084015f5b8381101561326357815187529582019590820190600101613247565b509495945050505050565b604081525f6132806040830185613234565b82810360208401526132928185613234565b95945050505050565b5f805f80606085870312156132ae575f80fd5b84359350602085013567ffffffffffffffff8111156132cb575f80fd5b6132d78782880161310a565b909450925061303f9050604086016131d9565b5f805f805f6101e086880312156132ff575f80fd5b6133098787612f63565b9450604061331a8860408901612fb0565b94506133298860c08901612fb0565b9350613339886101408901612fb0565b92506101c087013567ffffffffffffffff811115613355575f80fd5b8701601f81018913613365575f80fd5b803560206133756130b28361304a565b8083825260208201915060208460061b86010193508c841115613396575f80fd5b6020850194505b838510156133be576133af8d86612f63565b8252938501939082019061339d565b8096505050505050509295509295909350565b5f805f805f8061016087890312156133e7575f80fd5b8635955060208701359450604087013593506134068860608901612f63565b92506134158860a08901612fb0565b9150613425886101208901612f63565b90509295509295509295565b634e487b7160e01b5f52603260045260245ffd5b634e487b7160e01b5f52601160045260245ffd5b5f6001820161346a5761346a613445565b5060010190565b80820180821115611c4757611c47613445565b602081525f61320d6020830184613234565b6020808252600a908201526927b7363c9037bbb732b960b11b604082015260600190565b81810381811115611c4757611c47613445565b5f826134e757634e487b7160e01b5f52601260045260245ffd5b500690565b8082028115828204841417611c4757611c4761344556fea26469706673582212202cccf20eb09524504bb92482df222f5f606b68985fb6c755e3300a7736219eef64736f6c63430008180033","opcodes":"PUSH1 0x80 PUSH1 0x40 MSTORE PUSH7 0x38D7EA4C68000 PUSH1 0x16 SSTORE PUSH1 0x1 PUSH1 0x19 SSTORE PUSH1 0x1 PUSH1 0x1E SSTORE CALLVALUE DUP1 ISZERO PUSH2 0x24 JUMPI PUSH0 DUP1 REVERT JUMPDEST POP PUSH1 0x18 DUP1 SLOAD PUSH1 0x1 PUSH1 0x1 PUSH1 0xA0 SHL SUB NOT AND CALLER SWAP1 DUP2 OR SWAP1 SWAP2 SSTORE PUSH0 SWAP1 DUP2 MSTORE PUSH1 0x1A PUSH1 0x20 MSTORE PUSH1 0x40 SWAP1 KECCAK256 DUP1 SLOAD PUSH1 0xFF NOT AND PUSH1 0x1 SWAP1 DUP2 OR SWAP1 SWAP2 SSTORE PUSH1 0x1B SSTORE PUSH2 0x3539 DUP1 PUSH2 0x65 PUSH0 CODECOPY PUSH0 RETURN INVALID PUSH1 0x80 PUSH1 0x40 MSTORE PUSH1 0x4 CALLDATASIZE LT PUSH2 0x20A JUMPI PUSH0 CALLDATALOAD PUSH1 0xE0 SHR DUP1 PUSH4 0x6C561167 GT PUSH2 0x113 JUMPI DUP1 PUSH4 0x93FD1A06 GT PUSH2 0x9D JUMPI DUP1 PUSH4 0xDEF15627 GT PUSH2 0x6D JUMPI DUP1 PUSH4 0xDEF15627 EQ PUSH2 0x790 JUMPI DUP1 PUSH4 0xDF9A4F56 EQ PUSH2 0x7BB JUMPI DUP1 PUSH4 0xE46DCC59 EQ PUSH2 0x7DA JUMPI DUP1 PUSH4 0xF1BED7E0 EQ PUSH2 0x7F9 JUMPI DUP1 PUSH4 0xF1F021CB EQ PUSH2 0x80D JUMPI PUSH0 DUP1 REVERT JUMPDEST DUP1 PUSH4 0x93FD1A06 EQ PUSH2 0x702 JUMPI DUP1 PUSH4 0x99324039 EQ PUSH2 0x73E JUMPI DUP1 PUSH4 0xD25D23BD EQ PUSH2 0x75D JUMPI DUP1 PUSH4 0xD6FB7893 EQ PUSH2 0x771 JUMPI PUSH0 DUP1 REVERT JUMPDEST DUP1 PUSH4 0x79CF0CFB GT PUSH2 0xE3 JUMPI DUP1 PUSH4 0x79CF0CFB EQ PUSH2 0x667 JUMPI DUP1 PUSH4 0x7A77473D EQ PUSH2 0x686 JUMPI DUP1 PUSH4 0x8DA5CB5B EQ PUSH2 0x6A5 JUMPI DUP1 PUSH4 0x8E16F159 EQ PUSH2 0x6C4 JUMPI DUP1 PUSH4 0x9027FF3B EQ PUSH2 0x6E3 JUMPI PUSH0 DUP1 REVERT JUMPDEST DUP1 PUSH4 0x6C561167 EQ PUSH2 0x5F1 JUMPI DUP1 PUSH4 0x6DD072FE EQ PUSH2 0x606 JUMPI DUP1 PUSH4 0x70D48798 EQ PUSH2 0x633 JUMPI DUP1 PUSH4 0x76BDAC2C EQ PUSH2 0x652 JUMPI PUSH0 DUP1 REVERT JUMPDEST DUP1 PUSH4 0x3DDE5EDE GT PUSH2 0x194 JUMPI DUP1 PUSH4 0x4EE6A6A6 GT PUSH2 0x164 JUMPI DUP1 PUSH4 0x4EE6A6A6 EQ PUSH2 0x448 JUMPI DUP1 PUSH4 0x51D58969 EQ PUSH2 0x4D0 JUMPI DUP1 PUSH4 0x550325B5 EQ PUSH2 0x4EF JUMPI DUP1 PUSH4 0x5F4FEA26 EQ PUSH2 0x564 JUMPI DUP1 PUSH4 0x5FA22269 EQ PUSH2 0x5DD JUMPI PUSH0 DUP1 REVERT JUMPDEST DUP1 PUSH4 0x3DDE5EDE EQ PUSH2 0x32A JUMPI DUP1 PUSH4 0x46B71706 EQ PUSH2 0x345 JUMPI DUP1 PUSH4 0x47885781 EQ PUSH2 0x386 JUMPI DUP1 PUSH4 0x47F9AA9F EQ PUSH2 0x41A JUMPI PUSH0 DUP1 REVERT JUMPDEST DUP1 PUSH4 0x20ECA391 GT PUSH2 0x1DA JUMPI DUP1 PUSH4 0x20ECA391 EQ PUSH2 0x290 JUMPI DUP1 PUSH4 0x22491525 EQ PUSH2 0x2A5 JUMPI DUP1 PUSH4 0x28D819B7 EQ PUSH2 0x2DC JUMPI DUP1 PUSH4 0x372500AB EQ PUSH2 0x2FB JUMPI DUP1 PUSH4 0x37720606 EQ PUSH2 0x30F JUMPI PUSH0 DUP1 REVERT JUMPDEST DUP1 PUSH4 0x6222E86 EQ PUSH2 0x215 JUMPI DUP1 PUSH4 0x115F574C EQ PUSH2 0x236 JUMPI DUP1 PUSH4 0x1666990E EQ PUSH2 0x25E JUMPI DUP1 PUSH4 0x208F2A31 EQ PUSH2 0x271 JUMPI PUSH0 DUP1 REVERT JUMPDEST CALLDATASIZE PUSH2 0x211 JUMPI STOP JUMPDEST PUSH0 DUP1 REVERT JUMPDEST CALLVALUE DUP1 ISZERO PUSH2 0x220 JUMPI PUSH0 DUP1 REVERT JUMPDEST POP PUSH2 0x234 PUSH2 0x22F CALLDATASIZE PUSH1 0x4 PUSH2 0x2FFC JUMP JUMPDEST PUSH2 0x838 JUMP JUMPDEST STOP JUMPDEST CALLVALUE DUP1 ISZERO PUSH2 0x241 JUMPI PUSH0 DUP1 REVERT JUMPDEST POP PUSH2 0x24B PUSH1 0x1B SLOAD DUP2 JUMP JUMPDEST PUSH1 0x40 MLOAD SWAP1 DUP2 MSTORE PUSH1 0x20 ADD JUMPDEST PUSH1 0x40 MLOAD DUP1 SWAP2 SUB SWAP1 RETURN JUMPDEST PUSH2 0x234 PUSH2 0x26C CALLDATASIZE PUSH1 0x4 PUSH2 0x306D JUMP JUMPDEST PUSH2 0xD3A JUMP JUMPDEST CALLVALUE DUP1 ISZERO PUSH2 0x27C JUMPI PUSH0 DUP1 REVERT JUMPDEST POP PUSH2 0x24B PUSH2 0x28B CALLDATASIZE PUSH1 0x4 PUSH2 0x30F3 JUMP JUMPDEST PUSH2 0xF8E JUMP JUMPDEST CALLVALUE DUP1 ISZERO PUSH2 0x29B JUMPI PUSH0 DUP1 REVERT JUMPDEST POP PUSH2 0x24B PUSH1 0x1E SLOAD DUP2 JUMP JUMPDEST CALLVALUE DUP1 ISZERO PUSH2 0x2B0 JUMPI PUSH0 DUP1 REVERT JUMPDEST POP PUSH2 0x2C4 PUSH2 0x2BF CALLDATASIZE PUSH1 0x4 PUSH2 0x30F3 JUMP JUMPDEST PUSH2 0xFAD JUMP JUMPDEST PUSH1 0x40 MLOAD PUSH1 0x1 PUSH1 0x1 PUSH1 0xA0 SHL SUB SWAP1 SWAP2 AND DUP2 MSTORE PUSH1 0x20 ADD PUSH2 0x255 JUMP JUMPDEST CALLVALUE DUP1 ISZERO PUSH2 0x2E7 JUMPI PUSH0 DUP1 REVERT JUMPDEST POP PUSH2 0x234 PUSH2 0x2F6 CALLDATASIZE PUSH1 0x4 PUSH2 0x3152 JUMP JUMPDEST PUSH2 0xFD5 JUMP JUMPDEST CALLVALUE DUP1 ISZERO PUSH2 0x306 JUMPI PUSH0 DUP1 REVERT JUMPDEST POP PUSH2 0x234 PUSH2 0x151D JUMP JUMPDEST CALLVALUE DUP1 ISZERO PUSH2 0x31A JUMPI PUSH0 DUP1 REVERT JUMPDEST POP PUSH2 0x24B PUSH8 0x6F05B59D3B20000 DUP2 JUMP JUMPDEST CALLVALUE DUP1 ISZERO PUSH2 0x335 JUMPI PUSH0 DUP1 REVERT JUMPDEST POP PUSH2 0x24B PUSH8 0xDE0B6B3A7640000 DUP2 JUMP JUMPDEST CALLVALUE DUP1 ISZERO PUSH2 0x350 JUMPI PUSH0 DUP1 REVERT JUMPDEST POP PUSH2 0x376 PUSH2 0x35F CALLDATASIZE PUSH1 0x4 PUSH2 0x30F3 JUMP JUMPDEST PUSH0 SWAP1 DUP2 MSTORE PUSH1 0x11 PUSH1 0x20 MSTORE PUSH1 0x40 SWAP1 KECCAK256 PUSH1 0x5 ADD SLOAD PUSH1 0xFF AND SWAP1 JUMP JUMPDEST PUSH1 0x40 MLOAD SWAP1 ISZERO ISZERO DUP2 MSTORE PUSH1 0x20 ADD PUSH2 0x255 JUMP JUMPDEST CALLVALUE DUP1 ISZERO PUSH2 0x391 JUMPI PUSH0 DUP1 REVERT JUMPDEST POP PUSH2 0x3E1 PUSH2 0x3A0 CALLDATASIZE PUSH1 0x4 PUSH2 0x30F3 JUMP JUMPDEST PUSH1 0x11 PUSH1 0x20 MSTORE PUSH0 SWAP1 DUP2 MSTORE PUSH1 0x40 SWAP1 KECCAK256 DUP1 SLOAD PUSH1 0x1 DUP3 ADD SLOAD PUSH1 0x2 DUP4 ADD SLOAD PUSH1 0x3 DUP5 ADD SLOAD PUSH1 0x4 DUP6 ADD SLOAD PUSH1 0x5 SWAP1 SWAP6 ADD SLOAD PUSH1 0x1 PUSH1 0x1 PUSH1 0xA0 SHL SUB SWAP1 SWAP5 AND SWAP5 SWAP3 SWAP4 SWAP2 SWAP3 SWAP1 SWAP2 PUSH1 0xFF AND DUP7 JUMP JUMPDEST PUSH1 0x40 DUP1 MLOAD PUSH1 0x1 PUSH1 0x1 PUSH1 0xA0 SHL SUB SWAP1 SWAP8 AND DUP8 MSTORE PUSH1 0x20 DUP8 ADD SWAP6 SWAP1 SWAP6 MSTORE SWAP4 DUP6 ADD SWAP3 SWAP1 SWAP3 MSTORE PUSH1 0x60 DUP5 ADD MSTORE PUSH1 0x80 DUP4 ADD MSTORE ISZERO ISZERO PUSH1 0xA0 DUP3 ADD MSTORE PUSH1 0xC0 ADD PUSH2 0x255 JUMP JUMPDEST CALLVALUE DUP1 ISZERO PUSH2 0x425 JUMPI PUSH0 DUP1 REVERT JUMPDEST POP PUSH2 0x376 PUSH2 0x434 CALLDATASIZE PUSH1 0x4 PUSH2 0x31F4 JUMP JUMPDEST PUSH1 0x1A PUSH1 0x20 MSTORE PUSH0 SWAP1 DUP2 MSTORE PUSH1 0x40 SWAP1 KECCAK256 SLOAD PUSH1 0xFF AND DUP2 JUMP JUMPDEST CALLVALUE DUP1 ISZERO PUSH2 0x453 JUMPI PUSH0 DUP1 REVERT JUMPDEST POP PUSH2 0x49D PUSH2 0x462 CALLDATASIZE PUSH1 0x4 PUSH2 0x30F3 JUMP JUMPDEST PUSH1 0x1C PUSH1 0x20 MSTORE PUSH0 SWAP1 DUP2 MSTORE PUSH1 0x40 SWAP1 KECCAK256 DUP1 SLOAD PUSH1 0x1 DUP3 ADD SLOAD PUSH1 0x4 DUP4 ADD SLOAD PUSH1 0x5 SWAP1 SWAP4 ADD SLOAD SWAP2 SWAP3 SWAP1 SWAP2 PUSH1 0x1 PUSH1 0x1 PUSH1 0xA0 SHL SUB DUP2 AND SWAP1 PUSH1 0x1 PUSH1 0xA0 SHL SWAP1 DIV PUSH1 0xFF AND DUP6 JUMP JUMPDEST PUSH1 0x40 DUP1 MLOAD SWAP6 DUP7 MSTORE PUSH1 0x20 DUP7 ADD SWAP5 SWAP1 SWAP5 MSTORE SWAP3 DUP5 ADD SWAP2 SWAP1 SWAP2 MSTORE PUSH1 0x1 PUSH1 0x1 PUSH1 0xA0 SHL SUB AND PUSH1 0x60 DUP4 ADD MSTORE ISZERO ISZERO PUSH1 0x80 DUP3 ADD MSTORE PUSH1 0xA0 ADD PUSH2 0x255 JUMP JUMPDEST CALLVALUE DUP1 ISZERO PUSH2 0x4DB JUMPI PUSH0 DUP1 REVERT JUMPDEST POP PUSH2 0x234 PUSH2 0x4EA CALLDATASIZE PUSH1 0x4 PUSH2 0x3214 JUMP JUMPDEST PUSH2 0x167E JUMP JUMPDEST CALLVALUE DUP1 ISZERO PUSH2 0x4FA JUMPI PUSH0 DUP1 REVERT JUMPDEST POP PUSH2 0x53A PUSH2 0x509 CALLDATASIZE PUSH1 0x4 PUSH2 0x30F3 JUMP JUMPDEST PUSH1 0xF PUSH1 0x20 MSTORE PUSH0 SWAP1 DUP2 MSTORE PUSH1 0x40 SWAP1 KECCAK256 DUP1 SLOAD PUSH1 0x1 DUP3 ADD SLOAD PUSH1 0x2 DUP4 ADD SLOAD PUSH1 0x3 DUP5 ADD SLOAD PUSH1 0x4 SWAP1 SWAP5 ADD SLOAD SWAP3 SWAP4 SWAP2 SWAP3 SWAP1 SWAP2 SWAP1 PUSH1 0xFF AND DUP6 JUMP JUMPDEST PUSH1 0x40 DUP1 MLOAD SWAP6 DUP7 MSTORE PUSH1 0x20 DUP7 ADD SWAP5 SWAP1 SWAP5 MSTORE SWAP3 DUP5 ADD SWAP2 SWAP1 SWAP2 MSTORE PUSH1 0x60 DUP4 ADD MSTORE ISZERO ISZERO PUSH1 0x80 DUP3 ADD MSTORE PUSH1 0xA0 ADD PUSH2 0x255 JUMP JUMPDEST CALLVALUE DUP1 ISZERO PUSH2 0x56F JUMPI PUSH0 DUP1 REVERT JUMPDEST POP PUSH2 0x5B1 PUSH2 0x57E CALLDATASIZE PUSH1 0x4 PUSH2 0x31F4 JUMP JUMPDEST PUSH1 0x13 PUSH1 0x20 MSTORE PUSH0 SWAP1 DUP2 MSTORE PUSH1 0x40 SWAP1 KECCAK256 DUP1 SLOAD PUSH1 0x2 DUP3 ADD SLOAD PUSH1 0x3 DUP4 ADD SLOAD PUSH1 0x4 SWAP1 SWAP4 ADD SLOAD PUSH1 0x1 PUSH1 0x1 PUSH1 0xA0 SHL SUB SWAP1 SWAP3 AND SWAP3 SWAP1 SWAP2 PUSH1 0xFF AND DUP5 JUMP JUMPDEST PUSH1 0x40 DUP1 MLOAD PUSH1 0x1 PUSH1 0x1 PUSH1 0xA0 SHL SUB SWAP1 SWAP6 AND DUP6 MSTORE PUSH1 0x20 DUP6 ADD SWAP4 SWAP1 SWAP4 MSTORE SWAP2 DUP4 ADD MSTORE ISZERO ISZERO PUSH1 0x60 DUP3 ADD MSTORE PUSH1 0x80 ADD PUSH2 0x255 JUMP JUMPDEST CALLVALUE DUP1 ISZERO PUSH2 0x5E8 JUMPI PUSH0 DUP1 REVERT JUMPDEST POP PUSH1 0x14 SLOAD PUSH2 0x24B JUMP JUMPDEST CALLVALUE DUP1 ISZERO PUSH2 0x5FC JUMPI PUSH0 DUP1 REVERT JUMPDEST POP PUSH2 0x24B PUSH1 0x16 SLOAD DUP2 JUMP JUMPDEST CALLVALUE DUP1 ISZERO PUSH2 0x611 JUMPI PUSH0 DUP1 REVERT JUMPDEST POP PUSH2 0x625 PUSH2 0x620 CALLDATASIZE PUSH1 0x4 PUSH2 0x30F3 JUMP JUMPDEST PUSH2 0x17EC JUMP JUMPDEST PUSH1 0x40 MLOAD PUSH2 0x255 SWAP3 SWAP2 SWAP1 PUSH2 0x326E JUMP JUMPDEST CALLVALUE DUP1 ISZERO PUSH2 0x63E JUMPI PUSH0 DUP1 REVERT JUMPDEST POP PUSH2 0x24B PUSH2 0x64D CALLDATASIZE PUSH1 0x4 PUSH2 0x30F3 JUMP JUMPDEST PUSH2 0x18AC JUMP JUMPDEST CALLVALUE DUP1 ISZERO PUSH2 0x65D JUMPI PUSH0 DUP1 REVERT JUMPDEST POP PUSH2 0x24B PUSH1 0x19 SLOAD DUP2 JUMP JUMPDEST CALLVALUE DUP1 ISZERO PUSH2 0x672 JUMPI PUSH0 DUP1 REVERT JUMPDEST POP PUSH2 0x24B PUSH2 0x681 CALLDATASIZE PUSH1 0x4 PUSH2 0x329B JUMP JUMPDEST PUSH2 0x18BB JUMP JUMPDEST CALLVALUE DUP1 ISZERO PUSH2 0x691 JUMPI PUSH0 DUP1 REVERT JUMPDEST POP PUSH2 0x24B PUSH2 0x6A0 CALLDATASIZE PUSH1 0x4 PUSH2 0x3214 JUMP JUMPDEST PUSH2 0x1C1C JUMP JUMPDEST CALLVALUE DUP1 ISZERO PUSH2 0x6B0 JUMPI PUSH0 DUP1 REVERT JUMPDEST POP PUSH1 0x18 SLOAD PUSH2 0x2C4 SWAP1 PUSH1 0x1 PUSH1 0x1 PUSH1 0xA0 SHL SUB AND DUP2 JUMP JUMPDEST CALLVALUE DUP1 ISZERO PUSH2 0x6CF JUMPI PUSH0 DUP1 REVERT JUMPDEST POP PUSH2 0x24B PUSH2 0x6DE CALLDATASIZE PUSH1 0x4 PUSH2 0x30F3 JUMP JUMPDEST PUSH2 0x1C4D JUMP JUMPDEST CALLVALUE DUP1 ISZERO PUSH2 0x6EE JUMPI PUSH0 DUP1 REVERT JUMPDEST POP PUSH2 0x24B PUSH2 0x6FD CALLDATASIZE PUSH1 0x4 PUSH2 0x3214 JUMP JUMPDEST PUSH2 0x1C5C JUMP JUMPDEST CALLVALUE DUP1 ISZERO PUSH2 0x70D JUMPI PUSH0 DUP1 REVERT JUMPDEST POP PUSH2 0x721 PUSH2 0x71C CALLDATASIZE PUSH1 0x4 PUSH2 0x31F4 JUMP JUMPDEST PUSH2 0x1C87 JUMP JUMPDEST PUSH1 0x40 DUP1 MLOAD SWAP4 DUP5 MSTORE PUSH1 0x20 DUP5 ADD SWAP3 SWAP1 SWAP3 MSTORE ISZERO ISZERO SWAP1 DUP3 ADD MSTORE PUSH1 0x60 ADD PUSH2 0x255 JUMP JUMPDEST CALLVALUE DUP1 ISZERO PUSH2 0x749 JUMPI PUSH0 DUP1 REVERT JUMPDEST POP PUSH2 0x234 PUSH2 0x758 CALLDATASIZE PUSH1 0x4 PUSH2 0x32EA JUMP JUMPDEST PUSH2 0x1D51 JUMP JUMPDEST CALLVALUE DUP1 ISZERO PUSH2 0x768 JUMPI PUSH0 DUP1 REVERT JUMPDEST POP PUSH1 0x10 SLOAD PUSH2 0x24B JUMP JUMPDEST CALLVALUE DUP1 ISZERO PUSH2 0x77C JUMPI PUSH0 DUP1 REVERT JUMPDEST POP PUSH2 0x234 PUSH2 0x78B CALLDATASIZE PUSH1 0x4 PUSH2 0x30F3 JUMP JUMPDEST PUSH2 0x1F2E JUMP JUMPDEST CALLVALUE DUP1 ISZERO PUSH2 0x79B JUMPI PUSH0 DUP1 REVERT JUMPDEST POP PUSH2 0x24B PUSH2 0x7AA CALLDATASIZE PUSH1 0x4 PUSH2 0x30F3 JUMP JUMPDEST PUSH0 SWAP1 DUP2 MSTORE PUSH1 0x15 PUSH1 0x20 MSTORE PUSH1 0x40 SWAP1 KECCAK256 SLOAD SWAP1 JUMP JUMPDEST CALLVALUE DUP1 ISZERO PUSH2 0x7C6 JUMPI PUSH0 DUP1 REVERT JUMPDEST POP PUSH2 0x234 PUSH2 0x7D5 CALLDATASIZE PUSH1 0x4 PUSH2 0x31F4 JUMP JUMPDEST PUSH2 0x21AE JUMP JUMPDEST CALLVALUE DUP1 ISZERO PUSH2 0x7E5 JUMPI PUSH0 DUP1 REVERT JUMPDEST POP PUSH2 0x234 PUSH2 0x7F4 CALLDATASIZE PUSH1 0x4 PUSH2 0x33D1 JUMP JUMPDEST PUSH2 0x22A0 JUMP JUMPDEST CALLVALUE DUP1 ISZERO PUSH2 0x804 JUMPI PUSH0 DUP1 REVERT JUMPDEST POP PUSH1 0x12 SLOAD PUSH2 0x24B JUMP JUMPDEST CALLVALUE DUP1 ISZERO PUSH2 0x818 JUMPI PUSH0 DUP1 REVERT JUMPDEST POP PUSH2 0x24B PUSH2 0x827 CALLDATASIZE PUSH1 0x4 PUSH2 0x31F4 JUMP JUMPDEST PUSH1 0x17 PUSH1 0x20 MSTORE PUSH0 SWAP1 DUP2 MSTORE PUSH1 0x40 SWAP1 KECCAK256 SLOAD DUP2 JUMP JUMPDEST CALLER PUSH0 SWAP1 DUP2 MSTORE PUSH1 0x1A PUSH1 0x20 MSTORE PUSH1 0x40 SWAP1 KECCAK256 SLOAD PUSH1 0xFF AND PUSH2 0x88C JUMPI PUSH1 0x40 MLOAD PUSH3 0x461BCD PUSH1 0xE5 SHL DUP2 MSTORE PUSH1 0x20 PUSH1 0x4 DUP3 ADD MSTORE PUSH1 0xE PUSH1 0x24 DUP3 ADD MSTORE PUSH14 0x2737BA1030B71030BAB234BA37B9 PUSH1 0x91 SHL PUSH1 0x44 DUP3 ADD MSTORE PUSH1 0x64 ADD JUMPDEST PUSH1 0x40 MLOAD DUP1 SWAP2 SUB SWAP1 REVERT JUMPDEST PUSH0 DUP5 DUP2 MSTORE PUSH1 0x11 PUSH1 0x20 MSTORE PUSH1 0x40 SWAP1 KECCAK256 PUSH1 0x4 DUP2 ADD SLOAD PUSH2 0x8DD JUMPI PUSH1 0x40 MLOAD PUSH3 0x461BCD PUSH1 0xE5 SHL DUP2 MSTORE PUSH1 0x20 PUSH1 0x4 DUP3 ADD MSTORE PUSH1 0x10 PUSH1 0x24 DUP3 ADD MSTORE PUSH16 0x10DBDB5B5A5D081B9BDD08199BDD5B99 PUSH1 0x82 SHL PUSH1 0x44 DUP3 ADD MSTORE PUSH1 0x64 ADD PUSH2 0x883 JUMP JUMPDEST PUSH1 0x5 DUP2 ADD SLOAD PUSH1 0xFF AND ISZERO PUSH2 0x925 JUMPI PUSH1 0x40 MLOAD PUSH3 0x461BCD PUSH1 0xE5 SHL DUP2 MSTORE PUSH1 0x20 PUSH1 0x4 DUP3 ADD MSTORE PUSH1 0x10 PUSH1 0x24 DUP3 ADD MSTORE PUSH16 0x105B1C9958591E481D995C9A599A5959 PUSH1 0x82 SHL PUSH1 0x44 DUP3 ADD MSTORE PUSH1 0x64 ADD PUSH2 0x883 JUMP JUMPDEST PUSH1 0x40 DUP1 MLOAD PUSH1 0xA0 DUP2 ADD DUP3 MSTORE DUP6 MLOAD PUSH1 0x60 DUP1 DUP4 ADD SWAP2 DUP3 MSTORE PUSH1 0x20 DUP1 DUP10 ADD MLOAD PUSH1 0x80 DUP6 ADD MSTORE SWAP2 DUP4 MSTORE DUP4 MLOAD DUP1 DUP6 ADD DUP6 MSTORE DUP8 MLOAD DUP2 MSTORE DUP8 DUP4 ADD MLOAD DUP2 DUP5 ADD MSTORE DUP3 DUP5 ADD MSTORE DUP4 MLOAD DUP1 DUP6 ADD DUP6 MSTORE DUP7 MLOAD DUP2 MSTORE DUP7 DUP4 ADD MLOAD DUP2 DUP5 ADD MSTORE DUP4 DUP6 ADD MSTORE DUP4 MLOAD PUSH1 0x2 DUP1 DUP3 MSTORE SWAP2 DUP2 ADD DUP6 MSTORE SWAP3 SWAP4 PUSH0 SWAP4 SWAP3 DUP4 ADD SWAP1 DUP1 CALLDATASIZE DUP4 CALLDATACOPY ADD SWAP1 POP POP SWAP1 POP DUP3 PUSH1 0x2 ADD SLOAD PUSH0 SHR DUP2 PUSH0 DUP2 MLOAD DUP2 LT PUSH2 0x9AC JUMPI PUSH2 0x9AC PUSH2 0x3431 JUMP JUMPDEST PUSH1 0x20 MUL PUSH1 0x20 ADD ADD DUP2 DUP2 MSTORE POP POP DUP3 PUSH1 0x3 ADD SLOAD PUSH0 SHR DUP2 PUSH1 0x1 DUP2 MLOAD DUP2 LT PUSH2 0x9D2 JUMPI PUSH2 0x9D2 PUSH2 0x3431 JUMP JUMPDEST PUSH1 0x20 SWAP1 DUP2 MUL SWAP2 SWAP1 SWAP2 ADD DUP2 ADD SWAP2 SWAP1 SWAP2 MSTORE PUSH1 0x40 DUP1 MLOAD PUSH1 0xE0 DUP2 ADD DUP3 MSTORE PUSH0 DUP1 SLOAD PUSH1 0xA0 DUP4 ADD SWAP1 DUP2 MSTORE PUSH1 0x1 SLOAD PUSH1 0xC0 DUP5 ADD MSTORE DUP3 MSTORE DUP3 MLOAD PUSH1 0x80 DUP2 ADD DUP1 DUP6 MSTORE PUSH2 0xBE2 SWAP6 SWAP4 SWAP5 SWAP3 SWAP4 DUP6 ADD SWAP3 PUSH1 0x2 SWAP2 DUP4 SWAP2 DUP3 ADD SWAP1 DUP4 SWAP1 DUP2 SWAP1 DUP2 DUP5 JUMPDEST DUP2 SLOAD DUP2 MSTORE PUSH1 0x20 ADD SWAP1 PUSH1 0x1 ADD SWAP1 DUP1 DUP4 GT PUSH2 0xA22 JUMPI POP POP POP SWAP2 DUP4 MSTORE POP POP PUSH1 0x40 DUP1 MLOAD DUP1 DUP3 ADD SWAP2 DUP3 SWAP1 MSTORE PUSH1 0x20 SWAP1 SWAP3 ADD SWAP2 SWAP1 PUSH1 0x2 DUP5 DUP2 ADD SWAP2 DUP3 DUP5 JUMPDEST DUP2 SLOAD DUP2 MSTORE PUSH1 0x20 ADD SWAP1 PUSH1 0x1 ADD SWAP1 DUP1 DUP4 GT PUSH2 0xA58 JUMPI POP POP POP SWAP2 SWAP1 SWAP3 MSTORE POP POP POP DUP2 MSTORE PUSH1 0x40 DUP1 MLOAD PUSH1 0x80 DUP2 ADD DUP1 DUP4 MSTORE PUSH1 0x20 SWAP1 SWAP4 ADD SWAP3 SWAP1 SWAP2 PUSH1 0x6 DUP6 ADD SWAP2 DUP4 SWAP2 DUP3 ADD SWAP1 DUP4 SWAP1 PUSH1 0x2 SWAP1 DUP3 DUP5 JUMPDEST DUP2 SLOAD DUP2 MSTORE PUSH1 0x20 ADD SWAP1 PUSH1 0x1 ADD SWAP1 DUP1 DUP4 GT PUSH2 0xA9C JUMPI POP POP POP SWAP2 DUP4 MSTORE POP POP PUSH1 0x40 DUP1 MLOAD DUP1 DUP3 ADD SWAP2 DUP3 SWAP1 MSTORE PUSH1 0x20 SWAP1 SWAP3 ADD SWAP2 SWAP1 PUSH1 0x2 DUP5 DUP2 ADD SWAP2 DUP3 DUP5 JUMPDEST DUP2 SLOAD DUP2 MSTORE PUSH1 0x20 ADD SWAP1 PUSH1 0x1 ADD SWAP1 DUP1 DUP4 GT PUSH2 0xAD2 JUMPI POP POP POP SWAP2 SWAP1 SWAP3 MSTORE POP POP POP DUP2 MSTORE PUSH1 0x40 DUP1 MLOAD PUSH1 0x80 DUP2 ADD DUP1 DUP4 MSTORE PUSH1 0x20 SWAP1 SWAP4 ADD SWAP3 SWAP1 SWAP2 PUSH1 0xA DUP6 ADD SWAP2 DUP4 SWAP2 DUP3 ADD SWAP1 DUP4 SWAP1 PUSH1 0x2 SWAP1 DUP3 DUP5 JUMPDEST DUP2 SLOAD DUP2 MSTORE PUSH1 0x20 ADD SWAP1 PUSH1 0x1 ADD SWAP1 DUP1 DUP4 GT PUSH2 0xB16 JUMPI POP POP POP SWAP2 DUP4 MSTORE POP POP PUSH1 0x40 DUP1 MLOAD DUP1 DUP3 ADD SWAP2 DUP3 SWAP1 MSTORE PUSH1 0x20 SWAP1 SWAP3 ADD SWAP2 SWAP1 PUSH1 0x2 DUP5 DUP2 ADD SWAP2 DUP3 DUP5 JUMPDEST DUP2 SLOAD DUP2 MSTORE PUSH1 0x20 ADD SWAP1 PUSH1 0x1 ADD SWAP1 DUP1 DUP4 GT PUSH2 0xB4C JUMPI POP POP POP POP POP DUP2 MSTORE POP POP DUP2 MSTORE PUSH1 0x20 ADD PUSH1 0xE DUP3 ADD DUP1 SLOAD DUP1 PUSH1 0x20 MUL PUSH1 0x20 ADD PUSH1 0x40 MLOAD SWAP1 DUP2 ADD PUSH1 0x40 MSTORE DUP1 SWAP3 SWAP2 SWAP1 DUP2 DUP2 MSTORE PUSH1 0x20 ADD PUSH0 SWAP1 JUMPDEST DUP3 DUP3 LT ISZERO PUSH2 0xBD3 JUMPI DUP4 DUP3 SWAP1 PUSH0 MSTORE PUSH1 0x20 PUSH0 KECCAK256 SWAP1 PUSH1 0x2 MUL ADD PUSH1 0x40 MLOAD DUP1 PUSH1 0x40 ADD PUSH1 0x40 MSTORE SWAP1 DUP2 PUSH0 DUP3 ADD SLOAD DUP2 MSTORE PUSH1 0x20 ADD PUSH1 0x1 DUP3 ADD SLOAD DUP2 MSTORE POP POP DUP2 MSTORE PUSH1 0x20 ADD SWAP1 PUSH1 0x1 ADD SWAP1 PUSH2 0xB90 JUMP JUMPDEST POP POP POP POP DUP2 MSTORE POP POP DUP4 DUP4 PUSH2 0x2587 JUMP JUMPDEST PUSH2 0xC2E JUMPI PUSH1 0x40 MLOAD PUSH3 0x461BCD PUSH1 0xE5 SHL DUP2 MSTORE PUSH1 0x20 PUSH1 0x4 DUP3 ADD MSTORE PUSH1 0x1F PUSH1 0x24 DUP3 ADD MSTORE PUSH32 0x41756469742070726F6F6620766572696669636174696F6E206661696C656400 PUSH1 0x44 DUP3 ADD MSTORE PUSH1 0x64 ADD PUSH2 0x883 JUMP JUMPDEST PUSH1 0x5 DUP4 ADD DUP1 SLOAD PUSH1 0xFF NOT AND PUSH1 0x1 SWAP1 DUP2 OR SWAP1 SWAP2 SSTORE DUP4 DUP2 ADD SLOAD PUSH0 SWAP1 DUP2 MSTORE PUSH1 0xF PUSH1 0x20 MSTORE PUSH1 0x40 DUP2 KECCAK256 PUSH1 0x3 DUP1 DUP8 ADD SLOAD SWAP4 DUP3 ADD SWAP4 SWAP1 SWAP4 SSTORE NUMBER PUSH1 0x2 DUP3 ADD SSTORE SWAP2 DUP3 ADD DUP1 SLOAD SWAP2 PUSH2 0xC73 DUP4 PUSH2 0x3459 JUMP JUMPDEST SWAP1 SWAP2 SSTORE POP POP PUSH1 0x1 DUP1 DUP6 ADD SLOAD PUSH0 SWAP1 DUP2 MSTORE PUSH1 0x15 PUSH1 0x20 SWAP1 DUP2 MSTORE PUSH1 0x40 DUP1 DUP4 KECCAK256 PUSH1 0x3 DUP10 ADD SLOAD DUP2 SLOAD SWAP6 DUP7 ADD DUP3 SSTORE SWAP1 DUP5 MSTORE DUP3 DUP5 KECCAK256 SWAP1 SWAP5 ADD SWAP4 SWAP1 SWAP4 SSTORE DUP7 SLOAD PUSH1 0x1 PUSH1 0x1 PUSH1 0xA0 SHL SUB AND DUP3 MSTORE PUSH1 0x13 SWAP1 MSTORE SWAP1 DUP2 KECCAK256 PUSH1 0x2 DUP2 ADD DUP1 SLOAD SWAP2 SWAP3 PUSH2 0xCCC DUP4 PUSH2 0x3459 JUMP JUMPDEST SWAP2 SWAP1 POP SSTORE POP PUSH1 0x16 SLOAD DUP2 PUSH1 0x3 ADD PUSH0 DUP3 DUP3 SLOAD PUSH2 0xCE6 SWAP2 SWAP1 PUSH2 0x3471 JUMP JUMPDEST SWAP1 SWAP2 SSTORE POP POP PUSH1 0x1 DUP6 ADD SLOAD PUSH1 0x3 DUP7 ADD SLOAD PUSH1 0x40 DUP1 MLOAD SWAP2 DUP3 MSTORE CALLER PUSH1 0x20 DUP4 ADD MSTORE DUP12 SWAP2 PUSH32 0x14D6F70053A077A975599F4C489C65DC6D8B5139EC36DDE096DCF77235E611E SWAP2 ADD PUSH1 0x40 MLOAD DUP1 SWAP2 SUB SWAP1 LOG3 POP POP POP POP POP POP POP POP POP JUMP JUMPDEST CALLER PUSH0 SWAP1 DUP2 MSTORE PUSH1 0x13 PUSH1 0x20 MSTORE PUSH1 0x40 SWAP1 KECCAK256 PUSH1 0x4 ADD SLOAD PUSH1 0xFF AND ISZERO PUSH2 0xD91 JUMPI PUSH1 0x40 MLOAD PUSH3 0x461BCD PUSH1 0xE5 SHL DUP2 MSTORE PUSH1 0x20 PUSH1 0x4 DUP3 ADD MSTORE PUSH1 0x12 PUSH1 0x24 DUP3 ADD MSTORE PUSH18 0x105B1C9958591E481C9959DA5CDD195C9959 PUSH1 0x72 SHL PUSH1 0x44 DUP3 ADD MSTORE PUSH1 0x64 ADD PUSH2 0x883 JUMP JUMPDEST PUSH8 0xDE0B6B3A7640000 CALLVALUE LT ISZERO PUSH2 0xDDE JUMPI PUSH1 0x40 MLOAD PUSH3 0x461BCD PUSH1 0xE5 SHL DUP2 MSTORE PUSH1 0x20 PUSH1 0x4 DUP3 ADD MSTORE PUSH1 0x12 PUSH1 0x24 DUP3 ADD MSTORE PUSH18 0x496E73756666696369656E74207374616B65 PUSH1 0x70 SHL PUSH1 0x44 DUP3 ADD MSTORE PUSH1 0x64 ADD PUSH2 0x883 JUMP JUMPDEST PUSH0 JUMPDEST DUP2 MLOAD DUP2 LT ISZERO PUSH2 0xE69 JUMPI PUSH1 0xF PUSH0 DUP4 DUP4 DUP2 MLOAD DUP2 LT PUSH2 0xDFE JUMPI PUSH2 0xDFE PUSH2 0x3431 JUMP JUMPDEST PUSH1 0x20 SWAP1 DUP2 MUL SWAP2 SWAP1 SWAP2 ADD DUP2 ADD MLOAD DUP3 MSTORE DUP2 ADD SWAP2 SWAP1 SWAP2 MSTORE PUSH1 0x40 ADD PUSH0 KECCAK256 PUSH1 0x4 ADD SLOAD PUSH1 0xFF AND PUSH2 0xE61 JUMPI PUSH1 0x40 MLOAD PUSH3 0x461BCD PUSH1 0xE5 SHL DUP2 MSTORE PUSH1 0x20 PUSH1 0x4 DUP3 ADD MSTORE PUSH1 0x14 PUSH1 0x24 DUP3 ADD MSTORE PUSH20 0x10DA185A5B881B9BDD081C9959DA5CDD195C9959 PUSH1 0x62 SHL PUSH1 0x44 DUP3 ADD MSTORE PUSH1 0x64 ADD PUSH2 0x883 JUMP JUMPDEST PUSH1 0x1 ADD PUSH2 0xDE0 JUMP JUMPDEST POP PUSH1 0x40 DUP1 MLOAD PUSH1 0xA0 DUP2 ADD DUP3 MSTORE CALLER DUP1 DUP3 MSTORE PUSH1 0x20 DUP1 DUP4 ADD DUP6 DUP2 MSTORE PUSH0 DUP5 DUP7 ADD DUP2 SWAP1 MSTORE PUSH1 0x60 DUP6 ADD DUP2 SWAP1 MSTORE PUSH1 0x1 PUSH1 0x80 DUP7 ADD DUP2 SWAP1 MSTORE SWAP4 DUP2 MSTORE PUSH1 0x13 DUP4 MSTORE SWAP5 SWAP1 SWAP5 KECCAK256 DUP4 MLOAD DUP2 SLOAD PUSH1 0x1 PUSH1 0x1 PUSH1 0xA0 SHL SUB NOT AND PUSH1 0x1 PUSH1 0x1 PUSH1 0xA0 SHL SUB SWAP1 SWAP2 AND OR DUP2 SSTORE SWAP4 MLOAD DUP1 MLOAD SWAP4 SWAP5 SWAP4 PUSH2 0xED6 SWAP4 DUP6 ADD SWAP3 SWAP2 SWAP1 SWAP2 ADD SWAP1 PUSH2 0x2D93 JUMP JUMPDEST POP PUSH1 0x40 DUP3 DUP2 ADD MLOAD PUSH1 0x2 DUP4 ADD SSTORE PUSH1 0x60 DUP4 ADD MLOAD PUSH1 0x3 DUP4 ADD SSTORE PUSH1 0x80 SWAP1 SWAP3 ADD MLOAD PUSH1 0x4 SWAP1 SWAP2 ADD DUP1 SLOAD PUSH1 0xFF NOT AND SWAP2 ISZERO ISZERO SWAP2 SWAP1 SWAP2 OR SWAP1 SSTORE CALLER PUSH0 DUP2 DUP2 MSTORE PUSH1 0x17 PUSH1 0x20 MSTORE DUP3 DUP2 KECCAK256 CALLVALUE SWAP1 SSTORE PUSH1 0x14 DUP1 SLOAD PUSH1 0x1 DUP2 ADD DUP3 SSTORE SWAP2 MSTORE PUSH32 0xCE6D7B5282BD9A3661AE061FEED1DBDA4E52AB073B1F9285BE6E155D9C38D4EC ADD DUP1 SLOAD PUSH1 0x1 PUSH1 0x1 PUSH1 0xA0 SHL SUB NOT AND DUP3 OR SWAP1 SSTORE SWAP1 MLOAD PUSH32 0xE31883C364687C182B88CBB1268E64B59F0ED8889554F38C5F49787946C2FD54 SWAP1 PUSH2 0xF83 SWAP1 DUP5 SWAP1 PUSH2 0x3484 JUMP JUMPDEST PUSH1 0x40 MLOAD DUP1 SWAP2 SUB SWAP1 LOG2 POP JUMP JUMPDEST PUSH1 0x1D DUP2 DUP2 SLOAD DUP2 LT PUSH2 0xF9D JUMPI PUSH0 DUP1 REVERT JUMPDEST PUSH0 SWAP2 DUP3 MSTORE PUSH1 0x20 SWAP1 SWAP2 KECCAK256 ADD SLOAD SWAP1 POP DUP2 JUMP JUMPDEST PUSH1 0x14 DUP2 DUP2 SLOAD DUP2 LT PUSH2 0xFBC JUMPI PUSH0 DUP1 REVERT JUMPDEST PUSH0 SWAP2 DUP3 MSTORE PUSH1 0x20 SWAP1 SWAP2 KECCAK256 ADD SLOAD PUSH1 0x1 PUSH1 0x1 PUSH1 0xA0 SHL SUB AND SWAP1 POP DUP2 JUMP JUMPDEST PUSH0 DUP8 DUP2 MSTORE PUSH1 0x1C PUSH1 0x20 MSTORE PUSH1 0x40 SWAP1 KECCAK256 PUSH1 0x5 DUP2 ADD SLOAD PUSH1 0x1 PUSH1 0xA0 SHL SWAP1 DIV PUSH1 0xFF AND PUSH2 0x102F JUMPI PUSH1 0x40 MLOAD PUSH3 0x461BCD PUSH1 0xE5 SHL DUP2 MSTORE PUSH1 0x20 PUSH1 0x4 DUP3 ADD MSTORE PUSH1 0xF PUSH1 0x24 DUP3 ADD MSTORE PUSH15 0x4E6F6465206E6F7420616374697665 PUSH1 0x88 SHL PUSH1 0x44 DUP3 ADD MSTORE PUSH1 0x64 ADD PUSH2 0x883 JUMP JUMPDEST PUSH1 0x5 DUP2 ADD SLOAD PUSH1 0x1 PUSH1 0x1 PUSH1 0xA0 SHL SUB AND CALLER EQ PUSH2 0x1084 JUMPI PUSH1 0x40 MLOAD PUSH3 0x461BCD PUSH1 0xE5 SHL DUP2 MSTORE PUSH1 0x20 PUSH1 0x4 DUP3 ADD MSTORE PUSH1 0x16 PUSH1 0x24 DUP3 ADD MSTORE PUSH22 0x2737BA1030B9B9B4B3B732B21031B7B6B6B4BA3A32B9 PUSH1 0x51 SHL PUSH1 0x44 DUP3 ADD MSTORE PUSH1 0x64 ADD PUSH2 0x883 JUMP JUMPDEST PUSH1 0x3 DUP2 ADD SLOAD PUSH1 0x2 DUP3 ADD SLOAD PUSH2 0x1098 SWAP2 SWAP1 PUSH2 0x3471 JUMP JUMPDEST DUP7 EQ PUSH2 0x10DC JUMPI PUSH1 0x40 MLOAD PUSH3 0x461BCD PUSH1 0xE5 SHL DUP2 MSTORE PUSH1 0x20 PUSH1 0x4 DUP3 ADD MSTORE PUSH1 0x13 PUSH1 0x24 DUP3 ADD MSTORE PUSH19 0xA4DEDEE840C6DEEADCE840DAD2E6DAC2E8C6D PUSH1 0x6B SHL PUSH1 0x44 DUP3 ADD MSTORE PUSH1 0x64 ADD PUSH2 0x883 JUMP JUMPDEST PUSH1 0x40 DUP1 MLOAD PUSH1 0xA0 DUP2 ADD DUP3 MSTORE DUP6 MLOAD PUSH1 0x60 DUP1 DUP4 ADD SWAP2 DUP3 MSTORE PUSH1 0x20 DUP1 DUP10 ADD MLOAD PUSH1 0x80 DUP6 ADD MSTORE SWAP2 DUP4 MSTORE DUP4 MLOAD DUP1 DUP6 ADD DUP6 MSTORE DUP8 MLOAD DUP2 MSTORE DUP8 DUP4 ADD MLOAD DUP2 DUP5 ADD MSTORE DUP3 DUP5 ADD MSTORE DUP4 MLOAD DUP1 DUP6 ADD DUP6 MSTORE DUP7 MLOAD DUP2 MSTORE DUP7 DUP4 ADD MLOAD DUP2 DUP5 ADD MSTORE DUP4 DUP6 ADD MSTORE DUP4 MLOAD PUSH1 0x2 DUP1 DUP3 MSTORE SWAP2 DUP2 ADD DUP6 MSTORE SWAP3 SWAP4 PUSH0 SWAP4 SWAP3 DUP4 ADD SWAP1 DUP1 CALLDATASIZE DUP4 CALLDATACOPY ADD SWAP1 POP POP SWAP1 POP DUP3 PUSH1 0x4 ADD SLOAD PUSH0 SHR DUP2 PUSH0 DUP2 MLOAD DUP2 LT PUSH2 0x1163 JUMPI PUSH2 0x1163 PUSH2 0x3431 JUMP JUMPDEST PUSH1 0x20 MUL PUSH1 0x20 ADD ADD DUP2 DUP2 MSTORE POP POP DUP7 PUSH0 SHR DUP2 PUSH1 0x1 DUP2 MLOAD DUP2 LT PUSH2 0x1185 JUMPI PUSH2 0x1185 PUSH2 0x3431 JUMP JUMPDEST PUSH1 0x20 SWAP1 DUP2 MUL SWAP2 SWAP1 SWAP2 ADD DUP2 ADD SWAP2 SWAP1 SWAP2 MSTORE PUSH1 0x40 DUP1 MLOAD PUSH1 0xE0 DUP2 ADD DUP3 MSTORE PUSH0 DUP1 SLOAD PUSH1 0xA0 DUP4 ADD SWAP1 DUP2 MSTORE PUSH1 0x1 SLOAD PUSH1 0xC0 DUP5 ADD MSTORE DUP3 MSTORE DUP3 MLOAD PUSH1 0x80 DUP2 ADD DUP1 DUP6 MSTORE PUSH1 0x2 DUP1 SLOAD SWAP6 DUP4 ADD SWAP6 DUP7 MSTORE PUSH2 0x1377 SWAP7 SWAP5 SWAP6 SWAP4 SWAP5 DUP7 ADD SWAP4 SWAP1 SWAP2 DUP4 SWAP2 SWAP1 DUP4 SWAP1 DUP2 SWAP1 PUSH1 0x3 PUSH1 0x60 DUP7 ADD DUP1 DUP4 GT PUSH2 0xA22 JUMPI POP POP POP SWAP2 DUP4 MSTORE POP POP PUSH1 0x40 DUP1 MLOAD DUP1 DUP3 ADD SWAP2 DUP3 SWAP1 MSTORE PUSH1 0x2 DUP5 DUP2 ADD DUP1 SLOAD DUP4 MSTORE PUSH1 0x20 SWAP5 DUP6 ADD SWAP5 SWAP3 SWAP4 SWAP1 SWAP3 PUSH1 0x3 DUP8 ADD SWAP1 DUP6 ADD DUP1 DUP4 GT PUSH2 0xA58 JUMPI POP POP POP SWAP2 SWAP1 SWAP3 MSTORE POP POP POP DUP2 MSTORE PUSH1 0x40 DUP1 MLOAD PUSH1 0x80 DUP2 ADD DUP1 DUP4 MSTORE PUSH1 0x6 DUP6 ADD DUP1 SLOAD SWAP4 DUP4 ADD SWAP4 DUP5 MSTORE PUSH1 0x20 SWAP1 SWAP5 ADD SWAP4 SWAP2 SWAP3 DUP4 SWAP2 DUP4 SWAP1 PUSH1 0x2 SWAP1 PUSH1 0x7 DUP10 ADD PUSH1 0x60 DUP7 ADD DUP1 DUP4 GT PUSH2 0xA9C JUMPI POP POP POP SWAP2 DUP4 MSTORE POP POP PUSH1 0x40 DUP1 MLOAD DUP1 DUP3 ADD SWAP2 DUP3 SWAP1 MSTORE PUSH1 0x2 DUP5 DUP2 ADD DUP1 SLOAD DUP4 MSTORE PUSH1 0x20 SWAP5 DUP6 ADD SWAP5 SWAP3 SWAP4 SWAP1 SWAP3 PUSH1 0x3 DUP8 ADD SWAP1 DUP6 ADD DUP1 DUP4 GT PUSH2 0xAD2 JUMPI POP POP POP SWAP2 SWAP1 SWAP3 MSTORE POP POP POP DUP2 MSTORE PUSH1 0x40 DUP1 MLOAD PUSH1 0x80 DUP2 ADD DUP1 DUP4 MSTORE PUSH1 0xA DUP6 ADD DUP1 SLOAD SWAP4 DUP4 ADD SWAP4 DUP5 MSTORE PUSH1 0x20 SWAP1 SWAP5 ADD SWAP4 SWAP2 SWAP3 DUP4 SWAP2 DUP4 SWAP1 PUSH1 0x2 SWAP1 PUSH1 0xB DUP10 ADD PUSH1 0x60 DUP7 ADD DUP1 DUP4 GT PUSH2 0xB16 JUMPI POP POP POP SWAP2 DUP4 MSTORE POP POP PUSH1 0x40 DUP1 MLOAD DUP1 DUP3 ADD SWAP2 DUP3 SWAP1 MSTORE PUSH1 0x2 DUP5 DUP2 ADD DUP1 SLOAD DUP4 MSTORE PUSH1 0x20 SWAP5 DUP6 ADD SWAP5 SWAP3 SWAP4 SWAP1 SWAP3 PUSH1 0x3 DUP8 ADD SWAP1 DUP6 ADD DUP1 DUP4 GT PUSH2 0xB4C JUMPI POP POP POP POP POP DUP2 MSTORE POP POP DUP2 MSTORE PUSH1 0x20 ADD PUSH1 0xE DUP3 ADD DUP1 SLOAD DUP1 PUSH1 0x20 MUL PUSH1 0x20 ADD PUSH1 0x40 MLOAD SWAP1 DUP2 ADD PUSH1 0x40 MSTORE DUP1 SWAP3 SWAP2 SWAP1 DUP2 DUP2 MSTORE PUSH1 0x20 ADD PUSH0 SWAP1 DUP3 DUP3 LT ISZERO PUSH2 0xBD3 JUMPI DUP4 DUP3 SWAP1 PUSH0 MSTORE PUSH1 0x20 PUSH0 KECCAK256 SWAP1 PUSH1 0x2 MUL ADD PUSH1 0x40 MLOAD DUP1 PUSH1 0x40 ADD PUSH1 0x40 MSTORE SWAP1 DUP2 PUSH0 DUP3 ADD SLOAD DUP2 MSTORE PUSH1 0x20 ADD PUSH1 0x1 DUP3 ADD SLOAD DUP2 MSTORE POP POP DUP2 MSTORE PUSH1 0x20 ADD SWAP1 PUSH1 0x1 ADD SWAP1 PUSH2 0xB90 JUMP JUMPDEST PUSH2 0x13CF JUMPI PUSH1 0x40 MLOAD PUSH3 0x461BCD PUSH1 0xE5 SHL DUP2 MSTORE PUSH1 0x20 PUSH1 0x4 DUP3 ADD MSTORE PUSH1 0x24 DUP1 DUP3 ADD MSTORE PUSH32 0x416767726567617465642070726F6F6620766572696669636174696F6E206661 PUSH1 0x44 DUP3 ADD MSTORE PUSH4 0x1A5B1959 PUSH1 0xE2 SHL PUSH1 0x64 DUP3 ADD MSTORE PUSH1 0x84 ADD PUSH2 0x883 JUMP JUMPDEST PUSH0 JUMPDEST PUSH1 0x2 DUP5 ADD SLOAD DUP2 LT ISZERO PUSH2 0x1495 JUMPI PUSH0 DUP5 PUSH1 0x2 ADD DUP3 DUP2 SLOAD DUP2 LT PUSH2 0x13F3 JUMPI PUSH2 0x13F3 PUSH2 0x3431 JUMP JUMPDEST SWAP1 PUSH0 MSTORE PUSH1 0x20 PUSH0 KECCAK256 ADD SLOAD SWAP1 POP DUP11 DUP11 DUP4 DUP2 DUP2 LT PUSH2 0x1410 JUMPI PUSH2 0x1410 PUSH2 0x3431 JUMP JUMPDEST PUSH0 DUP5 DUP2 MSTORE PUSH1 0xF PUSH1 0x20 SWAP1 DUP2 MSTORE PUSH1 0x40 DUP3 KECCAK256 SWAP3 MUL SWAP4 SWAP1 SWAP4 ADD CALLDATALOAD PUSH1 0x1 DUP3 ADD SSTORE NUMBER PUSH1 0x2 DUP3 ADD SSTORE PUSH1 0x3 ADD DUP1 SLOAD SWAP3 SWAP1 SWAP2 POP PUSH2 0x1443 DUP4 PUSH2 0x3459 JUMP JUMPDEST SWAP1 SWAP2 SSTORE POP POP PUSH0 DUP2 DUP2 MSTORE PUSH1 0x15 PUSH1 0x20 MSTORE PUSH1 0x40 SWAP1 KECCAK256 DUP12 DUP12 DUP5 DUP2 DUP2 LT PUSH2 0x1467 JUMPI PUSH2 0x1467 PUSH2 0x3431 JUMP JUMPDEST DUP4 SLOAD PUSH1 0x1 DUP1 DUP3 ADD DUP7 SSTORE PUSH0 SWAP6 DUP7 MSTORE PUSH1 0x20 SWAP6 DUP7 SWAP1 KECCAK256 SWAP3 SWAP1 SWAP6 MUL SWAP4 SWAP1 SWAP4 ADD CALLDATALOAD SWAP3 ADD SWAP2 SWAP1 SWAP2 SSTORE POP SWAP2 SWAP1 SWAP2 ADD SWAP1 POP PUSH2 0x13D1 JUMP JUMPDEST POP PUSH1 0x4 DUP4 ADD DUP8 SWAP1 SSTORE CALLER PUSH0 SWAP1 DUP2 MSTORE PUSH1 0x13 PUSH1 0x20 MSTORE PUSH1 0x40 DUP2 KECCAK256 PUSH1 0x2 DUP2 ADD DUP1 SLOAD SWAP2 SWAP3 PUSH2 0x14BC DUP4 PUSH2 0x3459 JUMP JUMPDEST SWAP2 SWAP1 POP SSTORE POP PUSH1 0x16 SLOAD DUP2 PUSH1 0x3 ADD PUSH0 DUP3 DUP3 SLOAD PUSH2 0x14D6 SWAP2 SWAP1 PUSH2 0x3471 JUMP JUMPDEST SWAP1 SWAP2 SSTORE POP POP PUSH1 0x40 MLOAD DUP9 DUP2 MSTORE DUP12 SWAP1 PUSH32 0x5A404A1779052A974FEE1066A42E51994E81CDA626020724E4C4FD3B14069E8D SWAP1 PUSH1 0x20 ADD PUSH1 0x40 MLOAD DUP1 SWAP2 SUB SWAP1 LOG2 POP POP POP POP POP POP POP POP POP POP POP JUMP JUMPDEST CALLER PUSH0 SWAP1 DUP2 MSTORE PUSH1 0x13 PUSH1 0x20 MSTORE PUSH1 0x40 SWAP1 KECCAK256 PUSH1 0x4 DUP2 ADD SLOAD PUSH1 0xFF AND PUSH2 0x1571 JUMPI PUSH1 0x40 MLOAD PUSH3 0x461BCD PUSH1 0xE5 SHL DUP2 MSTORE PUSH1 0x20 PUSH1 0x4 DUP3 ADD MSTORE PUSH1 0xF PUSH1 0x24 DUP3 ADD MSTORE PUSH15 0x2737BA10309031B7B6B6B4BA3A32B9 PUSH1 0x89 SHL PUSH1 0x44 DUP3 ADD MSTORE PUSH1 0x64 ADD PUSH2 0x883 JUMP JUMPDEST PUSH0 DUP2 PUSH1 0x3 ADD SLOAD GT PUSH2 0x15B1 JUMPI PUSH1 0x40 MLOAD PUSH3 0x461BCD PUSH1 0xE5 SHL DUP2 MSTORE PUSH1 0x20 PUSH1 0x4 DUP3 ADD MSTORE PUSH1 0xA PUSH1 0x24 DUP3 ADD MSTORE PUSH10 0x4E6F2072657761726473 PUSH1 0xB0 SHL PUSH1 0x44 DUP3 ADD MSTORE PUSH1 0x64 ADD PUSH2 0x883 JUMP JUMPDEST PUSH1 0x3 DUP2 ADD DUP1 SLOAD PUSH0 SWAP2 DUP3 SWAP1 SSTORE PUSH1 0x40 MLOAD SWAP1 SWAP2 SWAP1 CALLER SWAP1 DUP4 SWAP1 DUP4 DUP2 DUP2 DUP2 DUP6 DUP8 GAS CALL SWAP3 POP POP POP RETURNDATASIZE DUP1 PUSH0 DUP2 EQ PUSH2 0x15FC JUMPI PUSH1 0x40 MLOAD SWAP2 POP PUSH1 0x1F NOT PUSH1 0x3F RETURNDATASIZE ADD AND DUP3 ADD PUSH1 0x40 MSTORE RETURNDATASIZE DUP3 MSTORE RETURNDATASIZE PUSH0 PUSH1 0x20 DUP5 ADD RETURNDATACOPY PUSH2 0x1601 JUMP JUMPDEST PUSH1 0x60 SWAP2 POP JUMPDEST POP POP SWAP1 POP DUP1 PUSH2 0x1644 JUMPI PUSH1 0x40 MLOAD PUSH3 0x461BCD PUSH1 0xE5 SHL DUP2 MSTORE PUSH1 0x20 PUSH1 0x4 DUP3 ADD MSTORE PUSH1 0xF PUSH1 0x24 DUP3 ADD MSTORE PUSH15 0x151C985B9CD9995C8819985A5B1959 PUSH1 0x8A SHL PUSH1 0x44 DUP3 ADD MSTORE PUSH1 0x64 ADD PUSH2 0x883 JUMP JUMPDEST PUSH1 0x40 MLOAD DUP3 DUP2 MSTORE CALLER SWAP1 PUSH32 0x106F923F993C2149D49B4255FF723ACAFA1F2D94393F561D3EDA32AE348F7241 SWAP1 PUSH1 0x20 ADD PUSH1 0x40 MLOAD DUP1 SWAP2 SUB SWAP1 LOG2 POP POP POP JUMP JUMPDEST PUSH1 0x18 SLOAD PUSH1 0x1 PUSH1 0x1 PUSH1 0xA0 SHL SUB AND CALLER EQ PUSH2 0x16A8 JUMPI PUSH1 0x40 MLOAD PUSH3 0x461BCD PUSH1 0xE5 SHL DUP2 MSTORE PUSH1 0x4 ADD PUSH2 0x883 SWAP1 PUSH2 0x3496 JUMP JUMPDEST PUSH0 DUP3 DUP2 MSTORE PUSH1 0xF PUSH1 0x20 MSTORE PUSH1 0x40 SWAP1 KECCAK256 PUSH1 0x4 ADD SLOAD PUSH1 0xFF AND ISZERO PUSH2 0x1709 JUMPI PUSH1 0x40 MLOAD PUSH3 0x461BCD PUSH1 0xE5 SHL DUP2 MSTORE PUSH1 0x20 PUSH1 0x4 DUP3 ADD MSTORE PUSH1 0x18 PUSH1 0x24 DUP3 ADD MSTORE PUSH32 0x436861696E20616C726561647920726567697374657265640000000000000000 PUSH1 0x44 DUP3 ADD MSTORE PUSH1 0x64 ADD PUSH2 0x883 JUMP JUMPDEST PUSH1 0x40 DUP1 MLOAD PUSH1 0xA0 DUP2 ADD DUP3 MSTORE DUP4 DUP2 MSTORE PUSH1 0x20 DUP1 DUP3 ADD DUP5 DUP2 MSTORE NUMBER DUP4 DUP6 ADD SWAP1 DUP2 MSTORE PUSH0 PUSH1 0x60 DUP6 ADD DUP2 DUP2 MSTORE PUSH1 0x1 PUSH1 0x80 DUP8 ADD DUP2 DUP2 MSTORE DUP11 DUP5 MSTORE PUSH1 0xF DUP8 MSTORE DUP9 DUP5 KECCAK256 SWAP8 MLOAD DUP9 SSTORE SWAP5 MLOAD DUP8 DUP3 ADD SSTORE SWAP3 MLOAD PUSH1 0x2 DUP8 ADD SSTORE MLOAD PUSH1 0x3 DUP7 ADD SSTORE SWAP2 MLOAD PUSH1 0x4 SWAP1 SWAP5 ADD DUP1 SLOAD PUSH1 0xFF NOT AND SWAP5 ISZERO ISZERO SWAP5 SWAP1 SWAP5 OR SWAP1 SWAP4 SSTORE PUSH1 0x10 DUP1 SLOAD DUP1 DUP6 ADD SWAP1 SWAP2 SSTORE PUSH32 0x1B6847DC741A1B0CD08D278845F9D819D87B734759AFB55FE2DE5CB82A9AE672 ADD DUP7 SWAP1 SSTORE PUSH1 0x15 DUP3 MSTORE DUP4 DUP2 KECCAK256 DUP1 SLOAD SWAP4 DUP5 ADD DUP2 SSTORE DUP2 MSTORE DUP2 SWAP1 KECCAK256 SWAP1 SWAP2 ADD DUP4 SWAP1 SSTORE SWAP1 MLOAD DUP3 DUP2 MSTORE DUP4 SWAP2 PUSH32 0x2C698CB2ACCE446D2F91F2B451C3776E20FD161C697AB5D1CF06C6B1DAC1F2F SWAP2 ADD PUSH1 0x40 MLOAD DUP1 SWAP2 SUB SWAP1 LOG2 POP POP JUMP JUMPDEST PUSH0 DUP2 DUP2 MSTORE PUSH1 0x1C PUSH1 0x20 SWAP1 DUP2 MSTORE PUSH1 0x40 SWAP2 DUP3 SWAP1 KECCAK256 PUSH1 0x2 DUP2 ADD DUP1 SLOAD DUP5 MLOAD DUP2 DUP6 MUL DUP2 ADD DUP6 ADD SWAP1 SWAP6 MSTORE DUP1 DUP6 MSTORE PUSH1 0x60 SWAP5 DUP6 SWAP5 PUSH1 0x3 DUP6 ADD SWAP3 DUP5 SWAP2 DUP4 ADD DUP3 DUP3 DUP1 ISZERO PUSH2 0x184B JUMPI PUSH1 0x20 MUL DUP3 ADD SWAP2 SWAP1 PUSH0 MSTORE PUSH1 0x20 PUSH0 KECCAK256 SWAP1 JUMPDEST DUP2 SLOAD DUP2 MSTORE PUSH1 0x20 ADD SWAP1 PUSH1 0x1 ADD SWAP1 DUP1 DUP4 GT PUSH2 0x1837 JUMPI JUMPDEST POP POP POP POP POP SWAP2 POP DUP1 DUP1 SLOAD DUP1 PUSH1 0x20 MUL PUSH1 0x20 ADD PUSH1 0x40 MLOAD SWAP1 DUP2 ADD PUSH1 0x40 MSTORE DUP1 SWAP3 SWAP2 SWAP1 DUP2 DUP2 MSTORE PUSH1 0x20 ADD DUP3 DUP1 SLOAD DUP1 ISZERO PUSH2 0x189B JUMPI PUSH1 0x20 MUL DUP3 ADD SWAP2 SWAP1 PUSH0 MSTORE PUSH1 0x20 PUSH0 KECCAK256 SWAP1 JUMPDEST DUP2 SLOAD DUP2 MSTORE PUSH1 0x20 ADD SWAP1 PUSH1 0x1 ADD SWAP1 DUP1 DUP4 GT PUSH2 0x1887 JUMPI JUMPDEST POP POP POP POP POP SWAP1 POP SWAP3 POP SWAP3 POP POP SWAP2 POP SWAP2 JUMP JUMPDEST PUSH1 0x10 DUP2 DUP2 SLOAD DUP2 LT PUSH2 0xF9D JUMPI PUSH0 DUP1 REVERT JUMPDEST PUSH1 0x18 SLOAD PUSH0 SWAP1 PUSH1 0x1 PUSH1 0x1 PUSH1 0xA0 SHL SUB AND CALLER EQ PUSH2 0x18E7 JUMPI PUSH1 0x40 MLOAD PUSH3 0x461BCD PUSH1 0xE5 SHL DUP2 MSTORE PUSH1 0x4 ADD PUSH2 0x883 SWAP1 PUSH2 0x3496 JUMP JUMPDEST PUSH1 0x1 PUSH1 0x1 PUSH1 0xA0 SHL SUB DUP3 AND PUSH0 SWAP1 DUP2 MSTORE PUSH1 0x13 PUSH1 0x20 MSTORE PUSH1 0x40 SWAP1 KECCAK256 PUSH1 0x4 ADD SLOAD PUSH1 0xFF AND PUSH2 0x1951 JUMPI PUSH1 0x40 MLOAD PUSH3 0x461BCD PUSH1 0xE5 SHL DUP2 MSTORE PUSH1 0x20 PUSH1 0x4 DUP3 ADD MSTORE PUSH1 0x18 PUSH1 0x24 DUP3 ADD MSTORE PUSH32 0x436F6D6D6974746572206E6F7420726567697374657265640000000000000000 PUSH1 0x44 DUP3 ADD MSTORE PUSH1 0x64 ADD PUSH2 0x883 JUMP JUMPDEST PUSH0 JUMPDEST DUP4 DUP2 LT ISZERO PUSH2 0x19E3 JUMPI PUSH1 0xF PUSH0 DUP7 DUP7 DUP5 DUP2 DUP2 LT PUSH2 0x1970 JUMPI PUSH2 0x1970 PUSH2 0x3431 JUMP JUMPDEST PUSH1 0x20 SWAP1 DUP2 MUL SWAP3 SWAP1 SWAP3 ADD CALLDATALOAD DUP4 MSTORE POP DUP2 ADD SWAP2 SWAP1 SWAP2 MSTORE PUSH1 0x40 ADD PUSH0 KECCAK256 PUSH1 0x4 ADD SLOAD PUSH1 0xFF AND PUSH2 0x19DB JUMPI PUSH1 0x40 MLOAD PUSH3 0x461BCD PUSH1 0xE5 SHL DUP2 MSTORE PUSH1 0x20 PUSH1 0x4 DUP3 ADD MSTORE PUSH1 0x1A PUSH1 0x24 DUP3 ADD MSTORE PUSH32 0x4368696C6420636861696E206E6F742072656769737465726564000000000000 PUSH1 0x44 DUP3 ADD MSTORE PUSH1 0x64 ADD PUSH2 0x883 JUMP JUMPDEST PUSH1 0x1 ADD PUSH2 0x1953 JUMP JUMPDEST POP DUP5 ISZERO PUSH2 0x1A49 JUMPI PUSH0 DUP6 DUP2 MSTORE PUSH1 0x1C PUSH1 0x20 MSTORE PUSH1 0x40 SWAP1 KECCAK256 PUSH1 0x5 ADD SLOAD PUSH1 0x1 PUSH1 0xA0 SHL SWAP1 DIV PUSH1 0xFF AND PUSH2 0x1A49 JUMPI PUSH1 0x40 MLOAD PUSH3 0x461BCD PUSH1 0xE5 SHL DUP2 MSTORE PUSH1 0x20 PUSH1 0x4 DUP3 ADD MSTORE PUSH1 0x15 PUSH1 0x24 DUP3 ADD MSTORE PUSH21 0x14185C995B9D081B9BD919481B9BDD08199BDD5B99 PUSH1 0x5A SHL PUSH1 0x44 DUP3 ADD MSTORE PUSH1 0x64 ADD PUSH2 0x883 JUMP JUMPDEST PUSH1 0x1E DUP1 SLOAD PUSH0 SWAP2 DUP3 PUSH2 0x1A59 DUP4 PUSH2 0x3459 JUMP JUMPDEST SWAP2 SWAP1 POP SSTORE SWAP1 POP PUSH1 0x40 MLOAD DUP1 PUSH1 0xE0 ADD PUSH1 0x40 MSTORE DUP1 DUP3 DUP2 MSTORE PUSH1 0x20 ADD DUP8 DUP2 MSTORE PUSH1 0x20 ADD DUP7 DUP7 DUP1 DUP1 PUSH1 0x20 MUL PUSH1 0x20 ADD PUSH1 0x40 MLOAD SWAP1 DUP2 ADD PUSH1 0x40 MSTORE DUP1 SWAP4 SWAP3 SWAP2 SWAP1 DUP2 DUP2 MSTORE PUSH1 0x20 ADD DUP4 DUP4 PUSH1 0x20 MUL DUP1 DUP3 DUP5 CALLDATACOPY PUSH0 SWAP3 ADD DUP3 SWAP1 MSTORE POP SWAP4 DUP6 MSTORE POP POP PUSH1 0x40 DUP1 MLOAD DUP4 DUP2 MSTORE PUSH1 0x20 DUP1 DUP3 ADD DUP4 MSTORE DUP1 DUP7 ADD SWAP2 SWAP1 SWAP2 MSTORE DUP2 DUP6 ADD DUP5 SWAP1 MSTORE PUSH1 0x1 PUSH1 0x1 PUSH1 0xA0 SHL SUB DUP10 AND PUSH1 0x60 DUP7 ADD MSTORE PUSH1 0x1 PUSH1 0x80 SWAP1 SWAP6 ADD DUP6 SWAP1 MSTORE DUP7 DUP5 MSTORE PUSH1 0x1C DUP2 MSTORE SWAP3 DUP2 SWAP1 KECCAK256 DUP6 MLOAD DUP2 SSTORE DUP6 DUP5 ADD MLOAD SWAP5 DUP2 ADD SWAP5 SWAP1 SWAP5 SSTORE DUP5 ADD MLOAD DUP1 MLOAD PUSH2 0x1B10 SWAP4 PUSH1 0x2 DUP7 ADD SWAP4 POP SWAP2 SWAP1 SWAP2 ADD SWAP1 PUSH2 0x2D93 JUMP JUMPDEST POP PUSH1 0x60 DUP3 ADD MLOAD DUP1 MLOAD PUSH2 0x1B2C SWAP2 PUSH1 0x3 DUP5 ADD SWAP2 PUSH1 0x20 SWAP1 SWAP2 ADD SWAP1 PUSH2 0x2D93 JUMP JUMPDEST POP PUSH1 0x80 DUP3 ADD MLOAD PUSH1 0x4 DUP3 ADD SSTORE PUSH1 0xA0 DUP3 ADD MLOAD PUSH1 0x5 SWAP1 SWAP2 ADD DUP1 SLOAD PUSH1 0xC0 SWAP1 SWAP4 ADD MLOAD ISZERO ISZERO PUSH1 0x1 PUSH1 0xA0 SHL MUL PUSH1 0x1 PUSH1 0x1 PUSH1 0xA8 SHL SUB NOT SWAP1 SWAP4 AND PUSH1 0x1 PUSH1 0x1 PUSH1 0xA0 SHL SUB SWAP1 SWAP3 AND SWAP2 SWAP1 SWAP2 OR SWAP2 SWAP1 SWAP2 OR SWAP1 SSTORE DUP6 ISZERO PUSH2 0x1B9C JUMPI PUSH0 DUP7 DUP2 MSTORE PUSH1 0x1C PUSH1 0x20 SWAP1 DUP2 MSTORE PUSH1 0x40 DUP3 KECCAK256 PUSH1 0x3 ADD DUP1 SLOAD PUSH1 0x1 DUP2 ADD DUP3 SSTORE SWAP1 DUP4 MSTORE SWAP2 KECCAK256 ADD DUP2 SWAP1 SSTORE JUMPDEST PUSH1 0x1D DUP1 SLOAD PUSH1 0x1 DUP2 ADD DUP3 SSTORE PUSH0 SWAP2 SWAP1 SWAP2 MSTORE PUSH32 0x6D4407E7BE21F808E6509AA9FA9143369579DD7D760FE20A2C09680FC146134F ADD DUP2 SWAP1 SSTORE PUSH1 0x40 DUP1 MLOAD DUP8 DUP2 MSTORE PUSH1 0x1 PUSH1 0x1 PUSH1 0xA0 SHL SUB DUP6 AND PUSH1 0x20 DUP3 ADD MSTORE DUP3 SWAP2 PUSH32 0x67C6B0970F5C82D489BB3163EA8EC1AE68D61DC6F27E2476ED1055E06BCCD811 SWAP2 ADD PUSH1 0x40 MLOAD DUP1 SWAP2 SUB SWAP1 LOG2 SWAP6 SWAP5 POP POP POP POP POP JUMP JUMPDEST PUSH0 DUP3 DUP2 MSTORE PUSH1 0x15 PUSH1 0x20 MSTORE PUSH1 0x40 DUP2 KECCAK256 DUP1 SLOAD DUP4 SWAP1 DUP2 LT PUSH2 0x1C3B JUMPI PUSH2 0x1C3B PUSH2 0x3431 JUMP JUMPDEST SWAP1 PUSH0 MSTORE PUSH1 0x20 PUSH0 KECCAK256 ADD SLOAD SWAP1 POP JUMPDEST SWAP3 SWAP2 POP POP JUMP JUMPDEST PUSH1 0x12 DUP2 DUP2 SLOAD DUP2 LT PUSH2 0xF9D JUMPI PUSH0 DUP1 REVERT JUMPDEST PUSH1 0x15 PUSH1 0x20 MSTORE DUP2 PUSH0 MSTORE PUSH1 0x40 PUSH0 KECCAK256 DUP2 DUP2 SLOAD DUP2 LT PUSH2 0x1C75 JUMPI PUSH0 DUP1 REVERT JUMPDEST SWAP1 PUSH0 MSTORE PUSH1 0x20 PUSH0 KECCAK256 ADD PUSH0 SWAP2 POP SWAP2 POP POP SLOAD DUP2 JUMP JUMPDEST PUSH1 0x1 PUSH1 0x1 PUSH1 0xA0 SHL SUB DUP1 DUP3 AND PUSH0 SWAP1 DUP2 MSTORE PUSH1 0x13 PUSH1 0x20 SWAP1 DUP2 MSTORE PUSH1 0x40 DUP1 DUP4 KECCAK256 DUP2 MLOAD PUSH1 0xA0 DUP2 ADD DUP4 MSTORE DUP2 SLOAD SWAP1 SWAP6 AND DUP6 MSTORE PUSH1 0x1 DUP2 ADD DUP1 SLOAD DUP4 MLOAD DUP2 DUP7 MUL DUP2 ADD DUP7 ADD SWAP1 SWAP5 MSTORE DUP1 DUP5 MSTORE SWAP5 SWAP6 DUP7 SWAP6 DUP7 SWAP6 DUP7 SWAP6 SWAP3 SWAP5 SWAP4 DUP6 DUP3 ADD SWAP4 SWAP3 SWAP1 SWAP2 DUP4 ADD DUP3 DUP3 DUP1 ISZERO PUSH2 0x1D05 JUMPI PUSH1 0x20 MUL DUP3 ADD SWAP2 SWAP1 PUSH0 MSTORE PUSH1 0x20 PUSH0 KECCAK256 SWAP1 JUMPDEST DUP2 SLOAD DUP2 MSTORE PUSH1 0x20 ADD SWAP1 PUSH1 0x1 ADD SWAP1 DUP1 DUP4 GT PUSH2 0x1CF1 JUMPI JUMPDEST POP POP POP SWAP2 DUP4 MSTORE POP POP PUSH1 0x2 DUP3 ADD SLOAD PUSH1 0x20 DUP3 ADD MSTORE PUSH1 0x3 DUP3 ADD SLOAD PUSH1 0x40 DUP1 DUP4 ADD SWAP2 SWAP1 SWAP2 MSTORE PUSH1 0x4 SWAP1 SWAP3 ADD SLOAD PUSH1 0xFF AND ISZERO ISZERO PUSH1 0x60 SWAP2 DUP3 ADD MSTORE SWAP1 DUP3 ADD MLOAD SWAP1 DUP3 ADD MLOAD PUSH1 0x80 SWAP1 SWAP3 ADD MLOAD SWAP1 SWAP8 SWAP2 SWAP7 POP SWAP5 POP SWAP3 POP POP POP JUMP JUMPDEST PUSH1 0x18 SLOAD PUSH1 0x1 PUSH1 0x1 PUSH1 0xA0 SHL SUB AND CALLER EQ PUSH2 0x1D7B JUMPI PUSH1 0x40 MLOAD PUSH3 0x461BCD PUSH1 0xE5 SHL DUP2 MSTORE PUSH1 0x4 ADD PUSH2 0x883 SWAP1 PUSH2 0x3496 JUMP JUMPDEST PUSH1 0x40 DUP1 MLOAD DUP1 DUP3 ADD DUP3 MSTORE DUP7 MLOAD DUP1 DUP3 MSTORE PUSH1 0x20 DUP1 DUP10 ADD MLOAD SWAP3 DUP2 ADD DUP4 SWAP1 MSTORE PUSH0 SWAP2 SWAP1 SWAP2 SSTORE PUSH1 0x1 SWAP2 SWAP1 SWAP2 SSTORE DUP2 MLOAD DUP1 DUP4 ADD SWAP1 SWAP3 MSTORE DUP6 MLOAD DUP1 DUP4 MSTORE DUP7 DUP3 ADD MLOAD SWAP2 DUP4 ADD SWAP2 SWAP1 SWAP2 MSTORE PUSH1 0x2 SWAP1 PUSH2 0x1DC7 SWAP1 DUP3 SWAP1 DUP2 PUSH2 0x2DDC JUMP JUMPDEST POP PUSH1 0x20 DUP3 ADD MLOAD PUSH2 0x1DDD SWAP1 PUSH1 0x2 DUP1 DUP5 ADD SWAP2 SWAP1 PUSH2 0x2DDC JUMP JUMPDEST POP POP PUSH1 0x40 DUP1 MLOAD DUP1 DUP3 ADD SWAP1 SWAP2 MSTORE DUP5 MLOAD DUP1 DUP3 MSTORE PUSH1 0x20 DUP1 DUP8 ADD MLOAD SWAP1 DUP4 ADD MSTORE SWAP1 SWAP2 POP PUSH1 0x6 SWAP1 PUSH2 0x1E0B SWAP1 DUP3 SWAP1 PUSH1 0x2 PUSH2 0x2DDC JUMP JUMPDEST POP PUSH1 0x20 DUP3 ADD MLOAD PUSH2 0x1E21 SWAP1 PUSH1 0x2 DUP1 DUP5 ADD SWAP2 SWAP1 PUSH2 0x2DDC JUMP JUMPDEST POP POP PUSH1 0x40 DUP1 MLOAD DUP1 DUP3 ADD SWAP1 SWAP2 MSTORE DUP4 MLOAD DUP1 DUP3 MSTORE PUSH1 0x20 DUP1 DUP7 ADD MLOAD SWAP1 DUP4 ADD MSTORE SWAP1 SWAP2 POP PUSH1 0xA SWAP1 PUSH2 0x1E4F SWAP1 DUP3 SWAP1 PUSH1 0x2 PUSH2 0x2DDC JUMP JUMPDEST POP PUSH1 0x20 DUP3 ADD MLOAD PUSH2 0x1E65 SWAP1 PUSH1 0x2 DUP1 DUP5 ADD SWAP2 SWAP1 PUSH2 0x2DDC JUMP JUMPDEST POP PUSH2 0x1E75 SWAP2 POP PUSH1 0xE SWAP1 POP PUSH0 PUSH2 0x2E09 JUMP JUMPDEST PUSH0 JUMPDEST DUP2 MLOAD DUP2 LT ISZERO PUSH2 0x1F26 JUMPI PUSH0 PUSH1 0xE ADD PUSH1 0x40 MLOAD DUP1 PUSH1 0x40 ADD PUSH1 0x40 MSTORE DUP1 DUP5 DUP5 DUP2 MLOAD DUP2 LT PUSH2 0x1EA1 JUMPI PUSH2 0x1EA1 PUSH2 0x3431 JUMP JUMPDEST PUSH1 0x20 MUL PUSH1 0x20 ADD ADD MLOAD PUSH0 PUSH1 0x2 DUP2 LT PUSH2 0x1EBA JUMPI PUSH2 0x1EBA PUSH2 0x3431 JUMP JUMPDEST PUSH1 0x20 MUL ADD MLOAD DUP2 MSTORE PUSH1 0x20 ADD DUP5 DUP5 DUP2 MLOAD DUP2 LT PUSH2 0x1ED6 JUMPI PUSH2 0x1ED6 PUSH2 0x3431 JUMP JUMPDEST PUSH1 0x20 MUL PUSH1 0x20 ADD ADD MLOAD PUSH1 0x1 PUSH1 0x2 DUP2 LT PUSH2 0x1EF0 JUMPI PUSH2 0x1EF0 PUSH2 0x3431 JUMP JUMPDEST PUSH1 0x20 SWAP1 DUP2 MUL SWAP2 SWAP1 SWAP2 ADD MLOAD SWAP1 SWAP2 MSTORE DUP3 SLOAD PUSH1 0x1 DUP2 DUP2 ADD DUP6 SSTORE PUSH0 SWAP5 DUP6 MSTORE SWAP4 DUP3 SWAP1 KECCAK256 DUP4 MLOAD PUSH1 0x2 SWAP1 SWAP3 MUL ADD SWAP1 DUP2 SSTORE SWAP2 ADD MLOAD SWAP1 DUP3 ADD SSTORE ADD PUSH2 0x1E77 JUMP JUMPDEST POP POP POP POP POP POP JUMP JUMPDEST CALLER PUSH0 SWAP1 DUP2 MSTORE PUSH1 0x1A PUSH1 0x20 MSTORE PUSH1 0x40 SWAP1 KECCAK256 SLOAD PUSH1 0xFF AND PUSH2 0x1F7D JUMPI PUSH1 0x40 MLOAD PUSH3 0x461BCD PUSH1 0xE5 SHL DUP2 MSTORE PUSH1 0x20 PUSH1 0x4 DUP3 ADD MSTORE PUSH1 0xE PUSH1 0x24 DUP3 ADD MSTORE PUSH14 0x2737BA1030B71030BAB234BA37B9 PUSH1 0x91 SHL PUSH1 0x44 DUP3 ADD MSTORE PUSH1 0x64 ADD PUSH2 0x883 JUMP JUMPDEST PUSH0 DUP2 DUP2 MSTORE PUSH1 0x11 PUSH1 0x20 MSTORE PUSH1 0x40 SWAP1 KECCAK256 PUSH1 0x4 DUP2 ADD SLOAD PUSH2 0x1FCE JUMPI PUSH1 0x40 MLOAD PUSH3 0x461BCD PUSH1 0xE5 SHL DUP2 MSTORE PUSH1 0x20 PUSH1 0x4 DUP3 ADD MSTORE PUSH1 0x10 PUSH1 0x24 DUP3 ADD MSTORE PUSH16 0x10DBDB5B5A5D081B9BDD08199BDD5B99 PUSH1 0x82 SHL PUSH1 0x44 DUP3 ADD MSTORE PUSH1 0x64 ADD PUSH2 0x883 JUMP JUMPDEST PUSH1 0x5 DUP2 ADD SLOAD PUSH1 0xFF AND ISZERO PUSH2 0x2023 JUMPI PUSH1 0x40 MLOAD PUSH3 0x461BCD PUSH1 0xE5 SHL DUP2 MSTORE PUSH1 0x20 PUSH1 0x4 DUP3 ADD MSTORE PUSH1 0x19 PUSH1 0x24 DUP3 ADD MSTORE PUSH32 0x416C72656164792076657269666965642061732076616C696400000000000000 PUSH1 0x44 DUP3 ADD MSTORE PUSH1 0x64 ADD PUSH2 0x883 JUMP JUMPDEST DUP1 SLOAD PUSH1 0x1 PUSH1 0x1 PUSH1 0xA0 SHL SUB AND PUSH0 DUP2 DUP2 MSTORE PUSH1 0x17 PUSH1 0x20 MSTORE PUSH1 0x40 SWAP1 KECCAK256 SLOAD PUSH8 0x6F05B59D3B20000 GT ISZERO PUSH2 0x2093 JUMPI PUSH1 0x40 MLOAD PUSH3 0x461BCD PUSH1 0xE5 SHL DUP2 MSTORE PUSH1 0x20 PUSH1 0x4 DUP3 ADD MSTORE PUSH1 0x1B PUSH1 0x24 DUP3 ADD MSTORE PUSH32 0x496E73756666696369656E74207374616B6520746F20736C6173680000000000 PUSH1 0x44 DUP3 ADD MSTORE PUSH1 0x64 ADD PUSH2 0x883 JUMP JUMPDEST PUSH1 0x1 PUSH1 0x1 PUSH1 0xA0 SHL SUB DUP2 AND PUSH0 SWAP1 DUP2 MSTORE PUSH1 0x17 PUSH1 0x20 MSTORE PUSH1 0x40 DUP2 KECCAK256 DUP1 SLOAD PUSH8 0x6F05B59D3B20000 SWAP3 SWAP1 PUSH2 0x20C2 SWAP1 DUP5 SWAP1 PUSH2 0x34BA JUMP JUMPDEST SWAP1 SWAP2 SSTORE POP POP PUSH1 0x40 MLOAD PUSH0 SWAP1 CALLER SWAP1 PUSH8 0x6F05B59D3B20000 SWAP1 DUP4 DUP2 DUP2 DUP2 DUP6 DUP8 GAS CALL SWAP3 POP POP POP RETURNDATASIZE DUP1 PUSH0 DUP2 EQ PUSH2 0x210E JUMPI PUSH1 0x40 MLOAD SWAP2 POP PUSH1 0x1F NOT PUSH1 0x3F RETURNDATASIZE ADD AND DUP3 ADD PUSH1 0x40 MSTORE RETURNDATASIZE DUP3 MSTORE RETURNDATASIZE PUSH0 PUSH1 0x20 DUP5 ADD RETURNDATACOPY PUSH2 0x2113 JUMP JUMPDEST PUSH1 0x60 SWAP2 POP JUMPDEST POP POP SWAP1 POP DUP1 PUSH2 0x215C JUMPI PUSH1 0x40 MLOAD PUSH3 0x461BCD PUSH1 0xE5 SHL DUP2 MSTORE PUSH1 0x20 PUSH1 0x4 DUP3 ADD MSTORE PUSH1 0x15 PUSH1 0x24 DUP3 ADD MSTORE PUSH21 0x14DB185CDA081D1C985B9CD9995C8819985A5B1959 PUSH1 0x5A SHL PUSH1 0x44 DUP3 ADD MSTORE PUSH1 0x64 ADD PUSH2 0x883 JUMP JUMPDEST PUSH1 0x40 DUP1 MLOAD PUSH8 0x6F05B59D3B20000 DUP2 MSTORE PUSH1 0x20 DUP2 ADD DUP7 SWAP1 MSTORE PUSH1 0x1 PUSH1 0x1 PUSH1 0xA0 SHL SUB DUP5 AND SWAP2 PUSH32 0x92225E2A729727E349C9F6C18841822C01B9F8EF4DE8F9CDBDD66A431A7A6A9B SWAP2 ADD PUSH1 0x40 MLOAD DUP1 SWAP2 SUB SWAP1 LOG2 POP POP POP POP JUMP JUMPDEST PUSH1 0x18 SLOAD PUSH1 0x1 PUSH1 0x1 PUSH1 0xA0 SHL SUB AND CALLER EQ PUSH2 0x21D8 JUMPI PUSH1 0x40 MLOAD PUSH3 0x461BCD PUSH1 0xE5 SHL DUP2 MSTORE PUSH1 0x4 ADD PUSH2 0x883 SWAP1 PUSH2 0x3496 JUMP JUMPDEST PUSH1 0x1 PUSH1 0x1 PUSH1 0xA0 SHL SUB DUP2 AND PUSH0 SWAP1 DUP2 MSTORE PUSH1 0x1A PUSH1 0x20 MSTORE PUSH1 0x40 SWAP1 KECCAK256 SLOAD PUSH1 0xFF AND ISZERO PUSH2 0x2235 JUMPI PUSH1 0x40 MLOAD PUSH3 0x461BCD PUSH1 0xE5 SHL DUP2 MSTORE PUSH1 0x20 PUSH1 0x4 DUP3 ADD MSTORE PUSH1 0x12 PUSH1 0x24 DUP3 ADD MSTORE PUSH18 0x105B1C9958591E481C9959DA5CDD195C9959 PUSH1 0x72 SHL PUSH1 0x44 DUP3 ADD MSTORE PUSH1 0x64 ADD PUSH2 0x883 JUMP JUMPDEST PUSH1 0x1 PUSH1 0x1 PUSH1 0xA0 SHL SUB DUP2 AND PUSH0 SWAP1 DUP2 MSTORE PUSH1 0x1A PUSH1 0x20 MSTORE PUSH1 0x40 DUP2 KECCAK256 DUP1 SLOAD PUSH1 0xFF NOT AND PUSH1 0x1 OR SWAP1 SSTORE PUSH1 0x1B DUP1 SLOAD SWAP2 PUSH2 0x2265 DUP4 PUSH2 0x3459 JUMP JUMPDEST SWAP1 SWAP2 SSTORE POP POP PUSH1 0x40 MLOAD PUSH1 0x1 PUSH1 0x1 PUSH1 0xA0 SHL SUB DUP3 AND SWAP1 PUSH32 0xEA5F6444A82C5A256B72B475714978AC87AF927F8F6881498833DF35CDC675D7 SWAP1 PUSH0 SWAP1 LOG2 POP JUMP JUMPDEST CALLER PUSH0 SWAP1 DUP2 MSTORE PUSH1 0x13 PUSH1 0x20 MSTORE PUSH1 0x40 SWAP1 KECCAK256 PUSH1 0x4 ADD SLOAD PUSH1 0xFF AND PUSH2 0x2301 JUMPI PUSH1 0x40 MLOAD PUSH3 0x461BCD PUSH1 0xE5 SHL DUP2 MSTORE PUSH1 0x20 PUSH1 0x4 DUP3 ADD MSTORE PUSH1 0x1A PUSH1 0x24 DUP3 ADD MSTORE PUSH32 0x4E6F742061207265676973746572656420636F6D6D6974746572000000000000 PUSH1 0x44 DUP3 ADD MSTORE PUSH1 0x64 ADD PUSH2 0x883 JUMP JUMPDEST PUSH0 DUP7 DUP2 MSTORE PUSH1 0xF PUSH1 0x20 MSTORE PUSH1 0x40 SWAP1 KECCAK256 PUSH1 0x4 ADD SLOAD PUSH1 0xFF AND PUSH2 0x2354 JUMPI PUSH1 0x40 MLOAD PUSH3 0x461BCD PUSH1 0xE5 SHL DUP2 MSTORE PUSH1 0x20 PUSH1 0x4 DUP3 ADD MSTORE PUSH1 0x10 PUSH1 0x24 DUP3 ADD MSTORE PUSH16 0x436861696E206E6F7420616374697665 PUSH1 0x80 SHL PUSH1 0x44 DUP3 ADD MSTORE PUSH1 0x64 ADD PUSH2 0x883 JUMP JUMPDEST PUSH0 DUP7 DUP2 MSTORE PUSH1 0xF PUSH1 0x20 MSTORE PUSH1 0x40 SWAP1 KECCAK256 PUSH1 0x1 ADD SLOAD DUP6 EQ PUSH2 0x23D9 JUMPI PUSH1 0x40 MLOAD PUSH3 0x461BCD PUSH1 0xE5 SHL DUP2 MSTORE PUSH1 0x20 PUSH1 0x4 DUP3 ADD MSTORE PUSH1 0x38 PUSH1 0x24 DUP3 ADD MSTORE PUSH32 0x4F6C6420726F6F74206D69736D61746368202D206D75737420636861696E2066 PUSH1 0x44 DUP3 ADD MSTORE PUSH32 0x726F6D206C617465737420766572696669656420726F6F740000000000000000 PUSH1 0x64 DUP3 ADD MSTORE PUSH1 0x84 ADD PUSH2 0x883 JUMP JUMPDEST PUSH1 0x40 MLOAD PUSH12 0xFFFFFFFFFFFFFFFFFFFFFFFF NOT CALLER PUSH1 0x60 SHL AND PUSH1 0x20 DUP3 ADD MSTORE PUSH1 0x34 DUP2 ADD DUP8 SWAP1 MSTORE PUSH1 0x54 DUP2 ADD DUP7 SWAP1 MSTORE PUSH1 0x74 DUP2 ADD DUP6 SWAP1 MSTORE NUMBER PUSH1 0x94 DUP3 ADD MSTORE PUSH0 SWAP1 PUSH1 0xB4 ADD PUSH1 0x40 DUP1 MLOAD PUSH1 0x1F NOT DUP2 DUP5 SUB ADD DUP2 MSTORE SWAP2 DUP2 MSTORE DUP2 MLOAD PUSH1 0x20 SWAP3 DUP4 ADD KECCAK256 PUSH0 DUP2 DUP2 MSTORE PUSH1 0x11 SWAP1 SWAP4 MSTORE SWAP2 KECCAK256 PUSH1 0x4 ADD SLOAD SWAP1 SWAP2 POP ISZERO PUSH2 0x2481 JUMPI PUSH1 0x40 MLOAD PUSH3 0x461BCD PUSH1 0xE5 SHL DUP2 MSTORE PUSH1 0x20 PUSH1 0x4 DUP3 ADD MSTORE PUSH1 0x13 PUSH1 0x24 DUP3 ADD MSTORE PUSH19 0x21B7B6B6B4BA1024A21031B7B63634B9B4B7B7 PUSH1 0x69 SHL PUSH1 0x44 DUP3 ADD MSTORE PUSH1 0x64 ADD PUSH2 0x883 JUMP JUMPDEST PUSH1 0x40 DUP1 MLOAD PUSH1 0xC0 DUP2 ADD DUP3 MSTORE CALLER DUP1 DUP3 MSTORE PUSH1 0x20 DUP1 DUP4 ADD DUP12 DUP2 MSTORE DUP4 DUP6 ADD DUP12 DUP2 MSTORE PUSH1 0x60 DUP6 ADD DUP12 DUP2 MSTORE TIMESTAMP PUSH1 0x80 DUP8 ADD SWAP1 DUP2 MSTORE PUSH0 PUSH1 0xA0 DUP9 ADD DUP2 DUP2 MSTORE DUP11 DUP3 MSTORE PUSH1 0x11 DUP8 MSTORE DUP10 DUP3 KECCAK256 SWAP9 MLOAD DUP10 SLOAD PUSH1 0x1 PUSH1 0x1 PUSH1 0xA0 SHL SUB NOT AND PUSH1 0x1 PUSH1 0x1 PUSH1 0xA0 SHL SUB SWAP1 SWAP2 AND OR DUP10 SSTORE SWAP5 MLOAD PUSH1 0x1 DUP1 DUP11 ADD SWAP2 SWAP1 SWAP2 SSTORE SWAP4 MLOAD PUSH1 0x2 DUP10 ADD SSTORE SWAP2 MLOAD PUSH1 0x3 DUP9 ADD SSTORE MLOAD PUSH1 0x4 DUP8 ADD SSTORE SWAP2 MLOAD PUSH1 0x5 SWAP1 SWAP6 ADD DUP1 SLOAD PUSH1 0xFF NOT AND SWAP6 ISZERO ISZERO SWAP6 SWAP1 SWAP6 OR SWAP1 SWAP5 SSTORE PUSH1 0x12 DUP1 SLOAD SWAP5 DUP6 ADD DUP2 SSTORE SWAP1 MSTORE PUSH32 0xBB8A6A4669BA250D26CD7A459ECA9D215F8307E33AEBE50379BC5A3617EC3444 SWAP1 SWAP3 ADD DUP5 SWAP1 SSTORE DUP3 MLOAD DUP10 DUP2 MSTORE SWAP2 DUP3 ADD DUP9 SWAP1 MSTORE DUP10 SWAP3 SWAP1 SWAP2 DUP5 SWAP2 PUSH32 0xFD57AE7EF8581A8E9AF12E7408DCF1CA9021E8CB25FFE3C72933AE9E04B1358F SWAP2 ADD PUSH1 0x40 MLOAD DUP1 SWAP2 SUB SWAP1 LOG4 POP POP POP POP POP POP POP JUMP JUMPDEST PUSH0 DUP4 PUSH1 0x80 ADD MLOAD MLOAD DUP3 MLOAD PUSH1 0x1 PUSH2 0x259C SWAP2 SWAP1 PUSH2 0x3471 JUMP JUMPDEST EQ PUSH2 0x25E9 JUMPI PUSH1 0x40 MLOAD PUSH3 0x461BCD PUSH1 0xE5 SHL DUP2 MSTORE PUSH1 0x20 PUSH1 0x4 DUP3 ADD MSTORE PUSH1 0x1C PUSH1 0x24 DUP3 ADD MSTORE PUSH32 0x496E76616C6964207075626C696320696E70757473206C656E67746800000000 PUSH1 0x44 DUP3 ADD MSTORE PUSH1 0x64 ADD PUSH2 0x883 JUMP JUMPDEST PUSH0 JUMPDEST DUP3 MLOAD DUP2 LT ISZERO PUSH2 0x2684 JUMPI PUSH32 0x30644E72E131A029B85045B68181585D2833E84879B9709143E1F593F0000001 DUP4 DUP3 DUP2 MLOAD DUP2 LT PUSH2 0x2627 JUMPI PUSH2 0x2627 PUSH2 0x3431 JUMP JUMPDEST PUSH1 0x20 MUL PUSH1 0x20 ADD ADD MLOAD LT PUSH2 0x267C JUMPI PUSH1 0x40 MLOAD PUSH3 0x461BCD PUSH1 0xE5 SHL DUP2 MSTORE PUSH1 0x20 PUSH1 0x4 DUP3 ADD MSTORE PUSH1 0x1A PUSH1 0x24 DUP3 ADD MSTORE PUSH32 0x5075626C696320696E7075742065786365656473206669656C64000000000000 PUSH1 0x44 DUP3 ADD MSTORE PUSH1 0x64 ADD PUSH2 0x883 JUMP JUMPDEST PUSH1 0x1 ADD PUSH2 0x25EB JUMP JUMPDEST POP PUSH0 DUP5 PUSH1 0x80 ADD MLOAD PUSH0 DUP2 MLOAD DUP2 LT PUSH2 0x269C JUMPI PUSH2 0x269C PUSH2 0x3431 JUMP JUMPDEST PUSH1 0x20 MUL PUSH1 0x20 ADD ADD MLOAD SWAP1 POP PUSH0 JUMPDEST DUP4 MLOAD DUP2 LT ISZERO PUSH2 0x2710 JUMPI PUSH2 0x2706 DUP3 PUSH2 0x2701 DUP9 PUSH1 0x80 ADD MLOAD DUP5 PUSH1 0x1 PUSH2 0x26CA SWAP2 SWAP1 PUSH2 0x3471 JUMP JUMPDEST DUP2 MLOAD DUP2 LT PUSH2 0x26DA JUMPI PUSH2 0x26DA PUSH2 0x3431 JUMP JUMPDEST PUSH1 0x20 MUL PUSH1 0x20 ADD ADD MLOAD DUP8 DUP6 DUP2 MLOAD DUP2 LT PUSH2 0x26F4 JUMPI PUSH2 0x26F4 PUSH2 0x3431 JUMP JUMPDEST PUSH1 0x20 MUL PUSH1 0x20 ADD ADD MLOAD PUSH2 0x28B1 JUMP JUMPDEST PUSH2 0x293F JUMP JUMPDEST SWAP2 POP PUSH1 0x1 ADD PUSH2 0x26A8 JUMP JUMPDEST POP PUSH1 0x40 DUP1 MLOAD PUSH1 0x4 DUP1 DUP3 MSTORE PUSH1 0xA0 DUP3 ADD SWAP1 SWAP3 MSTORE PUSH0 SWAP2 DUP2 PUSH1 0x20 ADD JUMPDEST PUSH1 0x40 DUP1 MLOAD DUP1 DUP3 ADD SWAP1 SWAP2 MSTORE PUSH0 DUP1 DUP3 MSTORE PUSH1 0x20 DUP3 ADD MSTORE DUP2 MSTORE PUSH1 0x20 ADD SWAP1 PUSH1 0x1 SWAP1 SUB SWAP1 DUP2 PUSH2 0x2728 JUMPI POP POP PUSH1 0x40 DUP1 MLOAD PUSH1 0x4 DUP1 DUP3 MSTORE PUSH1 0xA0 DUP3 ADD SWAP1 SWAP3 MSTORE SWAP2 SWAP3 POP PUSH0 SWAP2 SWAP1 PUSH1 0x20 DUP3 ADD JUMPDEST PUSH2 0x2770 PUSH2 0x2E2A JUMP JUMPDEST DUP2 MSTORE PUSH1 0x20 ADD SWAP1 PUSH1 0x1 SWAP1 SUB SWAP1 DUP2 PUSH2 0x2768 JUMPI POP POP DUP7 MLOAD SWAP1 SWAP2 POP PUSH2 0x2790 SWAP1 PUSH2 0x29CB JUMP JUMPDEST DUP3 PUSH0 DUP2 MLOAD DUP2 LT PUSH2 0x27A2 JUMPI PUSH2 0x27A2 PUSH2 0x3431 JUMP JUMPDEST PUSH1 0x20 MUL PUSH1 0x20 ADD ADD DUP2 SWAP1 MSTORE POP DUP6 PUSH1 0x20 ADD MLOAD DUP2 PUSH0 DUP2 MLOAD DUP2 LT PUSH2 0x27C4 JUMPI PUSH2 0x27C4 PUSH2 0x3431 JUMP JUMPDEST PUSH1 0x20 MUL PUSH1 0x20 ADD ADD DUP2 SWAP1 MSTORE POP DUP7 PUSH0 ADD MLOAD DUP3 PUSH1 0x1 DUP2 MLOAD DUP2 LT PUSH2 0x27E6 JUMPI PUSH2 0x27E6 PUSH2 0x3431 JUMP JUMPDEST PUSH1 0x20 MUL PUSH1 0x20 ADD ADD DUP2 SWAP1 MSTORE POP DUP7 PUSH1 0x20 ADD MLOAD DUP2 PUSH1 0x1 DUP2 MLOAD DUP2 LT PUSH2 0x2809 JUMPI PUSH2 0x2809 PUSH2 0x3431 JUMP JUMPDEST PUSH1 0x20 MUL PUSH1 0x20 ADD ADD DUP2 SWAP1 MSTORE POP DUP3 DUP3 PUSH1 0x2 DUP2 MLOAD DUP2 LT PUSH2 0x2828 JUMPI PUSH2 0x2828 PUSH2 0x3431 JUMP JUMPDEST PUSH1 0x20 MUL PUSH1 0x20 ADD ADD DUP2 SWAP1 MSTORE POP DUP7 PUSH1 0x40 ADD MLOAD DUP2 PUSH1 0x2 DUP2 MLOAD DUP2 LT PUSH2 0x284B JUMPI PUSH2 0x284B PUSH2 0x3431 JUMP JUMPDEST PUSH1 0x20 MUL PUSH1 0x20 ADD ADD DUP2 SWAP1 MSTORE POP DUP6 PUSH1 0x40 ADD MLOAD DUP3 PUSH1 0x3 DUP2 MLOAD DUP2 LT PUSH2 0x286E JUMPI PUSH2 0x286E PUSH2 0x3431 JUMP JUMPDEST PUSH1 0x20 MUL PUSH1 0x20 ADD ADD DUP2 SWAP1 MSTORE POP DUP7 PUSH1 0x60 ADD MLOAD DUP2 PUSH1 0x3 DUP2 MLOAD DUP2 LT PUSH2 0x2891 JUMPI PUSH2 0x2891 PUSH2 0x3431 JUMP JUMPDEST PUSH1 0x20 MUL PUSH1 0x20 ADD ADD DUP2 SWAP1 MSTORE POP PUSH2 0x28A6 DUP3 DUP3 PUSH2 0x2A82 JUMP JUMPDEST SWAP8 SWAP7 POP POP POP POP POP POP POP JUMP JUMPDEST PUSH1 0x40 DUP1 MLOAD DUP1 DUP3 ADD SWAP1 SWAP2 MSTORE PUSH0 DUP1 DUP3 MSTORE PUSH1 0x20 DUP3 ADD MSTORE PUSH2 0x28CC PUSH2 0x2E4F JUMP JUMPDEST DUP4 MLOAD DUP2 MSTORE PUSH1 0x20 DUP1 DUP6 ADD MLOAD SWAP1 DUP3 ADD MSTORE PUSH1 0x40 DUP1 DUP3 ADD DUP5 SWAP1 MSTORE PUSH0 SWAP1 DUP4 PUSH1 0x60 DUP5 PUSH1 0x7 PUSH2 0x7D0 GAS SUB STATICCALL SWAP1 POP DUP1 PUSH2 0x2937 JUMPI PUSH1 0x40 MLOAD PUSH3 0x461BCD PUSH1 0xE5 SHL DUP2 MSTORE PUSH1 0x20 PUSH1 0x4 DUP3 ADD MSTORE PUSH1 0x15 PUSH1 0x24 DUP3 ADD MSTORE PUSH21 0x189B8C8D4D94D8D85B185C935D5B0819985A5B1959 PUSH1 0x5A SHL PUSH1 0x44 DUP3 ADD MSTORE PUSH1 0x64 ADD PUSH2 0x883 JUMP JUMPDEST POP POP SWAP3 SWAP2 POP POP JUMP JUMPDEST PUSH1 0x40 DUP1 MLOAD DUP1 DUP3 ADD SWAP1 SWAP2 MSTORE PUSH0 DUP1 DUP3 MSTORE PUSH1 0x20 DUP3 ADD MSTORE PUSH2 0x295A PUSH2 0x2E6D JUMP JUMPDEST DUP4 MLOAD DUP2 MSTORE PUSH1 0x20 DUP1 DUP6 ADD MLOAD DUP2 DUP4 ADD MSTORE DUP4 MLOAD PUSH1 0x40 DUP1 DUP5 ADD SWAP2 SWAP1 SWAP2 MSTORE SWAP1 DUP5 ADD MLOAD PUSH1 0x60 DUP4 ADD MSTORE PUSH0 SWAP1 DUP4 PUSH1 0x80 DUP5 PUSH1 0x6 PUSH2 0x7D0 GAS SUB STATICCALL SWAP1 POP DUP1 PUSH2 0x2937 JUMPI PUSH1 0x40 MLOAD PUSH3 0x461BCD PUSH1 0xE5 SHL DUP2 MSTORE PUSH1 0x20 PUSH1 0x4 DUP3 ADD MSTORE PUSH1 0xF PUSH1 0x24 DUP3 ADD MSTORE PUSH15 0x189B8C8D4D9059190819985A5B1959 PUSH1 0x8A SHL PUSH1 0x44 DUP3 ADD MSTORE PUSH1 0x64 ADD PUSH2 0x883 JUMP JUMPDEST PUSH1 0x40 DUP1 MLOAD DUP1 DUP3 ADD SWAP1 SWAP2 MSTORE PUSH0 DUP1 DUP3 MSTORE PUSH1 0x20 DUP3 ADD MSTORE DUP2 MLOAD ISZERO DUP1 ISZERO PUSH2 0x29EF JUMPI POP PUSH1 0x20 DUP3 ADD MLOAD ISZERO JUMPDEST ISZERO PUSH2 0x2A0C JUMPI POP POP PUSH1 0x40 DUP1 MLOAD DUP1 DUP3 ADD SWAP1 SWAP2 MSTORE PUSH0 DUP1 DUP3 MSTORE PUSH1 0x20 DUP3 ADD MSTORE SWAP1 JUMP JUMPDEST PUSH1 0x40 MLOAD DUP1 PUSH1 0x40 ADD PUSH1 0x40 MSTORE DUP1 DUP4 PUSH0 ADD MLOAD DUP2 MSTORE PUSH1 0x20 ADD PUSH32 0x30644E72E131A029B85045B68181585D97816A916871CA8D3C208C16D87CFD47 DUP5 PUSH1 0x20 ADD MLOAD PUSH2 0x2A50 SWAP2 SWAP1 PUSH2 0x34CD JUMP JUMPDEST PUSH2 0x2A7A SWAP1 PUSH32 0x30644E72E131A029B85045B68181585D97816A916871CA8D3C208C16D87CFD47 PUSH2 0x34BA JUMP JUMPDEST SWAP1 MSTORE SWAP3 SWAP2 POP POP JUMP JUMPDEST PUSH0 DUP2 MLOAD DUP4 MLOAD EQ PUSH2 0x2AD4 JUMPI PUSH1 0x40 MLOAD PUSH3 0x461BCD PUSH1 0xE5 SHL DUP2 MSTORE PUSH1 0x20 PUSH1 0x4 DUP3 ADD MSTORE PUSH1 0x17 PUSH1 0x24 DUP3 ADD MSTORE PUSH32 0x50616972696E67206C656E677468206D69736D61746368000000000000000000 PUSH1 0x44 DUP3 ADD MSTORE PUSH1 0x64 ADD PUSH2 0x883 JUMP JUMPDEST PUSH0 DUP4 MLOAD PUSH1 0x6 PUSH2 0x2AE3 SWAP2 SWAP1 PUSH2 0x34EC JUMP JUMPDEST SWAP1 POP PUSH0 DUP2 PUSH8 0xFFFFFFFFFFFFFFFF DUP2 GT ISZERO PUSH2 0x2AFF JUMPI PUSH2 0x2AFF PUSH2 0x2EF5 JUMP JUMPDEST PUSH1 0x40 MLOAD SWAP1 DUP1 DUP3 MSTORE DUP1 PUSH1 0x20 MUL PUSH1 0x20 ADD DUP3 ADD PUSH1 0x40 MSTORE DUP1 ISZERO PUSH2 0x2B28 JUMPI DUP2 PUSH1 0x20 ADD PUSH1 0x20 DUP3 MUL DUP1 CALLDATASIZE DUP4 CALLDATACOPY ADD SWAP1 POP JUMPDEST POP SWAP1 POP PUSH0 JUMPDEST DUP6 MLOAD DUP2 LT ISZERO PUSH2 0x2D23 JUMPI PUSH0 PUSH2 0x2B42 DUP3 PUSH1 0x6 PUSH2 0x34EC JUMP JUMPDEST SWAP1 POP DUP7 DUP3 DUP2 MLOAD DUP2 LT PUSH2 0x2B56 JUMPI PUSH2 0x2B56 PUSH2 0x3431 JUMP JUMPDEST PUSH1 0x20 MUL PUSH1 0x20 ADD ADD MLOAD PUSH0 ADD MLOAD DUP4 DUP3 PUSH0 PUSH2 0x2B6E SWAP2 SWAP1 PUSH2 0x3471 JUMP JUMPDEST DUP2 MLOAD DUP2 LT PUSH2 0x2B7E JUMPI PUSH2 0x2B7E PUSH2 0x3431 JUMP JUMPDEST PUSH1 0x20 MUL PUSH1 0x20 ADD ADD DUP2 DUP2 MSTORE POP POP DUP7 DUP3 DUP2 MLOAD DUP2 LT PUSH2 0x2B9C JUMPI PUSH2 0x2B9C PUSH2 0x3431 JUMP JUMPDEST PUSH1 0x20 MUL PUSH1 0x20 ADD ADD MLOAD PUSH1 0x20 ADD MLOAD DUP4 DUP3 PUSH1 0x1 PUSH2 0x2BB6 SWAP2 SWAP1 PUSH2 0x3471 JUMP JUMPDEST DUP2 MLOAD DUP2 LT PUSH2 0x2BC6 JUMPI PUSH2 0x2BC6 PUSH2 0x3431 JUMP JUMPDEST PUSH1 0x20 MUL PUSH1 0x20 ADD ADD DUP2 DUP2 MSTORE POP POP DUP6 DUP3 DUP2 MLOAD DUP2 LT PUSH2 0x2BE4 JUMPI PUSH2 0x2BE4 PUSH2 0x3431 JUMP JUMPDEST PUSH1 0x20 SWAP1 DUP2 MUL SWAP2 SWAP1 SWAP2 ADD DUP2 ADD MLOAD MLOAD ADD MLOAD DUP4 PUSH2 0x2BFF DUP4 PUSH1 0x2 PUSH2 0x3471 JUMP JUMPDEST DUP2 MLOAD DUP2 LT PUSH2 0x2C0F JUMPI PUSH2 0x2C0F PUSH2 0x3431 JUMP JUMPDEST PUSH1 0x20 MUL PUSH1 0x20 ADD ADD DUP2 DUP2 MSTORE POP POP DUP6 DUP3 DUP2 MLOAD DUP2 LT PUSH2 0x2C2D JUMPI PUSH2 0x2C2D PUSH2 0x3431 JUMP JUMPDEST PUSH1 0x20 SWAP1 DUP2 MUL SWAP2 SWAP1 SWAP2 ADD ADD MLOAD MLOAD MLOAD DUP4 PUSH2 0x2C46 DUP4 PUSH1 0x3 PUSH2 0x3471 JUMP JUMPDEST DUP2 MLOAD DUP2 LT PUSH2 0x2C56 JUMPI PUSH2 0x2C56 PUSH2 0x3431 JUMP JUMPDEST PUSH1 0x20 MUL PUSH1 0x20 ADD ADD DUP2 DUP2 MSTORE POP POP DUP6 DUP3 DUP2 MLOAD DUP2 LT PUSH2 0x2C74 JUMPI PUSH2 0x2C74 PUSH2 0x3431 JUMP JUMPDEST PUSH1 0x20 MUL PUSH1 0x20 ADD ADD MLOAD PUSH1 0x20 ADD MLOAD PUSH1 0x1 PUSH1 0x2 DUP2 LT PUSH2 0x2C92 JUMPI PUSH2 0x2C92 PUSH2 0x3431 JUMP JUMPDEST PUSH1 0x20 MUL ADD MLOAD DUP4 PUSH2 0x2CA3 DUP4 PUSH1 0x4 PUSH2 0x3471 JUMP JUMPDEST DUP2 MLOAD DUP2 LT PUSH2 0x2CB3 JUMPI PUSH2 0x2CB3 PUSH2 0x3431 JUMP JUMPDEST PUSH1 0x20 MUL PUSH1 0x20 ADD ADD DUP2 DUP2 MSTORE POP POP DUP6 DUP3 DUP2 MLOAD DUP2 LT PUSH2 0x2CD1 JUMPI PUSH2 0x2CD1 PUSH2 0x3431 JUMP JUMPDEST PUSH1 0x20 MUL PUSH1 0x20 ADD ADD MLOAD PUSH1 0x20 ADD MLOAD PUSH0 PUSH1 0x2 DUP2 LT PUSH2 0x2CEE JUMPI PUSH2 0x2CEE PUSH2 0x3431 JUMP JUMPDEST PUSH1 0x20 MUL ADD MLOAD DUP4 PUSH2 0x2CFF DUP4 PUSH1 0x5 PUSH2 0x3471 JUMP JUMPDEST DUP2 MLOAD DUP2 LT PUSH2 0x2D0F JUMPI PUSH2 0x2D0F PUSH2 0x3431 JUMP JUMPDEST PUSH1 0x20 SWAP1 DUP2 MUL SWAP2 SWAP1 SWAP2 ADD ADD MSTORE POP PUSH1 0x1 ADD PUSH2 0x2B2D JUMP JUMPDEST POP PUSH2 0x2D2C PUSH2 0x2E8B JUMP JUMPDEST PUSH0 PUSH1 0x20 DUP3 PUSH1 0x20 DUP7 MUL PUSH1 0x20 DUP7 ADD PUSH1 0x8 PUSH2 0x7D0 GAS SUB STATICCALL SWAP1 POP DUP1 PUSH2 0x2D85 JUMPI PUSH1 0x40 MLOAD PUSH3 0x461BCD PUSH1 0xE5 SHL DUP2 MSTORE PUSH1 0x20 PUSH1 0x4 DUP3 ADD MSTORE PUSH1 0x13 PUSH1 0x24 DUP3 ADD MSTORE PUSH19 0x189B8C8D4D94185A5C9A5B99C819985A5B1959 PUSH1 0x6A SHL PUSH1 0x44 DUP3 ADD MSTORE PUSH1 0x64 ADD PUSH2 0x883 JUMP JUMPDEST POP MLOAD PUSH1 0x1 EQ SWAP6 SWAP5 POP POP POP POP POP JUMP JUMPDEST DUP3 DUP1 SLOAD DUP3 DUP3 SSTORE SWAP1 PUSH0 MSTORE PUSH1 0x20 PUSH0 KECCAK256 SWAP1 DUP2 ADD SWAP3 DUP3 ISZERO PUSH2 0x2DCC JUMPI SWAP2 PUSH1 0x20 MUL DUP3 ADD JUMPDEST DUP3 DUP2 GT ISZERO PUSH2 0x2DCC JUMPI DUP3 MLOAD DUP3 SSTORE SWAP2 PUSH1 0x20 ADD SWAP2 SWAP1 PUSH1 0x1 ADD SWAP1 PUSH2 0x2DB1 JUMP JUMPDEST POP PUSH2 0x2DD8 SWAP3 SWAP2 POP PUSH2 0x2EA9 JUMP JUMPDEST POP SWAP1 JUMP JUMPDEST DUP3 PUSH1 0x2 DUP2 ADD SWAP3 DUP3 ISZERO PUSH2 0x2DCC JUMPI SWAP2 PUSH1 0x20 MUL DUP3 ADD DUP3 DUP2 GT ISZERO PUSH2 0x2DCC JUMPI DUP3 MLOAD DUP3 SSTORE SWAP2 PUSH1 0x20 ADD SWAP2 SWAP1 PUSH1 0x1 ADD SWAP1 PUSH2 0x2DB1 JUMP JUMPDEST POP DUP1 SLOAD PUSH0 DUP3 SSTORE PUSH1 0x2 MUL SWAP1 PUSH0 MSTORE PUSH1 0x20 PUSH0 KECCAK256 SWAP1 DUP2 ADD SWAP1 PUSH2 0x2E27 SWAP2 SWAP1 PUSH2 0x2EBD JUMP JUMPDEST POP JUMP JUMPDEST PUSH1 0x40 MLOAD DUP1 PUSH1 0x40 ADD PUSH1 0x40 MSTORE DUP1 PUSH2 0x2E3D PUSH2 0x2ED7 JUMP JUMPDEST DUP2 MSTORE PUSH1 0x20 ADD PUSH2 0x2E4A PUSH2 0x2ED7 JUMP JUMPDEST SWAP1 MSTORE SWAP1 JUMP JUMPDEST PUSH1 0x40 MLOAD DUP1 PUSH1 0x60 ADD PUSH1 0x40 MSTORE DUP1 PUSH1 0x3 SWAP1 PUSH1 0x20 DUP3 MUL DUP1 CALLDATASIZE DUP4 CALLDATACOPY POP SWAP2 SWAP3 SWAP2 POP POP JUMP JUMPDEST PUSH1 0x40 MLOAD DUP1 PUSH1 0x80 ADD PUSH1 0x40 MSTORE DUP1 PUSH1 0x4 SWAP1 PUSH1 0x20 DUP3 MUL DUP1 CALLDATASIZE DUP4 CALLDATACOPY POP SWAP2 SWAP3 SWAP2 POP POP JUMP JUMPDEST PUSH1 0x40 MLOAD DUP1 PUSH1 0x20 ADD PUSH1 0x40 MSTORE DUP1 PUSH1 0x1 SWAP1 PUSH1 0x20 DUP3 MUL DUP1 CALLDATASIZE DUP4 CALLDATACOPY POP SWAP2 SWAP3 SWAP2 POP POP JUMP JUMPDEST JUMPDEST DUP1 DUP3 GT ISZERO PUSH2 0x2DD8 JUMPI PUSH0 DUP2 SSTORE PUSH1 0x1 ADD PUSH2 0x2EAA JUMP JUMPDEST JUMPDEST DUP1 DUP3 GT ISZERO PUSH2 0x2DD8 JUMPI PUSH0 DUP1 DUP3 SSTORE PUSH1 0x1 DUP3 ADD SSTORE PUSH1 0x2 ADD PUSH2 0x2EBE JUMP JUMPDEST PUSH1 0x40 MLOAD DUP1 PUSH1 0x40 ADD PUSH1 0x40 MSTORE DUP1 PUSH1 0x2 SWAP1 PUSH1 0x20 DUP3 MUL DUP1 CALLDATASIZE DUP4 CALLDATACOPY POP SWAP2 SWAP3 SWAP2 POP POP JUMP JUMPDEST PUSH4 0x4E487B71 PUSH1 0xE0 SHL PUSH0 MSTORE PUSH1 0x41 PUSH1 0x4 MSTORE PUSH1 0x24 PUSH0 REVERT JUMPDEST PUSH1 0x40 DUP1 MLOAD SWAP1 DUP2 ADD PUSH8 0xFFFFFFFFFFFFFFFF DUP2 GT DUP3 DUP3 LT OR ISZERO PUSH2 0x2F2C JUMPI PUSH2 0x2F2C PUSH2 0x2EF5 JUMP JUMPDEST PUSH1 0x40 MSTORE SWAP1 JUMP JUMPDEST PUSH1 0x40 MLOAD PUSH1 0x1F DUP3 ADD PUSH1 0x1F NOT AND DUP2 ADD PUSH8 0xFFFFFFFFFFFFFFFF DUP2 GT DUP3 DUP3 LT OR ISZERO PUSH2 0x2F5B JUMPI PUSH2 0x2F5B PUSH2 0x2EF5 JUMP JUMPDEST PUSH1 0x40 MSTORE SWAP2 SWAP1 POP JUMP JUMPDEST PUSH0 DUP3 PUSH1 0x1F DUP4 ADD SLT PUSH2 0x2F72 JUMPI PUSH0 DUP1 REVERT JUMPDEST PUSH2 0x2F7A PUSH2 0x2F09 JUMP JUMPDEST DUP1 PUSH1 0x40 DUP5 ADD DUP6 DUP2 GT ISZERO PUSH2 0x2F8B JUMPI PUSH0 DUP1 REVERT JUMPDEST DUP5 JUMPDEST DUP2 DUP2 LT ISZERO PUSH2 0x2FA5 JUMPI DUP1 CALLDATALOAD DUP5 MSTORE PUSH1 0x20 SWAP4 DUP5 ADD SWAP4 ADD PUSH2 0x2F8D JUMP JUMPDEST POP SWAP1 SWAP6 SWAP5 POP POP POP POP POP JUMP JUMPDEST PUSH0 DUP3 PUSH1 0x1F DUP4 ADD SLT PUSH2 0x2FBF JUMPI PUSH0 DUP1 REVERT JUMPDEST PUSH2 0x2FC7 PUSH2 0x2F09 JUMP JUMPDEST DUP1 PUSH1 0x80 DUP5 ADD DUP6 DUP2 GT ISZERO PUSH2 0x2FD8 JUMPI PUSH0 DUP1 REVERT JUMPDEST DUP5 JUMPDEST DUP2 DUP2 LT ISZERO PUSH2 0x2FA5 JUMPI PUSH2 0x2FEC DUP8 DUP3 PUSH2 0x2F63 JUMP JUMPDEST DUP5 MSTORE PUSH1 0x20 SWAP1 SWAP4 ADD SWAP3 PUSH1 0x40 ADD PUSH2 0x2FDA JUMP JUMPDEST PUSH0 DUP1 PUSH0 DUP1 PUSH2 0x120 DUP6 DUP8 SUB SLT ISZERO PUSH2 0x3010 JUMPI PUSH0 DUP1 REVERT JUMPDEST DUP5 CALLDATALOAD SWAP4 POP PUSH2 0x3021 DUP7 PUSH1 0x20 DUP8 ADD PUSH2 0x2F63 JUMP JUMPDEST SWAP3 POP PUSH2 0x3030 DUP7 PUSH1 0x60 DUP8 ADD PUSH2 0x2FB0 JUMP JUMPDEST SWAP2 POP PUSH2 0x303F DUP7 PUSH1 0xE0 DUP8 ADD PUSH2 0x2F63 JUMP JUMPDEST SWAP1 POP SWAP3 SWAP6 SWAP2 SWAP5 POP SWAP3 POP JUMP JUMPDEST PUSH0 PUSH8 0xFFFFFFFFFFFFFFFF DUP3 GT ISZERO PUSH2 0x3063 JUMPI PUSH2 0x3063 PUSH2 0x2EF5 JUMP JUMPDEST POP PUSH1 0x5 SHL PUSH1 0x20 ADD SWAP1 JUMP JUMPDEST PUSH0 PUSH1 0x20 DUP1 DUP4 DUP6 SUB SLT ISZERO PUSH2 0x307E JUMPI PUSH0 DUP1 REVERT JUMPDEST DUP3 CALLDATALOAD PUSH8 0xFFFFFFFFFFFFFFFF DUP2 GT ISZERO PUSH2 0x3094 JUMPI PUSH0 DUP1 REVERT JUMPDEST DUP4 ADD PUSH1 0x1F DUP2 ADD DUP6 SGT PUSH2 0x30A4 JUMPI PUSH0 DUP1 REVERT JUMPDEST DUP1 CALLDATALOAD PUSH2 0x30B7 PUSH2 0x30B2 DUP3 PUSH2 0x304A JUMP JUMPDEST PUSH2 0x2F32 JUMP JUMPDEST DUP2 DUP2 MSTORE PUSH1 0x5 SWAP2 SWAP1 SWAP2 SHL DUP3 ADD DUP4 ADD SWAP1 DUP4 DUP2 ADD SWAP1 DUP8 DUP4 GT ISZERO PUSH2 0x30D5 JUMPI PUSH0 DUP1 REVERT JUMPDEST SWAP3 DUP5 ADD SWAP3 JUMPDEST DUP3 DUP5 LT ISZERO PUSH2 0x28A6 JUMPI DUP4 CALLDATALOAD DUP3 MSTORE SWAP3 DUP5 ADD SWAP3 SWAP1 DUP5 ADD SWAP1 PUSH2 0x30DA JUMP JUMPDEST PUSH0 PUSH1 0x20 DUP3 DUP5 SUB SLT ISZERO PUSH2 0x3103 JUMPI PUSH0 DUP1 REVERT JUMPDEST POP CALLDATALOAD SWAP2 SWAP1 POP JUMP JUMPDEST PUSH0 DUP1 DUP4 PUSH1 0x1F DUP5 ADD SLT PUSH2 0x311A JUMPI PUSH0 DUP1 REVERT JUMPDEST POP DUP2 CALLDATALOAD PUSH8 0xFFFFFFFFFFFFFFFF DUP2 GT ISZERO PUSH2 0x3131 JUMPI PUSH0 DUP1 REVERT JUMPDEST PUSH1 0x20 DUP4 ADD SWAP2 POP DUP4 PUSH1 0x20 DUP3 PUSH1 0x5 SHL DUP6 ADD ADD GT ISZERO PUSH2 0x314B JUMPI PUSH0 DUP1 REVERT JUMPDEST SWAP3 POP SWAP3 SWAP1 POP JUMP JUMPDEST PUSH0 DUP1 PUSH0 DUP1 PUSH0 DUP1 PUSH0 PUSH2 0x160 DUP9 DUP11 SUB SLT ISZERO PUSH2 0x3169 JUMPI PUSH0 DUP1 REVERT JUMPDEST DUP8 CALLDATALOAD SWAP7 POP PUSH1 0x20 DUP9 ADD CALLDATALOAD PUSH8 0xFFFFFFFFFFFFFFFF DUP2 GT ISZERO PUSH2 0x3186 JUMPI PUSH0 DUP1 REVERT JUMPDEST PUSH2 0x3192 DUP11 DUP3 DUP12 ADD PUSH2 0x310A JUMP JUMPDEST SWAP1 SWAP8 POP SWAP6 POP POP PUSH1 0x40 DUP9 ADD CALLDATALOAD SWAP4 POP PUSH2 0x31AC DUP10 PUSH1 0x60 DUP11 ADD PUSH2 0x2F63 JUMP JUMPDEST SWAP3 POP PUSH2 0x31BB DUP10 PUSH1 0xA0 DUP11 ADD PUSH2 0x2FB0 JUMP JUMPDEST SWAP2 POP PUSH2 0x31CB DUP10 PUSH2 0x120 DUP11 ADD PUSH2 0x2F63 JUMP JUMPDEST SWAP1 POP SWAP3 SWAP6 SWAP9 SWAP2 SWAP5 SWAP8 POP SWAP3 SWAP6 POP JUMP JUMPDEST DUP1 CALLDATALOAD PUSH1 0x1 PUSH1 0x1 PUSH1 0xA0 SHL SUB DUP2 AND DUP2 EQ PUSH2 0x31EF JUMPI PUSH0 DUP1 REVERT JUMPDEST SWAP2 SWAP1 POP JUMP JUMPDEST PUSH0 PUSH1 0x20 DUP3 DUP5 SUB SLT ISZERO PUSH2 0x3204 JUMPI PUSH0 DUP1 REVERT JUMPDEST PUSH2 0x320D DUP3 PUSH2 0x31D9 JUMP JUMPDEST SWAP4 SWAP3 POP POP POP JUMP JUMPDEST PUSH0 DUP1 PUSH1 0x40 DUP4 DUP6 SUB SLT ISZERO PUSH2 0x3225 JUMPI PUSH0 DUP1 REVERT JUMPDEST POP POP DUP1 CALLDATALOAD SWAP3 PUSH1 0x20 SWAP1 SWAP2 ADD CALLDATALOAD SWAP2 POP JUMP JUMPDEST PUSH0 DUP2 MLOAD DUP1 DUP5 MSTORE PUSH1 0x20 DUP1 DUP6 ADD SWAP5 POP PUSH1 0x20 DUP5 ADD PUSH0 JUMPDEST DUP4 DUP2 LT ISZERO PUSH2 0x3263 JUMPI DUP2 MLOAD DUP8 MSTORE SWAP6 DUP3 ADD SWAP6 SWAP1 DUP3 ADD SWAP1 PUSH1 0x1 ADD PUSH2 0x3247 JUMP JUMPDEST POP SWAP5 SWAP6 SWAP5 POP POP POP POP POP JUMP JUMPDEST PUSH1 0x40 DUP2 MSTORE PUSH0 PUSH2 0x3280 PUSH1 0x40 DUP4 ADD DUP6 PUSH2 0x3234 JUMP JUMPDEST DUP3 DUP2 SUB PUSH1 0x20 DUP5 ADD MSTORE PUSH2 0x3292 DUP2 DUP6 PUSH2 0x3234 JUMP JUMPDEST SWAP6 SWAP5 POP POP POP POP POP JUMP JUMPDEST PUSH0 DUP1 PUSH0 DUP1 PUSH1 0x60 DUP6 DUP8 SUB SLT ISZERO PUSH2 0x32AE JUMPI PUSH0 DUP1 REVERT JUMPDEST DUP5 CALLDATALOAD SWAP4 POP PUSH1 0x20 DUP6 ADD CALLDATALOAD PUSH8 0xFFFFFFFFFFFFFFFF DUP2 GT ISZERO PUSH2 0x32CB JUMPI PUSH0 DUP1 REVERT JUMPDEST PUSH2 0x32D7 DUP8 DUP3 DUP9 ADD PUSH2 0x310A JUMP JUMPDEST SWAP1 SWAP5 POP SWAP3 POP PUSH2 0x303F SWAP1 POP PUSH1 0x40 DUP7 ADD PUSH2 0x31D9 JUMP JUMPDEST PUSH0 DUP1 PUSH0 DUP1 PUSH0 PUSH2 0x1E0 DUP7 DUP9 SUB SLT ISZERO PUSH2 0x32FF JUMPI PUSH0 DUP1 REVERT JUMPDEST PUSH2 0x3309 DUP8 DUP8 PUSH2 0x2F63 JUMP JUMPDEST SWAP5 POP PUSH1 0x40 PUSH2 0x331A DUP9 PUSH1 0x40 DUP10 ADD PUSH2 0x2FB0 JUMP JUMPDEST SWAP5 POP PUSH2 0x3329 DUP9 PUSH1 0xC0 DUP10 ADD PUSH2 0x2FB0 JUMP JUMPDEST SWAP4 POP PUSH2 0x3339 DUP9 PUSH2 0x140 DUP10 ADD PUSH2 0x2FB0 JUMP JUMPDEST SWAP3 POP PUSH2 0x1C0 DUP8 ADD CALLDATALOAD PUSH8 0xFFFFFFFFFFFFFFFF DUP2 GT ISZERO PUSH2 0x3355 JUMPI PUSH0 DUP1 REVERT JUMPDEST DUP8 ADD PUSH1 0x1F DUP2 ADD DUP10 SGT PUSH2 0x3365 JUMPI PUSH0 DUP1 REVERT JUMPDEST DUP1 CALLDATALOAD PUSH1 0x20 PUSH2 0x3375 PUSH2 0x30B2 DUP4 PUSH2 0x304A JUMP JUMPDEST DUP1 DUP4 DUP3 MSTORE PUSH1 0x20 DUP3 ADD SWAP2 POP PUSH1 0x20 DUP5 PUSH1 0x6 SHL DUP7 ADD ADD SWAP4 POP DUP13 DUP5 GT ISZERO PUSH2 0x3396 JUMPI PUSH0 DUP1 REVERT JUMPDEST PUSH1 0x20 DUP6 ADD SWAP5 POP JUMPDEST DUP4 DUP6 LT ISZERO PUSH2 0x33BE JUMPI PUSH2 0x33AF DUP14 DUP7 PUSH2 0x2F63 JUMP JUMPDEST DUP3 MSTORE SWAP4 DUP6 ADD SWAP4 SWAP1 DUP3 ADD SWAP1 PUSH2 0x339D JUMP JUMPDEST DUP1 SWAP7 POP POP POP POP POP POP POP SWAP3 SWAP6 POP SWAP3 SWAP6 SWAP1 SWAP4 POP JUMP JUMPDEST PUSH0 DUP1 PUSH0 DUP1 PUSH0 DUP1 PUSH2 0x160 DUP8 DUP10 SUB SLT ISZERO PUSH2 0x33E7 JUMPI PUSH0 DUP1 REVERT JUMPDEST DUP7 CALLDATALOAD SWAP6 POP PUSH1 0x20 DUP8 ADD CALLDATALOAD SWAP5 POP PUSH1 0x40 DUP8 ADD CALLDATALOAD SWAP4 POP PUSH2 0x3406 DUP9 PUSH1 0x60 DUP10 ADD PUSH2 0x2F63 JUMP JUMPDEST SWAP3 POP PUSH2 0x3415 DUP9 PUSH1 0xA0 DUP10 ADD PUSH2 0x2FB0 JUMP JUMPDEST SWAP2 POP PUSH2 0x3425 DUP9 PUSH2 0x120 DUP10 ADD PUSH2 0x2F63 JUMP JUMPDEST SWAP1 POP SWAP3 SWAP6 POP SWAP3 SWAP6 POP SWAP3 SWAP6 JUMP JUMPDEST PUSH4 0x4E487B71 PUSH1 0xE0 SHL PUSH0 MSTORE PUSH1 0x32 PUSH1 0x4 MSTORE PUSH1 0x24 PUSH0 REVERT JUMPDEST PUSH4 0x4E487B71 PUSH1 0xE0 SHL PUSH0 MSTORE PUSH1 0x11 PUSH1 0x4 MSTORE PUSH1 0x24 PUSH0 REVERT JUMPDEST PUSH0 PUSH1 0x1 DUP3 ADD PUSH2 0x346A JUMPI PUSH2 0x346A PUSH2 0x3445 JUMP JUMPDEST POP PUSH1 0x1 ADD SWAP1 JUMP JUMPDEST DUP1 DUP3 ADD DUP1 DUP3 GT ISZERO PUSH2 0x1C47 JUMPI PUSH2 0x1C47 PUSH2 0x3445 JUMP JUMPDEST PUSH1 0x20 DUP2 MSTORE PUSH0 PUSH2 0x320D PUSH1 0x20 DUP4 ADD DUP5 PUSH2 0x3234 JUMP JUMPDEST PUSH1 0x20 DUP1 DUP3 MSTORE PUSH1 0xA SWAP1 DUP3 ADD MSTORE PUSH10 0x27B7363C9037BBB732B9 PUSH1 0xB1 SHL PUSH1 0x40 DUP3 ADD MSTORE PUSH1 0x60 ADD SWAP1 JUMP JUMPDEST DUP2 DUP2 SUB DUP2 DUP2 GT ISZERO PUSH2 0x1C47 JUMPI PUSH2 0x1C47 PUSH2 0x3445 JUMP JUMPDEST PUSH0 DUP3 PUSH2 0x34E7 JUMPI PUSH4 0x4E487B71 PUSH1 0xE0 SHL PUSH0 MSTORE PUSH1 0x12 PUSH1 0x4 MSTORE PUSH1 0x24 PUSH0 REVERT JUMPDEST POP MOD SWAP1 JUMP JUMPDEST DUP1 DUP3 MUL DUP2 ISZERO DUP3 DUP3 DIV DUP5 EQ OR PUSH2 0x1C47 JUMPI PUSH2 0x1C47 PUSH2 0x3445 JUMP INVALID LOG2 PUSH5 0x6970667358 0x22 SLT KECCAK256 0x2C 0xCC CALLCODE 0xE 0xB0 SWAP6 0x24 POP 0x4B 0xB9 0x24 DUP3 0xDF 0x22 0x2F PUSH0 PUSH1 0x6B PUSH9 0x985FB6C755E3300A77 CALLDATASIZE 0x21 SWAP15 0xEF PUSH5 0x736F6C6343 STOP ADDMOD XOR STOP CALLER "},"methodIdentifiers":{"MIN_COMMITTER_STAKE()":"3dde5ede","SLASH_AMOUNT()":"37720606","auditorCount()":"115f574c","auditors(address)":"47f9aa9f","chainList(uint256)":"70d48798","chainStateHistory(uint256,uint256)":"9027ff3b","chains(uint256)":"550325b5","claimRewards()":"372500ab","commitIds(uint256)":"8e16f159","commits(bytes32)":"47885781","committerList(uint256)":"22491525","committerStakes(address)":"f1f021cb","committers(address)":"5f4fea26","createTreeNode(uint256,uint256[],address)":"79cf0cfb","getChainCount()":"d25d23bd","getChainStateHistoryLength(uint256)":"def15627","getChainStateRoot(uint256,uint256)":"7a77473d","getCommitCount()":"f1bed7e0","getCommitterCount()":"5fa22269","getCommitterInfo(address)":"93fd1a06","getTreeNodeChildren(uint256)":"6dd072fe","isCommitVerified(bytes32)":"46b71706","minAuditors()":"76bdac2c","nextNodeId()":"20eca391","nodeList(uint256)":"208f2a31","owner()":"8da5cb5b","registerAuditor(address)":"df9a4f56","registerChain(uint256,bytes32)":"51d58969","registerCommitter(uint256[])":"1666990e","rewardPerCommit()":"6c561167","setVerifyingKey(uint256[2],uint256[2][2],uint256[2][2],uint256[2][2],uint256[2][])":"99324039","slashCommitter(bytes32)":"d6fb7893","submitAggregatedCommit(uint256,bytes32[],bytes32,uint256[2],uint256[2][2],uint256[2])":"28d819b7","submitCommit(uint256,bytes32,bytes32,uint256[2],uint256[2][2],uint256[2])":"e46dcc59","treeNodes(uint256)":"4ee6a6a6","verifyCommit(bytes32,uint256[2],uint256[2][2],uint256[2])":"06222e86"}}}}}