{"project/contracts/audit_chain/ReputationRegistry.sol":{"ReputationRegistry":{"abi":[{"inputs":[],"stateMutability":"nonpayable","type":"constructor"},{"anonymous":false,"inputs":[{"indexed":true,"internalType":"bytes32","name":"appealId","type":"bytes32"},{"indexed":true,"internalType":"address","name":"ct","type":"address"},{"indexed":false,"internalType":"uint256","name":"round","type":"uint256"}],"name":"AppealFiled","type":"event"},{"anonymous":false,"inputs":[{"indexed":true,"internalType":"bytes32","name":"appealId","type":"bytes32"},{"indexed":false,"internalType":"bool","name":"upheld","type":"bool"}],"name":"AppealResolved","type":"event"},{"anonymous":false,"inputs":[{"indexed":true,"internalType":"address","name":"ct","type":"address"},{"indexed":false,"internalType":"uint256","name":"initialReputation","type":"uint256"},{"indexed":false,"internalType":"address[2]","name":"endorsers","type":"address[2]"}],"name":"CommitterRegistered","type":"event"},{"anonymous":false,"inputs":[{"indexed":true,"internalType":"address","name":"ct","type":"address"},{"indexed":false,"internalType":"uint256","name":"slashAmount","type":"uint256"},{"indexed":false,"internalType":"uint256","name":"consecutiveFails","type":"uint256"}],"name":"CommitterSlashed","type":"event"},{"anonymous":false,"inputs":[{"indexed":true,"internalType":"address","name":"ct","type":"address"},{"indexed":false,"internalType":"uint256","name":"oldR","type":"uint256"},{"indexed":false,"internalType":"uint256","name":"newR","type":"uint256"},{"indexed":false,"internalType":"uint256","name":"quality","type":"uint256"}],"name":"ReputationUpdated","type":"event"},{"anonymous":false,"inputs":[{"indexed":false,"internalType":"uint256","name":"newRound","type":"uint256"}],"name":"RoundAdvanced","type":"event"},{"anonymous":false,"inputs":[{"indexed":true,"internalType":"address","name":"ct","type":"address"},{"indexed":false,"internalType":"uint256","name":"amount","type":"uint256"}],"name":"StakeDeposited","type":"event"},{"inputs":[],"name":"ADAPTIVE_BETA","outputs":[{"internalType":"uint256","name":"","type":"uint256"}],"stateMutability":"view","type":"function"},{"inputs":[],"name":"APPEAL_WINDOW","outputs":[{"internalType":"uint256","name":"","type":"uint256"}],"stateMutability":"view","type":"function"},{"inputs":[],"name":"CONSECUTIVE_FAIL_THRESHOLD","outputs":[{"internalType":"uint256","name":"","type":"uint256"}],"stateMutability":"view","type":"function"},{"inputs":[],"name":"EMA_DECAY","outputs":[{"internalType":"uint256","name":"","type":"uint256"}],"stateMutability":"view","type":"function"},{"inputs":[],"name":"ENDORSERS_NEEDED","outputs":[{"internalType":"uint256","name":"","type":"uint256"}],"stateMutability":"view","type":"function"},{"inputs":[],"name":"MIN_STAKE","outputs":[{"internalType":"uint256","name":"","type":"uint256"}],"stateMutability":"view","type":"function"},{"inputs":[],"name":"POW_DIFFICULTY","outputs":[{"internalType":"uint256","name":"","type":"uint256"}],"stateMutability":"view","type":"function"},{"inputs":[],"name":"PRECISION","outputs":[{"internalType":"uint256","name":"","type":"uint256"}],"stateMutability":"view","type":"function"},{"inputs":[],"name":"PROBATION_ROUNDS","outputs":[{"internalType":"uint256","name":"","type":"uint256"}],"stateMutability":"view","type":"function"},{"inputs":[],"name":"R_ENDORSE_MIN","outputs":[{"internalType":"uint256","name":"","type":"uint256"}],"stateMutability":"view","type":"function"},{"inputs":[],"name":"R_INITIAL","outputs":[{"internalType":"uint256","name":"","type":"uint256"}],"stateMutability":"view","type":"function"},{"inputs":[],"name":"R_MAX","outputs":[{"internalType":"uint256","name":"","type":"uint256"}],"stateMutability":"view","type":"function"},{"inputs":[],"name":"R_MIN","outputs":[{"internalType":"uint256","name":"","type":"uint256"}],"stateMutability":"view","type":"function"},{"inputs":[],"name":"SLASH_MULTIPLIER","outputs":[{"internalType":"uint256","name":"","type":"uint256"}],"stateMutability":"view","type":"function"},{"inputs":[],"name":"SLASH_PERCENT","outputs":[{"internalType":"uint256","name":"","type":"uint256"}],"stateMutability":"view","type":"function"},{"inputs":[],"name":"W_CONS","outputs":[{"internalType":"uint256","name":"","type":"uint256"}],"stateMutability":"view","type":"function"},{"inputs":[],"name":"W_HIST","outputs":[{"internalType":"uint256","name":"","type":"uint256"}],"stateMutability":"view","type":"function"},{"inputs":[],"name":"W_LIVE","outputs":[{"internalType":"uint256","name":"","type":"uint256"}],"stateMutability":"view","type":"function"},{"inputs":[],"name":"advanceRound","outputs":[],"stateMutability":"nonpayable","type":"function"},{"inputs":[{"internalType":"uint256","name":"","type":"uint256"}],"name":"appealIds","outputs":[{"internalType":"bytes32","name":"","type":"bytes32"}],"stateMutability":"view","type":"function"},{"inputs":[{"internalType":"bytes32","name":"","type":"bytes32"}],"name":"appeals","outputs":[{"internalType":"address","name":"committer","type":"address"},{"internalType":"uint256","name":"round","type":"uint256"},{"internalType":"bytes32","name":"proofHash","type":"bytes32"},{"internalType":"uint256","name":"filedAt","type":"uint256"},{"internalType":"bool","name":"resolved","type":"bool"},{"internalType":"bool","name":"upheld","type":"bool"}],"stateMutability":"view","type":"function"},{"inputs":[{"internalType":"address","name":"updater","type":"address"}],"name":"authorizeUpdater","outputs":[],"stateMutability":"nonpayable","type":"function"},{"inputs":[{"internalType":"address","name":"","type":"address"}],"name":"authorizedUpdaters","outputs":[{"internalType":"bool","name":"","type":"bool"}],"stateMutability":"view","type":"function"},{"inputs":[{"internalType":"address[]","name":"accounts","type":"address[]"}],"name":"bootstrapRegister","outputs":[],"stateMutability":"nonpayable","type":"function"},{"inputs":[{"internalType":"uint256","name":"","type":"uint256"}],"name":"committerList","outputs":[{"internalType":"address","name":"","type":"address"}],"stateMutability":"view","type":"function"},{"inputs":[{"internalType":"address","name":"","type":"address"}],"name":"committers","outputs":[{"internalType":"uint256","name":"reputation","type":"uint256"},{"internalType":"uint256","name":"historyScore","type":"uint256"},{"internalType":"uint256","name":"registeredAt","type":"uint256"},{"internalType":"uint256","name":"lastActiveRound","type":"uint256"},{"internalType":"bool","name":"isRegistered","type":"bool"},{"internalType":"bool","name":"inProbation","type":"bool"},{"internalType":"uint256","name":"stakedAmount","type":"uint256"},{"internalType":"uint256","name":"consecutiveFails","type":"uint256"},{"internalType":"uint256","name":"totalSlashed","type":"uint256"}],"stateMutability":"view","type":"function"},{"inputs":[],"name":"currentRound","outputs":[{"internalType":"uint256","name":"","type":"uint256"}],"stateMutability":"view","type":"function"},{"inputs":[{"internalType":"uint256","name":"round","type":"uint256"},{"internalType":"bytes32","name":"proofHash","type":"bytes32"}],"name":"fileAppeal","outputs":[],"stateMutability":"nonpayable","type":"function"},{"inputs":[],"name":"getAllCommitters","outputs":[{"internalType":"address[]","name":"","type":"address[]"}],"stateMutability":"view","type":"function"},{"inputs":[{"internalType":"address","name":"ct","type":"address"}],"name":"getQuadraticWeight","outputs":[{"internalType":"uint256","name":"","type":"uint256"}],"stateMutability":"view","type":"function"},{"inputs":[{"internalType":"address","name":"ct","type":"address"}],"name":"getReputation","outputs":[{"internalType":"uint256","name":"","type":"uint256"}],"stateMutability":"view","type":"function"},{"inputs":[],"name":"getReputationSnapshot","outputs":[{"internalType":"address[]","name":"addrs","type":"address[]"},{"internalType":"uint256[]","name":"reps","type":"uint256[]"},{"internalType":"uint256[]","name":"hist","type":"uint256[]"}],"stateMutability":"view","type":"function"},{"inputs":[],"name":"getTotalQuadraticWeight","outputs":[{"internalType":"uint256","name":"total","type":"uint256"}],"stateMutability":"view","type":"function"},{"inputs":[{"internalType":"address","name":"ct","type":"address"}],"name":"isCommitterRegistered","outputs":[{"internalType":"bool","name":"","type":"bool"}],"stateMutability":"view","type":"function"},{"inputs":[],"name":"owner","outputs":[{"internalType":"address","name":"","type":"address"}],"stateMutability":"view","type":"function"},{"inputs":[{"internalType":"uint256","name":"nonce","type":"uint256"},{"internalType":"address[2]","name":"endorsers","type":"address[2]"}],"name":"registerCommitter","outputs":[],"stateMutability":"payable","type":"function"},{"inputs":[{"internalType":"bytes32","name":"appealId","type":"bytes32"},{"internalType":"bool","name":"upheld","type":"bool"}],"name":"resolveAppeal","outputs":[],"stateMutability":"nonpayable","type":"function"},{"inputs":[{"internalType":"address","name":"updater","type":"address"},{"internalType":"bool","name":"status","type":"bool"}],"name":"setAuthorizedUpdater","outputs":[],"stateMutability":"nonpayable","type":"function"},{"inputs":[],"name":"totalSlashedPool","outputs":[{"internalType":"uint256","name":"","type":"uint256"}],"stateMutability":"view","type":"function"},{"inputs":[{"internalType":"address","name":"ct","type":"address"},{"internalType":"bool","name":"consistent","type":"bool"},{"internalType":"bool","name":"alive","type":"bool"}],"name":"updateReputation","outputs":[],"stateMutability":"nonpayable","type":"function"},{"inputs":[],"name":"withdrawStake","outputs":[],"stateMutability":"nonpayable","type":"function"}],"evm":{"bytecode":{"linkReferences":{},"object":"608060405234801562000010575f80fd5b50600480546001600160a01b031916339081179091555f818152600360205260409020805460ff191660019081179091556002556200004f9062000055565b62000273565b6040518061014001604052806706f05b59d3b20000600262000078919062000249565b8152602001620000926706f05b59d3b20000600262000249565b815260016020808301829052604080840183905260608085018490525f60808087018290528351808501855282815280860183905260a08089019190915260c080890184905260e089018490526101009889018490526001600160a01b038b1684528387529285902089518155958901519686019690965592870151600280860191909155918701516003850155918601516004840180549588015161ffff1990961691151561ff0019169190911794151590950293909317909355918301516200016391600584019190620001d6565b5060e082015160078201556101008201516008820155610120909101516009909101556001805480820182555f919091527fb10e2d527612073b26eecdfd717e6a320cf44b4afac2b0732d9fcbe2b7fa0cf60180546001600160a01b0319166001600160a01b0392909216919091179055565b826002810192821562000221579160200282015b828111156200022157825182546001600160a01b0319166001600160a01b03909116178255602090920191600190910190620001ea565b506200022f92915062000233565b5090565b5b808211156200022f575f815560010162000234565b80820281158282048414176200026d57634e487b7160e01b5f52601160045260245ffd5b92915050565b61239180620002815f395ff3fe60806040526004361061023e575f3560e01c806399fc65d411610134578063b7929acc116100b3578063e7af3ad911610078578063e7af3ad914610731578063e9214d5b1461071d578063ec5701fc1461074c578063f269a21e146103dd578063f6e8913d14610767578063fe9e053d1461077b575f80fd5b8063b7929acc146106d7578063b97004d8146106f6578063bed9d86114610709578063cb1c2b5c14610682578063d6e48d881461071d575f80fd5b8063a75756bb116100f9578063a75756bb14610663578063aaf5eb6814610682578063b28a7adb1461069d578063b4a89247146106b8578063b62a75f2146103c2575f80fd5b806399fc65d4146105d75780639c89a0e2146105f65780639cbe60971461062a5780639ed5d5c9146102425780639fb6a87d14610649575f80fd5b80635a5f5b22116101c057806387108e871161018557806387108e871461053b5780638a19c8bc146105565780638d56276d1461056b5780638da5cb5b1461058a5780638ff29cfe146105a9575f80fd5b80635a5f5b22146103f15780635f4fea26146104105780636113bfdd146104bd578063768056c8146104dc578063854b225714610526575f80fd5b806328cdc0281161020657806328cdc028146102e55780632c9190ab1461037e5780633565e8121461039f57806346d4c0b6146103c257806355f1a57c146103dd575f80fd5b80630290faea146102425780631336a89914610269578063152bea501461027d5780631ba9998b1461029857806322491525146102ae575b5f80fd5b34801561024d575f80fd5b50610256601481565b6040519081526020015b60405180910390f35b348015610274575f80fd5b50610256610796565b348015610288575f80fd5b50610256678ac7230489e8000081565b3480156102a3575f80fd5b506102ac610815565b005b3480156102b9575f80fd5b506102cd6102c8366004611fca565b6108ba565b6040516001600160a01b039091168152602001610260565b3480156102f0575f80fd5b506103436102ff366004611fca565b60066020525f9081526040902080546001820154600283015460038401546004909401546001600160a01b0390931693919290919060ff8082169161010090041686565b604080516001600160a01b039097168752602087019590955293850192909252606084015215156080830152151560a082015260c001610260565b348015610389575f80fd5b506103926108e2565b6040516102609190612024565b3480156103aa575f80fd5b506103b3610942565b60405161026093929190612065565b3480156103cd575f80fd5b506102566709b6e64a8ec6000081565b3480156103e8575f80fd5b50610256600581565b3480156103fc575f80fd5b5061025661040b366004611fca565b610b48565b34801561041b575f80fd5b5061047761042a3660046120c2565b5f6020819052908152604090208054600182015460028301546003840154600485015460078601546008870154600990970154959694959394929360ff8084169461010090940416929089565b60408051998a5260208a01989098529688019590955260608701939093529015156080860152151560a085015260c084015260e083015261010082015261012001610260565b3480156104c8575f80fd5b506102ac6104d73660046120db565b610b67565b3480156104e7575f80fd5b506105166104f63660046120c2565b6001600160a01b03165f9081526020819052604090206004015460ff1690565b6040519015158152602001610260565b348015610531575f80fd5b5061025660055481565b348015610546575f80fd5b50610256670429d069189e000081565b348015610561575f80fd5b5061025660025481565b348015610576575f80fd5b506102ac610585366004612159565b610c23565b348015610595575f80fd5b506004546102cd906001600160a01b031681565b3480156105b4575f80fd5b506105166105c33660046120c2565b60036020525f908152604090205460ff1681565b3480156105e2575f80fd5b506102ac6105f1366004612199565b6110c0565b348015610601575f80fd5b506102566106103660046120c2565b6001600160a01b03165f9081526020819052604090205490565b348015610635575f80fd5b506102ac6106443660046120c2565b611114565b348015610654575f80fd5b50610256662386f26fc1000081565b34801561066e575f80fd5b506102ac61067d3660046121ca565b611161565b34801561068d575f80fd5b50610256670de0b6b3a764000081565b3480156106a8575f80fd5b5061025667011c37937e08000081565b3480156106c3575f80fd5b506102566106d23660046120c2565b611382565b3480156106e2575f80fd5b506102ac6106f13660046121eb565b6113be565b6102ac61070436600461220b565b611601565b348015610714575f80fd5b506102ac611b51565b348015610728575f80fd5b50610256600281565b34801561073c575f80fd5b50610256670853a0d2313c000081565b348015610757575f80fd5b506102566706f05b59d3b2000081565b348015610772575f80fd5b50610256600a81565b348015610786575f80fd5b5061025667016345785d8a000081565b5f805b600154811015610811575f805f600184815481106107b9576107b961223b565b5f9182526020808320909101546001600160a01b031683528201929092526040019020549050670de0b6b3a76400006107f28280612263565b6107fc9190612280565b610806908461229f565b925050600101610799565b5090565b335f9081526003602052604090205460ff166108695760405162461bcd60e51b815260206004820152600e60248201526d139bdd08185d5d1a1bdc9a5e995960921b60448201526064015b60405180910390fd5b60028054905f610878836122b2565b91905055507f023811fd72d20a3eb734785eed809172b5c9c24019d493039c70ef9c276d4d976002546040516108b091815260200190565b60405180910390a1565b600181815481106108c9575f80fd5b5f918252602090912001546001600160a01b0316905081565b6060600180548060200260200160405190810160405280929190818152602001828054801561093857602002820191905f5260205f20905b81546001600160a01b0316815260019091019060200180831161091a575b5050505050905090565b600154606090819081908067ffffffffffffffff811115610965576109656122ca565b60405190808252806020026020018201604052801561098e578160200160208202803683370190505b5093508067ffffffffffffffff8111156109aa576109aa6122ca565b6040519080825280602002602001820160405280156109d3578160200160208202803683370190505b5092508067ffffffffffffffff8111156109ef576109ef6122ca565b604051908082528060200260200182016040528015610a18578160200160208202803683370190505b5091505f5b81811015610b415760018181548110610a3857610a3861223b565b905f5260205f20015f9054906101000a90046001600160a01b0316858281518110610a6557610a6561223b565b60200260200101906001600160a01b031690816001600160a01b0316815250505f8060018381548110610a9a57610a9a61223b565b5f9182526020808320909101546001600160a01b031683528201929092526040019020548451859083908110610ad257610ad261223b565b6020026020010181815250505f8060018381548110610af357610af361223b565b5f9182526020808320909101546001600160a01b031683528201929092526040019020600101548351849083908110610b2e57610b2e61223b565b6020908102919091010152600101610a1d565b5050909192565b60078181548110610b57575f80fd5b5f91825260209091200154905081565b6004546001600160a01b03163314610b915760405162461bcd60e51b8152600401610860906122de565b5f5b81811015610c1e575f80848484818110610baf57610baf61223b565b9050602002016020810190610bc491906120c2565b6001600160a01b0316815260208101919091526040015f206004015460ff16610c1657610c16838383818110610bfc57610bfc61223b565b9050602002016020810190610c1191906120c2565b611cd0565b600101610b93565b505050565b335f9081526003602052604090205460ff16610c7a5760405162461bcd60e51b81526020600482015260166024820152752737ba1030baba3437b934bd32b2103ab83230ba32b960511b6044820152606401610860565b6001600160a01b0383165f9081526020819052604090206004015460ff16610ce45760405162461bcd60e51b815260206004820152601860248201527f436f6d6d6974746572206e6f74207265676973746572656400000000000000006044820152606401610860565b6001600160a01b0383165f9081526020819052604081208054909184610d0a575f610d14565b670de0b6b3a76400005b90505f670de0b6b3a764000082610d336709b6e64a8ec6000083612301565b610d3d9190612263565b6001860154610d54906709b6e64a8ec60000612263565b610d5e919061229f565b610d689190612280565b90505f85610d76575f610d80565b670de0b6b3a76400005b90505f670de0b6b3a7640000610d9e8367016345785d8a0000612263565b610db085670429d069189e0000612263565b610dc287670853a0d2313c0000612263565b610dcc919061229f565b610dd6919061229f565b610de09190612280565b905067011c37937e08000088610f3d57610dfb600582612263565b9050670de0b6b3a7640000811115610e185750670de0b6b3a76400005b600887018054905f610e29836122b2565b91905055506002876008015410610e73576002876008015482610e4c9190612263565b610e569190612280565b9050670de0b6b3a7640000811115610e735750670de0b6b3a76400005b600787015415610f38575f6064600a8960070154610e919190612263565b610e9b9190612280565b905080886007015f828254610eb09190612301565b9250508190555080886009015f828254610eca919061229f565b925050819055508060055f828254610ee2919061229f565b909155505060088801546040516001600160a01b038d16917f907d1165eb4fe62cdd435fd3b86b1c0171ec7d223b39d3dd319a457e8ee5542391610f2e91858252602082015260400190565b60405180910390a2505b610f44565b5f60088801555b5f670de0b6b3a7640000610f588484612263565b8954610f6c85670de0b6b3a7640000612301565b610f769190612263565b610f80919061229f565b610f8a9190612280565b9050610f9f670de0b6b3a76400006005612263565b811115610fdc576064610fbb670de0b6b3a76400006005612263565b610fc59083612301565b610fcf9190612280565b610fd99082612301565b90505b662386f26fc10000811015610ff55750662386f26fc100005b678ac7230489e800008111156110105750678ac7230489e800005b8088556001880185905588156110295760025460038901555b6004880154610100900460ff16801561105457506014886002015461104e919061229f565b60025410155b156110675760048801805461ff00191690555b60408051888152602081018390529081018490526001600160a01b038c16907fc2fd17ad7e9f23b8607f0bd02d7a6cdcccd5a964fa99ce5a066ed34c5b4bb55b9060600160405180910390a25050505050505050505050565b6004546001600160a01b031633146110ea5760405162461bcd60e51b8152600401610860906122de565b6001600160a01b03919091165f908152600360205260409020805460ff1916911515919091179055565b6004546001600160a01b0316331461113e5760405162461bcd60e51b8152600401610860906122de565b6001600160a01b03165f908152600360205260409020805460ff19166001179055565b6004546001600160a01b0316331461118b5760405162461bcd60e51b8152600401610860906122de565b5f828152600660205260409020600481015460ff16156111e05760405162461bcd60e51b815260206004820152601060248201526f105b1c9958591e481c995cdbdb1d995960821b6044820152606401610860565b600481018054831580156101000261ffff19909216919091176001179091556113415780546001600160a01b03165f9081526020819052604081208054909190670de0b6b3a76400009061123d600567011c37937e080000612263565b6112479190612263565b6112519190612280565b905080825f015f828254611265919061229f565b90915550508154678ac7230489e80000101561128757678ac7230489e8000082555b5f80836009015411611299575f6112d4565b6112ac600a670de0b6b3a7640000612280565b8360090154106112ce576112c9600a670de0b6b3a7640000612280565b6112d4565b82600901545b90505f811180156112e757508060055410155b156113375780836007015f8282546112ff919061229f565b9250508190555080836009015f8282546113199190612301565b925050819055508060055f8282546113319190612301565b90915550505b50505f6008909101555b827fa6c893565b2cce40204bd8ee5adcd7d7b2989fa275233c080a79614ccce5924683604051611375911515815260200190565b60405180910390a2505050565b6001600160a01b0381165f90815260208190526040812054670de0b6b3a76400006113ad8280612263565b6113b79190612280565b9392505050565b335f9081526020819052604090206004015460ff166114105760405162461bcd60e51b815260206004820152600e60248201526d139bdd081c9959da5cdd195c995960921b6044820152606401610860565b61141b60058361229f565b60025411156114645760405162461bcd60e51b8152602060048201526015602482015274105c1c19585b081dda5b991bddc8195e1c1a5c9959605a1b6044820152606401610860565b60408051336020820152908101839052606081018290525f9060800160408051601f1981840301815291815281516020928301205f818152600690935291206004015490915060ff16156114f25760405162461bcd60e51b815260206004820152601560248201527441707065616c20616c72656164792065786973747360581b6044820152606401610860565b6040805160c08101825233808252602080830187815283850187815260028054606087019081525f6080880181815260a089018281528b8352600688528a832099518a546001600160a01b0319166001600160a01b03909116178a5595516001808b019190915594519389019390935590516003880155905160049096018054935161ffff1990941696151561ff00191696909617610100931515939093029290921790945560078054948501815590527fa66cc928b5edb82af9bd49922954155ab7b0942694bea4ce44661d9a8736c688909201849055915185815283917f138b6c26519b126158dca4b1ce507ba59a369c9128e2b6b490ae304d19375482910160405180910390a3505050565b335f9081526020819052604090206004015460ff16156116585760405162461bcd60e51b8152602060048201526012602482015271105b1c9958591e481c9959da5cdd195c995960721b6044820152606401610860565b61166860408201602083016120c2565b6001600160a01b031661167e60208301836120c2565b6001600160a01b0316036116d45760405162461bcd60e51b815260206004820152601a60248201527f456e646f7273657273206d7573742062652064697374696e63740000000000006044820152606401610860565b336116e260208301836120c2565b6001600160a01b03161415801561171157503361170560408301602084016120c2565b6001600160a01b031614155b6117535760405162461bcd60e51b815260206004820152601360248201527243616e6e6f742073656c662d656e646f72736560681b6044820152606401610860565b670de0b6b3a76400003410156117b55760405162461bcd60e51b815260206004820152602160248201527f496e73756666696369656e74207374616b653a206e656564203e3d20312045546044820152600960fb1b6064820152608401610860565b5f806117c460208401846120c2565b6001600160a01b0316815260208101919091526040015f206004015460ff16801561181e57506709b6e64a8ec600005f8061180260208501856120c2565b6001600160a01b0316815260208101919091526040015f205410155b61185f5760405162461bcd60e51b8152602060048201526012602482015271456e646f7273657220302052203c20302e3760701b6044820152606401610860565b5f8061187160408401602085016120c2565b6001600160a01b0316815260208101919091526040015f206004015460ff1680156118ce57506709b6e64a8ec600005f806118b260408501602086016120c2565b6001600160a01b0316815260208101919091526040015f205410155b61190f5760405162461bcd60e51b8152602060048201526012602482015271456e646f7273657220312052203c20302e3760701b6044820152606401610860565b604080513360208201529081018390525f90606001604051602081830303815290604052805190602001209050601461194782611e4b565b101561198e5760405162461bcd60e51b8152602060048201526016602482015275141bd5c8191a59999a58dd5b1d1e481b9bdd081b595d60521b6044820152606401610860565b60408051610140810182526706f05b59d3b20000808252602082015260028054828401819052606083015260016080830181905260a083015282518084018452919260c084019291869183908390808284375f92018290525092845250503460208084019190915260408084018390526060938401839052338352828252918290208451815590840151600182015590830151600280830191909155918301516003820155608083015160048201805460a086015115156101000261ff00199315159390931661ffff199091161791909117905560c08301519091611a77916005840191611f67565b5060e082015160078201556101008201516008820155610120909101516009909101556001805480820182555f919091527fb10e2d527612073b26eecdfd717e6a320cf44b4afac2b0732d9fcbe2b7fa0cf60180546001600160a01b031916339081179091556040517fe75fe97747697de0c291a8f98fe6f88ebae98beb554b27afca750b04eb07e9ef90611b17906706f05b59d3b20000908690612314565b60405180910390a260405134815233907f0a7bb2e28cc4698aac06db79cf9163bfcc20719286cf59fa7d492ceda1b8edc290602001611375565b335f908152602081905260409020600481015460ff16611ba45760405162461bcd60e51b815260206004820152600e60248201526d139bdd081c9959da5cdd195c995960921b6044820152606401610860565b6004810154610100900460ff1615611bf35760405162461bcd60e51b815260206004820152601260248201527129ba34b6361034b710383937b130ba34b7b760711b6044820152606401610860565b5f816007015411611c3d5760405162461bcd60e51b81526020600482015260146024820152734e6f207374616b6520746f20776974686472617760601b6044820152606401610860565b6007810180545f91829055604051909190339083908381818185875af1925050503d805f8114611c88576040519150601f19603f3d011682016040523d82523d5f602084013e611c8d565b606091505b5050905080610c1e5760405162461bcd60e51b815260206004820152600f60248201526e151c985b9cd9995c8819985a5b1959608a1b6044820152606401610860565b6040518061014001604052806706f05b59d3b200006002611cf19190612263565b8152602001611d096706f05b59d3b200006002612263565b815260016020808301829052604080840183905260608085018490525f60808087018290528351808501855282815280860183905260a08089019190915260c080890184905260e089018490526101009889018490526001600160a01b038b1684528387529285902089518155958901519686019690965592870151600280860191909155918701516003850155918601516004840180549588015161ffff1990961691151561ff001916919091179415159095029390931790935591830151611dd891600584019190611f67565b5060e082015160078201556101008201516008820155610120909101516009909101556001805480820182555f919091527fb10e2d527612073b26eecdfd717e6a320cf44b4afac2b0732d9fcbe2b7fa0cf60180546001600160a01b0319166001600160a01b0392909216919091179055565b5f8082604051602001611e6091815260200190565b60405160208183030381529060405290505f5b602081108015611e84575061010083105b15611f60575f828281518110611e9c57611e9c61223b565b016020015160f81c90505f819003611ec057611eb960088561229f565b9350611f4d565b608081165f03611ed85783611ed4816122b2565b9450505b60408116158015611eea575060808116155b15611efd5783611ef9816122b2565b9450505b60208116158015611f0f575060c08116155b15611f225783611f1e816122b2565b9450505b60108116158015611f34575060e08116155b15611f475783611f43816122b2565b9450505b50611f60565b5080611f58816122b2565b915050611e73565b5050919050565b8260028101928215611faf579160200282015b82811115611faf57825182546001600160a01b0319166001600160a01b03909116178255602090920191600190910190611f7a565b506108119291505b80821115610811575f8155600101611fb7565b5f60208284031215611fda575f80fd5b5035919050565b5f815180845260208085019450602084015f5b838110156120195781516001600160a01b031687529582019590820190600101611ff4565b509495945050505050565b602081525f6113b76020830184611fe1565b5f815180845260208085019450602084015f5b8381101561201957815187529582019590820190600101612049565b606081525f6120776060830186611fe1565b82810360208401526120898186612036565b9050828103604084015261209d8185612036565b9695505050505050565b80356001600160a01b03811681146120bd575f80fd5b919050565b5f602082840312156120d2575f80fd5b6113b7826120a7565b5f80602083850312156120ec575f80fd5b823567ffffffffffffffff80821115612103575f80fd5b818501915085601f830112612116575f80fd5b813581811115612124575f80fd5b8660208260051b8501011115612138575f80fd5b60209290920196919550909350505050565b803580151581146120bd575f80fd5b5f805f6060848603121561216b575f80fd5b612174846120a7565b92506121826020850161214a565b91506121906040850161214a565b90509250925092565b5f80604083850312156121aa575f80fd5b6121b3836120a7565b91506121c16020840161214a565b90509250929050565b5f80604083850312156121db575f80fd5b823591506121c16020840161214a565b5f80604083850312156121fc575f80fd5b50508035926020909101359150565b5f806060838503121561221c575f80fd5b823591508360608401111561222f575f80fd5b50926020919091019150565b634e487b7160e01b5f52603260045260245ffd5b634e487b7160e01b5f52601160045260245ffd5b808202811582820484141761227a5761227a61224f565b92915050565b5f8261229a57634e487b7160e01b5f52601260045260245ffd5b500490565b8082018082111561227a5761227a61224f565b5f600182016122c3576122c361224f565b5060010190565b634e487b7160e01b5f52604160045260245ffd5b6020808252600990820152682737ba1037bbb732b960b91b604082015260600190565b8181038181111561227a5761227a61224f565b828152606081016020808301845f5b6002811015612350576001600160a01b0361233d836120a7565b1683529183019190830190600101612323565b50505050939250505056fea264697066735822122028815fba0ba5ce6e54f7f32fa351b2884948915a63f6d0118b7d6ff9bb7064fe64736f6c63430008180033","opcodes":"PUSH1 0x80 PUSH1 0x40 MSTORE CALLVALUE DUP1 ISZERO PUSH3 0x10 JUMPI PUSH0 DUP1 REVERT JUMPDEST POP PUSH1 0x4 DUP1 SLOAD PUSH1 0x1 PUSH1 0x1 PUSH1 0xA0 SHL SUB NOT AND CALLER SWAP1 DUP2 OR SWAP1 SWAP2 SSTORE PUSH0 DUP2 DUP2 MSTORE PUSH1 0x3 PUSH1 0x20 MSTORE PUSH1 0x40 SWAP1 KECCAK256 DUP1 SLOAD PUSH1 0xFF NOT AND PUSH1 0x1 SWAP1 DUP2 OR SWAP1 SWAP2 SSTORE PUSH1 0x2 SSTORE PUSH3 0x4F SWAP1 PUSH3 0x55 JUMP JUMPDEST PUSH3 0x273 JUMP JUMPDEST PUSH1 0x40 MLOAD DUP1 PUSH2 0x140 ADD PUSH1 0x40 MSTORE DUP1 PUSH8 0x6F05B59D3B20000 PUSH1 0x2 PUSH3 0x78 SWAP2 SWAP1 PUSH3 0x249 JUMP JUMPDEST DUP2 MSTORE PUSH1 0x20 ADD PUSH3 0x92 PUSH8 0x6F05B59D3B20000 PUSH1 0x2 PUSH3 0x249 JUMP JUMPDEST DUP2 MSTORE PUSH1 0x1 PUSH1 0x20 DUP1 DUP4 ADD DUP3 SWAP1 MSTORE PUSH1 0x40 DUP1 DUP5 ADD DUP4 SWAP1 MSTORE PUSH1 0x60 DUP1 DUP6 ADD DUP5 SWAP1 MSTORE PUSH0 PUSH1 0x80 DUP1 DUP8 ADD DUP3 SWAP1 MSTORE DUP4 MLOAD DUP1 DUP6 ADD DUP6 MSTORE DUP3 DUP2 MSTORE DUP1 DUP7 ADD DUP4 SWAP1 MSTORE PUSH1 0xA0 DUP1 DUP10 ADD SWAP2 SWAP1 SWAP2 MSTORE PUSH1 0xC0 DUP1 DUP10 ADD DUP5 SWAP1 MSTORE PUSH1 0xE0 DUP10 ADD DUP5 SWAP1 MSTORE PUSH2 0x100 SWAP9 DUP10 ADD DUP5 SWAP1 MSTORE PUSH1 0x1 PUSH1 0x1 PUSH1 0xA0 SHL SUB DUP12 AND DUP5 MSTORE DUP4 DUP8 MSTORE SWAP3 DUP6 SWAP1 KECCAK256 DUP10 MLOAD DUP2 SSTORE SWAP6 DUP10 ADD MLOAD SWAP7 DUP7 ADD SWAP7 SWAP1 SWAP7 SSTORE SWAP3 DUP8 ADD MLOAD PUSH1 0x2 DUP1 DUP7 ADD SWAP2 SWAP1 SWAP2 SSTORE SWAP2 DUP8 ADD MLOAD PUSH1 0x3 DUP6 ADD SSTORE SWAP2 DUP7 ADD MLOAD PUSH1 0x4 DUP5 ADD DUP1 SLOAD SWAP6 DUP9 ADD MLOAD PUSH2 0xFFFF NOT SWAP1 SWAP7 AND SWAP2 ISZERO ISZERO PUSH2 0xFF00 NOT AND SWAP2 SWAP1 SWAP2 OR SWAP5 ISZERO ISZERO SWAP1 SWAP6 MUL SWAP4 SWAP1 SWAP4 OR SWAP1 SWAP4 SSTORE SWAP2 DUP4 ADD MLOAD PUSH3 0x163 SWAP2 PUSH1 0x5 DUP5 ADD SWAP2 SWAP1 PUSH3 0x1D6 JUMP JUMPDEST POP PUSH1 0xE0 DUP3 ADD MLOAD PUSH1 0x7 DUP3 ADD SSTORE PUSH2 0x100 DUP3 ADD MLOAD PUSH1 0x8 DUP3 ADD SSTORE PUSH2 0x120 SWAP1 SWAP2 ADD MLOAD PUSH1 0x9 SWAP1 SWAP2 ADD SSTORE PUSH1 0x1 DUP1 SLOAD DUP1 DUP3 ADD DUP3 SSTORE PUSH0 SWAP2 SWAP1 SWAP2 MSTORE PUSH32 0xB10E2D527612073B26EECDFD717E6A320CF44B4AFAC2B0732D9FCBE2B7FA0CF6 ADD DUP1 SLOAD PUSH1 0x1 PUSH1 0x1 PUSH1 0xA0 SHL SUB NOT AND PUSH1 0x1 PUSH1 0x1 PUSH1 0xA0 SHL SUB SWAP3 SWAP1 SWAP3 AND SWAP2 SWAP1 SWAP2 OR SWAP1 SSTORE JUMP JUMPDEST DUP3 PUSH1 0x2 DUP2 ADD SWAP3 DUP3 ISZERO PUSH3 0x221 JUMPI SWAP2 PUSH1 0x20 MUL DUP3 ADD JUMPDEST DUP3 DUP2 GT ISZERO PUSH3 0x221 JUMPI DUP3 MLOAD DUP3 SLOAD PUSH1 0x1 PUSH1 0x1 PUSH1 0xA0 SHL SUB NOT AND PUSH1 0x1 PUSH1 0x1 PUSH1 0xA0 SHL SUB SWAP1 SWAP2 AND OR DUP3 SSTORE PUSH1 0x20 SWAP1 SWAP3 ADD SWAP2 PUSH1 0x1 SWAP1 SWAP2 ADD SWAP1 PUSH3 0x1EA JUMP JUMPDEST POP PUSH3 0x22F SWAP3 SWAP2 POP PUSH3 0x233 JUMP JUMPDEST POP SWAP1 JUMP JUMPDEST JUMPDEST DUP1 DUP3 GT ISZERO PUSH3 0x22F JUMPI PUSH0 DUP2 SSTORE PUSH1 0x1 ADD PUSH3 0x234 JUMP JUMPDEST DUP1 DUP3 MUL DUP2 ISZERO DUP3 DUP3 DIV DUP5 EQ OR PUSH3 0x26D JUMPI PUSH4 0x4E487B71 PUSH1 0xE0 SHL PUSH0 MSTORE PUSH1 0x11 PUSH1 0x4 MSTORE PUSH1 0x24 PUSH0 REVERT JUMPDEST SWAP3 SWAP2 POP POP JUMP JUMPDEST PUSH2 0x2391 DUP1 PUSH3 0x281 PUSH0 CODECOPY PUSH0 RETURN INVALID PUSH1 0x80 PUSH1 0x40 MSTORE PUSH1 0x4 CALLDATASIZE LT PUSH2 0x23E JUMPI PUSH0 CALLDATALOAD PUSH1 0xE0 SHR DUP1 PUSH4 0x99FC65D4 GT PUSH2 0x134 JUMPI DUP1 PUSH4 0xB7929ACC GT PUSH2 0xB3 JUMPI DUP1 PUSH4 0xE7AF3AD9 GT PUSH2 0x78 JUMPI DUP1 PUSH4 0xE7AF3AD9 EQ PUSH2 0x731 JUMPI DUP1 PUSH4 0xE9214D5B EQ PUSH2 0x71D JUMPI DUP1 PUSH4 0xEC5701FC EQ PUSH2 0x74C JUMPI DUP1 PUSH4 0xF269A21E EQ PUSH2 0x3DD JUMPI DUP1 PUSH4 0xF6E8913D EQ PUSH2 0x767 JUMPI DUP1 PUSH4 0xFE9E053D EQ PUSH2 0x77B JUMPI PUSH0 DUP1 REVERT JUMPDEST DUP1 PUSH4 0xB7929ACC EQ PUSH2 0x6D7 JUMPI DUP1 PUSH4 0xB97004D8 EQ PUSH2 0x6F6 JUMPI DUP1 PUSH4 0xBED9D861 EQ PUSH2 0x709 JUMPI DUP1 PUSH4 0xCB1C2B5C EQ PUSH2 0x682 JUMPI DUP1 PUSH4 0xD6E48D88 EQ PUSH2 0x71D JUMPI PUSH0 DUP1 REVERT JUMPDEST DUP1 PUSH4 0xA75756BB GT PUSH2 0xF9 JUMPI DUP1 PUSH4 0xA75756BB EQ PUSH2 0x663 JUMPI DUP1 PUSH4 0xAAF5EB68 EQ PUSH2 0x682 JUMPI DUP1 PUSH4 0xB28A7ADB EQ PUSH2 0x69D JUMPI DUP1 PUSH4 0xB4A89247 EQ PUSH2 0x6B8 JUMPI DUP1 PUSH4 0xB62A75F2 EQ PUSH2 0x3C2 JUMPI PUSH0 DUP1 REVERT JUMPDEST DUP1 PUSH4 0x99FC65D4 EQ PUSH2 0x5D7 JUMPI DUP1 PUSH4 0x9C89A0E2 EQ PUSH2 0x5F6 JUMPI DUP1 PUSH4 0x9CBE6097 EQ PUSH2 0x62A JUMPI DUP1 PUSH4 0x9ED5D5C9 EQ PUSH2 0x242 JUMPI DUP1 PUSH4 0x9FB6A87D EQ PUSH2 0x649 JUMPI PUSH0 DUP1 REVERT JUMPDEST DUP1 PUSH4 0x5A5F5B22 GT PUSH2 0x1C0 JUMPI DUP1 PUSH4 0x87108E87 GT PUSH2 0x185 JUMPI DUP1 PUSH4 0x87108E87 EQ PUSH2 0x53B JUMPI DUP1 PUSH4 0x8A19C8BC EQ PUSH2 0x556 JUMPI DUP1 PUSH4 0x8D56276D EQ PUSH2 0x56B JUMPI DUP1 PUSH4 0x8DA5CB5B EQ PUSH2 0x58A JUMPI DUP1 PUSH4 0x8FF29CFE EQ PUSH2 0x5A9 JUMPI PUSH0 DUP1 REVERT JUMPDEST DUP1 PUSH4 0x5A5F5B22 EQ PUSH2 0x3F1 JUMPI DUP1 PUSH4 0x5F4FEA26 EQ PUSH2 0x410 JUMPI DUP1 PUSH4 0x6113BFDD EQ PUSH2 0x4BD JUMPI DUP1 PUSH4 0x768056C8 EQ PUSH2 0x4DC JUMPI DUP1 PUSH4 0x854B2257 EQ PUSH2 0x526 JUMPI PUSH0 DUP1 REVERT JUMPDEST DUP1 PUSH4 0x28CDC028 GT PUSH2 0x206 JUMPI DUP1 PUSH4 0x28CDC028 EQ PUSH2 0x2E5 JUMPI DUP1 PUSH4 0x2C9190AB EQ PUSH2 0x37E JUMPI DUP1 PUSH4 0x3565E812 EQ PUSH2 0x39F JUMPI DUP1 PUSH4 0x46D4C0B6 EQ PUSH2 0x3C2 JUMPI DUP1 PUSH4 0x55F1A57C EQ PUSH2 0x3DD JUMPI PUSH0 DUP1 REVERT JUMPDEST DUP1 PUSH4 0x290FAEA EQ PUSH2 0x242 JUMPI DUP1 PUSH4 0x1336A899 EQ PUSH2 0x269 JUMPI DUP1 PUSH4 0x152BEA50 EQ PUSH2 0x27D JUMPI DUP1 PUSH4 0x1BA9998B EQ PUSH2 0x298 JUMPI DUP1 PUSH4 0x22491525 EQ PUSH2 0x2AE JUMPI JUMPDEST PUSH0 DUP1 REVERT JUMPDEST CALLVALUE DUP1 ISZERO PUSH2 0x24D JUMPI PUSH0 DUP1 REVERT JUMPDEST POP PUSH2 0x256 PUSH1 0x14 DUP2 JUMP JUMPDEST PUSH1 0x40 MLOAD SWAP1 DUP2 MSTORE PUSH1 0x20 ADD JUMPDEST PUSH1 0x40 MLOAD DUP1 SWAP2 SUB SWAP1 RETURN JUMPDEST CALLVALUE DUP1 ISZERO PUSH2 0x274 JUMPI PUSH0 DUP1 REVERT JUMPDEST POP PUSH2 0x256 PUSH2 0x796 JUMP JUMPDEST CALLVALUE DUP1 ISZERO PUSH2 0x288 JUMPI PUSH0 DUP1 REVERT JUMPDEST POP PUSH2 0x256 PUSH8 0x8AC7230489E80000 DUP2 JUMP JUMPDEST CALLVALUE DUP1 ISZERO PUSH2 0x2A3 JUMPI PUSH0 DUP1 REVERT JUMPDEST POP PUSH2 0x2AC PUSH2 0x815 JUMP JUMPDEST STOP JUMPDEST CALLVALUE DUP1 ISZERO PUSH2 0x2B9 JUMPI PUSH0 DUP1 REVERT JUMPDEST POP PUSH2 0x2CD PUSH2 0x2C8 CALLDATASIZE PUSH1 0x4 PUSH2 0x1FCA JUMP JUMPDEST PUSH2 0x8BA JUMP JUMPDEST PUSH1 0x40 MLOAD PUSH1 0x1 PUSH1 0x1 PUSH1 0xA0 SHL SUB SWAP1 SWAP2 AND DUP2 MSTORE PUSH1 0x20 ADD PUSH2 0x260 JUMP JUMPDEST CALLVALUE DUP1 ISZERO PUSH2 0x2F0 JUMPI PUSH0 DUP1 REVERT JUMPDEST POP PUSH2 0x343 PUSH2 0x2FF CALLDATASIZE PUSH1 0x4 PUSH2 0x1FCA JUMP JUMPDEST PUSH1 0x6 PUSH1 0x20 MSTORE PUSH0 SWAP1 DUP2 MSTORE PUSH1 0x40 SWAP1 KECCAK256 DUP1 SLOAD PUSH1 0x1 DUP3 ADD SLOAD PUSH1 0x2 DUP4 ADD SLOAD PUSH1 0x3 DUP5 ADD SLOAD PUSH1 0x4 SWAP1 SWAP5 ADD SLOAD PUSH1 0x1 PUSH1 0x1 PUSH1 0xA0 SHL SUB SWAP1 SWAP4 AND SWAP4 SWAP2 SWAP3 SWAP1 SWAP2 SWAP1 PUSH1 0xFF DUP1 DUP3 AND SWAP2 PUSH2 0x100 SWAP1 DIV AND DUP7 JUMP JUMPDEST PUSH1 0x40 DUP1 MLOAD PUSH1 0x1 PUSH1 0x1 PUSH1 0xA0 SHL SUB SWAP1 SWAP8 AND DUP8 MSTORE PUSH1 0x20 DUP8 ADD SWAP6 SWAP1 SWAP6 MSTORE SWAP4 DUP6 ADD SWAP3 SWAP1 SWAP3 MSTORE PUSH1 0x60 DUP5 ADD MSTORE ISZERO ISZERO PUSH1 0x80 DUP4 ADD MSTORE ISZERO ISZERO PUSH1 0xA0 DUP3 ADD MSTORE PUSH1 0xC0 ADD PUSH2 0x260 JUMP JUMPDEST CALLVALUE DUP1 ISZERO PUSH2 0x389 JUMPI PUSH0 DUP1 REVERT JUMPDEST POP PUSH2 0x392 PUSH2 0x8E2 JUMP JUMPDEST PUSH1 0x40 MLOAD PUSH2 0x260 SWAP2 SWAP1 PUSH2 0x2024 JUMP JUMPDEST CALLVALUE DUP1 ISZERO PUSH2 0x3AA JUMPI PUSH0 DUP1 REVERT JUMPDEST POP PUSH2 0x3B3 PUSH2 0x942 JUMP JUMPDEST PUSH1 0x40 MLOAD PUSH2 0x260 SWAP4 SWAP3 SWAP2 SWAP1 PUSH2 0x2065 JUMP JUMPDEST CALLVALUE DUP1 ISZERO PUSH2 0x3CD JUMPI PUSH0 DUP1 REVERT JUMPDEST POP PUSH2 0x256 PUSH8 0x9B6E64A8EC60000 DUP2 JUMP JUMPDEST CALLVALUE DUP1 ISZERO PUSH2 0x3E8 JUMPI PUSH0 DUP1 REVERT JUMPDEST POP PUSH2 0x256 PUSH1 0x5 DUP2 JUMP JUMPDEST CALLVALUE DUP1 ISZERO PUSH2 0x3FC JUMPI PUSH0 DUP1 REVERT JUMPDEST POP PUSH2 0x256 PUSH2 0x40B CALLDATASIZE PUSH1 0x4 PUSH2 0x1FCA JUMP JUMPDEST PUSH2 0xB48 JUMP JUMPDEST CALLVALUE DUP1 ISZERO PUSH2 0x41B JUMPI PUSH0 DUP1 REVERT JUMPDEST POP PUSH2 0x477 PUSH2 0x42A CALLDATASIZE PUSH1 0x4 PUSH2 0x20C2 JUMP JUMPDEST PUSH0 PUSH1 0x20 DUP2 SWAP1 MSTORE SWAP1 DUP2 MSTORE PUSH1 0x40 SWAP1 KECCAK256 DUP1 SLOAD PUSH1 0x1 DUP3 ADD SLOAD PUSH1 0x2 DUP4 ADD SLOAD PUSH1 0x3 DUP5 ADD SLOAD PUSH1 0x4 DUP6 ADD SLOAD PUSH1 0x7 DUP7 ADD SLOAD PUSH1 0x8 DUP8 ADD SLOAD PUSH1 0x9 SWAP1 SWAP8 ADD SLOAD SWAP6 SWAP7 SWAP5 SWAP6 SWAP4 SWAP5 SWAP3 SWAP4 PUSH1 0xFF DUP1 DUP5 AND SWAP5 PUSH2 0x100 SWAP1 SWAP5 DIV AND SWAP3 SWAP1 DUP10 JUMP JUMPDEST PUSH1 0x40 DUP1 MLOAD SWAP10 DUP11 MSTORE PUSH1 0x20 DUP11 ADD SWAP9 SWAP1 SWAP9 MSTORE SWAP7 DUP9 ADD SWAP6 SWAP1 SWAP6 MSTORE PUSH1 0x60 DUP8 ADD SWAP4 SWAP1 SWAP4 MSTORE SWAP1 ISZERO ISZERO PUSH1 0x80 DUP7 ADD MSTORE ISZERO ISZERO PUSH1 0xA0 DUP6 ADD MSTORE PUSH1 0xC0 DUP5 ADD MSTORE PUSH1 0xE0 DUP4 ADD MSTORE PUSH2 0x100 DUP3 ADD MSTORE PUSH2 0x120 ADD PUSH2 0x260 JUMP JUMPDEST CALLVALUE DUP1 ISZERO PUSH2 0x4C8 JUMPI PUSH0 DUP1 REVERT JUMPDEST POP PUSH2 0x2AC PUSH2 0x4D7 CALLDATASIZE PUSH1 0x4 PUSH2 0x20DB JUMP JUMPDEST PUSH2 0xB67 JUMP JUMPDEST CALLVALUE DUP1 ISZERO PUSH2 0x4E7 JUMPI PUSH0 DUP1 REVERT JUMPDEST POP PUSH2 0x516 PUSH2 0x4F6 CALLDATASIZE PUSH1 0x4 PUSH2 0x20C2 JUMP JUMPDEST PUSH1 0x1 PUSH1 0x1 PUSH1 0xA0 SHL SUB AND PUSH0 SWAP1 DUP2 MSTORE PUSH1 0x20 DUP2 SWAP1 MSTORE PUSH1 0x40 SWAP1 KECCAK256 PUSH1 0x4 ADD SLOAD PUSH1 0xFF AND SWAP1 JUMP JUMPDEST PUSH1 0x40 MLOAD SWAP1 ISZERO ISZERO DUP2 MSTORE PUSH1 0x20 ADD PUSH2 0x260 JUMP JUMPDEST CALLVALUE DUP1 ISZERO PUSH2 0x531 JUMPI PUSH0 DUP1 REVERT JUMPDEST POP PUSH2 0x256 PUSH1 0x5 SLOAD DUP2 JUMP JUMPDEST CALLVALUE DUP1 ISZERO PUSH2 0x546 JUMPI PUSH0 DUP1 REVERT JUMPDEST POP PUSH2 0x256 PUSH8 0x429D069189E0000 DUP2 JUMP JUMPDEST CALLVALUE DUP1 ISZERO PUSH2 0x561 JUMPI PUSH0 DUP1 REVERT JUMPDEST POP PUSH2 0x256 PUSH1 0x2 SLOAD DUP2 JUMP JUMPDEST CALLVALUE DUP1 ISZERO PUSH2 0x576 JUMPI PUSH0 DUP1 REVERT JUMPDEST POP PUSH2 0x2AC PUSH2 0x585 CALLDATASIZE PUSH1 0x4 PUSH2 0x2159 JUMP JUMPDEST PUSH2 0xC23 JUMP JUMPDEST CALLVALUE DUP1 ISZERO PUSH2 0x595 JUMPI PUSH0 DUP1 REVERT JUMPDEST POP PUSH1 0x4 SLOAD PUSH2 0x2CD SWAP1 PUSH1 0x1 PUSH1 0x1 PUSH1 0xA0 SHL SUB AND DUP2 JUMP JUMPDEST CALLVALUE DUP1 ISZERO PUSH2 0x5B4 JUMPI PUSH0 DUP1 REVERT JUMPDEST POP PUSH2 0x516 PUSH2 0x5C3 CALLDATASIZE PUSH1 0x4 PUSH2 0x20C2 JUMP JUMPDEST PUSH1 0x3 PUSH1 0x20 MSTORE PUSH0 SWAP1 DUP2 MSTORE PUSH1 0x40 SWAP1 KECCAK256 SLOAD PUSH1 0xFF AND DUP2 JUMP JUMPDEST CALLVALUE DUP1 ISZERO PUSH2 0x5E2 JUMPI PUSH0 DUP1 REVERT JUMPDEST POP PUSH2 0x2AC PUSH2 0x5F1 CALLDATASIZE PUSH1 0x4 PUSH2 0x2199 JUMP JUMPDEST PUSH2 0x10C0 JUMP JUMPDEST CALLVALUE DUP1 ISZERO PUSH2 0x601 JUMPI PUSH0 DUP1 REVERT JUMPDEST POP PUSH2 0x256 PUSH2 0x610 CALLDATASIZE PUSH1 0x4 PUSH2 0x20C2 JUMP JUMPDEST PUSH1 0x1 PUSH1 0x1 PUSH1 0xA0 SHL SUB AND PUSH0 SWAP1 DUP2 MSTORE PUSH1 0x20 DUP2 SWAP1 MSTORE PUSH1 0x40 SWAP1 KECCAK256 SLOAD SWAP1 JUMP JUMPDEST CALLVALUE DUP1 ISZERO PUSH2 0x635 JUMPI PUSH0 DUP1 REVERT JUMPDEST POP PUSH2 0x2AC PUSH2 0x644 CALLDATASIZE PUSH1 0x4 PUSH2 0x20C2 JUMP JUMPDEST PUSH2 0x1114 JUMP JUMPDEST CALLVALUE DUP1 ISZERO PUSH2 0x654 JUMPI PUSH0 DUP1 REVERT JUMPDEST POP PUSH2 0x256 PUSH7 0x2386F26FC10000 DUP2 JUMP JUMPDEST CALLVALUE DUP1 ISZERO PUSH2 0x66E JUMPI PUSH0 DUP1 REVERT JUMPDEST POP PUSH2 0x2AC PUSH2 0x67D CALLDATASIZE PUSH1 0x4 PUSH2 0x21CA JUMP JUMPDEST PUSH2 0x1161 JUMP JUMPDEST CALLVALUE DUP1 ISZERO PUSH2 0x68D JUMPI PUSH0 DUP1 REVERT JUMPDEST POP PUSH2 0x256 PUSH8 0xDE0B6B3A7640000 DUP2 JUMP JUMPDEST CALLVALUE DUP1 ISZERO PUSH2 0x6A8 JUMPI PUSH0 DUP1 REVERT JUMPDEST POP PUSH2 0x256 PUSH8 0x11C37937E080000 DUP2 JUMP JUMPDEST CALLVALUE DUP1 ISZERO PUSH2 0x6C3 JUMPI PUSH0 DUP1 REVERT JUMPDEST POP PUSH2 0x256 PUSH2 0x6D2 CALLDATASIZE PUSH1 0x4 PUSH2 0x20C2 JUMP JUMPDEST PUSH2 0x1382 JUMP JUMPDEST CALLVALUE DUP1 ISZERO PUSH2 0x6E2 JUMPI PUSH0 DUP1 REVERT JUMPDEST POP PUSH2 0x2AC PUSH2 0x6F1 CALLDATASIZE PUSH1 0x4 PUSH2 0x21EB JUMP JUMPDEST PUSH2 0x13BE JUMP JUMPDEST PUSH2 0x2AC PUSH2 0x704 CALLDATASIZE PUSH1 0x4 PUSH2 0x220B JUMP JUMPDEST PUSH2 0x1601 JUMP JUMPDEST CALLVALUE DUP1 ISZERO PUSH2 0x714 JUMPI PUSH0 DUP1 REVERT JUMPDEST POP PUSH2 0x2AC PUSH2 0x1B51 JUMP JUMPDEST CALLVALUE DUP1 ISZERO PUSH2 0x728 JUMPI PUSH0 DUP1 REVERT JUMPDEST POP PUSH2 0x256 PUSH1 0x2 DUP2 JUMP JUMPDEST CALLVALUE DUP1 ISZERO PUSH2 0x73C JUMPI PUSH0 DUP1 REVERT JUMPDEST POP PUSH2 0x256 PUSH8 0x853A0D2313C0000 DUP2 JUMP JUMPDEST CALLVALUE DUP1 ISZERO PUSH2 0x757 JUMPI PUSH0 DUP1 REVERT JUMPDEST POP PUSH2 0x256 PUSH8 0x6F05B59D3B20000 DUP2 JUMP JUMPDEST CALLVALUE DUP1 ISZERO PUSH2 0x772 JUMPI PUSH0 DUP1 REVERT JUMPDEST POP PUSH2 0x256 PUSH1 0xA DUP2 JUMP JUMPDEST CALLVALUE DUP1 ISZERO PUSH2 0x786 JUMPI PUSH0 DUP1 REVERT JUMPDEST POP PUSH2 0x256 PUSH8 0x16345785D8A0000 DUP2 JUMP JUMPDEST PUSH0 DUP1 JUMPDEST PUSH1 0x1 SLOAD DUP2 LT ISZERO PUSH2 0x811 JUMPI PUSH0 DUP1 PUSH0 PUSH1 0x1 DUP5 DUP2 SLOAD DUP2 LT PUSH2 0x7B9 JUMPI PUSH2 0x7B9 PUSH2 0x223B JUMP JUMPDEST PUSH0 SWAP2 DUP3 MSTORE PUSH1 0x20 DUP1 DUP4 KECCAK256 SWAP1 SWAP2 ADD SLOAD PUSH1 0x1 PUSH1 0x1 PUSH1 0xA0 SHL SUB AND DUP4 MSTORE DUP3 ADD SWAP3 SWAP1 SWAP3 MSTORE PUSH1 0x40 ADD SWAP1 KECCAK256 SLOAD SWAP1 POP PUSH8 0xDE0B6B3A7640000 PUSH2 0x7F2 DUP3 DUP1 PUSH2 0x2263 JUMP JUMPDEST PUSH2 0x7FC SWAP2 SWAP1 PUSH2 0x2280 JUMP JUMPDEST PUSH2 0x806 SWAP1 DUP5 PUSH2 0x229F JUMP JUMPDEST SWAP3 POP POP PUSH1 0x1 ADD PUSH2 0x799 JUMP JUMPDEST POP SWAP1 JUMP JUMPDEST CALLER PUSH0 SWAP1 DUP2 MSTORE PUSH1 0x3 PUSH1 0x20 MSTORE PUSH1 0x40 SWAP1 KECCAK256 SLOAD PUSH1 0xFF AND PUSH2 0x869 JUMPI PUSH1 0x40 MLOAD PUSH3 0x461BCD PUSH1 0xE5 SHL DUP2 MSTORE PUSH1 0x20 PUSH1 0x4 DUP3 ADD MSTORE PUSH1 0xE PUSH1 0x24 DUP3 ADD MSTORE PUSH14 0x139BDD08185D5D1A1BDC9A5E9959 PUSH1 0x92 SHL PUSH1 0x44 DUP3 ADD MSTORE PUSH1 0x64 ADD JUMPDEST PUSH1 0x40 MLOAD DUP1 SWAP2 SUB SWAP1 REVERT JUMPDEST PUSH1 0x2 DUP1 SLOAD SWAP1 PUSH0 PUSH2 0x878 DUP4 PUSH2 0x22B2 JUMP JUMPDEST SWAP2 SWAP1 POP SSTORE POP PUSH32 0x23811FD72D20A3EB734785EED809172B5C9C24019D493039C70EF9C276D4D97 PUSH1 0x2 SLOAD PUSH1 0x40 MLOAD PUSH2 0x8B0 SWAP2 DUP2 MSTORE PUSH1 0x20 ADD SWAP1 JUMP JUMPDEST PUSH1 0x40 MLOAD DUP1 SWAP2 SUB SWAP1 LOG1 JUMP JUMPDEST PUSH1 0x1 DUP2 DUP2 SLOAD DUP2 LT PUSH2 0x8C9 JUMPI PUSH0 DUP1 REVERT JUMPDEST PUSH0 SWAP2 DUP3 MSTORE PUSH1 0x20 SWAP1 SWAP2 KECCAK256 ADD SLOAD PUSH1 0x1 PUSH1 0x1 PUSH1 0xA0 SHL SUB AND SWAP1 POP DUP2 JUMP JUMPDEST PUSH1 0x60 PUSH1 0x1 DUP1 SLOAD DUP1 PUSH1 0x20 MUL PUSH1 0x20 ADD PUSH1 0x40 MLOAD SWAP1 DUP2 ADD PUSH1 0x40 MSTORE DUP1 SWAP3 SWAP2 SWAP1 DUP2 DUP2 MSTORE PUSH1 0x20 ADD DUP3 DUP1 SLOAD DUP1 ISZERO PUSH2 0x938 JUMPI PUSH1 0x20 MUL DUP3 ADD SWAP2 SWAP1 PUSH0 MSTORE PUSH1 0x20 PUSH0 KECCAK256 SWAP1 JUMPDEST DUP2 SLOAD PUSH1 0x1 PUSH1 0x1 PUSH1 0xA0 SHL SUB AND DUP2 MSTORE PUSH1 0x1 SWAP1 SWAP2 ADD SWAP1 PUSH1 0x20 ADD DUP1 DUP4 GT PUSH2 0x91A JUMPI JUMPDEST POP POP POP POP POP SWAP1 POP SWAP1 JUMP JUMPDEST PUSH1 0x1 SLOAD PUSH1 0x60 SWAP1 DUP2 SWAP1 DUP2 SWAP1 DUP1 PUSH8 0xFFFFFFFFFFFFFFFF DUP2 GT ISZERO PUSH2 0x965 JUMPI PUSH2 0x965 PUSH2 0x22CA JUMP JUMPDEST PUSH1 0x40 MLOAD SWAP1 DUP1 DUP3 MSTORE DUP1 PUSH1 0x20 MUL PUSH1 0x20 ADD DUP3 ADD PUSH1 0x40 MSTORE DUP1 ISZERO PUSH2 0x98E JUMPI DUP2 PUSH1 0x20 ADD PUSH1 0x20 DUP3 MUL DUP1 CALLDATASIZE DUP4 CALLDATACOPY ADD SWAP1 POP JUMPDEST POP SWAP4 POP DUP1 PUSH8 0xFFFFFFFFFFFFFFFF DUP2 GT ISZERO PUSH2 0x9AA JUMPI PUSH2 0x9AA PUSH2 0x22CA JUMP JUMPDEST PUSH1 0x40 MLOAD SWAP1 DUP1 DUP3 MSTORE DUP1 PUSH1 0x20 MUL PUSH1 0x20 ADD DUP3 ADD PUSH1 0x40 MSTORE DUP1 ISZERO PUSH2 0x9D3 JUMPI DUP2 PUSH1 0x20 ADD PUSH1 0x20 DUP3 MUL DUP1 CALLDATASIZE DUP4 CALLDATACOPY ADD SWAP1 POP JUMPDEST POP SWAP3 POP DUP1 PUSH8 0xFFFFFFFFFFFFFFFF DUP2 GT ISZERO PUSH2 0x9EF JUMPI PUSH2 0x9EF PUSH2 0x22CA JUMP JUMPDEST PUSH1 0x40 MLOAD SWAP1 DUP1 DUP3 MSTORE DUP1 PUSH1 0x20 MUL PUSH1 0x20 ADD DUP3 ADD PUSH1 0x40 MSTORE DUP1 ISZERO PUSH2 0xA18 JUMPI DUP2 PUSH1 0x20 ADD PUSH1 0x20 DUP3 MUL DUP1 CALLDATASIZE DUP4 CALLDATACOPY ADD SWAP1 POP JUMPDEST POP SWAP2 POP PUSH0 JUMPDEST DUP2 DUP2 LT ISZERO PUSH2 0xB41 JUMPI PUSH1 0x1 DUP2 DUP2 SLOAD DUP2 LT PUSH2 0xA38 JUMPI PUSH2 0xA38 PUSH2 0x223B JUMP JUMPDEST SWAP1 PUSH0 MSTORE PUSH1 0x20 PUSH0 KECCAK256 ADD PUSH0 SWAP1 SLOAD SWAP1 PUSH2 0x100 EXP SWAP1 DIV PUSH1 0x1 PUSH1 0x1 PUSH1 0xA0 SHL SUB AND DUP6 DUP3 DUP2 MLOAD DUP2 LT PUSH2 0xA65 JUMPI PUSH2 0xA65 PUSH2 0x223B JUMP JUMPDEST PUSH1 0x20 MUL PUSH1 0x20 ADD ADD SWAP1 PUSH1 0x1 PUSH1 0x1 PUSH1 0xA0 SHL SUB AND SWAP1 DUP2 PUSH1 0x1 PUSH1 0x1 PUSH1 0xA0 SHL SUB AND DUP2 MSTORE POP POP PUSH0 DUP1 PUSH1 0x1 DUP4 DUP2 SLOAD DUP2 LT PUSH2 0xA9A JUMPI PUSH2 0xA9A PUSH2 0x223B JUMP JUMPDEST PUSH0 SWAP2 DUP3 MSTORE PUSH1 0x20 DUP1 DUP4 KECCAK256 SWAP1 SWAP2 ADD SLOAD PUSH1 0x1 PUSH1 0x1 PUSH1 0xA0 SHL SUB AND DUP4 MSTORE DUP3 ADD SWAP3 SWAP1 SWAP3 MSTORE PUSH1 0x40 ADD SWAP1 KECCAK256 SLOAD DUP5 MLOAD DUP6 SWAP1 DUP4 SWAP1 DUP2 LT PUSH2 0xAD2 JUMPI PUSH2 0xAD2 PUSH2 0x223B JUMP JUMPDEST PUSH1 0x20 MUL PUSH1 0x20 ADD ADD DUP2 DUP2 MSTORE POP POP PUSH0 DUP1 PUSH1 0x1 DUP4 DUP2 SLOAD DUP2 LT PUSH2 0xAF3 JUMPI PUSH2 0xAF3 PUSH2 0x223B JUMP JUMPDEST PUSH0 SWAP2 DUP3 MSTORE PUSH1 0x20 DUP1 DUP4 KECCAK256 SWAP1 SWAP2 ADD SLOAD PUSH1 0x1 PUSH1 0x1 PUSH1 0xA0 SHL SUB AND DUP4 MSTORE DUP3 ADD SWAP3 SWAP1 SWAP3 MSTORE PUSH1 0x40 ADD SWAP1 KECCAK256 PUSH1 0x1 ADD SLOAD DUP4 MLOAD DUP5 SWAP1 DUP4 SWAP1 DUP2 LT PUSH2 0xB2E JUMPI PUSH2 0xB2E PUSH2 0x223B JUMP JUMPDEST PUSH1 0x20 SWAP1 DUP2 MUL SWAP2 SWAP1 SWAP2 ADD ADD MSTORE PUSH1 0x1 ADD PUSH2 0xA1D JUMP JUMPDEST POP POP SWAP1 SWAP2 SWAP3 JUMP JUMPDEST PUSH1 0x7 DUP2 DUP2 SLOAD DUP2 LT PUSH2 0xB57 JUMPI PUSH0 DUP1 REVERT JUMPDEST PUSH0 SWAP2 DUP3 MSTORE PUSH1 0x20 SWAP1 SWAP2 KECCAK256 ADD SLOAD SWAP1 POP DUP2 JUMP JUMPDEST PUSH1 0x4 SLOAD PUSH1 0x1 PUSH1 0x1 PUSH1 0xA0 SHL SUB AND CALLER EQ PUSH2 0xB91 JUMPI PUSH1 0x40 MLOAD PUSH3 0x461BCD PUSH1 0xE5 SHL DUP2 MSTORE PUSH1 0x4 ADD PUSH2 0x860 SWAP1 PUSH2 0x22DE JUMP JUMPDEST PUSH0 JUMPDEST DUP2 DUP2 LT ISZERO PUSH2 0xC1E JUMPI PUSH0 DUP1 DUP5 DUP5 DUP5 DUP2 DUP2 LT PUSH2 0xBAF JUMPI PUSH2 0xBAF PUSH2 0x223B JUMP JUMPDEST SWAP1 POP PUSH1 0x20 MUL ADD PUSH1 0x20 DUP2 ADD SWAP1 PUSH2 0xBC4 SWAP2 SWAP1 PUSH2 0x20C2 JUMP JUMPDEST PUSH1 0x1 PUSH1 0x1 PUSH1 0xA0 SHL SUB AND DUP2 MSTORE PUSH1 0x20 DUP2 ADD SWAP2 SWAP1 SWAP2 MSTORE PUSH1 0x40 ADD PUSH0 KECCAK256 PUSH1 0x4 ADD SLOAD PUSH1 0xFF AND PUSH2 0xC16 JUMPI PUSH2 0xC16 DUP4 DUP4 DUP4 DUP2 DUP2 LT PUSH2 0xBFC JUMPI PUSH2 0xBFC PUSH2 0x223B JUMP JUMPDEST SWAP1 POP PUSH1 0x20 MUL ADD PUSH1 0x20 DUP2 ADD SWAP1 PUSH2 0xC11 SWAP2 SWAP1 PUSH2 0x20C2 JUMP JUMPDEST PUSH2 0x1CD0 JUMP JUMPDEST PUSH1 0x1 ADD PUSH2 0xB93 JUMP JUMPDEST POP POP POP JUMP JUMPDEST CALLER PUSH0 SWAP1 DUP2 MSTORE PUSH1 0x3 PUSH1 0x20 MSTORE PUSH1 0x40 SWAP1 KECCAK256 SLOAD PUSH1 0xFF AND PUSH2 0xC7A JUMPI PUSH1 0x40 MLOAD PUSH3 0x461BCD PUSH1 0xE5 SHL DUP2 MSTORE PUSH1 0x20 PUSH1 0x4 DUP3 ADD MSTORE PUSH1 0x16 PUSH1 0x24 DUP3 ADD MSTORE PUSH22 0x2737BA1030BABA3437B934BD32B2103AB83230BA32B9 PUSH1 0x51 SHL PUSH1 0x44 DUP3 ADD MSTORE PUSH1 0x64 ADD PUSH2 0x860 JUMP JUMPDEST PUSH1 0x1 PUSH1 0x1 PUSH1 0xA0 SHL SUB DUP4 AND PUSH0 SWAP1 DUP2 MSTORE PUSH1 0x20 DUP2 SWAP1 MSTORE PUSH1 0x40 SWAP1 KECCAK256 PUSH1 0x4 ADD SLOAD PUSH1 0xFF AND PUSH2 0xCE4 JUMPI PUSH1 0x40 MLOAD PUSH3 0x461BCD PUSH1 0xE5 SHL DUP2 MSTORE PUSH1 0x20 PUSH1 0x4 DUP3 ADD MSTORE PUSH1 0x18 PUSH1 0x24 DUP3 ADD MSTORE PUSH32 0x436F6D6D6974746572206E6F7420726567697374657265640000000000000000 PUSH1 0x44 DUP3 ADD MSTORE PUSH1 0x64 ADD PUSH2 0x860 JUMP JUMPDEST PUSH1 0x1 PUSH1 0x1 PUSH1 0xA0 SHL SUB DUP4 AND PUSH0 SWAP1 DUP2 MSTORE PUSH1 0x20 DUP2 SWAP1 MSTORE PUSH1 0x40 DUP2 KECCAK256 DUP1 SLOAD SWAP1 SWAP2 DUP5 PUSH2 0xD0A JUMPI PUSH0 PUSH2 0xD14 JUMP JUMPDEST PUSH8 0xDE0B6B3A7640000 JUMPDEST SWAP1 POP PUSH0 PUSH8 0xDE0B6B3A7640000 DUP3 PUSH2 0xD33 PUSH8 0x9B6E64A8EC60000 DUP4 PUSH2 0x2301 JUMP JUMPDEST PUSH2 0xD3D SWAP2 SWAP1 PUSH2 0x2263 JUMP JUMPDEST PUSH1 0x1 DUP7 ADD SLOAD PUSH2 0xD54 SWAP1 PUSH8 0x9B6E64A8EC60000 PUSH2 0x2263 JUMP JUMPDEST PUSH2 0xD5E SWAP2 SWAP1 PUSH2 0x229F JUMP JUMPDEST PUSH2 0xD68 SWAP2 SWAP1 PUSH2 0x2280 JUMP JUMPDEST SWAP1 POP PUSH0 DUP6 PUSH2 0xD76 JUMPI PUSH0 PUSH2 0xD80 JUMP JUMPDEST PUSH8 0xDE0B6B3A7640000 JUMPDEST SWAP1 POP PUSH0 PUSH8 0xDE0B6B3A7640000 PUSH2 0xD9E DUP4 PUSH8 0x16345785D8A0000 PUSH2 0x2263 JUMP JUMPDEST PUSH2 0xDB0 DUP6 PUSH8 0x429D069189E0000 PUSH2 0x2263 JUMP JUMPDEST PUSH2 0xDC2 DUP8 PUSH8 0x853A0D2313C0000 PUSH2 0x2263 JUMP JUMPDEST PUSH2 0xDCC SWAP2 SWAP1 PUSH2 0x229F JUMP JUMPDEST PUSH2 0xDD6 SWAP2 SWAP1 PUSH2 0x229F JUMP JUMPDEST PUSH2 0xDE0 SWAP2 SWAP1 PUSH2 0x2280 JUMP JUMPDEST SWAP1 POP PUSH8 0x11C37937E080000 DUP9 PUSH2 0xF3D JUMPI PUSH2 0xDFB PUSH1 0x5 DUP3 PUSH2 0x2263 JUMP JUMPDEST SWAP1 POP PUSH8 0xDE0B6B3A7640000 DUP2 GT ISZERO PUSH2 0xE18 JUMPI POP PUSH8 0xDE0B6B3A7640000 JUMPDEST PUSH1 0x8 DUP8 ADD DUP1 SLOAD SWAP1 PUSH0 PUSH2 0xE29 DUP4 PUSH2 0x22B2 JUMP JUMPDEST SWAP2 SWAP1 POP SSTORE POP PUSH1 0x2 DUP8 PUSH1 0x8 ADD SLOAD LT PUSH2 0xE73 JUMPI PUSH1 0x2 DUP8 PUSH1 0x8 ADD SLOAD DUP3 PUSH2 0xE4C SWAP2 SWAP1 PUSH2 0x2263 JUMP JUMPDEST PUSH2 0xE56 SWAP2 SWAP1 PUSH2 0x2280 JUMP JUMPDEST SWAP1 POP PUSH8 0xDE0B6B3A7640000 DUP2 GT ISZERO PUSH2 0xE73 JUMPI POP PUSH8 0xDE0B6B3A7640000 JUMPDEST PUSH1 0x7 DUP8 ADD SLOAD ISZERO PUSH2 0xF38 JUMPI PUSH0 PUSH1 0x64 PUSH1 0xA DUP10 PUSH1 0x7 ADD SLOAD PUSH2 0xE91 SWAP2 SWAP1 PUSH2 0x2263 JUMP JUMPDEST PUSH2 0xE9B SWAP2 SWAP1 PUSH2 0x2280 JUMP JUMPDEST SWAP1 POP DUP1 DUP9 PUSH1 0x7 ADD PUSH0 DUP3 DUP3 SLOAD PUSH2 0xEB0 SWAP2 SWAP1 PUSH2 0x2301 JUMP JUMPDEST SWAP3 POP POP DUP2 SWAP1 SSTORE POP DUP1 DUP9 PUSH1 0x9 ADD PUSH0 DUP3 DUP3 SLOAD PUSH2 0xECA SWAP2 SWAP1 PUSH2 0x229F JUMP JUMPDEST SWAP3 POP POP DUP2 SWAP1 SSTORE POP DUP1 PUSH1 0x5 PUSH0 DUP3 DUP3 SLOAD PUSH2 0xEE2 SWAP2 SWAP1 PUSH2 0x229F JUMP JUMPDEST SWAP1 SWAP2 SSTORE POP POP PUSH1 0x8 DUP9 ADD SLOAD PUSH1 0x40 MLOAD PUSH1 0x1 PUSH1 0x1 PUSH1 0xA0 SHL SUB DUP14 AND SWAP2 PUSH32 0x907D1165EB4FE62CDD435FD3B86B1C0171EC7D223B39D3DD319A457E8EE55423 SWAP2 PUSH2 0xF2E SWAP2 DUP6 DUP3 MSTORE PUSH1 0x20 DUP3 ADD MSTORE PUSH1 0x40 ADD SWAP1 JUMP JUMPDEST PUSH1 0x40 MLOAD DUP1 SWAP2 SUB SWAP1 LOG2 POP JUMPDEST PUSH2 0xF44 JUMP JUMPDEST PUSH0 PUSH1 0x8 DUP9 ADD SSTORE JUMPDEST PUSH0 PUSH8 0xDE0B6B3A7640000 PUSH2 0xF58 DUP5 DUP5 PUSH2 0x2263 JUMP JUMPDEST DUP10 SLOAD PUSH2 0xF6C DUP6 PUSH8 0xDE0B6B3A7640000 PUSH2 0x2301 JUMP JUMPDEST PUSH2 0xF76 SWAP2 SWAP1 PUSH2 0x2263 JUMP JUMPDEST PUSH2 0xF80 SWAP2 SWAP1 PUSH2 0x229F JUMP JUMPDEST PUSH2 0xF8A SWAP2 SWAP1 PUSH2 0x2280 JUMP JUMPDEST SWAP1 POP PUSH2 0xF9F PUSH8 0xDE0B6B3A7640000 PUSH1 0x5 PUSH2 0x2263 JUMP JUMPDEST DUP2 GT ISZERO PUSH2 0xFDC JUMPI PUSH1 0x64 PUSH2 0xFBB PUSH8 0xDE0B6B3A7640000 PUSH1 0x5 PUSH2 0x2263 JUMP JUMPDEST PUSH2 0xFC5 SWAP1 DUP4 PUSH2 0x2301 JUMP JUMPDEST PUSH2 0xFCF SWAP2 SWAP1 PUSH2 0x2280 JUMP JUMPDEST PUSH2 0xFD9 SWAP1 DUP3 PUSH2 0x2301 JUMP JUMPDEST SWAP1 POP JUMPDEST PUSH7 0x2386F26FC10000 DUP2 LT ISZERO PUSH2 0xFF5 JUMPI POP PUSH7 0x2386F26FC10000 JUMPDEST PUSH8 0x8AC7230489E80000 DUP2 GT ISZERO PUSH2 0x1010 JUMPI POP PUSH8 0x8AC7230489E80000 JUMPDEST DUP1 DUP9 SSTORE PUSH1 0x1 DUP9 ADD DUP6 SWAP1 SSTORE DUP9 ISZERO PUSH2 0x1029 JUMPI PUSH1 0x2 SLOAD PUSH1 0x3 DUP10 ADD SSTORE JUMPDEST PUSH1 0x4 DUP9 ADD SLOAD PUSH2 0x100 SWAP1 DIV PUSH1 0xFF AND DUP1 ISZERO PUSH2 0x1054 JUMPI POP PUSH1 0x14 DUP9 PUSH1 0x2 ADD SLOAD PUSH2 0x104E SWAP2 SWAP1 PUSH2 0x229F JUMP JUMPDEST PUSH1 0x2 SLOAD LT ISZERO JUMPDEST ISZERO PUSH2 0x1067 JUMPI PUSH1 0x4 DUP9 ADD DUP1 SLOAD PUSH2 0xFF00 NOT AND SWAP1 SSTORE JUMPDEST PUSH1 0x40 DUP1 MLOAD DUP9 DUP2 MSTORE PUSH1 0x20 DUP2 ADD DUP4 SWAP1 MSTORE SWAP1 DUP2 ADD DUP5 SWAP1 MSTORE PUSH1 0x1 PUSH1 0x1 PUSH1 0xA0 SHL SUB DUP13 AND SWAP1 PUSH32 0xC2FD17AD7E9F23B8607F0BD02D7A6CDCCCD5A964FA99CE5A066ED34C5B4BB55B SWAP1 PUSH1 0x60 ADD PUSH1 0x40 MLOAD DUP1 SWAP2 SUB SWAP1 LOG2 POP POP POP POP POP POP POP POP POP POP POP JUMP JUMPDEST PUSH1 0x4 SLOAD PUSH1 0x1 PUSH1 0x1 PUSH1 0xA0 SHL SUB AND CALLER EQ PUSH2 0x10EA JUMPI PUSH1 0x40 MLOAD PUSH3 0x461BCD PUSH1 0xE5 SHL DUP2 MSTORE PUSH1 0x4 ADD PUSH2 0x860 SWAP1 PUSH2 0x22DE JUMP JUMPDEST PUSH1 0x1 PUSH1 0x1 PUSH1 0xA0 SHL SUB SWAP2 SWAP1 SWAP2 AND PUSH0 SWAP1 DUP2 MSTORE PUSH1 0x3 PUSH1 0x20 MSTORE PUSH1 0x40 SWAP1 KECCAK256 DUP1 SLOAD PUSH1 0xFF NOT AND SWAP2 ISZERO ISZERO SWAP2 SWAP1 SWAP2 OR SWAP1 SSTORE JUMP JUMPDEST PUSH1 0x4 SLOAD PUSH1 0x1 PUSH1 0x1 PUSH1 0xA0 SHL SUB AND CALLER EQ PUSH2 0x113E JUMPI PUSH1 0x40 MLOAD PUSH3 0x461BCD PUSH1 0xE5 SHL DUP2 MSTORE PUSH1 0x4 ADD PUSH2 0x860 SWAP1 PUSH2 0x22DE JUMP JUMPDEST PUSH1 0x1 PUSH1 0x1 PUSH1 0xA0 SHL SUB AND PUSH0 SWAP1 DUP2 MSTORE PUSH1 0x3 PUSH1 0x20 MSTORE PUSH1 0x40 SWAP1 KECCAK256 DUP1 SLOAD PUSH1 0xFF NOT AND PUSH1 0x1 OR SWAP1 SSTORE JUMP JUMPDEST PUSH1 0x4 SLOAD PUSH1 0x1 PUSH1 0x1 PUSH1 0xA0 SHL SUB AND CALLER EQ PUSH2 0x118B JUMPI PUSH1 0x40 MLOAD PUSH3 0x461BCD PUSH1 0xE5 SHL DUP2 MSTORE PUSH1 0x4 ADD PUSH2 0x860 SWAP1 PUSH2 0x22DE JUMP JUMPDEST PUSH0 DUP3 DUP2 MSTORE PUSH1 0x6 PUSH1 0x20 MSTORE PUSH1 0x40 SWAP1 KECCAK256 PUSH1 0x4 DUP2 ADD SLOAD PUSH1 0xFF AND ISZERO PUSH2 0x11E0 JUMPI PUSH1 0x40 MLOAD PUSH3 0x461BCD PUSH1 0xE5 SHL DUP2 MSTORE PUSH1 0x20 PUSH1 0x4 DUP3 ADD MSTORE PUSH1 0x10 PUSH1 0x24 DUP3 ADD MSTORE PUSH16 0x105B1C9958591E481C995CDBDB1D9959 PUSH1 0x82 SHL PUSH1 0x44 DUP3 ADD MSTORE PUSH1 0x64 ADD PUSH2 0x860 JUMP JUMPDEST PUSH1 0x4 DUP2 ADD DUP1 SLOAD DUP4 ISZERO DUP1 ISZERO PUSH2 0x100 MUL PUSH2 0xFFFF NOT SWAP1 SWAP3 AND SWAP2 SWAP1 SWAP2 OR PUSH1 0x1 OR SWAP1 SWAP2 SSTORE PUSH2 0x1341 JUMPI DUP1 SLOAD PUSH1 0x1 PUSH1 0x1 PUSH1 0xA0 SHL SUB AND PUSH0 SWAP1 DUP2 MSTORE PUSH1 0x20 DUP2 SWAP1 MSTORE PUSH1 0x40 DUP2 KECCAK256 DUP1 SLOAD SWAP1 SWAP2 SWAP1 PUSH8 0xDE0B6B3A7640000 SWAP1 PUSH2 0x123D PUSH1 0x5 PUSH8 0x11C37937E080000 PUSH2 0x2263 JUMP JUMPDEST PUSH2 0x1247 SWAP2 SWAP1 PUSH2 0x2263 JUMP JUMPDEST PUSH2 0x1251 SWAP2 SWAP1 PUSH2 0x2280 JUMP JUMPDEST SWAP1 POP DUP1 DUP3 PUSH0 ADD PUSH0 DUP3 DUP3 SLOAD PUSH2 0x1265 SWAP2 SWAP1 PUSH2 0x229F JUMP JUMPDEST SWAP1 SWAP2 SSTORE POP POP DUP2 SLOAD PUSH8 0x8AC7230489E80000 LT ISZERO PUSH2 0x1287 JUMPI PUSH8 0x8AC7230489E80000 DUP3 SSTORE JUMPDEST PUSH0 DUP1 DUP4 PUSH1 0x9 ADD SLOAD GT PUSH2 0x1299 JUMPI PUSH0 PUSH2 0x12D4 JUMP JUMPDEST PUSH2 0x12AC PUSH1 0xA PUSH8 0xDE0B6B3A7640000 PUSH2 0x2280 JUMP JUMPDEST DUP4 PUSH1 0x9 ADD SLOAD LT PUSH2 0x12CE JUMPI PUSH2 0x12C9 PUSH1 0xA PUSH8 0xDE0B6B3A7640000 PUSH2 0x2280 JUMP JUMPDEST PUSH2 0x12D4 JUMP JUMPDEST DUP3 PUSH1 0x9 ADD SLOAD JUMPDEST SWAP1 POP PUSH0 DUP2 GT DUP1 ISZERO PUSH2 0x12E7 JUMPI POP DUP1 PUSH1 0x5 SLOAD LT ISZERO JUMPDEST ISZERO PUSH2 0x1337 JUMPI DUP1 DUP4 PUSH1 0x7 ADD PUSH0 DUP3 DUP3 SLOAD PUSH2 0x12FF SWAP2 SWAP1 PUSH2 0x229F JUMP JUMPDEST SWAP3 POP POP DUP2 SWAP1 SSTORE POP DUP1 DUP4 PUSH1 0x9 ADD PUSH0 DUP3 DUP3 SLOAD PUSH2 0x1319 SWAP2 SWAP1 PUSH2 0x2301 JUMP JUMPDEST SWAP3 POP POP DUP2 SWAP1 SSTORE POP DUP1 PUSH1 0x5 PUSH0 DUP3 DUP3 SLOAD PUSH2 0x1331 SWAP2 SWAP1 PUSH2 0x2301 JUMP JUMPDEST SWAP1 SWAP2 SSTORE POP POP JUMPDEST POP POP PUSH0 PUSH1 0x8 SWAP1 SWAP2 ADD SSTORE JUMPDEST DUP3 PUSH32 0xA6C893565B2CCE40204BD8EE5ADCD7D7B2989FA275233C080A79614CCCE59246 DUP4 PUSH1 0x40 MLOAD PUSH2 0x1375 SWAP2 ISZERO ISZERO DUP2 MSTORE PUSH1 0x20 ADD SWAP1 JUMP JUMPDEST PUSH1 0x40 MLOAD DUP1 SWAP2 SUB SWAP1 LOG2 POP POP POP JUMP JUMPDEST PUSH1 0x1 PUSH1 0x1 PUSH1 0xA0 SHL SUB DUP2 AND PUSH0 SWAP1 DUP2 MSTORE PUSH1 0x20 DUP2 SWAP1 MSTORE PUSH1 0x40 DUP2 KECCAK256 SLOAD PUSH8 0xDE0B6B3A7640000 PUSH2 0x13AD DUP3 DUP1 PUSH2 0x2263 JUMP JUMPDEST PUSH2 0x13B7 SWAP2 SWAP1 PUSH2 0x2280 JUMP JUMPDEST SWAP4 SWAP3 POP POP POP JUMP JUMPDEST CALLER PUSH0 SWAP1 DUP2 MSTORE PUSH1 0x20 DUP2 SWAP1 MSTORE PUSH1 0x40 SWAP1 KECCAK256 PUSH1 0x4 ADD SLOAD PUSH1 0xFF AND PUSH2 0x1410 JUMPI PUSH1 0x40 MLOAD PUSH3 0x461BCD PUSH1 0xE5 SHL DUP2 MSTORE PUSH1 0x20 PUSH1 0x4 DUP3 ADD MSTORE PUSH1 0xE PUSH1 0x24 DUP3 ADD MSTORE PUSH14 0x139BDD081C9959DA5CDD195C9959 PUSH1 0x92 SHL PUSH1 0x44 DUP3 ADD MSTORE PUSH1 0x64 ADD PUSH2 0x860 JUMP JUMPDEST PUSH2 0x141B PUSH1 0x5 DUP4 PUSH2 0x229F JUMP JUMPDEST PUSH1 0x2 SLOAD GT ISZERO PUSH2 0x1464 JUMPI PUSH1 0x40 MLOAD PUSH3 0x461BCD PUSH1 0xE5 SHL DUP2 MSTORE PUSH1 0x20 PUSH1 0x4 DUP3 ADD MSTORE PUSH1 0x15 PUSH1 0x24 DUP3 ADD MSTORE PUSH21 0x105C1C19585B081DDA5B991BDDC8195E1C1A5C9959 PUSH1 0x5A SHL PUSH1 0x44 DUP3 ADD MSTORE PUSH1 0x64 ADD PUSH2 0x860 JUMP JUMPDEST PUSH1 0x40 DUP1 MLOAD CALLER PUSH1 0x20 DUP3 ADD MSTORE SWAP1 DUP2 ADD DUP4 SWAP1 MSTORE PUSH1 0x60 DUP2 ADD DUP3 SWAP1 MSTORE PUSH0 SWAP1 PUSH1 0x80 ADD PUSH1 0x40 DUP1 MLOAD PUSH1 0x1F NOT DUP2 DUP5 SUB ADD DUP2 MSTORE SWAP2 DUP2 MSTORE DUP2 MLOAD PUSH1 0x20 SWAP3 DUP4 ADD KECCAK256 PUSH0 DUP2 DUP2 MSTORE PUSH1 0x6 SWAP1 SWAP4 MSTORE SWAP2 KECCAK256 PUSH1 0x4 ADD SLOAD SWAP1 SWAP2 POP PUSH1 0xFF AND ISZERO PUSH2 0x14F2 JUMPI PUSH1 0x40 MLOAD PUSH3 0x461BCD PUSH1 0xE5 SHL DUP2 MSTORE PUSH1 0x20 PUSH1 0x4 DUP3 ADD MSTORE PUSH1 0x15 PUSH1 0x24 DUP3 ADD MSTORE PUSH21 0x41707065616C20616C726561647920657869737473 PUSH1 0x58 SHL PUSH1 0x44 DUP3 ADD MSTORE PUSH1 0x64 ADD PUSH2 0x860 JUMP JUMPDEST PUSH1 0x40 DUP1 MLOAD PUSH1 0xC0 DUP2 ADD DUP3 MSTORE CALLER DUP1 DUP3 MSTORE PUSH1 0x20 DUP1 DUP4 ADD DUP8 DUP2 MSTORE DUP4 DUP6 ADD DUP8 DUP2 MSTORE PUSH1 0x2 DUP1 SLOAD PUSH1 0x60 DUP8 ADD SWAP1 DUP2 MSTORE PUSH0 PUSH1 0x80 DUP9 ADD DUP2 DUP2 MSTORE PUSH1 0xA0 DUP10 ADD DUP3 DUP2 MSTORE DUP12 DUP4 MSTORE PUSH1 0x6 DUP9 MSTORE DUP11 DUP4 KECCAK256 SWAP10 MLOAD DUP11 SLOAD PUSH1 0x1 PUSH1 0x1 PUSH1 0xA0 SHL SUB NOT AND PUSH1 0x1 PUSH1 0x1 PUSH1 0xA0 SHL SUB SWAP1 SWAP2 AND OR DUP11 SSTORE SWAP6 MLOAD PUSH1 0x1 DUP1 DUP12 ADD SWAP2 SWAP1 SWAP2 SSTORE SWAP5 MLOAD SWAP4 DUP10 ADD SWAP4 SWAP1 SWAP4 SSTORE SWAP1 MLOAD PUSH1 0x3 DUP9 ADD SSTORE SWAP1 MLOAD PUSH1 0x4 SWAP1 SWAP7 ADD DUP1 SLOAD SWAP4 MLOAD PUSH2 0xFFFF NOT SWAP1 SWAP5 AND SWAP7 ISZERO ISZERO PUSH2 0xFF00 NOT AND SWAP7 SWAP1 SWAP7 OR PUSH2 0x100 SWAP4 ISZERO ISZERO SWAP4 SWAP1 SWAP4 MUL SWAP3 SWAP1 SWAP3 OR SWAP1 SWAP5 SSTORE PUSH1 0x7 DUP1 SLOAD SWAP5 DUP6 ADD DUP2 SSTORE SWAP1 MSTORE PUSH32 0xA66CC928B5EDB82AF9BD49922954155AB7B0942694BEA4CE44661D9A8736C688 SWAP1 SWAP3 ADD DUP5 SWAP1 SSTORE SWAP2 MLOAD DUP6 DUP2 MSTORE DUP4 SWAP2 PUSH32 0x138B6C26519B126158DCA4B1CE507BA59A369C9128E2B6B490AE304D19375482 SWAP2 ADD PUSH1 0x40 MLOAD DUP1 SWAP2 SUB SWAP1 LOG3 POP POP POP JUMP JUMPDEST CALLER PUSH0 SWAP1 DUP2 MSTORE PUSH1 0x20 DUP2 SWAP1 MSTORE PUSH1 0x40 SWAP1 KECCAK256 PUSH1 0x4 ADD SLOAD PUSH1 0xFF AND ISZERO PUSH2 0x1658 JUMPI PUSH1 0x40 MLOAD PUSH3 0x461BCD PUSH1 0xE5 SHL DUP2 MSTORE PUSH1 0x20 PUSH1 0x4 DUP3 ADD MSTORE PUSH1 0x12 PUSH1 0x24 DUP3 ADD MSTORE PUSH18 0x105B1C9958591E481C9959DA5CDD195C9959 PUSH1 0x72 SHL PUSH1 0x44 DUP3 ADD MSTORE PUSH1 0x64 ADD PUSH2 0x860 JUMP JUMPDEST PUSH2 0x1668 PUSH1 0x40 DUP3 ADD PUSH1 0x20 DUP4 ADD PUSH2 0x20C2 JUMP JUMPDEST PUSH1 0x1 PUSH1 0x1 PUSH1 0xA0 SHL SUB AND PUSH2 0x167E PUSH1 0x20 DUP4 ADD DUP4 PUSH2 0x20C2 JUMP JUMPDEST PUSH1 0x1 PUSH1 0x1 PUSH1 0xA0 SHL SUB AND SUB PUSH2 0x16D4 JUMPI PUSH1 0x40 MLOAD PUSH3 0x461BCD PUSH1 0xE5 SHL DUP2 MSTORE PUSH1 0x20 PUSH1 0x4 DUP3 ADD MSTORE PUSH1 0x1A PUSH1 0x24 DUP3 ADD MSTORE PUSH32 0x456E646F7273657273206D7573742062652064697374696E6374000000000000 PUSH1 0x44 DUP3 ADD MSTORE PUSH1 0x64 ADD PUSH2 0x860 JUMP JUMPDEST CALLER PUSH2 0x16E2 PUSH1 0x20 DUP4 ADD DUP4 PUSH2 0x20C2 JUMP JUMPDEST PUSH1 0x1 PUSH1 0x1 PUSH1 0xA0 SHL SUB AND EQ ISZERO DUP1 ISZERO PUSH2 0x1711 JUMPI POP CALLER PUSH2 0x1705 PUSH1 0x40 DUP4 ADD PUSH1 0x20 DUP5 ADD PUSH2 0x20C2 JUMP JUMPDEST PUSH1 0x1 PUSH1 0x1 PUSH1 0xA0 SHL SUB AND EQ ISZERO JUMPDEST PUSH2 0x1753 JUMPI PUSH1 0x40 MLOAD PUSH3 0x461BCD PUSH1 0xE5 SHL DUP2 MSTORE PUSH1 0x20 PUSH1 0x4 DUP3 ADD MSTORE PUSH1 0x13 PUSH1 0x24 DUP3 ADD MSTORE PUSH19 0x43616E6E6F742073656C662D656E646F727365 PUSH1 0x68 SHL PUSH1 0x44 DUP3 ADD MSTORE PUSH1 0x64 ADD PUSH2 0x860 JUMP JUMPDEST PUSH8 0xDE0B6B3A7640000 CALLVALUE LT ISZERO PUSH2 0x17B5 JUMPI PUSH1 0x40 MLOAD PUSH3 0x461BCD PUSH1 0xE5 SHL DUP2 MSTORE PUSH1 0x20 PUSH1 0x4 DUP3 ADD MSTORE PUSH1 0x21 PUSH1 0x24 DUP3 ADD MSTORE PUSH32 0x496E73756666696369656E74207374616B653A206E656564203E3D2031204554 PUSH1 0x44 DUP3 ADD MSTORE PUSH1 0x9 PUSH1 0xFB SHL PUSH1 0x64 DUP3 ADD MSTORE PUSH1 0x84 ADD PUSH2 0x860 JUMP JUMPDEST PUSH0 DUP1 PUSH2 0x17C4 PUSH1 0x20 DUP5 ADD DUP5 PUSH2 0x20C2 JUMP JUMPDEST PUSH1 0x1 PUSH1 0x1 PUSH1 0xA0 SHL SUB AND DUP2 MSTORE PUSH1 0x20 DUP2 ADD SWAP2 SWAP1 SWAP2 MSTORE PUSH1 0x40 ADD PUSH0 KECCAK256 PUSH1 0x4 ADD SLOAD PUSH1 0xFF AND DUP1 ISZERO PUSH2 0x181E JUMPI POP PUSH8 0x9B6E64A8EC60000 PUSH0 DUP1 PUSH2 0x1802 PUSH1 0x20 DUP6 ADD DUP6 PUSH2 0x20C2 JUMP JUMPDEST PUSH1 0x1 PUSH1 0x1 PUSH1 0xA0 SHL SUB AND DUP2 MSTORE PUSH1 0x20 DUP2 ADD SWAP2 SWAP1 SWAP2 MSTORE PUSH1 0x40 ADD PUSH0 KECCAK256 SLOAD LT ISZERO JUMPDEST PUSH2 0x185F JUMPI PUSH1 0x40 MLOAD PUSH3 0x461BCD PUSH1 0xE5 SHL DUP2 MSTORE PUSH1 0x20 PUSH1 0x4 DUP3 ADD MSTORE PUSH1 0x12 PUSH1 0x24 DUP3 ADD MSTORE PUSH18 0x456E646F7273657220302052203C20302E37 PUSH1 0x70 SHL PUSH1 0x44 DUP3 ADD MSTORE PUSH1 0x64 ADD PUSH2 0x860 JUMP JUMPDEST PUSH0 DUP1 PUSH2 0x1871 PUSH1 0x40 DUP5 ADD PUSH1 0x20 DUP6 ADD PUSH2 0x20C2 JUMP JUMPDEST PUSH1 0x1 PUSH1 0x1 PUSH1 0xA0 SHL SUB AND DUP2 MSTORE PUSH1 0x20 DUP2 ADD SWAP2 SWAP1 SWAP2 MSTORE PUSH1 0x40 ADD PUSH0 KECCAK256 PUSH1 0x4 ADD SLOAD PUSH1 0xFF AND DUP1 ISZERO PUSH2 0x18CE JUMPI POP PUSH8 0x9B6E64A8EC60000 PUSH0 DUP1 PUSH2 0x18B2 PUSH1 0x40 DUP6 ADD PUSH1 0x20 DUP7 ADD PUSH2 0x20C2 JUMP JUMPDEST PUSH1 0x1 PUSH1 0x1 PUSH1 0xA0 SHL SUB AND DUP2 MSTORE PUSH1 0x20 DUP2 ADD SWAP2 SWAP1 SWAP2 MSTORE PUSH1 0x40 ADD PUSH0 KECCAK256 SLOAD LT ISZERO JUMPDEST PUSH2 0x190F JUMPI PUSH1 0x40 MLOAD PUSH3 0x461BCD PUSH1 0xE5 SHL DUP2 MSTORE PUSH1 0x20 PUSH1 0x4 DUP3 ADD MSTORE PUSH1 0x12 PUSH1 0x24 DUP3 ADD MSTORE PUSH18 0x456E646F7273657220312052203C20302E37 PUSH1 0x70 SHL PUSH1 0x44 DUP3 ADD MSTORE PUSH1 0x64 ADD PUSH2 0x860 JUMP JUMPDEST PUSH1 0x40 DUP1 MLOAD CALLER PUSH1 0x20 DUP3 ADD MSTORE SWAP1 DUP2 ADD DUP4 SWAP1 MSTORE PUSH0 SWAP1 PUSH1 0x60 ADD PUSH1 0x40 MLOAD PUSH1 0x20 DUP2 DUP4 SUB SUB DUP2 MSTORE SWAP1 PUSH1 0x40 MSTORE DUP1 MLOAD SWAP1 PUSH1 0x20 ADD KECCAK256 SWAP1 POP PUSH1 0x14 PUSH2 0x1947 DUP3 PUSH2 0x1E4B JUMP JUMPDEST LT ISZERO PUSH2 0x198E JUMPI PUSH1 0x40 MLOAD PUSH3 0x461BCD PUSH1 0xE5 SHL DUP2 MSTORE PUSH1 0x20 PUSH1 0x4 DUP3 ADD MSTORE PUSH1 0x16 PUSH1 0x24 DUP3 ADD MSTORE PUSH22 0x141BD5C8191A59999A58DD5B1D1E481B9BDD081B595D PUSH1 0x52 SHL PUSH1 0x44 DUP3 ADD MSTORE PUSH1 0x64 ADD PUSH2 0x860 JUMP JUMPDEST PUSH1 0x40 DUP1 MLOAD PUSH2 0x140 DUP2 ADD DUP3 MSTORE PUSH8 0x6F05B59D3B20000 DUP1 DUP3 MSTORE PUSH1 0x20 DUP3 ADD MSTORE PUSH1 0x2 DUP1 SLOAD DUP3 DUP5 ADD DUP2 SWAP1 MSTORE PUSH1 0x60 DUP4 ADD MSTORE PUSH1 0x1 PUSH1 0x80 DUP4 ADD DUP2 SWAP1 MSTORE PUSH1 0xA0 DUP4 ADD MSTORE DUP3 MLOAD DUP1 DUP5 ADD DUP5 MSTORE SWAP2 SWAP3 PUSH1 0xC0 DUP5 ADD SWAP3 SWAP2 DUP7 SWAP2 DUP4 SWAP1 DUP4 SWAP1 DUP1 DUP3 DUP5 CALLDATACOPY PUSH0 SWAP3 ADD DUP3 SWAP1 MSTORE POP SWAP3 DUP5 MSTORE POP POP CALLVALUE PUSH1 0x20 DUP1 DUP5 ADD SWAP2 SWAP1 SWAP2 MSTORE PUSH1 0x40 DUP1 DUP5 ADD DUP4 SWAP1 MSTORE PUSH1 0x60 SWAP4 DUP5 ADD DUP4 SWAP1 MSTORE CALLER DUP4 MSTORE DUP3 DUP3 MSTORE SWAP2 DUP3 SWAP1 KECCAK256 DUP5 MLOAD DUP2 SSTORE SWAP1 DUP5 ADD MLOAD PUSH1 0x1 DUP3 ADD SSTORE SWAP1 DUP4 ADD MLOAD PUSH1 0x2 DUP1 DUP4 ADD SWAP2 SWAP1 SWAP2 SSTORE SWAP2 DUP4 ADD MLOAD PUSH1 0x3 DUP3 ADD SSTORE PUSH1 0x80 DUP4 ADD MLOAD PUSH1 0x4 DUP3 ADD DUP1 SLOAD PUSH1 0xA0 DUP7 ADD MLOAD ISZERO ISZERO PUSH2 0x100 MUL PUSH2 0xFF00 NOT SWAP4 ISZERO ISZERO SWAP4 SWAP1 SWAP4 AND PUSH2 0xFFFF NOT SWAP1 SWAP2 AND OR SWAP2 SWAP1 SWAP2 OR SWAP1 SSTORE PUSH1 0xC0 DUP4 ADD MLOAD SWAP1 SWAP2 PUSH2 0x1A77 SWAP2 PUSH1 0x5 DUP5 ADD SWAP2 PUSH2 0x1F67 JUMP JUMPDEST POP PUSH1 0xE0 DUP3 ADD MLOAD PUSH1 0x7 DUP3 ADD SSTORE PUSH2 0x100 DUP3 ADD MLOAD PUSH1 0x8 DUP3 ADD SSTORE PUSH2 0x120 SWAP1 SWAP2 ADD MLOAD PUSH1 0x9 SWAP1 SWAP2 ADD SSTORE PUSH1 0x1 DUP1 SLOAD DUP1 DUP3 ADD DUP3 SSTORE PUSH0 SWAP2 SWAP1 SWAP2 MSTORE PUSH32 0xB10E2D527612073B26EECDFD717E6A320CF44B4AFAC2B0732D9FCBE2B7FA0CF6 ADD DUP1 SLOAD PUSH1 0x1 PUSH1 0x1 PUSH1 0xA0 SHL SUB NOT AND CALLER SWAP1 DUP2 OR SWAP1 SWAP2 SSTORE PUSH1 0x40 MLOAD PUSH32 0xE75FE97747697DE0C291A8F98FE6F88EBAE98BEB554B27AFCA750B04EB07E9EF SWAP1 PUSH2 0x1B17 SWAP1 PUSH8 0x6F05B59D3B20000 SWAP1 DUP7 SWAP1 PUSH2 0x2314 JUMP JUMPDEST PUSH1 0x40 MLOAD DUP1 SWAP2 SUB SWAP1 LOG2 PUSH1 0x40 MLOAD CALLVALUE DUP2 MSTORE CALLER SWAP1 PUSH32 0xA7BB2E28CC4698AAC06DB79CF9163BFCC20719286CF59FA7D492CEDA1B8EDC2 SWAP1 PUSH1 0x20 ADD PUSH2 0x1375 JUMP JUMPDEST CALLER PUSH0 SWAP1 DUP2 MSTORE PUSH1 0x20 DUP2 SWAP1 MSTORE PUSH1 0x40 SWAP1 KECCAK256 PUSH1 0x4 DUP2 ADD SLOAD PUSH1 0xFF AND PUSH2 0x1BA4 JUMPI PUSH1 0x40 MLOAD PUSH3 0x461BCD PUSH1 0xE5 SHL DUP2 MSTORE PUSH1 0x20 PUSH1 0x4 DUP3 ADD MSTORE PUSH1 0xE PUSH1 0x24 DUP3 ADD MSTORE PUSH14 0x139BDD081C9959DA5CDD195C9959 PUSH1 0x92 SHL PUSH1 0x44 DUP3 ADD MSTORE PUSH1 0x64 ADD PUSH2 0x860 JUMP JUMPDEST PUSH1 0x4 DUP2 ADD SLOAD PUSH2 0x100 SWAP1 DIV PUSH1 0xFF AND ISZERO PUSH2 0x1BF3 JUMPI PUSH1 0x40 MLOAD PUSH3 0x461BCD PUSH1 0xE5 SHL DUP2 MSTORE PUSH1 0x20 PUSH1 0x4 DUP3 ADD MSTORE PUSH1 0x12 PUSH1 0x24 DUP3 ADD MSTORE PUSH18 0x29BA34B6361034B710383937B130BA34B7B7 PUSH1 0x71 SHL PUSH1 0x44 DUP3 ADD MSTORE PUSH1 0x64 ADD PUSH2 0x860 JUMP JUMPDEST PUSH0 DUP2 PUSH1 0x7 ADD SLOAD GT PUSH2 0x1C3D JUMPI PUSH1 0x40 MLOAD PUSH3 0x461BCD PUSH1 0xE5 SHL DUP2 MSTORE PUSH1 0x20 PUSH1 0x4 DUP3 ADD MSTORE PUSH1 0x14 PUSH1 0x24 DUP3 ADD MSTORE PUSH20 0x4E6F207374616B6520746F207769746864726177 PUSH1 0x60 SHL PUSH1 0x44 DUP3 ADD MSTORE PUSH1 0x64 ADD PUSH2 0x860 JUMP JUMPDEST PUSH1 0x7 DUP2 ADD DUP1 SLOAD PUSH0 SWAP2 DUP3 SWAP1 SSTORE PUSH1 0x40 MLOAD SWAP1 SWAP2 SWAP1 CALLER SWAP1 DUP4 SWAP1 DUP4 DUP2 DUP2 DUP2 DUP6 DUP8 GAS CALL SWAP3 POP POP POP RETURNDATASIZE DUP1 PUSH0 DUP2 EQ PUSH2 0x1C88 JUMPI PUSH1 0x40 MLOAD SWAP2 POP PUSH1 0x1F NOT PUSH1 0x3F RETURNDATASIZE ADD AND DUP3 ADD PUSH1 0x40 MSTORE RETURNDATASIZE DUP3 MSTORE RETURNDATASIZE PUSH0 PUSH1 0x20 DUP5 ADD RETURNDATACOPY PUSH2 0x1C8D JUMP JUMPDEST PUSH1 0x60 SWAP2 POP JUMPDEST POP POP SWAP1 POP DUP1 PUSH2 0xC1E JUMPI PUSH1 0x40 MLOAD PUSH3 0x461BCD PUSH1 0xE5 SHL DUP2 MSTORE PUSH1 0x20 PUSH1 0x4 DUP3 ADD MSTORE PUSH1 0xF PUSH1 0x24 DUP3 ADD MSTORE PUSH15 0x151C985B9CD9995C8819985A5B1959 PUSH1 0x8A SHL PUSH1 0x44 DUP3 ADD MSTORE PUSH1 0x64 ADD PUSH2 0x860 JUMP JUMPDEST PUSH1 0x40 MLOAD DUP1 PUSH2 0x140 ADD PUSH1 0x40 MSTORE DUP1 PUSH8 0x6F05B59D3B20000 PUSH1 0x2 PUSH2 0x1CF1 SWAP2 SWAP1 PUSH2 0x2263 JUMP JUMPDEST DUP2 MSTORE PUSH1 0x20 ADD PUSH2 0x1D09 PUSH8 0x6F05B59D3B20000 PUSH1 0x2 PUSH2 0x2263 JUMP JUMPDEST DUP2 MSTORE PUSH1 0x1 PUSH1 0x20 DUP1 DUP4 ADD DUP3 SWAP1 MSTORE PUSH1 0x40 DUP1 DUP5 ADD DUP4 SWAP1 MSTORE PUSH1 0x60 DUP1 DUP6 ADD DUP5 SWAP1 MSTORE PUSH0 PUSH1 0x80 DUP1 DUP8 ADD DUP3 SWAP1 MSTORE DUP4 MLOAD DUP1 DUP6 ADD DUP6 MSTORE DUP3 DUP2 MSTORE DUP1 DUP7 ADD DUP4 SWAP1 MSTORE PUSH1 0xA0 DUP1 DUP10 ADD SWAP2 SWAP1 SWAP2 MSTORE PUSH1 0xC0 DUP1 DUP10 ADD DUP5 SWAP1 MSTORE PUSH1 0xE0 DUP10 ADD DUP5 SWAP1 MSTORE PUSH2 0x100 SWAP9 DUP10 ADD DUP5 SWAP1 MSTORE PUSH1 0x1 PUSH1 0x1 PUSH1 0xA0 SHL SUB DUP12 AND DUP5 MSTORE DUP4 DUP8 MSTORE SWAP3 DUP6 SWAP1 KECCAK256 DUP10 MLOAD DUP2 SSTORE SWAP6 DUP10 ADD MLOAD SWAP7 DUP7 ADD SWAP7 SWAP1 SWAP7 SSTORE SWAP3 DUP8 ADD MLOAD PUSH1 0x2 DUP1 DUP7 ADD SWAP2 SWAP1 SWAP2 SSTORE SWAP2 DUP8 ADD MLOAD PUSH1 0x3 DUP6 ADD SSTORE SWAP2 DUP7 ADD MLOAD PUSH1 0x4 DUP5 ADD DUP1 SLOAD SWAP6 DUP9 ADD MLOAD PUSH2 0xFFFF NOT SWAP1 SWAP7 AND SWAP2 ISZERO ISZERO PUSH2 0xFF00 NOT AND SWAP2 SWAP1 SWAP2 OR SWAP5 ISZERO ISZERO SWAP1 SWAP6 MUL SWAP4 SWAP1 SWAP4 OR SWAP1 SWAP4 SSTORE SWAP2 DUP4 ADD MLOAD PUSH2 0x1DD8 SWAP2 PUSH1 0x5 DUP5 ADD SWAP2 SWAP1 PUSH2 0x1F67 JUMP JUMPDEST POP PUSH1 0xE0 DUP3 ADD MLOAD PUSH1 0x7 DUP3 ADD SSTORE PUSH2 0x100 DUP3 ADD MLOAD PUSH1 0x8 DUP3 ADD SSTORE PUSH2 0x120 SWAP1 SWAP2 ADD MLOAD PUSH1 0x9 SWAP1 SWAP2 ADD SSTORE PUSH1 0x1 DUP1 SLOAD DUP1 DUP3 ADD DUP3 SSTORE PUSH0 SWAP2 SWAP1 SWAP2 MSTORE PUSH32 0xB10E2D527612073B26EECDFD717E6A320CF44B4AFAC2B0732D9FCBE2B7FA0CF6 ADD DUP1 SLOAD PUSH1 0x1 PUSH1 0x1 PUSH1 0xA0 SHL SUB NOT AND PUSH1 0x1 PUSH1 0x1 PUSH1 0xA0 SHL SUB SWAP3 SWAP1 SWAP3 AND SWAP2 SWAP1 SWAP2 OR SWAP1 SSTORE JUMP JUMPDEST PUSH0 DUP1 DUP3 PUSH1 0x40 MLOAD PUSH1 0x20 ADD PUSH2 0x1E60 SWAP2 DUP2 MSTORE PUSH1 0x20 ADD SWAP1 JUMP JUMPDEST PUSH1 0x40 MLOAD PUSH1 0x20 DUP2 DUP4 SUB SUB DUP2 MSTORE SWAP1 PUSH1 0x40 MSTORE SWAP1 POP PUSH0 JUMPDEST PUSH1 0x20 DUP2 LT DUP1 ISZERO PUSH2 0x1E84 JUMPI POP PUSH2 0x100 DUP4 LT JUMPDEST ISZERO PUSH2 0x1F60 JUMPI PUSH0 DUP3 DUP3 DUP2 MLOAD DUP2 LT PUSH2 0x1E9C JUMPI PUSH2 0x1E9C PUSH2 0x223B JUMP JUMPDEST ADD PUSH1 0x20 ADD MLOAD PUSH1 0xF8 SHR SWAP1 POP PUSH0 DUP2 SWAP1 SUB PUSH2 0x1EC0 JUMPI PUSH2 0x1EB9 PUSH1 0x8 DUP6 PUSH2 0x229F JUMP JUMPDEST SWAP4 POP PUSH2 0x1F4D JUMP JUMPDEST PUSH1 0x80 DUP2 AND PUSH0 SUB PUSH2 0x1ED8 JUMPI DUP4 PUSH2 0x1ED4 DUP2 PUSH2 0x22B2 JUMP JUMPDEST SWAP5 POP POP JUMPDEST PUSH1 0x40 DUP2 AND ISZERO DUP1 ISZERO PUSH2 0x1EEA JUMPI POP PUSH1 0x80 DUP2 AND ISZERO JUMPDEST ISZERO PUSH2 0x1EFD JUMPI DUP4 PUSH2 0x1EF9 DUP2 PUSH2 0x22B2 JUMP JUMPDEST SWAP5 POP POP JUMPDEST PUSH1 0x20 DUP2 AND ISZERO DUP1 ISZERO PUSH2 0x1F0F JUMPI POP PUSH1 0xC0 DUP2 AND ISZERO JUMPDEST ISZERO PUSH2 0x1F22 JUMPI DUP4 PUSH2 0x1F1E DUP2 PUSH2 0x22B2 JUMP JUMPDEST SWAP5 POP POP JUMPDEST PUSH1 0x10 DUP2 AND ISZERO DUP1 ISZERO PUSH2 0x1F34 JUMPI POP PUSH1 0xE0 DUP2 AND ISZERO JUMPDEST ISZERO PUSH2 0x1F47 JUMPI DUP4 PUSH2 0x1F43 DUP2 PUSH2 0x22B2 JUMP JUMPDEST SWAP5 POP POP JUMPDEST POP PUSH2 0x1F60 JUMP JUMPDEST POP DUP1 PUSH2 0x1F58 DUP2 PUSH2 0x22B2 JUMP JUMPDEST SWAP2 POP POP PUSH2 0x1E73 JUMP JUMPDEST POP POP SWAP2 SWAP1 POP JUMP JUMPDEST DUP3 PUSH1 0x2 DUP2 ADD SWAP3 DUP3 ISZERO PUSH2 0x1FAF JUMPI SWAP2 PUSH1 0x20 MUL DUP3 ADD JUMPDEST DUP3 DUP2 GT ISZERO PUSH2 0x1FAF JUMPI DUP3 MLOAD DUP3 SLOAD PUSH1 0x1 PUSH1 0x1 PUSH1 0xA0 SHL SUB NOT AND PUSH1 0x1 PUSH1 0x1 PUSH1 0xA0 SHL SUB SWAP1 SWAP2 AND OR DUP3 SSTORE PUSH1 0x20 SWAP1 SWAP3 ADD SWAP2 PUSH1 0x1 SWAP1 SWAP2 ADD SWAP1 PUSH2 0x1F7A JUMP JUMPDEST POP PUSH2 0x811 SWAP3 SWAP2 POP JUMPDEST DUP1 DUP3 GT ISZERO PUSH2 0x811 JUMPI PUSH0 DUP2 SSTORE PUSH1 0x1 ADD PUSH2 0x1FB7 JUMP JUMPDEST PUSH0 PUSH1 0x20 DUP3 DUP5 SUB SLT ISZERO PUSH2 0x1FDA JUMPI PUSH0 DUP1 REVERT JUMPDEST POP CALLDATALOAD SWAP2 SWAP1 POP JUMP JUMPDEST PUSH0 DUP2 MLOAD DUP1 DUP5 MSTORE PUSH1 0x20 DUP1 DUP6 ADD SWAP5 POP PUSH1 0x20 DUP5 ADD PUSH0 JUMPDEST DUP4 DUP2 LT ISZERO PUSH2 0x2019 JUMPI DUP2 MLOAD PUSH1 0x1 PUSH1 0x1 PUSH1 0xA0 SHL SUB AND DUP8 MSTORE SWAP6 DUP3 ADD SWAP6 SWAP1 DUP3 ADD SWAP1 PUSH1 0x1 ADD PUSH2 0x1FF4 JUMP JUMPDEST POP SWAP5 SWAP6 SWAP5 POP POP POP POP POP JUMP JUMPDEST PUSH1 0x20 DUP2 MSTORE PUSH0 PUSH2 0x13B7 PUSH1 0x20 DUP4 ADD DUP5 PUSH2 0x1FE1 JUMP JUMPDEST PUSH0 DUP2 MLOAD DUP1 DUP5 MSTORE PUSH1 0x20 DUP1 DUP6 ADD SWAP5 POP PUSH1 0x20 DUP5 ADD PUSH0 JUMPDEST DUP4 DUP2 LT ISZERO PUSH2 0x2019 JUMPI DUP2 MLOAD DUP8 MSTORE SWAP6 DUP3 ADD SWAP6 SWAP1 DUP3 ADD SWAP1 PUSH1 0x1 ADD PUSH2 0x2049 JUMP JUMPDEST PUSH1 0x60 DUP2 MSTORE PUSH0 PUSH2 0x2077 PUSH1 0x60 DUP4 ADD DUP7 PUSH2 0x1FE1 JUMP JUMPDEST DUP3 DUP2 SUB PUSH1 0x20 DUP5 ADD MSTORE PUSH2 0x2089 DUP2 DUP7 PUSH2 0x2036 JUMP JUMPDEST SWAP1 POP DUP3 DUP2 SUB PUSH1 0x40 DUP5 ADD MSTORE PUSH2 0x209D DUP2 DUP6 PUSH2 0x2036 JUMP JUMPDEST SWAP7 SWAP6 POP POP POP POP POP POP JUMP JUMPDEST DUP1 CALLDATALOAD PUSH1 0x1 PUSH1 0x1 PUSH1 0xA0 SHL SUB DUP2 AND DUP2 EQ PUSH2 0x20BD JUMPI PUSH0 DUP1 REVERT JUMPDEST SWAP2 SWAP1 POP JUMP JUMPDEST PUSH0 PUSH1 0x20 DUP3 DUP5 SUB SLT ISZERO PUSH2 0x20D2 JUMPI PUSH0 DUP1 REVERT JUMPDEST PUSH2 0x13B7 DUP3 PUSH2 0x20A7 JUMP JUMPDEST PUSH0 DUP1 PUSH1 0x20 DUP4 DUP6 SUB SLT ISZERO PUSH2 0x20EC JUMPI PUSH0 DUP1 REVERT JUMPDEST DUP3 CALLDATALOAD PUSH8 0xFFFFFFFFFFFFFFFF DUP1 DUP3 GT ISZERO PUSH2 0x2103 JUMPI PUSH0 DUP1 REVERT JUMPDEST DUP2 DUP6 ADD SWAP2 POP DUP6 PUSH1 0x1F DUP4 ADD SLT PUSH2 0x2116 JUMPI PUSH0 DUP1 REVERT JUMPDEST DUP2 CALLDATALOAD DUP2 DUP2 GT ISZERO PUSH2 0x2124 JUMPI PUSH0 DUP1 REVERT JUMPDEST DUP7 PUSH1 0x20 DUP3 PUSH1 0x5 SHL DUP6 ADD ADD GT ISZERO PUSH2 0x2138 JUMPI PUSH0 DUP1 REVERT JUMPDEST PUSH1 0x20 SWAP3 SWAP1 SWAP3 ADD SWAP7 SWAP2 SWAP6 POP SWAP1 SWAP4 POP POP POP POP JUMP JUMPDEST DUP1 CALLDATALOAD DUP1 ISZERO ISZERO DUP2 EQ PUSH2 0x20BD JUMPI PUSH0 DUP1 REVERT JUMPDEST PUSH0 DUP1 PUSH0 PUSH1 0x60 DUP5 DUP7 SUB SLT ISZERO PUSH2 0x216B JUMPI PUSH0 DUP1 REVERT JUMPDEST PUSH2 0x2174 DUP5 PUSH2 0x20A7 JUMP JUMPDEST SWAP3 POP PUSH2 0x2182 PUSH1 0x20 DUP6 ADD PUSH2 0x214A JUMP JUMPDEST SWAP2 POP PUSH2 0x2190 PUSH1 0x40 DUP6 ADD PUSH2 0x214A JUMP JUMPDEST SWAP1 POP SWAP3 POP SWAP3 POP SWAP3 JUMP JUMPDEST PUSH0 DUP1 PUSH1 0x40 DUP4 DUP6 SUB SLT ISZERO PUSH2 0x21AA JUMPI PUSH0 DUP1 REVERT JUMPDEST PUSH2 0x21B3 DUP4 PUSH2 0x20A7 JUMP JUMPDEST SWAP2 POP PUSH2 0x21C1 PUSH1 0x20 DUP5 ADD PUSH2 0x214A JUMP JUMPDEST SWAP1 POP SWAP3 POP SWAP3 SWAP1 POP JUMP JUMPDEST PUSH0 DUP1 PUSH1 0x40 DUP4 DUP6 SUB SLT ISZERO PUSH2 0x21DB JUMPI PUSH0 DUP1 REVERT JUMPDEST DUP3 CALLDATALOAD SWAP2 POP PUSH2 0x21C1 PUSH1 0x20 DUP5 ADD PUSH2 0x214A JUMP JUMPDEST PUSH0 DUP1 PUSH1 0x40 DUP4 DUP6 SUB SLT ISZERO PUSH2 0x21FC JUMPI PUSH0 DUP1 REVERT JUMPDEST POP POP DUP1 CALLDATALOAD SWAP3 PUSH1 0x20 SWAP1 SWAP2 ADD CALLDATALOAD SWAP2 POP JUMP JUMPDEST PUSH0 DUP1 PUSH1 0x60 DUP4 DUP6 SUB SLT ISZERO PUSH2 0x221C JUMPI PUSH0 DUP1 REVERT JUMPDEST DUP3 CALLDATALOAD SWAP2 POP DUP4 PUSH1 0x60 DUP5 ADD GT ISZERO PUSH2 0x222F JUMPI PUSH0 DUP1 REVERT JUMPDEST POP SWAP3 PUSH1 0x20 SWAP2 SWAP1 SWAP2 ADD SWAP2 POP JUMP JUMPDEST PUSH4 0x4E487B71 PUSH1 0xE0 SHL PUSH0 MSTORE PUSH1 0x32 PUSH1 0x4 MSTORE PUSH1 0x24 PUSH0 REVERT JUMPDEST PUSH4 0x4E487B71 PUSH1 0xE0 SHL PUSH0 MSTORE PUSH1 0x11 PUSH1 0x4 MSTORE PUSH1 0x24 PUSH0 REVERT JUMPDEST DUP1 DUP3 MUL DUP2 ISZERO DUP3 DUP3 DIV DUP5 EQ OR PUSH2 0x227A JUMPI PUSH2 0x227A PUSH2 0x224F JUMP JUMPDEST SWAP3 SWAP2 POP POP JUMP JUMPDEST PUSH0 DUP3 PUSH2 0x229A JUMPI PUSH4 0x4E487B71 PUSH1 0xE0 SHL PUSH0 MSTORE PUSH1 0x12 PUSH1 0x4 MSTORE PUSH1 0x24 PUSH0 REVERT JUMPDEST POP DIV SWAP1 JUMP JUMPDEST DUP1 DUP3 ADD DUP1 DUP3 GT ISZERO PUSH2 0x227A JUMPI PUSH2 0x227A PUSH2 0x224F JUMP JUMPDEST PUSH0 PUSH1 0x1 DUP3 ADD PUSH2 0x22C3 JUMPI PUSH2 0x22C3 PUSH2 0x224F JUMP JUMPDEST POP PUSH1 0x1 ADD SWAP1 JUMP JUMPDEST PUSH4 0x4E487B71 PUSH1 0xE0 SHL PUSH0 MSTORE PUSH1 0x41 PUSH1 0x4 MSTORE PUSH1 0x24 PUSH0 REVERT JUMPDEST PUSH1 0x20 DUP1 DUP3 MSTORE PUSH1 0x9 SWAP1 DUP3 ADD MSTORE PUSH9 0x2737BA1037BBB732B9 PUSH1 0xB9 SHL PUSH1 0x40 DUP3 ADD MSTORE PUSH1 0x60 ADD SWAP1 JUMP JUMPDEST DUP2 DUP2 SUB DUP2 DUP2 GT ISZERO PUSH2 0x227A JUMPI PUSH2 0x227A PUSH2 0x224F JUMP JUMPDEST DUP3 DUP2 MSTORE PUSH1 0x60 DUP2 ADD PUSH1 0x20 DUP1 DUP4 ADD DUP5 PUSH0 JUMPDEST PUSH1 0x2 DUP2 LT ISZERO PUSH2 0x2350 JUMPI PUSH1 0x1 PUSH1 0x1 PUSH1 0xA0 SHL SUB PUSH2 0x233D DUP4 PUSH2 0x20A7 JUMP JUMPDEST AND DUP4 MSTORE SWAP2 DUP4 ADD SWAP2 SWAP1 DUP4 ADD SWAP1 PUSH1 0x1 ADD PUSH2 0x2323 JUMP JUMPDEST POP POP POP POP SWAP4 SWAP3 POP POP POP JUMP INVALID LOG2 PUSH5 0x6970667358 0x22 SLT KECCAK256 0x28 DUP2 PUSH0 0xBA SIGNEXTEND 0xA5 0xCE PUSH15 0x54F7F32FA351B2884948915A63F6D0 GT DUP12 PUSH30 0x6FF9BB7064FE64736F6C6343000818003300000000000000000000000000 "},"methodIdentifiers":{"ADAPTIVE_BETA()":"b28a7adb","APPEAL_WINDOW()":"f269a21e","CONSECUTIVE_FAIL_THRESHOLD()":"d6e48d88","EMA_DECAY()":"b62a75f2","ENDORSERS_NEEDED()":"e9214d5b","MIN_STAKE()":"cb1c2b5c","POW_DIFFICULTY()":"0290faea","PRECISION()":"aaf5eb68","PROBATION_ROUNDS()":"9ed5d5c9","R_ENDORSE_MIN()":"46d4c0b6","R_INITIAL()":"ec5701fc","R_MAX()":"152bea50","R_MIN()":"9fb6a87d","SLASH_MULTIPLIER()":"55f1a57c","SLASH_PERCENT()":"f6e8913d","W_CONS()":"e7af3ad9","W_HIST()":"87108e87","W_LIVE()":"fe9e053d","advanceRound()":"1ba9998b","appealIds(uint256)":"5a5f5b22","appeals(bytes32)":"28cdc028","authorizeUpdater(address)":"9cbe6097","authorizedUpdaters(address)":"8ff29cfe","bootstrapRegister(address[])":"6113bfdd","committerList(uint256)":"22491525","committers(address)":"5f4fea26","currentRound()":"8a19c8bc","fileAppeal(uint256,bytes32)":"b7929acc","getAllCommitters()":"2c9190ab","getQuadraticWeight(address)":"b4a89247","getReputation(address)":"9c89a0e2","getReputationSnapshot()":"3565e812","getTotalQuadraticWeight()":"1336a899","isCommitterRegistered(address)":"768056c8","owner()":"8da5cb5b","registerCommitter(uint256,address[2])":"b97004d8","resolveAppeal(bytes32,bool)":"a75756bb","setAuthorizedUpdater(address,bool)":"99fc65d4","totalSlashedPool()":"854b2257","updateReputation(address,bool,bool)":"8d56276d","withdrawStake()":"bed9d861"}}}}}