{"project/contracts/audit_chain/AuditContractV2.sol":{"AuditContractV2":{"abi":[{"inputs":[{"internalType":"address","name":"_reputationRegistry","type":"address"},{"internalType":"address","name":"_clusterManager","type":"address"}],"stateMutability":"nonpayable","type":"constructor"},{"anonymous":false,"inputs":[{"indexed":true,"internalType":"uint256","name":"chainId","type":"uint256"},{"indexed":false,"internalType":"bytes32","name":"initialRoot","type":"bytes32"}],"name":"ChainRegistered","type":"event"},{"anonymous":false,"inputs":[{"indexed":true,"internalType":"bytes32","name":"clusterCommitId","type":"bytes32"},{"indexed":true,"internalType":"uint256","name":"clusterId","type":"uint256"},{"indexed":false,"internalType":"uint256","name":"chainsCount","type":"uint256"}],"name":"ClusterCommitAccepted","type":"event"},{"anonymous":false,"inputs":[{"indexed":true,"internalType":"bytes32","name":"commitId","type":"bytes32"},{"indexed":true,"internalType":"address","name":"committer","type":"address"},{"indexed":true,"internalType":"uint256","name":"chainId","type":"uint256"},{"indexed":false,"internalType":"bytes32","name":"oldRoot","type":"bytes32"},{"indexed":false,"internalType":"bytes32","name":"newRoot","type":"bytes32"},{"indexed":false,"internalType":"uint256","name":"reputationSnapshot","type":"uint256"}],"name":"CommitSubmitted","type":"event"},{"anonymous":false,"inputs":[{"indexed":true,"internalType":"bytes32","name":"commitId","type":"bytes32"},{"indexed":true,"internalType":"address","name":"committer","type":"address"},{"indexed":false,"internalType":"uint256","name":"reward","type":"uint256"}],"name":"CommitVerified","type":"event"},{"anonymous":false,"inputs":[{"indexed":true,"internalType":"address","name":"committer","type":"address"},{"indexed":false,"internalType":"uint256","name":"amount","type":"uint256"}],"name":"CommitterStaked","type":"event"},{"anonymous":false,"inputs":[{"indexed":true,"internalType":"bytes32","name":"groupId","type":"bytes32"},{"indexed":false,"internalType":"bytes32","name":"acceptedRoot","type":"bytes32"},{"indexed":false,"internalType":"uint256","name":"totalWeight","type":"uint256"},{"indexed":false,"internalType":"uint256","name":"acceptedWeight","type":"uint256"}],"name":"WeightedAuditAccepted","type":"event"},{"stateMutability":"payable","type":"fallback"},{"inputs":[],"name":"MIN_STAKE","outputs":[{"internalType":"uint256","name":"","type":"uint256"}],"stateMutability":"view","type":"function"},{"inputs":[{"internalType":"bytes32","name":"clusterCommitId","type":"bytes32"},{"internalType":"uint256[]","name":"chainIds","type":"uint256[]"},{"internalType":"bytes32[]","name":"newRoots","type":"bytes32[]"}],"name":"acceptClusterCommit","outputs":[],"stateMutability":"nonpayable","type":"function"},{"inputs":[{"internalType":"address","name":"auditor","type":"address"}],"name":"addAuditor","outputs":[],"stateMutability":"nonpayable","type":"function"},{"inputs":[],"name":"auditorCount","outputs":[{"internalType":"uint256","name":"","type":"uint256"}],"stateMutability":"view","type":"function"},{"inputs":[{"internalType":"address","name":"","type":"address"}],"name":"auditors","outputs":[{"internalType":"bool","name":"","type":"bool"}],"stateMutability":"view","type":"function"},{"inputs":[{"internalType":"uint256","name":"","type":"uint256"}],"name":"chainList","outputs":[{"internalType":"uint256","name":"","type":"uint256"}],"stateMutability":"view","type":"function"},{"inputs":[{"internalType":"uint256","name":"","type":"uint256"}],"name":"chains","outputs":[{"internalType":"uint256","name":"chainId","type":"uint256"},{"internalType":"bytes32","name":"latestStateRoot","type":"bytes32"},{"internalType":"uint256","name":"lastUpdateBlock","type":"uint256"},{"internalType":"uint256","name":"totalCommits","type":"uint256"},{"internalType":"bool","name":"isActive","type":"bool"}],"stateMutability":"view","type":"function"},{"inputs":[],"name":"clusterManager","outputs":[{"internalType":"contract ClusterManager","name":"","type":"address"}],"stateMutability":"view","type":"function"},{"inputs":[{"internalType":"bytes32","name":"","type":"bytes32"},{"internalType":"uint256","name":"","type":"uint256"}],"name":"commitGroups","outputs":[{"internalType":"address","name":"committer","type":"address"},{"internalType":"bytes32","name":"submittedRoot","type":"bytes32"},{"internalType":"uint256","name":"weight","type":"uint256"}],"stateMutability":"view","type":"function"},{"inputs":[{"internalType":"uint256","name":"","type":"uint256"}],"name":"commitIds","outputs":[{"internalType":"bytes32","name":"","type":"bytes32"}],"stateMutability":"view","type":"function"},{"inputs":[{"internalType":"bytes32","name":"","type":"bytes32"}],"name":"commits","outputs":[{"internalType":"address","name":"committer","type":"address"},{"internalType":"uint256","name":"chainId","type":"uint256"},{"internalType":"uint256","name":"clusterId","type":"uint256"},{"internalType":"bytes32","name":"oldStateRoot","type":"bytes32"},{"internalType":"bytes32","name":"newStateRoot","type":"bytes32"},{"internalType":"uint256","name":"timestamp","type":"uint256"},{"internalType":"bool","name":"isVerified","type":"bool"},{"internalType":"uint256","name":"reputationAtSubmit","type":"uint256"}],"stateMutability":"view","type":"function"},{"inputs":[{"internalType":"address","name":"","type":"address"}],"name":"committerStakes","outputs":[{"internalType":"uint256","name":"","type":"uint256"}],"stateMutability":"view","type":"function"},{"inputs":[],"name":"enableMockVerifier","outputs":[],"stateMutability":"nonpayable","type":"function"},{"inputs":[{"internalType":"uint256","name":"chainId","type":"uint256"}],"name":"getChainRoot","outputs":[{"internalType":"bytes32","name":"","type":"bytes32"}],"stateMutability":"view","type":"function"},{"inputs":[],"name":"getCommitCount","outputs":[{"internalType":"uint256","name":"","type":"uint256"}],"stateMutability":"view","type":"function"},{"inputs":[{"internalType":"bytes32","name":"groupId","type":"bytes32"}],"name":"getGroupSize","outputs":[{"internalType":"uint256","name":"","type":"uint256"}],"stateMutability":"view","type":"function"},{"inputs":[],"name":"owner","outputs":[{"internalType":"address","name":"","type":"address"}],"stateMutability":"view","type":"function"},{"inputs":[{"internalType":"uint256","name":"chainId","type":"uint256"},{"internalType":"bytes32","name":"initialRoot","type":"bytes32"}],"name":"registerChain","outputs":[],"stateMutability":"nonpayable","type":"function"},{"inputs":[],"name":"reputationRegistry","outputs":[{"internalType":"contract ReputationRegistry","name":"","type":"address"}],"stateMutability":"view","type":"function"},{"inputs":[],"name":"rewardPerCommit","outputs":[{"internalType":"uint256","name":"","type":"uint256"}],"stateMutability":"view","type":"function"},{"inputs":[{"internalType":"uint256[2]","name":"alpha","type":"uint256[2]"},{"internalType":"uint256[2][2]","name":"beta","type":"uint256[2][2]"},{"internalType":"uint256[2][2]","name":"gamma","type":"uint256[2][2]"},{"internalType":"uint256[2][2]","name":"delta","type":"uint256[2][2]"},{"internalType":"uint256[][]","name":"ic","type":"uint256[][]"}],"name":"setVerifyingKey","outputs":[],"stateMutability":"nonpayable","type":"function"},{"inputs":[],"name":"stake","outputs":[],"stateMutability":"payable","type":"function"},{"inputs":[{"internalType":"uint256","name":"chainId","type":"uint256"},{"internalType":"bytes32","name":"oldRoot","type":"bytes32"},{"internalType":"bytes32","name":"newRoot","type":"bytes32"},{"internalType":"uint256","name":"blockStart","type":"uint256"},{"internalType":"uint256","name":"blockEnd","type":"uint256"}],"name":"submitCommit","outputs":[{"internalType":"bytes32","name":"commitId","type":"bytes32"}],"stateMutability":"nonpayable","type":"function"},{"inputs":[],"name":"useMockVerifier","outputs":[{"internalType":"bool","name":"","type":"bool"}],"stateMutability":"view","type":"function"},{"inputs":[{"internalType":"bytes32","name":"commitId","type":"bytes32"},{"internalType":"uint256[2]","name":"proofA","type":"uint256[2]"},{"internalType":"uint256[2][2]","name":"proofB","type":"uint256[2][2]"},{"internalType":"uint256[2]","name":"proofC","type":"uint256[2]"}],"name":"verifyCommit","outputs":[],"stateMutability":"nonpayable","type":"function"},{"inputs":[{"internalType":"bytes32","name":"groupId","type":"bytes32"},{"internalType":"uint256","name":"chainId","type":"uint256"},{"internalType":"uint256[2]","name":"proofA","type":"uint256[2]"},{"internalType":"uint256[2][2]","name":"proofB","type":"uint256[2][2]"},{"internalType":"uint256[2]","name":"proofC","type":"uint256[2]"}],"name":"weightedAuditAccept","outputs":[],"stateMutability":"nonpayable","type":"function"},{"stateMutability":"payable","type":"receive"}],"evm":{"bytecode":{"linkReferences":{},"object":"60c0604052600f805460ff1916905566038d7ea4c6800060155534801562000025575f80fd5b5060405162003530380380620035308339810160408190526200004891620000af565b601980546001600160a01b031916339081179091555f908152601760205260409020805460ff191660019081179091556018556001600160a01b039182166080521660a052620000e5565b80516001600160a01b0381168114620000aa575f80fd5b919050565b5f8060408385031215620000c1575f80fd5b620000cc8362000093565b9150620000dc6020840162000093565b90509250929050565b60805160a0516133ea620001465f395f8181610209015281816118e901528181611a2601528181611d12015261204801525f818161054401528181610b07015281816116f201528181611e5501528181611f290152611fbc01526133ea5ff3fe608060405260043610610172575f3560e01c806367ca7391116100c7578063c655d19711610083578063dd50919811610060578063dd50919814610581578063e429cef1146105a0578063f1bed7e0146105bf578063f1f021cb146105d357005b8063c655d19714610514578063c8db44e314610533578063cb1c2b5c1461056657005b806367ca73911461045e5780636c5611671461048957806370d487981461049e57806375c18eab146104bd5780638da5cb5b146104d65780638e16f159146104f557005b8063478857811161012e57806351d589691161010b57806351d5896914610397578063533b6788146103b6578063550325b5146103ca57806358f0b7801461043f57005b8063478857811461026257806347f9aa9f1461031557806349c932b11461035357005b806306222e861461017b578063115f574c1461019a5780631e4fba05146101c25780633a4b66f1146101f05780633d3a910e146101f857806342e3d4a21461024357005b3661017957005b005b348015610186575f80fd5b50610179610195366004612e67565b6105fe565b3480156101a5575f80fd5b506101af60185481565b6040519081526020015b60405180910390f35b3480156101cd575f80fd5b506101af6101dc366004612eb5565b5f9081526010602052604090206001015490565b610179610bf2565b348015610203575f80fd5b5061022b7f000000000000000000000000000000000000000000000000000000000000000081565b6040516001600160a01b0390911681526020016101b9565b34801561024e575f80fd5b5061017961025d366004612f14565b610c99565b34801561026d575f80fd5b506102ce61027c366004612eb5565b60126020525f9081526040902080546001820154600283015460038401546004850154600586015460068701546007909701546001600160a01b03909616969495939492939192909160ff9091169088565b604080516001600160a01b0390991689526020890197909752958701949094526060860192909252608085015260a0840152151560c083015260e0820152610100016101b9565b348015610320575f80fd5b5061034361032f366004612fb0565b60176020525f908152604090205460ff1681565b60405190151581526020016101b9565b34801561035e575f80fd5b5061037261036d366004612fd2565b610f3c565b604080516001600160a01b0390941684526020840192909252908201526060016101b9565b3480156103a2575f80fd5b506101796103b1366004612fd2565b610f84565b3480156103c1575f80fd5b506101796110d1565b3480156103d5575f80fd5b506104156103e4366004612eb5565b60106020525f9081526040902080546001820154600283015460038401546004909401549293919290919060ff1685565b6040805195865260208601949094529284019190915260608301521515608082015260a0016101b9565b34801561044a575f80fd5b50610179610459366004612ff2565b61110a565b348015610469575f80fd5b506101af610478366004612eb5565b5f9081526014602052604090205490565b348015610494575f80fd5b506101af60155481565b3480156104a9575f80fd5b506101af6104b8366004612eb5565b611802565b3480156104c8575f80fd5b50600f546103439060ff1681565b3480156104e1575f80fd5b5060195461022b906001600160a01b031681565b348015610500575f80fd5b506101af61050f366004612eb5565b611821565b34801561051f575f80fd5b5061017961052e36600461304a565b611830565b34801561053e575f80fd5b5061022b7f000000000000000000000000000000000000000000000000000000000000000081565b348015610571575f80fd5b506101af670de0b6b3a764000081565b34801561058c575f80fd5b506101af61059b3660046130be565b611db5565b3480156105ab575f80fd5b506101796105ba366004612fb0565b6122f0565b3480156105ca575f80fd5b506013546101af565b3480156105de575f80fd5b506101af6105ed366004612fb0565b60166020525f908152604090205481565b335f9081526017602052604090205460ff166106355760405162461bcd60e51b815260040161062c906130f5565b60405180910390fd5b5f848152601260205260409020600681015460ff161561068a5760405162461bcd60e51b815260206004820152601060248201526f105b1c9958591e481d995c9a599a595960821b604482015260640161062c565b60018101545f9081526010602052604090206004015460ff166106e25760405162461bcd60e51b815260206004820152601060248201526f436861696e206e6f742061637469766560801b604482015260640161062c565b6001808201545f908152601060205260409020015460038201541461073d5760405162461bcd60e51b815260206004820152601160248201527009ed8c840e4dedee840dad2e6dac2e8c6d607b1b604482015260640161062c565b6040805160a081018252853560608201908152602080880135608080850191909152918352835191820184525f939083019190819081810190899060029083908390808284375f920191909152505050815260408051808201825260209092019190808a019060029083908390808284375f92018290525092909352509183525060408051808201825287358152602080890135818301529384015280516002808252606082018352949550919391928301908036833701905050905082600301545f1c815f815181106108135761081361311a565b60200260200101818152505082600401545f1c816001815181106108395761083961311a565b6020908102919091010152600f5460ff1680610a5157506040805160e0810182525f805460a0830190815260015460c08401528252825160808101808552610a51946020850192916002918391908201908390819081845b81548152602001906001019080831161089157505050918352505060408051808201918290526020909201919060028481019182845b8154815260200190600101908083116108c7575050509190925250505081526040805160808101808352602090930192909160068501918391820190839060029082845b81548152602001906001019080831161090b57505050918352505060408051808201918290526020909201919060028481019182845b8154815260200190600101908083116109415750505091909252505050815260408051608081018083526020909301929091600a8501918391820190839060029082845b81548152602001906001019080831161098557505050918352505060408051808201918290526020909201919060028481019182845b8154815260200190600101908083116109bb575050505050815250508152602001600e8201805480602002602001604051908101604052809291908181526020015f905b82821015610a42578382905f5260205f2090600202016040518060400160405290815f8201548152602001600182015481525050815260200190600101906109ff565b50505050815250508383612372565b610a975760405162461bcd60e51b81526020600482015260176024820152761692d4081d995c9a599a58d85d1a5bdb8819985a5b1959604a1b604482015260640161062c565b60068301805460ff1916600190811790915560048085015482860180545f90815260106020526040808220860193909355905481528190204360029091015585549051638d56276d60e01b81526001600160a01b03918216928101929092526024820183905260448201929092527f000000000000000000000000000000000000000000000000000000000000000090911690638d56276d906064015f604051808303815f87803b158015610b4a575f80fd5b505af1158015610b5c573d5f803e3d5ffd5b505050506015544710610ba35782546015546040516001600160a01b039092169181156108fc0291905f818181858888f19350505050158015610ba1573d5f803e3d5ffd5b505b82546015546040519081526001600160a01b039091169088907f21e03427df8ec7c4583a19e42161339f975e9ea2570116bad55b2a55f3398a5a9060200160405180910390a350505050505050565b670de0b6b3a7640000341015610c3f5760405162461bcd60e51b8152602060048201526012602482015271496e73756666696369656e74207374616b6560701b604482015260640161062c565b335f9081526016602052604081208054349290610c5d908490613156565b909155505060405134815233907f0996b041421105b7431ca7b8a8372f29bda1e574c3614b1f91e4cdcf82e9502b9060200160405180910390a2565b6019546001600160a01b03163314610cc35760405162461bcd60e51b815260040161062c90613169565b60408051808201825287358082526020808a013592018290525f55600155805160808101825290819081810190889060029083908390808284375f9201919091525050508152604080518082018252602090920191908089019060029083908390808284375f92019190915250505090528051600290610d4590829081612d20565b506020820151610d5b9060028084019190612d20565b5050604080516080810182529150819081810190879060029083908390808284375f9201919091525050508152604080518082018252602090920191908088019060029083908390808284375f92019190915250505090528051600690610dc59082906002612d20565b506020820151610ddb9060028084019190612d20565b5050604080516080810182529150819081810190869060029083908390808284375f9201919091525050508152604080518082018252602090920191908087019060029083908390808284375f92019190915250505090528051600a90610e459082906002612d20565b506020820151610e5b9060028084019190612d20565b50610e6b9150600e90505f612d5e565b5f5b81811015610f33575f600e016040518060400160405280858585818110610e9657610e9661311a565b9050602002810190610ea8919061318c565b5f818110610eb857610eb861311a565b905060200201358152602001858585818110610ed657610ed661311a565b9050602002810190610ee8919061318c565b6001818110610ef957610ef961311a565b602090810292909201359092528354600181810186555f958652948290208451600290920201908155920151918301919091555001610e6d565b50505050505050565b6014602052815f5260405f208181548110610f55575f80fd5b5f9182526020909120600390910201805460018201546002909201546001600160a01b03909116935090915083565b6019546001600160a01b03163314610fae5760405162461bcd60e51b815260040161062c90613169565b5f8281526010602052604090206004015460ff16156110045760405162461bcd60e51b8152602060048201526012602482015271105b1c9958591e481c9959da5cdd195c995960721b604482015260640161062c565b6040805160a0810182528381526020808201848152438385019081525f606085018181526001608087018181528a845260108752888420975188559451878201559251600287015551600386015591516004909401805460ff19169415159490941790935560118054938401815590527f31ecc21a745e3968a04e9570e4425bc18fa8019c68028196b546d1669c200c68909101849055905182815283917f02c698cb2acce446d2f91f2b451c3776e20fd161c697ab5d1cf06c6b1dac1f2f910160405180910390a25050565b6019546001600160a01b031633146110fb5760405162461bcd60e51b815260040161062c90613169565b600f805460ff19166001179055565b335f9081526017602052604090205460ff166111385760405162461bcd60e51b815260040161062c906130f5565b5f8481526010602052604090206004015460ff166111685760405162461bcd60e51b815260040161062c906131d2565b5f85815260146020526040902080546111b85760405162461bcd60e51b81526020600482015260126024820152710456d70747920636f6d6d69742067726f75760741b604482015260640161062c565b5f805b82548110156111fb578281815481106111d6576111d661311a565b905f5260205f20906003020160020154826111f19190613156565b91506001016111bb565b505f811161123f5760405162461bcd60e51b815260206004820152601160248201527016995c9bc81d1bdd185b081dd95a59da1d607a1b604482015260640161062c565b5f80805b8454811015611317575f85828154811061125f5761125f61311a565b905f5260205f2090600302016001015490505f805b87548110156112dd57828882815481106112905761129061311a565b905f5260205f20906003020160010154036112d5578781815481106112b7576112b761311a565b905f5260205f20906003020160020154826112d29190613156565b91505b600101611274565b506112e9866002613200565b6112f4826003613200565b1015801561130157508381115b1561130d578194508093505b5050600101611243565b50816113655760405162461bcd60e51b815260206004820152601860248201527f4e6f20322f33207765696768746564206d616a6f726974790000000000000000604482015260640161062c565b6040805160a0810182528835606082019081526020808b0135608080850191909152918352835191820184525f9390830191908190818101908c9060029083908390808284375f920191909152505050815260408051808201825260209092019190808d019060029083908390808284375f9201829052509290935250918352506040805180820182528a3581526020808c013581830152938401528051600280825260608201835294955091939192830190803683375050505f8b8152601060205260408120600101548251929350918391906114455761144561311a565b602002602001018181525050835f1c816001815181106114675761146761311a565b6020908102919091010152600f5460ff168061165e57506040805160e0810182525f805460a0830190815260015460c084015282528251608081018085526002805495830195865261165e9560208601939283919083908190600360608601808311610891575050509183525050604080518082019182905260028481018054835260209485019492939092600387019085018083116108c7575050509190925250505081526040805160808101808352600685018054938301938452602090940193919283918390600290600789016060860180831161090b57505050918352505060408051808201918290526002848101805483526020948501949293909260038701908501808311610941575050509190925250505081526040805160808101808352600a85018054938301938452602090940193919283918390600290600b890160608601808311610985575050509183525050604080518082019182905260028481018054835260209485019492939092600387019085018083116109bb575050505050815250508152602001600e8201805480602002602001604051908101604052809291908181526020015f9082821015610a42578382905f5260205f2090600202016040518060400160405290815f8201548152602001600182015481525050815260200190600101906109ff565b6116a45760405162461bcd60e51b81526020600482015260176024820152761692d4081d995c9a599a58d85d1a5bdb8819985a5b1959604a1b604482015260640161062c565b5f8a815260106020526040812060018101869055436002909101555b86548110156117b1575f858883815481106116dd576116dd61311a565b905f5260205f209060030201600101541490507f00000000000000000000000000000000000000000000000000000000000000006001600160a01b0316638d56276d8984815481106117315761173161311a565b5f91825260209091206003909102015460405160e083901b6001600160e01b03191681526001600160a01b0390911660048201528315156024820152600160448201526064015f604051808303815f87803b15801561178e575f80fd5b505af11580156117a0573d5f803e3d5ffd5b5050600190930192506116c0915050565b5060408051858152602081018790529081018490528b907f9fe75e55e3d79ccc700a1376ed0d73782a6d56a9049c63cc3b01b8659200e4c79060600160405180910390a25050505050505050505050565b60118181548110611811575f80fd5b5f91825260209091200154905081565b60138181548110611811575f80fd5b335f9081526017602052604090205460ff1661185e5760405162461bcd60e51b815260040161062c906130f5565b82811461189f5760405162461bcd60e51b815260206004820152600f60248201526e098cadccee8d040dad2e6dac2e8c6d608b1b604482015260640161062c565b826118e35760405162461bcd60e51b8152602060048201526014602482015273115b5c1d1e4818db1d5cdd195c8818dbdb5b5a5d60621b604482015260640161062c565b5f805f807f00000000000000000000000000000000000000000000000000000000000000006001600160a01b031663ea181a9e8a6040518263ffffffff1660e01b815260040161193591815260200190565b608060405180830381865afa158015611950573d5f803e3d5ffd5b505050506040513d601f19601f82011682018060405250810190611974919061322b565b929650909450925090506001600160a01b0383166119cd5760405162461bcd60e51b8152602060048201526016602482015275125b9d985b1a590818db1d5cdd195c8818dbdb5b5a5d60521b604482015260640161062c565b8015611a0e5760405162461bcd60e51b815260206004820152601060248201526f105b1c9958591e481d995c9a599a595960821b604482015260640161062c565b6040516302cc42a760e21b8152600481018590525f907f00000000000000000000000000000000000000000000000000000000000000006001600160a01b031690630b310a9c906024015f60405180830381865afa158015611a72573d5f803e3d5ffd5b505050506040513d5f823e601f3d908101601f19168201604052611a999190810190613266565b80519091508814611ae35760405162461bcd60e51b8152602060048201526014602482015273086d0c2d2dc40c6deeadce840dad2e6dac2e8c6d60631b604482015260640161062c565b5f5b88811015611b90575f805b8351811015611b4257838181518110611b0b57611b0b61311a565b60200260200101518c8c85818110611b2557611b2561311a565b9050602002013503611b3a5760019150611b42565b600101611af0565b5080611b875760405162461bcd60e51b815260206004820152601460248201527321b430b4b7103737ba1034b71031b63ab9ba32b960611b604482015260640161062c565b50600101611ae5565b505f611bcd8888808060200260200160405190810160405280939291908181526020018383602002808284375f9201919091525061269c92505050565b9050838114611c1e5760405162461bcd60e51b815260206004820152601860248201527f4167677265676174656420726f6f74206d69736d617463680000000000000000604482015260640161062c565b5f5b89811015611cfb5760105f8c8c84818110611c3d57611c3d61311a565b602090810292909201358352508101919091526040015f206004015460ff16611c785760405162461bcd60e51b815260040161062c906131d2565b888882818110611c8a57611c8a61311a565b9050602002013560105f8d8d85818110611ca657611ca661311a565b9050602002013581526020019081526020015f20600101819055504360105f8d8d85818110611cd757611cd761311a565b602090810292909201358352508101919091526040015f2060020155600101611c20565b50604051631267422560e01b8152600481018c90527f00000000000000000000000000000000000000000000000000000000000000006001600160a01b0316906312674225906024015f604051808303815f87803b158015611d5b575f80fd5b505af1158015611d6d573d5f803e3d5ffd5b50506040518b81528892508d91507f0620ee78a1aa2603382d2bdded7dcf208ba16c1d45f6d61ec9ba01b38b6d74159060200160405180910390a35050505050505050505050565b5f8581526010602052604081206004015460ff16611de55760405162461bcd60e51b815260040161062c906131d2565b335f90815260166020526040902054670de0b6b3a76400001115611e405760405162461bcd60e51b8152602060048201526012602482015271496e73756666696369656e74207374616b6560701b604482015260640161062c565b604051630ed00ad960e31b81523360048201527f00000000000000000000000000000000000000000000000000000000000000006001600160a01b03169063768056c890602401602060405180830381865afa158015611ea2573d5f803e3d5ffd5b505050506040513d601f19601f82011682018060405250810190611ec6919061331f565b611f125760405162461bcd60e51b815260206004820152601a60248201527f4e6f742061207265676973746572656420636f6d6d6974746572000000000000604482015260640161062c565b60405163b4a8924760e01b81523360048201525f907f00000000000000000000000000000000000000000000000000000000000000006001600160a01b03169063b4a8924790602401602060405180830381865afa158015611f76573d5f803e3d5ffd5b505050506040513d601f19601f82011682018060405250810190611f9a9190613338565b604051634e44d07160e11b81523360048201529091505f906001600160a01b037f00000000000000000000000000000000000000000000000000000000000000001690639c89a0e290602401602060405180830381865afa158015612001573d5f803e3d5ffd5b505050506040513d601f19601f820116820180604052508101906120259190613338565b604051630850aed360e21b8152600481018a90529091505f906001600160a01b037f00000000000000000000000000000000000000000000000000000000000000001690632142bb4c90602401602060405180830381865afa15801561208d573d5f803e3d5ffd5b505050506040513d601f19601f820116820180604052508101906120b19190613338565b604080513360208201529081018b9052606081018a9052608081018990524260a082015290915060c00160408051601f198184030181528282528051602091820120610100840183523384528382018d8152848401868152606086018e8152608087018e81524260a089019081525f60c08a0181815260e08b018d815288835260128a528a83209b518c546001600160a01b03919091166001600160a01b0319909116178c55965160018c810191909155955160028c0155935160038b0155915160048a0155516005890155905160068801805491151560ff19909216919091179055915160079096019590955560138054958601815581527f66de8ffda797e3de9c05e8fc57b3bf0ec28a930d40b0d285d93c06501cf6a09090940181905591519196506121f7918c918a918a91019283526020830191909152604082015260600190565b60408051808303601f1901815282825280516020918201205f818152601483528381206060860185523386528386018e81528686018b81528254600180820185559385528685209851600391820290990180546001600160a01b0319166001600160a01b03909a1699909917895591519288019290925590516002909601959095558e81526010909252918120909201805491935090916122978361334f565b9091555050604080518a8152602081018a90529081018490528a90339087907f9a94a4a8239d5184dd76d095ceaf6d188966b7ea9b0087ac5cc303f9f0c0908c9060600160405180910390a45050505095945050505050565b6019546001600160a01b0316331461231a5760405162461bcd60e51b815260040161062c90613169565b6001600160a01b0381165f9081526017602052604090205460ff1661236f576001600160a01b0381165f908152601760205260408120805460ff1916600117905560188054916123698361334f565b91905055505b50565b5f836080015151825160016123879190613156565b146123d45760405162461bcd60e51b815260206004820152601c60248201527f496e76616c6964207075626c696320696e70757473206c656e67746800000000604482015260640161062c565b5f5b825181101561246f577f30644e72e131a029b85045b68181585d2833e84879b9709143e1f593f00000018382815181106124125761241261311a565b6020026020010151106124675760405162461bcd60e51b815260206004820152601a60248201527f5075626c696320696e7075742065786365656473206669656c64000000000000604482015260640161062c565b6001016123d6565b505f84608001515f815181106124875761248761311a565b602002602001015190505f5b83518110156124fb576124f1826124ec88608001518460016124b59190613156565b815181106124c5576124c561311a565b60200260200101518785815181106124df576124df61311a565b602002602001015161283c565b6128ca565b9150600101612493565b5060408051600480825260a082019092525f91816020015b604080518082019091525f808252602082015281526020019060019003908161251357505060408051600480825260a082019092529192505f9190602082015b61255b612d7c565b815260200190600190039081612553575050865190915061257b90612956565b825f8151811061258d5761258d61311a565b60200260200101819052508560200151815f815181106125af576125af61311a565b6020026020010181905250865f0151826001815181106125d1576125d161311a565b60200260200101819052508660200151816001815181106125f4576125f461311a565b602002602001018190525082826002815181106126135761261361311a565b60200260200101819052508660400151816002815181106126365761263661311a565b60200260200101819052508560400151826003815181106126595761265961311a565b602002602001018190525086606001518160038151811061267c5761267c61311a565b60200260200101819052506126918282612a0d565b979650505050505050565b5f81515f036126ac57505f919050565b81516001036126d657815f815181106126c7576126c761311a565b60200260200101519050919050565b815b60018151111561281a575f6002825160016126f39190613156565b6126fd919061337b565b90505f8167ffffffffffffffff8111156127195761271961312e565b604051908082528060200260200182016040528015612742578160200160208202803683370190505b5090505f5b82811015612810575f61275b826002613200565b90505f855182600161276d9190613156565b106127785781612783565b612783826001613156565b90508582815181106127975761279761311a565b60200260200101518682815181106127b1576127b161311a565b60200260200101516040516020016127d3929190918252602082015260400190565b604051602081830303815290604052805190602001208484815181106127fb576127fb61311a565b60209081029190910101525050600101612747565b5091506126d89050565b805f8151811061282c5761282c61311a565b6020026020010151915050919050565b604080518082019091525f8082526020820152612857612da1565b835181526020808501519082015260408082018490525f908360608460076107d05a03fa9050806128c25760405162461bcd60e51b8152602060048201526015602482015274189b8c8d4d94d8d85b185c935d5b0819985a5b1959605a1b604482015260640161062c565b505092915050565b604080518082019091525f80825260208201526128e5612dbf565b835181526020808501518183015283516040808401919091529084015160608301525f908360808460066107d05a03fa9050806128c25760405162461bcd60e51b815260206004820152600f60248201526e189b8c8d4d9059190819985a5b1959608a1b604482015260640161062c565b604080518082019091525f8082526020820152815115801561297a57506020820151155b15612997575050604080518082019091525f808252602082015290565b6040518060400160405280835f015181526020017f30644e72e131a029b85045b68181585d97816a916871ca8d3c208c16d87cfd4784602001516129db919061338e565b612a05907f30644e72e131a029b85045b68181585d97816a916871ca8d3c208c16d87cfd476133a1565b905292915050565b5f8151835114612a5f5760405162461bcd60e51b815260206004820152601760248201527f50616972696e67206c656e677468206d69736d61746368000000000000000000604482015260640161062c565b5f83516006612a6e9190613200565b90505f8167ffffffffffffffff811115612a8a57612a8a61312e565b604051908082528060200260200182016040528015612ab3578160200160208202803683370190505b5090505f5b8551811015612cae575f612acd826006613200565b9050868281518110612ae157612ae161311a565b60200260200101515f015183825f612af99190613156565b81518110612b0957612b0961311a565b602002602001018181525050868281518110612b2757612b2761311a565b60200260200101516020015183826001612b419190613156565b81518110612b5157612b5161311a565b602002602001018181525050858281518110612b6f57612b6f61311a565b60209081029190910181015151015183612b8a836002613156565b81518110612b9a57612b9a61311a565b602002602001018181525050858281518110612bb857612bb861311a565b6020908102919091010151515183612bd1836003613156565b81518110612be157612be161311a565b602002602001018181525050858281518110612bff57612bff61311a565b602002602001015160200151600160028110612c1d57612c1d61311a565b602002015183612c2e836004613156565b81518110612c3e57612c3e61311a565b602002602001018181525050858281518110612c5c57612c5c61311a565b6020026020010151602001515f60028110612c7957612c7961311a565b602002015183612c8a836005613156565b81518110612c9a57612c9a61311a565b602090810291909101015250600101612ab8565b50612cb7612ddd565b5f602082602086026020860160086107d05a03fa905080612d105760405162461bcd60e51b8152602060048201526013602482015272189b8c8d4d94185a5c9a5b99c819985a5b1959606a1b604482015260640161062c565b5051600114925050505b92915050565b8260028101928215612d4e579160200282015b82811115612d4e578251825591602001919060010190612d33565b50612d5a929150612dfb565b5090565b5080545f8255600202905f5260205f209081019061236f9190612e0f565b6040518060400160405280612d8f612e29565b8152602001612d9c612e29565b905290565b60405180606001604052806003906020820280368337509192915050565b60405180608001604052806004906020820280368337509192915050565b60405180602001604052806001906020820280368337509192915050565b5b80821115612d5a575f8155600101612dfc565b5b80821115612d5a575f8082556001820155600201612e10565b60405180604001604052806002906020820280368337509192915050565b8060408101831015612d1a575f80fd5b8060808101831015612d1a575f80fd5b5f805f806101208587031215612e7b575f80fd5b84359350612e8c8660208701612e47565b9250612e9b8660608701612e57565b9150612eaa8660e08701612e47565b905092959194509250565b5f60208284031215612ec5575f80fd5b5035919050565b5f8083601f840112612edc575f80fd5b50813567ffffffffffffffff811115612ef3575f80fd5b6020830191508360208260051b8501011115612f0d575f80fd5b9250929050565b5f805f805f806101e08789031215612f2a575f80fd5b612f348888612e47565b9550612f438860408901612e57565b9450612f528860c08901612e57565b9350612f62886101408901612e57565b92506101c087013567ffffffffffffffff811115612f7e575f80fd5b612f8a89828a01612ecc565b979a9699509497509295939492505050565b6001600160a01b038116811461236f575f80fd5b5f60208284031215612fc0575f80fd5b8135612fcb81612f9c565b9392505050565b5f8060408385031215612fe3575f80fd5b50508035926020909101359150565b5f805f805f6101408688031215613007575f80fd5b853594506020860135935061301f8760408801612e47565b925061302e8760808801612e57565b915061303e876101008801612e47565b90509295509295909350565b5f805f805f6060868803121561305e575f80fd5b85359450602086013567ffffffffffffffff8082111561307c575f80fd5b61308889838a01612ecc565b909650945060408801359150808211156130a0575f80fd5b506130ad88828901612ecc565b969995985093965092949392505050565b5f805f805f60a086880312156130d2575f80fd5b505083359560208501359550604085013594606081013594506080013592509050565b6020808252600b908201526a2737ba1030bab234ba37b960a91b604082015260600190565b634e487b7160e01b5f52603260045260245ffd5b634e487b7160e01b5f52604160045260245ffd5b634e487b7160e01b5f52601160045260245ffd5b80820180821115612d1a57612d1a613142565b6020808252600990820152682737ba1037bbb732b960b91b604082015260600190565b5f808335601e198436030181126131a1575f80fd5b83018035915067ffffffffffffffff8211156131bb575f80fd5b6020019150600581901b3603821315612f0d575f80fd5b60208082526014908201527310da185a5b881b9bdd081c9959da5cdd195c995960621b604082015260600190565b8082028115828204841417612d1a57612d1a613142565b80518015158114613226575f80fd5b919050565b5f805f806080858703121561323e575f80fd5b84519350602085015161325081612f9c565b60408601519093509150612eaa60608601613217565b5f6020808385031215613277575f80fd5b825167ffffffffffffffff8082111561328e575f80fd5b818501915085601f8301126132a1575f80fd5b8151818111156132b3576132b361312e565b8060051b604051601f19603f830116810181811085821117156132d8576132d861312e565b6040529182528482019250838101850191888311156132f5575f80fd5b938501935b82851015613313578451845293850193928501926132fa565b98975050505050505050565b5f6020828403121561332f575f80fd5b612fcb82613217565b5f60208284031215613348575f80fd5b5051919050565b5f6001820161336057613360613142565b5060010190565b634e487b7160e01b5f52601260045260245ffd5b5f8261338957613389613367565b500490565b5f8261339c5761339c613367565b500690565b81810381811115612d1a57612d1a61314256fea26469706673582212201e3b4f4e05db4f7fd6b856c43cef71c5bcca4bafa235adf5b427baee22666af364736f6c63430008180033","opcodes":"PUSH1 0xC0 PUSH1 0x40 MSTORE PUSH1 0xF DUP1 SLOAD PUSH1 0xFF NOT AND SWAP1 SSTORE PUSH7 0x38D7EA4C68000 PUSH1 0x15 SSTORE CALLVALUE DUP1 ISZERO PUSH3 0x25 JUMPI PUSH0 DUP1 REVERT JUMPDEST POP PUSH1 0x40 MLOAD PUSH3 0x3530 CODESIZE SUB DUP1 PUSH3 0x3530 DUP4 CODECOPY DUP2 ADD PUSH1 0x40 DUP2 SWAP1 MSTORE PUSH3 0x48 SWAP2 PUSH3 0xAF JUMP JUMPDEST PUSH1 0x19 DUP1 SLOAD PUSH1 0x1 PUSH1 0x1 PUSH1 0xA0 SHL SUB NOT AND CALLER SWAP1 DUP2 OR SWAP1 SWAP2 SSTORE PUSH0 SWAP1 DUP2 MSTORE PUSH1 0x17 PUSH1 0x20 MSTORE PUSH1 0x40 SWAP1 KECCAK256 DUP1 SLOAD PUSH1 0xFF NOT AND PUSH1 0x1 SWAP1 DUP2 OR SWAP1 SWAP2 SSTORE PUSH1 0x18 SSTORE PUSH1 0x1 PUSH1 0x1 PUSH1 0xA0 SHL SUB SWAP2 DUP3 AND PUSH1 0x80 MSTORE AND PUSH1 0xA0 MSTORE PUSH3 0xE5 JUMP JUMPDEST DUP1 MLOAD PUSH1 0x1 PUSH1 0x1 PUSH1 0xA0 SHL SUB DUP2 AND DUP2 EQ PUSH3 0xAA JUMPI PUSH0 DUP1 REVERT JUMPDEST SWAP2 SWAP1 POP JUMP JUMPDEST PUSH0 DUP1 PUSH1 0x40 DUP4 DUP6 SUB SLT ISZERO PUSH3 0xC1 JUMPI PUSH0 DUP1 REVERT JUMPDEST PUSH3 0xCC DUP4 PUSH3 0x93 JUMP JUMPDEST SWAP2 POP PUSH3 0xDC PUSH1 0x20 DUP5 ADD PUSH3 0x93 JUMP JUMPDEST SWAP1 POP SWAP3 POP SWAP3 SWAP1 POP JUMP JUMPDEST PUSH1 0x80 MLOAD PUSH1 0xA0 MLOAD PUSH2 0x33EA PUSH3 0x146 PUSH0 CODECOPY PUSH0 DUP2 DUP2 PUSH2 0x209 ADD MSTORE DUP2 DUP2 PUSH2 0x18E9 ADD MSTORE DUP2 DUP2 PUSH2 0x1A26 ADD MSTORE DUP2 DUP2 PUSH2 0x1D12 ADD MSTORE PUSH2 0x2048 ADD MSTORE PUSH0 DUP2 DUP2 PUSH2 0x544 ADD MSTORE DUP2 DUP2 PUSH2 0xB07 ADD MSTORE DUP2 DUP2 PUSH2 0x16F2 ADD MSTORE DUP2 DUP2 PUSH2 0x1E55 ADD MSTORE DUP2 DUP2 PUSH2 0x1F29 ADD MSTORE PUSH2 0x1FBC ADD MSTORE PUSH2 0x33EA PUSH0 RETURN INVALID PUSH1 0x80 PUSH1 0x40 MSTORE PUSH1 0x4 CALLDATASIZE LT PUSH2 0x172 JUMPI PUSH0 CALLDATALOAD PUSH1 0xE0 SHR DUP1 PUSH4 0x67CA7391 GT PUSH2 0xC7 JUMPI DUP1 PUSH4 0xC655D197 GT PUSH2 0x83 JUMPI DUP1 PUSH4 0xDD509198 GT PUSH2 0x60 JUMPI DUP1 PUSH4 0xDD509198 EQ PUSH2 0x581 JUMPI DUP1 PUSH4 0xE429CEF1 EQ PUSH2 0x5A0 JUMPI DUP1 PUSH4 0xF1BED7E0 EQ PUSH2 0x5BF JUMPI DUP1 PUSH4 0xF1F021CB EQ PUSH2 0x5D3 JUMPI STOP JUMPDEST DUP1 PUSH4 0xC655D197 EQ PUSH2 0x514 JUMPI DUP1 PUSH4 0xC8DB44E3 EQ PUSH2 0x533 JUMPI DUP1 PUSH4 0xCB1C2B5C EQ PUSH2 0x566 JUMPI STOP JUMPDEST DUP1 PUSH4 0x67CA7391 EQ PUSH2 0x45E JUMPI DUP1 PUSH4 0x6C561167 EQ PUSH2 0x489 JUMPI DUP1 PUSH4 0x70D48798 EQ PUSH2 0x49E JUMPI DUP1 PUSH4 0x75C18EAB EQ PUSH2 0x4BD JUMPI DUP1 PUSH4 0x8DA5CB5B EQ PUSH2 0x4D6 JUMPI DUP1 PUSH4 0x8E16F159 EQ PUSH2 0x4F5 JUMPI STOP JUMPDEST DUP1 PUSH4 0x47885781 GT PUSH2 0x12E JUMPI DUP1 PUSH4 0x51D58969 GT PUSH2 0x10B JUMPI DUP1 PUSH4 0x51D58969 EQ PUSH2 0x397 JUMPI DUP1 PUSH4 0x533B6788 EQ PUSH2 0x3B6 JUMPI DUP1 PUSH4 0x550325B5 EQ PUSH2 0x3CA JUMPI DUP1 PUSH4 0x58F0B780 EQ PUSH2 0x43F JUMPI STOP JUMPDEST DUP1 PUSH4 0x47885781 EQ PUSH2 0x262 JUMPI DUP1 PUSH4 0x47F9AA9F EQ PUSH2 0x315 JUMPI DUP1 PUSH4 0x49C932B1 EQ PUSH2 0x353 JUMPI STOP JUMPDEST DUP1 PUSH4 0x6222E86 EQ PUSH2 0x17B JUMPI DUP1 PUSH4 0x115F574C EQ PUSH2 0x19A JUMPI DUP1 PUSH4 0x1E4FBA05 EQ PUSH2 0x1C2 JUMPI DUP1 PUSH4 0x3A4B66F1 EQ PUSH2 0x1F0 JUMPI DUP1 PUSH4 0x3D3A910E EQ PUSH2 0x1F8 JUMPI DUP1 PUSH4 0x42E3D4A2 EQ PUSH2 0x243 JUMPI STOP JUMPDEST CALLDATASIZE PUSH2 0x179 JUMPI STOP JUMPDEST STOP JUMPDEST CALLVALUE DUP1 ISZERO PUSH2 0x186 JUMPI PUSH0 DUP1 REVERT JUMPDEST POP PUSH2 0x179 PUSH2 0x195 CALLDATASIZE PUSH1 0x4 PUSH2 0x2E67 JUMP JUMPDEST PUSH2 0x5FE JUMP JUMPDEST CALLVALUE DUP1 ISZERO PUSH2 0x1A5 JUMPI PUSH0 DUP1 REVERT JUMPDEST POP PUSH2 0x1AF PUSH1 0x18 SLOAD DUP2 JUMP JUMPDEST PUSH1 0x40 MLOAD SWAP1 DUP2 MSTORE PUSH1 0x20 ADD JUMPDEST PUSH1 0x40 MLOAD DUP1 SWAP2 SUB SWAP1 RETURN JUMPDEST CALLVALUE DUP1 ISZERO PUSH2 0x1CD JUMPI PUSH0 DUP1 REVERT JUMPDEST POP PUSH2 0x1AF PUSH2 0x1DC CALLDATASIZE PUSH1 0x4 PUSH2 0x2EB5 JUMP JUMPDEST PUSH0 SWAP1 DUP2 MSTORE PUSH1 0x10 PUSH1 0x20 MSTORE PUSH1 0x40 SWAP1 KECCAK256 PUSH1 0x1 ADD SLOAD SWAP1 JUMP JUMPDEST PUSH2 0x179 PUSH2 0xBF2 JUMP JUMPDEST CALLVALUE DUP1 ISZERO PUSH2 0x203 JUMPI PUSH0 DUP1 REVERT JUMPDEST POP PUSH2 0x22B PUSH32 0x0 DUP2 JUMP JUMPDEST PUSH1 0x40 MLOAD PUSH1 0x1 PUSH1 0x1 PUSH1 0xA0 SHL SUB SWAP1 SWAP2 AND DUP2 MSTORE PUSH1 0x20 ADD PUSH2 0x1B9 JUMP JUMPDEST CALLVALUE DUP1 ISZERO PUSH2 0x24E JUMPI PUSH0 DUP1 REVERT JUMPDEST POP PUSH2 0x179 PUSH2 0x25D CALLDATASIZE PUSH1 0x4 PUSH2 0x2F14 JUMP JUMPDEST PUSH2 0xC99 JUMP JUMPDEST CALLVALUE DUP1 ISZERO PUSH2 0x26D JUMPI PUSH0 DUP1 REVERT JUMPDEST POP PUSH2 0x2CE PUSH2 0x27C CALLDATASIZE PUSH1 0x4 PUSH2 0x2EB5 JUMP JUMPDEST PUSH1 0x12 PUSH1 0x20 MSTORE PUSH0 SWAP1 DUP2 MSTORE PUSH1 0x40 SWAP1 KECCAK256 DUP1 SLOAD PUSH1 0x1 DUP3 ADD SLOAD PUSH1 0x2 DUP4 ADD SLOAD PUSH1 0x3 DUP5 ADD SLOAD PUSH1 0x4 DUP6 ADD SLOAD PUSH1 0x5 DUP7 ADD SLOAD PUSH1 0x6 DUP8 ADD SLOAD PUSH1 0x7 SWAP1 SWAP8 ADD SLOAD PUSH1 0x1 PUSH1 0x1 PUSH1 0xA0 SHL SUB SWAP1 SWAP7 AND SWAP7 SWAP5 SWAP6 SWAP4 SWAP5 SWAP3 SWAP4 SWAP2 SWAP3 SWAP1 SWAP2 PUSH1 0xFF SWAP1 SWAP2 AND SWAP1 DUP9 JUMP JUMPDEST PUSH1 0x40 DUP1 MLOAD PUSH1 0x1 PUSH1 0x1 PUSH1 0xA0 SHL SUB SWAP1 SWAP10 AND DUP10 MSTORE PUSH1 0x20 DUP10 ADD SWAP8 SWAP1 SWAP8 MSTORE SWAP6 DUP8 ADD SWAP5 SWAP1 SWAP5 MSTORE PUSH1 0x60 DUP7 ADD SWAP3 SWAP1 SWAP3 MSTORE PUSH1 0x80 DUP6 ADD MSTORE PUSH1 0xA0 DUP5 ADD MSTORE ISZERO ISZERO PUSH1 0xC0 DUP4 ADD MSTORE PUSH1 0xE0 DUP3 ADD MSTORE PUSH2 0x100 ADD PUSH2 0x1B9 JUMP JUMPDEST CALLVALUE DUP1 ISZERO PUSH2 0x320 JUMPI PUSH0 DUP1 REVERT JUMPDEST POP PUSH2 0x343 PUSH2 0x32F CALLDATASIZE PUSH1 0x4 PUSH2 0x2FB0 JUMP JUMPDEST PUSH1 0x17 PUSH1 0x20 MSTORE PUSH0 SWAP1 DUP2 MSTORE PUSH1 0x40 SWAP1 KECCAK256 SLOAD PUSH1 0xFF AND DUP2 JUMP JUMPDEST PUSH1 0x40 MLOAD SWAP1 ISZERO ISZERO DUP2 MSTORE PUSH1 0x20 ADD PUSH2 0x1B9 JUMP JUMPDEST CALLVALUE DUP1 ISZERO PUSH2 0x35E JUMPI PUSH0 DUP1 REVERT JUMPDEST POP PUSH2 0x372 PUSH2 0x36D CALLDATASIZE PUSH1 0x4 PUSH2 0x2FD2 JUMP JUMPDEST PUSH2 0xF3C JUMP JUMPDEST PUSH1 0x40 DUP1 MLOAD PUSH1 0x1 PUSH1 0x1 PUSH1 0xA0 SHL SUB SWAP1 SWAP5 AND DUP5 MSTORE PUSH1 0x20 DUP5 ADD SWAP3 SWAP1 SWAP3 MSTORE SWAP1 DUP3 ADD MSTORE PUSH1 0x60 ADD PUSH2 0x1B9 JUMP JUMPDEST CALLVALUE DUP1 ISZERO PUSH2 0x3A2 JUMPI PUSH0 DUP1 REVERT JUMPDEST POP PUSH2 0x179 PUSH2 0x3B1 CALLDATASIZE PUSH1 0x4 PUSH2 0x2FD2 JUMP JUMPDEST PUSH2 0xF84 JUMP JUMPDEST CALLVALUE DUP1 ISZERO PUSH2 0x3C1 JUMPI PUSH0 DUP1 REVERT JUMPDEST POP PUSH2 0x179 PUSH2 0x10D1 JUMP JUMPDEST CALLVALUE DUP1 ISZERO PUSH2 0x3D5 JUMPI PUSH0 DUP1 REVERT JUMPDEST POP PUSH2 0x415 PUSH2 0x3E4 CALLDATASIZE PUSH1 0x4 PUSH2 0x2EB5 JUMP JUMPDEST PUSH1 0x10 PUSH1 0x20 MSTORE PUSH0 SWAP1 DUP2 MSTORE PUSH1 0x40 SWAP1 KECCAK256 DUP1 SLOAD PUSH1 0x1 DUP3 ADD SLOAD PUSH1 0x2 DUP4 ADD SLOAD PUSH1 0x3 DUP5 ADD SLOAD PUSH1 0x4 SWAP1 SWAP5 ADD SLOAD SWAP3 SWAP4 SWAP2 SWAP3 SWAP1 SWAP2 SWAP1 PUSH1 0xFF AND DUP6 JUMP JUMPDEST PUSH1 0x40 DUP1 MLOAD SWAP6 DUP7 MSTORE PUSH1 0x20 DUP7 ADD SWAP5 SWAP1 SWAP5 MSTORE SWAP3 DUP5 ADD SWAP2 SWAP1 SWAP2 MSTORE PUSH1 0x60 DUP4 ADD MSTORE ISZERO ISZERO PUSH1 0x80 DUP3 ADD MSTORE PUSH1 0xA0 ADD PUSH2 0x1B9 JUMP JUMPDEST CALLVALUE DUP1 ISZERO PUSH2 0x44A JUMPI PUSH0 DUP1 REVERT JUMPDEST POP PUSH2 0x179 PUSH2 0x459 CALLDATASIZE PUSH1 0x4 PUSH2 0x2FF2 JUMP JUMPDEST PUSH2 0x110A JUMP JUMPDEST CALLVALUE DUP1 ISZERO PUSH2 0x469 JUMPI PUSH0 DUP1 REVERT JUMPDEST POP PUSH2 0x1AF PUSH2 0x478 CALLDATASIZE PUSH1 0x4 PUSH2 0x2EB5 JUMP JUMPDEST PUSH0 SWAP1 DUP2 MSTORE PUSH1 0x14 PUSH1 0x20 MSTORE PUSH1 0x40 SWAP1 KECCAK256 SLOAD SWAP1 JUMP JUMPDEST CALLVALUE DUP1 ISZERO PUSH2 0x494 JUMPI PUSH0 DUP1 REVERT JUMPDEST POP PUSH2 0x1AF PUSH1 0x15 SLOAD DUP2 JUMP JUMPDEST CALLVALUE DUP1 ISZERO PUSH2 0x4A9 JUMPI PUSH0 DUP1 REVERT JUMPDEST POP PUSH2 0x1AF PUSH2 0x4B8 CALLDATASIZE PUSH1 0x4 PUSH2 0x2EB5 JUMP JUMPDEST PUSH2 0x1802 JUMP JUMPDEST CALLVALUE DUP1 ISZERO PUSH2 0x4C8 JUMPI PUSH0 DUP1 REVERT JUMPDEST POP PUSH1 0xF SLOAD PUSH2 0x343 SWAP1 PUSH1 0xFF AND DUP2 JUMP JUMPDEST CALLVALUE DUP1 ISZERO PUSH2 0x4E1 JUMPI PUSH0 DUP1 REVERT JUMPDEST POP PUSH1 0x19 SLOAD PUSH2 0x22B SWAP1 PUSH1 0x1 PUSH1 0x1 PUSH1 0xA0 SHL SUB AND DUP2 JUMP JUMPDEST CALLVALUE DUP1 ISZERO PUSH2 0x500 JUMPI PUSH0 DUP1 REVERT JUMPDEST POP PUSH2 0x1AF PUSH2 0x50F CALLDATASIZE PUSH1 0x4 PUSH2 0x2EB5 JUMP JUMPDEST PUSH2 0x1821 JUMP JUMPDEST CALLVALUE DUP1 ISZERO PUSH2 0x51F JUMPI PUSH0 DUP1 REVERT JUMPDEST POP PUSH2 0x179 PUSH2 0x52E CALLDATASIZE PUSH1 0x4 PUSH2 0x304A JUMP JUMPDEST PUSH2 0x1830 JUMP JUMPDEST CALLVALUE DUP1 ISZERO PUSH2 0x53E JUMPI PUSH0 DUP1 REVERT JUMPDEST POP PUSH2 0x22B PUSH32 0x0 DUP2 JUMP JUMPDEST CALLVALUE DUP1 ISZERO PUSH2 0x571 JUMPI PUSH0 DUP1 REVERT JUMPDEST POP PUSH2 0x1AF PUSH8 0xDE0B6B3A7640000 DUP2 JUMP JUMPDEST CALLVALUE DUP1 ISZERO PUSH2 0x58C JUMPI PUSH0 DUP1 REVERT JUMPDEST POP PUSH2 0x1AF PUSH2 0x59B CALLDATASIZE PUSH1 0x4 PUSH2 0x30BE JUMP JUMPDEST PUSH2 0x1DB5 JUMP JUMPDEST CALLVALUE DUP1 ISZERO PUSH2 0x5AB JUMPI PUSH0 DUP1 REVERT JUMPDEST POP PUSH2 0x179 PUSH2 0x5BA CALLDATASIZE PUSH1 0x4 PUSH2 0x2FB0 JUMP JUMPDEST PUSH2 0x22F0 JUMP JUMPDEST CALLVALUE DUP1 ISZERO PUSH2 0x5CA JUMPI PUSH0 DUP1 REVERT JUMPDEST POP PUSH1 0x13 SLOAD PUSH2 0x1AF JUMP JUMPDEST CALLVALUE DUP1 ISZERO PUSH2 0x5DE JUMPI PUSH0 DUP1 REVERT JUMPDEST POP PUSH2 0x1AF PUSH2 0x5ED CALLDATASIZE PUSH1 0x4 PUSH2 0x2FB0 JUMP JUMPDEST PUSH1 0x16 PUSH1 0x20 MSTORE PUSH0 SWAP1 DUP2 MSTORE PUSH1 0x40 SWAP1 KECCAK256 SLOAD DUP2 JUMP JUMPDEST CALLER PUSH0 SWAP1 DUP2 MSTORE PUSH1 0x17 PUSH1 0x20 MSTORE PUSH1 0x40 SWAP1 KECCAK256 SLOAD PUSH1 0xFF AND PUSH2 0x635 JUMPI PUSH1 0x40 MLOAD PUSH3 0x461BCD PUSH1 0xE5 SHL DUP2 MSTORE PUSH1 0x4 ADD PUSH2 0x62C SWAP1 PUSH2 0x30F5 JUMP JUMPDEST PUSH1 0x40 MLOAD DUP1 SWAP2 SUB SWAP1 REVERT JUMPDEST PUSH0 DUP5 DUP2 MSTORE PUSH1 0x12 PUSH1 0x20 MSTORE PUSH1 0x40 SWAP1 KECCAK256 PUSH1 0x6 DUP2 ADD SLOAD PUSH1 0xFF AND ISZERO PUSH2 0x68A JUMPI PUSH1 0x40 MLOAD PUSH3 0x461BCD PUSH1 0xE5 SHL DUP2 MSTORE PUSH1 0x20 PUSH1 0x4 DUP3 ADD MSTORE PUSH1 0x10 PUSH1 0x24 DUP3 ADD MSTORE PUSH16 0x105B1C9958591E481D995C9A599A5959 PUSH1 0x82 SHL PUSH1 0x44 DUP3 ADD MSTORE PUSH1 0x64 ADD PUSH2 0x62C JUMP JUMPDEST PUSH1 0x1 DUP2 ADD SLOAD PUSH0 SWAP1 DUP2 MSTORE PUSH1 0x10 PUSH1 0x20 MSTORE PUSH1 0x40 SWAP1 KECCAK256 PUSH1 0x4 ADD SLOAD PUSH1 0xFF AND PUSH2 0x6E2 JUMPI PUSH1 0x40 MLOAD PUSH3 0x461BCD PUSH1 0xE5 SHL DUP2 MSTORE PUSH1 0x20 PUSH1 0x4 DUP3 ADD MSTORE PUSH1 0x10 PUSH1 0x24 DUP3 ADD MSTORE PUSH16 0x436861696E206E6F7420616374697665 PUSH1 0x80 SHL PUSH1 0x44 DUP3 ADD MSTORE PUSH1 0x64 ADD PUSH2 0x62C JUMP JUMPDEST PUSH1 0x1 DUP1 DUP3 ADD SLOAD PUSH0 SWAP1 DUP2 MSTORE PUSH1 0x10 PUSH1 0x20 MSTORE PUSH1 0x40 SWAP1 KECCAK256 ADD SLOAD PUSH1 0x3 DUP3 ADD SLOAD EQ PUSH2 0x73D JUMPI PUSH1 0x40 MLOAD PUSH3 0x461BCD PUSH1 0xE5 SHL DUP2 MSTORE PUSH1 0x20 PUSH1 0x4 DUP3 ADD MSTORE PUSH1 0x11 PUSH1 0x24 DUP3 ADD MSTORE PUSH17 0x9ED8C840E4DEDEE840DAD2E6DAC2E8C6D PUSH1 0x7B SHL PUSH1 0x44 DUP3 ADD MSTORE PUSH1 0x64 ADD PUSH2 0x62C JUMP JUMPDEST PUSH1 0x40 DUP1 MLOAD PUSH1 0xA0 DUP2 ADD DUP3 MSTORE DUP6 CALLDATALOAD PUSH1 0x60 DUP3 ADD SWAP1 DUP2 MSTORE PUSH1 0x20 DUP1 DUP9 ADD CALLDATALOAD PUSH1 0x80 DUP1 DUP6 ADD SWAP2 SWAP1 SWAP2 MSTORE SWAP2 DUP4 MSTORE DUP4 MLOAD SWAP2 DUP3 ADD DUP5 MSTORE PUSH0 SWAP4 SWAP1 DUP4 ADD SWAP2 SWAP1 DUP2 SWAP1 DUP2 DUP2 ADD SWAP1 DUP10 SWAP1 PUSH1 0x2 SWAP1 DUP4 SWAP1 DUP4 SWAP1 DUP1 DUP3 DUP5 CALLDATACOPY PUSH0 SWAP3 ADD SWAP2 SWAP1 SWAP2 MSTORE POP POP POP DUP2 MSTORE PUSH1 0x40 DUP1 MLOAD DUP1 DUP3 ADD DUP3 MSTORE PUSH1 0x20 SWAP1 SWAP3 ADD SWAP2 SWAP1 DUP1 DUP11 ADD SWAP1 PUSH1 0x2 SWAP1 DUP4 SWAP1 DUP4 SWAP1 DUP1 DUP3 DUP5 CALLDATACOPY PUSH0 SWAP3 ADD DUP3 SWAP1 MSTORE POP SWAP3 SWAP1 SWAP4 MSTORE POP SWAP2 DUP4 MSTORE POP PUSH1 0x40 DUP1 MLOAD DUP1 DUP3 ADD DUP3 MSTORE DUP8 CALLDATALOAD DUP2 MSTORE PUSH1 0x20 DUP1 DUP10 ADD CALLDATALOAD DUP2 DUP4 ADD MSTORE SWAP4 DUP5 ADD MSTORE DUP1 MLOAD PUSH1 0x2 DUP1 DUP3 MSTORE PUSH1 0x60 DUP3 ADD DUP4 MSTORE SWAP5 SWAP6 POP SWAP2 SWAP4 SWAP2 SWAP3 DUP4 ADD SWAP1 DUP1 CALLDATASIZE DUP4 CALLDATACOPY ADD SWAP1 POP POP SWAP1 POP DUP3 PUSH1 0x3 ADD SLOAD PUSH0 SHR DUP2 PUSH0 DUP2 MLOAD DUP2 LT PUSH2 0x813 JUMPI PUSH2 0x813 PUSH2 0x311A JUMP JUMPDEST PUSH1 0x20 MUL PUSH1 0x20 ADD ADD DUP2 DUP2 MSTORE POP POP DUP3 PUSH1 0x4 ADD SLOAD PUSH0 SHR DUP2 PUSH1 0x1 DUP2 MLOAD DUP2 LT PUSH2 0x839 JUMPI PUSH2 0x839 PUSH2 0x311A JUMP JUMPDEST PUSH1 0x20 SWAP1 DUP2 MUL SWAP2 SWAP1 SWAP2 ADD ADD MSTORE PUSH1 0xF SLOAD PUSH1 0xFF AND DUP1 PUSH2 0xA51 JUMPI POP PUSH1 0x40 DUP1 MLOAD PUSH1 0xE0 DUP2 ADD DUP3 MSTORE PUSH0 DUP1 SLOAD PUSH1 0xA0 DUP4 ADD SWAP1 DUP2 MSTORE PUSH1 0x1 SLOAD PUSH1 0xC0 DUP5 ADD MSTORE DUP3 MSTORE DUP3 MLOAD PUSH1 0x80 DUP2 ADD DUP1 DUP6 MSTORE PUSH2 0xA51 SWAP5 PUSH1 0x20 DUP6 ADD SWAP3 SWAP2 PUSH1 0x2 SWAP2 DUP4 SWAP2 SWAP1 DUP3 ADD SWAP1 DUP4 SWAP1 DUP2 SWAP1 DUP2 DUP5 JUMPDEST DUP2 SLOAD DUP2 MSTORE PUSH1 0x20 ADD SWAP1 PUSH1 0x1 ADD SWAP1 DUP1 DUP4 GT PUSH2 0x891 JUMPI POP POP POP SWAP2 DUP4 MSTORE POP POP PUSH1 0x40 DUP1 MLOAD DUP1 DUP3 ADD SWAP2 DUP3 SWAP1 MSTORE PUSH1 0x20 SWAP1 SWAP3 ADD SWAP2 SWAP1 PUSH1 0x2 DUP5 DUP2 ADD SWAP2 DUP3 DUP5 JUMPDEST DUP2 SLOAD DUP2 MSTORE PUSH1 0x20 ADD SWAP1 PUSH1 0x1 ADD SWAP1 DUP1 DUP4 GT PUSH2 0x8C7 JUMPI POP POP POP SWAP2 SWAP1 SWAP3 MSTORE POP POP POP DUP2 MSTORE PUSH1 0x40 DUP1 MLOAD PUSH1 0x80 DUP2 ADD DUP1 DUP4 MSTORE PUSH1 0x20 SWAP1 SWAP4 ADD SWAP3 SWAP1 SWAP2 PUSH1 0x6 DUP6 ADD SWAP2 DUP4 SWAP2 DUP3 ADD SWAP1 DUP4 SWAP1 PUSH1 0x2 SWAP1 DUP3 DUP5 JUMPDEST DUP2 SLOAD DUP2 MSTORE PUSH1 0x20 ADD SWAP1 PUSH1 0x1 ADD SWAP1 DUP1 DUP4 GT PUSH2 0x90B JUMPI POP POP POP SWAP2 DUP4 MSTORE POP POP PUSH1 0x40 DUP1 MLOAD DUP1 DUP3 ADD SWAP2 DUP3 SWAP1 MSTORE PUSH1 0x20 SWAP1 SWAP3 ADD SWAP2 SWAP1 PUSH1 0x2 DUP5 DUP2 ADD SWAP2 DUP3 DUP5 JUMPDEST DUP2 SLOAD DUP2 MSTORE PUSH1 0x20 ADD SWAP1 PUSH1 0x1 ADD SWAP1 DUP1 DUP4 GT PUSH2 0x941 JUMPI POP POP POP SWAP2 SWAP1 SWAP3 MSTORE POP POP POP DUP2 MSTORE PUSH1 0x40 DUP1 MLOAD PUSH1 0x80 DUP2 ADD DUP1 DUP4 MSTORE PUSH1 0x20 SWAP1 SWAP4 ADD SWAP3 SWAP1 SWAP2 PUSH1 0xA DUP6 ADD SWAP2 DUP4 SWAP2 DUP3 ADD SWAP1 DUP4 SWAP1 PUSH1 0x2 SWAP1 DUP3 DUP5 JUMPDEST DUP2 SLOAD DUP2 MSTORE PUSH1 0x20 ADD SWAP1 PUSH1 0x1 ADD SWAP1 DUP1 DUP4 GT PUSH2 0x985 JUMPI POP POP POP SWAP2 DUP4 MSTORE POP POP PUSH1 0x40 DUP1 MLOAD DUP1 DUP3 ADD SWAP2 DUP3 SWAP1 MSTORE PUSH1 0x20 SWAP1 SWAP3 ADD SWAP2 SWAP1 PUSH1 0x2 DUP5 DUP2 ADD SWAP2 DUP3 DUP5 JUMPDEST DUP2 SLOAD DUP2 MSTORE PUSH1 0x20 ADD SWAP1 PUSH1 0x1 ADD SWAP1 DUP1 DUP4 GT PUSH2 0x9BB JUMPI POP POP POP POP POP DUP2 MSTORE POP POP DUP2 MSTORE PUSH1 0x20 ADD PUSH1 0xE DUP3 ADD DUP1 SLOAD DUP1 PUSH1 0x20 MUL PUSH1 0x20 ADD PUSH1 0x40 MLOAD SWAP1 DUP2 ADD PUSH1 0x40 MSTORE DUP1 SWAP3 SWAP2 SWAP1 DUP2 DUP2 MSTORE PUSH1 0x20 ADD PUSH0 SWAP1 JUMPDEST DUP3 DUP3 LT ISZERO PUSH2 0xA42 JUMPI DUP4 DUP3 SWAP1 PUSH0 MSTORE PUSH1 0x20 PUSH0 KECCAK256 SWAP1 PUSH1 0x2 MUL ADD PUSH1 0x40 MLOAD DUP1 PUSH1 0x40 ADD PUSH1 0x40 MSTORE SWAP1 DUP2 PUSH0 DUP3 ADD SLOAD DUP2 MSTORE PUSH1 0x20 ADD PUSH1 0x1 DUP3 ADD SLOAD DUP2 MSTORE POP POP DUP2 MSTORE PUSH1 0x20 ADD SWAP1 PUSH1 0x1 ADD SWAP1 PUSH2 0x9FF JUMP JUMPDEST POP POP POP POP DUP2 MSTORE POP POP DUP4 DUP4 PUSH2 0x2372 JUMP JUMPDEST PUSH2 0xA97 JUMPI PUSH1 0x40 MLOAD PUSH3 0x461BCD PUSH1 0xE5 SHL DUP2 MSTORE PUSH1 0x20 PUSH1 0x4 DUP3 ADD MSTORE PUSH1 0x17 PUSH1 0x24 DUP3 ADD MSTORE PUSH23 0x1692D4081D995C9A599A58D85D1A5BDB8819985A5B1959 PUSH1 0x4A SHL PUSH1 0x44 DUP3 ADD MSTORE PUSH1 0x64 ADD PUSH2 0x62C JUMP JUMPDEST PUSH1 0x6 DUP4 ADD DUP1 SLOAD PUSH1 0xFF NOT AND PUSH1 0x1 SWAP1 DUP2 OR SWAP1 SWAP2 SSTORE PUSH1 0x4 DUP1 DUP6 ADD SLOAD DUP3 DUP7 ADD DUP1 SLOAD PUSH0 SWAP1 DUP2 MSTORE PUSH1 0x10 PUSH1 0x20 MSTORE PUSH1 0x40 DUP1 DUP3 KECCAK256 DUP7 ADD SWAP4 SWAP1 SWAP4 SSTORE SWAP1 SLOAD DUP2 MSTORE DUP2 SWAP1 KECCAK256 NUMBER PUSH1 0x2 SWAP1 SWAP2 ADD SSTORE DUP6 SLOAD SWAP1 MLOAD PUSH4 0x8D56276D PUSH1 0xE0 SHL DUP2 MSTORE PUSH1 0x1 PUSH1 0x1 PUSH1 0xA0 SHL SUB SWAP2 DUP3 AND SWAP3 DUP2 ADD SWAP3 SWAP1 SWAP3 MSTORE PUSH1 0x24 DUP3 ADD DUP4 SWAP1 MSTORE PUSH1 0x44 DUP3 ADD SWAP3 SWAP1 SWAP3 MSTORE PUSH32 0x0 SWAP1 SWAP2 AND SWAP1 PUSH4 0x8D56276D SWAP1 PUSH1 0x64 ADD PUSH0 PUSH1 0x40 MLOAD DUP1 DUP4 SUB DUP2 PUSH0 DUP8 DUP1 EXTCODESIZE ISZERO DUP1 ISZERO PUSH2 0xB4A JUMPI PUSH0 DUP1 REVERT JUMPDEST POP GAS CALL ISZERO DUP1 ISZERO PUSH2 0xB5C JUMPI RETURNDATASIZE PUSH0 DUP1 RETURNDATACOPY RETURNDATASIZE PUSH0 REVERT JUMPDEST POP POP POP POP PUSH1 0x15 SLOAD SELFBALANCE LT PUSH2 0xBA3 JUMPI DUP3 SLOAD PUSH1 0x15 SLOAD PUSH1 0x40 MLOAD PUSH1 0x1 PUSH1 0x1 PUSH1 0xA0 SHL SUB SWAP1 SWAP3 AND SWAP2 DUP2 ISZERO PUSH2 0x8FC MUL SWAP2 SWAP1 PUSH0 DUP2 DUP2 DUP2 DUP6 DUP9 DUP9 CALL SWAP4 POP POP POP POP ISZERO DUP1 ISZERO PUSH2 0xBA1 JUMPI RETURNDATASIZE PUSH0 DUP1 RETURNDATACOPY RETURNDATASIZE PUSH0 REVERT JUMPDEST POP JUMPDEST DUP3 SLOAD PUSH1 0x15 SLOAD PUSH1 0x40 MLOAD SWAP1 DUP2 MSTORE PUSH1 0x1 PUSH1 0x1 PUSH1 0xA0 SHL SUB SWAP1 SWAP2 AND SWAP1 DUP9 SWAP1 PUSH32 0x21E03427DF8EC7C4583A19E42161339F975E9EA2570116BAD55B2A55F3398A5A SWAP1 PUSH1 0x20 ADD PUSH1 0x40 MLOAD DUP1 SWAP2 SUB SWAP1 LOG3 POP POP POP POP POP POP POP JUMP JUMPDEST PUSH8 0xDE0B6B3A7640000 CALLVALUE LT ISZERO PUSH2 0xC3F JUMPI PUSH1 0x40 MLOAD PUSH3 0x461BCD PUSH1 0xE5 SHL DUP2 MSTORE PUSH1 0x20 PUSH1 0x4 DUP3 ADD MSTORE PUSH1 0x12 PUSH1 0x24 DUP3 ADD MSTORE PUSH18 0x496E73756666696369656E74207374616B65 PUSH1 0x70 SHL PUSH1 0x44 DUP3 ADD MSTORE PUSH1 0x64 ADD PUSH2 0x62C JUMP JUMPDEST CALLER PUSH0 SWAP1 DUP2 MSTORE PUSH1 0x16 PUSH1 0x20 MSTORE PUSH1 0x40 DUP2 KECCAK256 DUP1 SLOAD CALLVALUE SWAP3 SWAP1 PUSH2 0xC5D SWAP1 DUP5 SWAP1 PUSH2 0x3156 JUMP JUMPDEST SWAP1 SWAP2 SSTORE POP POP PUSH1 0x40 MLOAD CALLVALUE DUP2 MSTORE CALLER SWAP1 PUSH32 0x996B041421105B7431CA7B8A8372F29BDA1E574C3614B1F91E4CDCF82E9502B SWAP1 PUSH1 0x20 ADD PUSH1 0x40 MLOAD DUP1 SWAP2 SUB SWAP1 LOG2 JUMP JUMPDEST PUSH1 0x19 SLOAD PUSH1 0x1 PUSH1 0x1 PUSH1 0xA0 SHL SUB AND CALLER EQ PUSH2 0xCC3 JUMPI PUSH1 0x40 MLOAD PUSH3 0x461BCD PUSH1 0xE5 SHL DUP2 MSTORE PUSH1 0x4 ADD PUSH2 0x62C SWAP1 PUSH2 0x3169 JUMP JUMPDEST PUSH1 0x40 DUP1 MLOAD DUP1 DUP3 ADD DUP3 MSTORE DUP8 CALLDATALOAD DUP1 DUP3 MSTORE PUSH1 0x20 DUP1 DUP11 ADD CALLDATALOAD SWAP3 ADD DUP3 SWAP1 MSTORE PUSH0 SSTORE PUSH1 0x1 SSTORE DUP1 MLOAD PUSH1 0x80 DUP2 ADD DUP3 MSTORE SWAP1 DUP2 SWAP1 DUP2 DUP2 ADD SWAP1 DUP9 SWAP1 PUSH1 0x2 SWAP1 DUP4 SWAP1 DUP4 SWAP1 DUP1 DUP3 DUP5 CALLDATACOPY PUSH0 SWAP3 ADD SWAP2 SWAP1 SWAP2 MSTORE POP POP POP DUP2 MSTORE PUSH1 0x40 DUP1 MLOAD DUP1 DUP3 ADD DUP3 MSTORE PUSH1 0x20 SWAP1 SWAP3 ADD SWAP2 SWAP1 DUP1 DUP10 ADD SWAP1 PUSH1 0x2 SWAP1 DUP4 SWAP1 DUP4 SWAP1 DUP1 DUP3 DUP5 CALLDATACOPY PUSH0 SWAP3 ADD SWAP2 SWAP1 SWAP2 MSTORE POP POP POP SWAP1 MSTORE DUP1 MLOAD PUSH1 0x2 SWAP1 PUSH2 0xD45 SWAP1 DUP3 SWAP1 DUP2 PUSH2 0x2D20 JUMP JUMPDEST POP PUSH1 0x20 DUP3 ADD MLOAD PUSH2 0xD5B SWAP1 PUSH1 0x2 DUP1 DUP5 ADD SWAP2 SWAP1 PUSH2 0x2D20 JUMP JUMPDEST POP POP PUSH1 0x40 DUP1 MLOAD PUSH1 0x80 DUP2 ADD DUP3 MSTORE SWAP2 POP DUP2 SWAP1 DUP2 DUP2 ADD SWAP1 DUP8 SWAP1 PUSH1 0x2 SWAP1 DUP4 SWAP1 DUP4 SWAP1 DUP1 DUP3 DUP5 CALLDATACOPY PUSH0 SWAP3 ADD SWAP2 SWAP1 SWAP2 MSTORE POP POP POP DUP2 MSTORE PUSH1 0x40 DUP1 MLOAD DUP1 DUP3 ADD DUP3 MSTORE PUSH1 0x20 SWAP1 SWAP3 ADD SWAP2 SWAP1 DUP1 DUP9 ADD SWAP1 PUSH1 0x2 SWAP1 DUP4 SWAP1 DUP4 SWAP1 DUP1 DUP3 DUP5 CALLDATACOPY PUSH0 SWAP3 ADD SWAP2 SWAP1 SWAP2 MSTORE POP POP POP SWAP1 MSTORE DUP1 MLOAD PUSH1 0x6 SWAP1 PUSH2 0xDC5 SWAP1 DUP3 SWAP1 PUSH1 0x2 PUSH2 0x2D20 JUMP JUMPDEST POP PUSH1 0x20 DUP3 ADD MLOAD PUSH2 0xDDB SWAP1 PUSH1 0x2 DUP1 DUP5 ADD SWAP2 SWAP1 PUSH2 0x2D20 JUMP JUMPDEST POP POP PUSH1 0x40 DUP1 MLOAD PUSH1 0x80 DUP2 ADD DUP3 MSTORE SWAP2 POP DUP2 SWAP1 DUP2 DUP2 ADD SWAP1 DUP7 SWAP1 PUSH1 0x2 SWAP1 DUP4 SWAP1 DUP4 SWAP1 DUP1 DUP3 DUP5 CALLDATACOPY PUSH0 SWAP3 ADD SWAP2 SWAP1 SWAP2 MSTORE POP POP POP DUP2 MSTORE PUSH1 0x40 DUP1 MLOAD DUP1 DUP3 ADD DUP3 MSTORE PUSH1 0x20 SWAP1 SWAP3 ADD SWAP2 SWAP1 DUP1 DUP8 ADD SWAP1 PUSH1 0x2 SWAP1 DUP4 SWAP1 DUP4 SWAP1 DUP1 DUP3 DUP5 CALLDATACOPY PUSH0 SWAP3 ADD SWAP2 SWAP1 SWAP2 MSTORE POP POP POP SWAP1 MSTORE DUP1 MLOAD PUSH1 0xA SWAP1 PUSH2 0xE45 SWAP1 DUP3 SWAP1 PUSH1 0x2 PUSH2 0x2D20 JUMP JUMPDEST POP PUSH1 0x20 DUP3 ADD MLOAD PUSH2 0xE5B SWAP1 PUSH1 0x2 DUP1 DUP5 ADD SWAP2 SWAP1 PUSH2 0x2D20 JUMP JUMPDEST POP PUSH2 0xE6B SWAP2 POP PUSH1 0xE SWAP1 POP PUSH0 PUSH2 0x2D5E JUMP JUMPDEST PUSH0 JUMPDEST DUP2 DUP2 LT ISZERO PUSH2 0xF33 JUMPI PUSH0 PUSH1 0xE ADD PUSH1 0x40 MLOAD DUP1 PUSH1 0x40 ADD PUSH1 0x40 MSTORE DUP1 DUP6 DUP6 DUP6 DUP2 DUP2 LT PUSH2 0xE96 JUMPI PUSH2 0xE96 PUSH2 0x311A JUMP JUMPDEST SWAP1 POP PUSH1 0x20 MUL DUP2 ADD SWAP1 PUSH2 0xEA8 SWAP2 SWAP1 PUSH2 0x318C JUMP JUMPDEST PUSH0 DUP2 DUP2 LT PUSH2 0xEB8 JUMPI PUSH2 0xEB8 PUSH2 0x311A JUMP JUMPDEST SWAP1 POP PUSH1 0x20 MUL ADD CALLDATALOAD DUP2 MSTORE PUSH1 0x20 ADD DUP6 DUP6 DUP6 DUP2 DUP2 LT PUSH2 0xED6 JUMPI PUSH2 0xED6 PUSH2 0x311A JUMP JUMPDEST SWAP1 POP PUSH1 0x20 MUL DUP2 ADD SWAP1 PUSH2 0xEE8 SWAP2 SWAP1 PUSH2 0x318C JUMP JUMPDEST PUSH1 0x1 DUP2 DUP2 LT PUSH2 0xEF9 JUMPI PUSH2 0xEF9 PUSH2 0x311A JUMP JUMPDEST PUSH1 0x20 SWAP1 DUP2 MUL SWAP3 SWAP1 SWAP3 ADD CALLDATALOAD SWAP1 SWAP3 MSTORE DUP4 SLOAD PUSH1 0x1 DUP2 DUP2 ADD DUP7 SSTORE PUSH0 SWAP6 DUP7 MSTORE SWAP5 DUP3 SWAP1 KECCAK256 DUP5 MLOAD PUSH1 0x2 SWAP1 SWAP3 MUL ADD SWAP1 DUP2 SSTORE SWAP3 ADD MLOAD SWAP2 DUP4 ADD SWAP2 SWAP1 SWAP2 SSTORE POP ADD PUSH2 0xE6D JUMP JUMPDEST POP POP POP POP POP POP POP JUMP JUMPDEST PUSH1 0x14 PUSH1 0x20 MSTORE DUP2 PUSH0 MSTORE PUSH1 0x40 PUSH0 KECCAK256 DUP2 DUP2 SLOAD DUP2 LT PUSH2 0xF55 JUMPI PUSH0 DUP1 REVERT JUMPDEST PUSH0 SWAP2 DUP3 MSTORE PUSH1 0x20 SWAP1 SWAP2 KECCAK256 PUSH1 0x3 SWAP1 SWAP2 MUL ADD DUP1 SLOAD PUSH1 0x1 DUP3 ADD SLOAD PUSH1 0x2 SWAP1 SWAP3 ADD SLOAD PUSH1 0x1 PUSH1 0x1 PUSH1 0xA0 SHL SUB SWAP1 SWAP2 AND SWAP4 POP SWAP1 SWAP2 POP DUP4 JUMP JUMPDEST PUSH1 0x19 SLOAD PUSH1 0x1 PUSH1 0x1 PUSH1 0xA0 SHL SUB AND CALLER EQ PUSH2 0xFAE JUMPI PUSH1 0x40 MLOAD PUSH3 0x461BCD PUSH1 0xE5 SHL DUP2 MSTORE PUSH1 0x4 ADD PUSH2 0x62C SWAP1 PUSH2 0x3169 JUMP JUMPDEST PUSH0 DUP3 DUP2 MSTORE PUSH1 0x10 PUSH1 0x20 MSTORE PUSH1 0x40 SWAP1 KECCAK256 PUSH1 0x4 ADD SLOAD PUSH1 0xFF AND ISZERO PUSH2 0x1004 JUMPI PUSH1 0x40 MLOAD PUSH3 0x461BCD PUSH1 0xE5 SHL DUP2 MSTORE PUSH1 0x20 PUSH1 0x4 DUP3 ADD MSTORE PUSH1 0x12 PUSH1 0x24 DUP3 ADD MSTORE PUSH18 0x105B1C9958591E481C9959DA5CDD195C9959 PUSH1 0x72 SHL PUSH1 0x44 DUP3 ADD MSTORE PUSH1 0x64 ADD PUSH2 0x62C JUMP JUMPDEST PUSH1 0x40 DUP1 MLOAD PUSH1 0xA0 DUP2 ADD DUP3 MSTORE DUP4 DUP2 MSTORE PUSH1 0x20 DUP1 DUP3 ADD DUP5 DUP2 MSTORE NUMBER DUP4 DUP6 ADD SWAP1 DUP2 MSTORE PUSH0 PUSH1 0x60 DUP6 ADD DUP2 DUP2 MSTORE PUSH1 0x1 PUSH1 0x80 DUP8 ADD DUP2 DUP2 MSTORE DUP11 DUP5 MSTORE PUSH1 0x10 DUP8 MSTORE DUP9 DUP5 KECCAK256 SWAP8 MLOAD DUP9 SSTORE SWAP5 MLOAD DUP8 DUP3 ADD SSTORE SWAP3 MLOAD PUSH1 0x2 DUP8 ADD SSTORE MLOAD PUSH1 0x3 DUP7 ADD SSTORE SWAP2 MLOAD PUSH1 0x4 SWAP1 SWAP5 ADD DUP1 SLOAD PUSH1 0xFF NOT AND SWAP5 ISZERO ISZERO SWAP5 SWAP1 SWAP5 OR SWAP1 SWAP4 SSTORE PUSH1 0x11 DUP1 SLOAD SWAP4 DUP5 ADD DUP2 SSTORE SWAP1 MSTORE PUSH32 0x31ECC21A745E3968A04E9570E4425BC18FA8019C68028196B546D1669C200C68 SWAP1 SWAP2 ADD DUP5 SWAP1 SSTORE SWAP1 MLOAD DUP3 DUP2 MSTORE DUP4 SWAP2 PUSH32 0x2C698CB2ACCE446D2F91F2B451C3776E20FD161C697AB5D1CF06C6B1DAC1F2F SWAP2 ADD PUSH1 0x40 MLOAD DUP1 SWAP2 SUB SWAP1 LOG2 POP POP JUMP JUMPDEST PUSH1 0x19 SLOAD PUSH1 0x1 PUSH1 0x1 PUSH1 0xA0 SHL SUB AND CALLER EQ PUSH2 0x10FB JUMPI PUSH1 0x40 MLOAD PUSH3 0x461BCD PUSH1 0xE5 SHL DUP2 MSTORE PUSH1 0x4 ADD PUSH2 0x62C SWAP1 PUSH2 0x3169 JUMP JUMPDEST PUSH1 0xF DUP1 SLOAD PUSH1 0xFF NOT AND PUSH1 0x1 OR SWAP1 SSTORE JUMP JUMPDEST CALLER PUSH0 SWAP1 DUP2 MSTORE PUSH1 0x17 PUSH1 0x20 MSTORE PUSH1 0x40 SWAP1 KECCAK256 SLOAD PUSH1 0xFF AND PUSH2 0x1138 JUMPI PUSH1 0x40 MLOAD PUSH3 0x461BCD PUSH1 0xE5 SHL DUP2 MSTORE PUSH1 0x4 ADD PUSH2 0x62C SWAP1 PUSH2 0x30F5 JUMP JUMPDEST PUSH0 DUP5 DUP2 MSTORE PUSH1 0x10 PUSH1 0x20 MSTORE PUSH1 0x40 SWAP1 KECCAK256 PUSH1 0x4 ADD SLOAD PUSH1 0xFF AND PUSH2 0x1168 JUMPI PUSH1 0x40 MLOAD PUSH3 0x461BCD PUSH1 0xE5 SHL DUP2 MSTORE PUSH1 0x4 ADD PUSH2 0x62C SWAP1 PUSH2 0x31D2 JUMP JUMPDEST PUSH0 DUP6 DUP2 MSTORE PUSH1 0x14 PUSH1 0x20 MSTORE PUSH1 0x40 SWAP1 KECCAK256 DUP1 SLOAD PUSH2 0x11B8 JUMPI PUSH1 0x40 MLOAD PUSH3 0x461BCD PUSH1 0xE5 SHL DUP2 MSTORE PUSH1 0x20 PUSH1 0x4 DUP3 ADD MSTORE PUSH1 0x12 PUSH1 0x24 DUP3 ADD MSTORE PUSH18 0x456D70747920636F6D6D69742067726F757 PUSH1 0x74 SHL PUSH1 0x44 DUP3 ADD MSTORE PUSH1 0x64 ADD PUSH2 0x62C JUMP JUMPDEST PUSH0 DUP1 JUMPDEST DUP3 SLOAD DUP2 LT ISZERO PUSH2 0x11FB JUMPI DUP3 DUP2 DUP2 SLOAD DUP2 LT PUSH2 0x11D6 JUMPI PUSH2 0x11D6 PUSH2 0x311A JUMP JUMPDEST SWAP1 PUSH0 MSTORE PUSH1 0x20 PUSH0 KECCAK256 SWAP1 PUSH1 0x3 MUL ADD PUSH1 0x2 ADD SLOAD DUP3 PUSH2 0x11F1 SWAP2 SWAP1 PUSH2 0x3156 JUMP JUMPDEST SWAP2 POP PUSH1 0x1 ADD PUSH2 0x11BB JUMP JUMPDEST POP PUSH0 DUP2 GT PUSH2 0x123F JUMPI PUSH1 0x40 MLOAD PUSH3 0x461BCD PUSH1 0xE5 SHL DUP2 MSTORE PUSH1 0x20 PUSH1 0x4 DUP3 ADD MSTORE PUSH1 0x11 PUSH1 0x24 DUP3 ADD MSTORE PUSH17 0x16995C9BC81D1BDD185B081DD95A59DA1D PUSH1 0x7A SHL PUSH1 0x44 DUP3 ADD MSTORE PUSH1 0x64 ADD PUSH2 0x62C JUMP JUMPDEST PUSH0 DUP1 DUP1 JUMPDEST DUP5 SLOAD DUP2 LT ISZERO PUSH2 0x1317 JUMPI PUSH0 DUP6 DUP3 DUP2 SLOAD DUP2 LT PUSH2 0x125F JUMPI PUSH2 0x125F PUSH2 0x311A JUMP JUMPDEST SWAP1 PUSH0 MSTORE PUSH1 0x20 PUSH0 KECCAK256 SWAP1 PUSH1 0x3 MUL ADD PUSH1 0x1 ADD SLOAD SWAP1 POP PUSH0 DUP1 JUMPDEST DUP8 SLOAD DUP2 LT ISZERO PUSH2 0x12DD JUMPI DUP3 DUP9 DUP3 DUP2 SLOAD DUP2 LT PUSH2 0x1290 JUMPI PUSH2 0x1290 PUSH2 0x311A JUMP JUMPDEST SWAP1 PUSH0 MSTORE PUSH1 0x20 PUSH0 KECCAK256 SWAP1 PUSH1 0x3 MUL ADD PUSH1 0x1 ADD SLOAD SUB PUSH2 0x12D5 JUMPI DUP8 DUP2 DUP2 SLOAD DUP2 LT PUSH2 0x12B7 JUMPI PUSH2 0x12B7 PUSH2 0x311A JUMP JUMPDEST SWAP1 PUSH0 MSTORE PUSH1 0x20 PUSH0 KECCAK256 SWAP1 PUSH1 0x3 MUL ADD PUSH1 0x2 ADD SLOAD DUP3 PUSH2 0x12D2 SWAP2 SWAP1 PUSH2 0x3156 JUMP JUMPDEST SWAP2 POP JUMPDEST PUSH1 0x1 ADD PUSH2 0x1274 JUMP JUMPDEST POP PUSH2 0x12E9 DUP7 PUSH1 0x2 PUSH2 0x3200 JUMP JUMPDEST PUSH2 0x12F4 DUP3 PUSH1 0x3 PUSH2 0x3200 JUMP JUMPDEST LT ISZERO DUP1 ISZERO PUSH2 0x1301 JUMPI POP DUP4 DUP2 GT JUMPDEST ISZERO PUSH2 0x130D JUMPI DUP2 SWAP5 POP DUP1 SWAP4 POP JUMPDEST POP POP PUSH1 0x1 ADD PUSH2 0x1243 JUMP JUMPDEST POP DUP2 PUSH2 0x1365 JUMPI PUSH1 0x40 MLOAD PUSH3 0x461BCD PUSH1 0xE5 SHL DUP2 MSTORE PUSH1 0x20 PUSH1 0x4 DUP3 ADD MSTORE PUSH1 0x18 PUSH1 0x24 DUP3 ADD MSTORE PUSH32 0x4E6F20322F33207765696768746564206D616A6F726974790000000000000000 PUSH1 0x44 DUP3 ADD MSTORE PUSH1 0x64 ADD PUSH2 0x62C JUMP JUMPDEST PUSH1 0x40 DUP1 MLOAD PUSH1 0xA0 DUP2 ADD DUP3 MSTORE DUP9 CALLDATALOAD PUSH1 0x60 DUP3 ADD SWAP1 DUP2 MSTORE PUSH1 0x20 DUP1 DUP12 ADD CALLDATALOAD PUSH1 0x80 DUP1 DUP6 ADD SWAP2 SWAP1 SWAP2 MSTORE SWAP2 DUP4 MSTORE DUP4 MLOAD SWAP2 DUP3 ADD DUP5 MSTORE PUSH0 SWAP4 SWAP1 DUP4 ADD SWAP2 SWAP1 DUP2 SWAP1 DUP2 DUP2 ADD SWAP1 DUP13 SWAP1 PUSH1 0x2 SWAP1 DUP4 SWAP1 DUP4 SWAP1 DUP1 DUP3 DUP5 CALLDATACOPY PUSH0 SWAP3 ADD SWAP2 SWAP1 SWAP2 MSTORE POP POP POP DUP2 MSTORE PUSH1 0x40 DUP1 MLOAD DUP1 DUP3 ADD DUP3 MSTORE PUSH1 0x20 SWAP1 SWAP3 ADD SWAP2 SWAP1 DUP1 DUP14 ADD SWAP1 PUSH1 0x2 SWAP1 DUP4 SWAP1 DUP4 SWAP1 DUP1 DUP3 DUP5 CALLDATACOPY PUSH0 SWAP3 ADD DUP3 SWAP1 MSTORE POP SWAP3 SWAP1 SWAP4 MSTORE POP SWAP2 DUP4 MSTORE POP PUSH1 0x40 DUP1 MLOAD DUP1 DUP3 ADD DUP3 MSTORE DUP11 CALLDATALOAD DUP2 MSTORE PUSH1 0x20 DUP1 DUP13 ADD CALLDATALOAD DUP2 DUP4 ADD MSTORE SWAP4 DUP5 ADD MSTORE DUP1 MLOAD PUSH1 0x2 DUP1 DUP3 MSTORE PUSH1 0x60 DUP3 ADD DUP4 MSTORE SWAP5 SWAP6 POP SWAP2 SWAP4 SWAP2 SWAP3 DUP4 ADD SWAP1 DUP1 CALLDATASIZE DUP4 CALLDATACOPY POP POP POP PUSH0 DUP12 DUP2 MSTORE PUSH1 0x10 PUSH1 0x20 MSTORE PUSH1 0x40 DUP2 KECCAK256 PUSH1 0x1 ADD SLOAD DUP3 MLOAD SWAP3 SWAP4 POP SWAP2 DUP4 SWAP2 SWAP1 PUSH2 0x1445 JUMPI PUSH2 0x1445 PUSH2 0x311A JUMP JUMPDEST PUSH1 0x20 MUL PUSH1 0x20 ADD ADD DUP2 DUP2 MSTORE POP POP DUP4 PUSH0 SHR DUP2 PUSH1 0x1 DUP2 MLOAD DUP2 LT PUSH2 0x1467 JUMPI PUSH2 0x1467 PUSH2 0x311A JUMP JUMPDEST PUSH1 0x20 SWAP1 DUP2 MUL SWAP2 SWAP1 SWAP2 ADD ADD MSTORE PUSH1 0xF SLOAD PUSH1 0xFF AND DUP1 PUSH2 0x165E JUMPI POP PUSH1 0x40 DUP1 MLOAD PUSH1 0xE0 DUP2 ADD DUP3 MSTORE PUSH0 DUP1 SLOAD PUSH1 0xA0 DUP4 ADD SWAP1 DUP2 MSTORE PUSH1 0x1 SLOAD PUSH1 0xC0 DUP5 ADD MSTORE DUP3 MSTORE DUP3 MLOAD PUSH1 0x80 DUP2 ADD DUP1 DUP6 MSTORE PUSH1 0x2 DUP1 SLOAD SWAP6 DUP4 ADD SWAP6 DUP7 MSTORE PUSH2 0x165E SWAP6 PUSH1 0x20 DUP7 ADD SWAP4 SWAP3 DUP4 SWAP2 SWAP1 DUP4 SWAP1 DUP2 SWAP1 PUSH1 0x3 PUSH1 0x60 DUP7 ADD DUP1 DUP4 GT PUSH2 0x891 JUMPI POP POP POP SWAP2 DUP4 MSTORE POP POP PUSH1 0x40 DUP1 MLOAD DUP1 DUP3 ADD SWAP2 DUP3 SWAP1 MSTORE PUSH1 0x2 DUP5 DUP2 ADD DUP1 SLOAD DUP4 MSTORE PUSH1 0x20 SWAP5 DUP6 ADD SWAP5 SWAP3 SWAP4 SWAP1 SWAP3 PUSH1 0x3 DUP8 ADD SWAP1 DUP6 ADD DUP1 DUP4 GT PUSH2 0x8C7 JUMPI POP POP POP SWAP2 SWAP1 SWAP3 MSTORE POP POP POP DUP2 MSTORE PUSH1 0x40 DUP1 MLOAD PUSH1 0x80 DUP2 ADD DUP1 DUP4 MSTORE PUSH1 0x6 DUP6 ADD DUP1 SLOAD SWAP4 DUP4 ADD SWAP4 DUP5 MSTORE PUSH1 0x20 SWAP1 SWAP5 ADD SWAP4 SWAP2 SWAP3 DUP4 SWAP2 DUP4 SWAP1 PUSH1 0x2 SWAP1 PUSH1 0x7 DUP10 ADD PUSH1 0x60 DUP7 ADD DUP1 DUP4 GT PUSH2 0x90B JUMPI POP POP POP SWAP2 DUP4 MSTORE POP POP PUSH1 0x40 DUP1 MLOAD DUP1 DUP3 ADD SWAP2 DUP3 SWAP1 MSTORE PUSH1 0x2 DUP5 DUP2 ADD DUP1 SLOAD DUP4 MSTORE PUSH1 0x20 SWAP5 DUP6 ADD SWAP5 SWAP3 SWAP4 SWAP1 SWAP3 PUSH1 0x3 DUP8 ADD SWAP1 DUP6 ADD DUP1 DUP4 GT PUSH2 0x941 JUMPI POP POP POP SWAP2 SWAP1 SWAP3 MSTORE POP POP POP DUP2 MSTORE PUSH1 0x40 DUP1 MLOAD PUSH1 0x80 DUP2 ADD DUP1 DUP4 MSTORE PUSH1 0xA DUP6 ADD DUP1 SLOAD SWAP4 DUP4 ADD SWAP4 DUP5 MSTORE PUSH1 0x20 SWAP1 SWAP5 ADD SWAP4 SWAP2 SWAP3 DUP4 SWAP2 DUP4 SWAP1 PUSH1 0x2 SWAP1 PUSH1 0xB DUP10 ADD PUSH1 0x60 DUP7 ADD DUP1 DUP4 GT PUSH2 0x985 JUMPI POP POP POP SWAP2 DUP4 MSTORE POP POP PUSH1 0x40 DUP1 MLOAD DUP1 DUP3 ADD SWAP2 DUP3 SWAP1 MSTORE PUSH1 0x2 DUP5 DUP2 ADD DUP1 SLOAD DUP4 MSTORE PUSH1 0x20 SWAP5 DUP6 ADD SWAP5 SWAP3 SWAP4 SWAP1 SWAP3 PUSH1 0x3 DUP8 ADD SWAP1 DUP6 ADD DUP1 DUP4 GT PUSH2 0x9BB JUMPI POP POP POP POP POP DUP2 MSTORE POP POP DUP2 MSTORE PUSH1 0x20 ADD PUSH1 0xE DUP3 ADD DUP1 SLOAD DUP1 PUSH1 0x20 MUL PUSH1 0x20 ADD PUSH1 0x40 MLOAD SWAP1 DUP2 ADD PUSH1 0x40 MSTORE DUP1 SWAP3 SWAP2 SWAP1 DUP2 DUP2 MSTORE PUSH1 0x20 ADD PUSH0 SWAP1 DUP3 DUP3 LT ISZERO PUSH2 0xA42 JUMPI DUP4 DUP3 SWAP1 PUSH0 MSTORE PUSH1 0x20 PUSH0 KECCAK256 SWAP1 PUSH1 0x2 MUL ADD PUSH1 0x40 MLOAD DUP1 PUSH1 0x40 ADD PUSH1 0x40 MSTORE SWAP1 DUP2 PUSH0 DUP3 ADD SLOAD DUP2 MSTORE PUSH1 0x20 ADD PUSH1 0x1 DUP3 ADD SLOAD DUP2 MSTORE POP POP DUP2 MSTORE PUSH1 0x20 ADD SWAP1 PUSH1 0x1 ADD SWAP1 PUSH2 0x9FF JUMP JUMPDEST PUSH2 0x16A4 JUMPI PUSH1 0x40 MLOAD PUSH3 0x461BCD PUSH1 0xE5 SHL DUP2 MSTORE PUSH1 0x20 PUSH1 0x4 DUP3 ADD MSTORE PUSH1 0x17 PUSH1 0x24 DUP3 ADD MSTORE PUSH23 0x1692D4081D995C9A599A58D85D1A5BDB8819985A5B1959 PUSH1 0x4A SHL PUSH1 0x44 DUP3 ADD MSTORE PUSH1 0x64 ADD PUSH2 0x62C JUMP JUMPDEST PUSH0 DUP11 DUP2 MSTORE PUSH1 0x10 PUSH1 0x20 MSTORE PUSH1 0x40 DUP2 KECCAK256 PUSH1 0x1 DUP2 ADD DUP7 SWAP1 SSTORE NUMBER PUSH1 0x2 SWAP1 SWAP2 ADD SSTORE JUMPDEST DUP7 SLOAD DUP2 LT ISZERO PUSH2 0x17B1 JUMPI PUSH0 DUP6 DUP9 DUP4 DUP2 SLOAD DUP2 LT PUSH2 0x16DD JUMPI PUSH2 0x16DD PUSH2 0x311A JUMP JUMPDEST SWAP1 PUSH0 MSTORE PUSH1 0x20 PUSH0 KECCAK256 SWAP1 PUSH1 0x3 MUL ADD PUSH1 0x1 ADD SLOAD EQ SWAP1 POP PUSH32 0x0 PUSH1 0x1 PUSH1 0x1 PUSH1 0xA0 SHL SUB AND PUSH4 0x8D56276D DUP10 DUP5 DUP2 SLOAD DUP2 LT PUSH2 0x1731 JUMPI PUSH2 0x1731 PUSH2 0x311A JUMP JUMPDEST PUSH0 SWAP2 DUP3 MSTORE PUSH1 0x20 SWAP1 SWAP2 KECCAK256 PUSH1 0x3 SWAP1 SWAP2 MUL ADD SLOAD PUSH1 0x40 MLOAD PUSH1 0xE0 DUP4 SWAP1 SHL PUSH1 0x1 PUSH1 0x1 PUSH1 0xE0 SHL SUB NOT AND DUP2 MSTORE PUSH1 0x1 PUSH1 0x1 PUSH1 0xA0 SHL SUB SWAP1 SWAP2 AND PUSH1 0x4 DUP3 ADD MSTORE DUP4 ISZERO ISZERO PUSH1 0x24 DUP3 ADD MSTORE PUSH1 0x1 PUSH1 0x44 DUP3 ADD MSTORE PUSH1 0x64 ADD PUSH0 PUSH1 0x40 MLOAD DUP1 DUP4 SUB DUP2 PUSH0 DUP8 DUP1 EXTCODESIZE ISZERO DUP1 ISZERO PUSH2 0x178E JUMPI PUSH0 DUP1 REVERT JUMPDEST POP GAS CALL ISZERO DUP1 ISZERO PUSH2 0x17A0 JUMPI RETURNDATASIZE PUSH0 DUP1 RETURNDATACOPY RETURNDATASIZE PUSH0 REVERT JUMPDEST POP POP PUSH1 0x1 SWAP1 SWAP4 ADD SWAP3 POP PUSH2 0x16C0 SWAP2 POP POP JUMP JUMPDEST POP PUSH1 0x40 DUP1 MLOAD DUP6 DUP2 MSTORE PUSH1 0x20 DUP2 ADD DUP8 SWAP1 MSTORE SWAP1 DUP2 ADD DUP5 SWAP1 MSTORE DUP12 SWAP1 PUSH32 0x9FE75E55E3D79CCC700A1376ED0D73782A6D56A9049C63CC3B01B8659200E4C7 SWAP1 PUSH1 0x60 ADD PUSH1 0x40 MLOAD DUP1 SWAP2 SUB SWAP1 LOG2 POP POP POP POP POP POP POP POP POP POP POP JUMP JUMPDEST PUSH1 0x11 DUP2 DUP2 SLOAD DUP2 LT PUSH2 0x1811 JUMPI PUSH0 DUP1 REVERT JUMPDEST PUSH0 SWAP2 DUP3 MSTORE PUSH1 0x20 SWAP1 SWAP2 KECCAK256 ADD SLOAD SWAP1 POP DUP2 JUMP JUMPDEST PUSH1 0x13 DUP2 DUP2 SLOAD DUP2 LT PUSH2 0x1811 JUMPI PUSH0 DUP1 REVERT JUMPDEST CALLER PUSH0 SWAP1 DUP2 MSTORE PUSH1 0x17 PUSH1 0x20 MSTORE PUSH1 0x40 SWAP1 KECCAK256 SLOAD PUSH1 0xFF AND PUSH2 0x185E JUMPI PUSH1 0x40 MLOAD PUSH3 0x461BCD PUSH1 0xE5 SHL DUP2 MSTORE PUSH1 0x4 ADD PUSH2 0x62C SWAP1 PUSH2 0x30F5 JUMP JUMPDEST DUP3 DUP2 EQ PUSH2 0x189F JUMPI PUSH1 0x40 MLOAD PUSH3 0x461BCD PUSH1 0xE5 SHL DUP2 MSTORE PUSH1 0x20 PUSH1 0x4 DUP3 ADD MSTORE PUSH1 0xF PUSH1 0x24 DUP3 ADD MSTORE PUSH15 0x98CADCCEE8D040DAD2E6DAC2E8C6D PUSH1 0x8B SHL PUSH1 0x44 DUP3 ADD MSTORE PUSH1 0x64 ADD PUSH2 0x62C JUMP JUMPDEST DUP3 PUSH2 0x18E3 JUMPI PUSH1 0x40 MLOAD PUSH3 0x461BCD PUSH1 0xE5 SHL DUP2 MSTORE PUSH1 0x20 PUSH1 0x4 DUP3 ADD MSTORE PUSH1 0x14 PUSH1 0x24 DUP3 ADD MSTORE PUSH20 0x115B5C1D1E4818DB1D5CDD195C8818DBDB5B5A5D PUSH1 0x62 SHL PUSH1 0x44 DUP3 ADD MSTORE PUSH1 0x64 ADD PUSH2 0x62C JUMP JUMPDEST PUSH0 DUP1 PUSH0 DUP1 PUSH32 0x0 PUSH1 0x1 PUSH1 0x1 PUSH1 0xA0 SHL SUB AND PUSH4 0xEA181A9E DUP11 PUSH1 0x40 MLOAD DUP3 PUSH4 0xFFFFFFFF AND PUSH1 0xE0 SHL DUP2 MSTORE PUSH1 0x4 ADD PUSH2 0x1935 SWAP2 DUP2 MSTORE PUSH1 0x20 ADD SWAP1 JUMP JUMPDEST PUSH1 0x80 PUSH1 0x40 MLOAD DUP1 DUP4 SUB DUP2 DUP7 GAS STATICCALL ISZERO DUP1 ISZERO PUSH2 0x1950 JUMPI RETURNDATASIZE PUSH0 DUP1 RETURNDATACOPY RETURNDATASIZE PUSH0 REVERT JUMPDEST POP POP POP POP PUSH1 0x40 MLOAD RETURNDATASIZE PUSH1 0x1F NOT PUSH1 0x1F DUP3 ADD AND DUP3 ADD DUP1 PUSH1 0x40 MSTORE POP DUP2 ADD SWAP1 PUSH2 0x1974 SWAP2 SWAP1 PUSH2 0x322B JUMP JUMPDEST SWAP3 SWAP7 POP SWAP1 SWAP5 POP SWAP3 POP SWAP1 POP PUSH1 0x1 PUSH1 0x1 PUSH1 0xA0 SHL SUB DUP4 AND PUSH2 0x19CD JUMPI PUSH1 0x40 MLOAD PUSH3 0x461BCD PUSH1 0xE5 SHL DUP2 MSTORE PUSH1 0x20 PUSH1 0x4 DUP3 ADD MSTORE PUSH1 0x16 PUSH1 0x24 DUP3 ADD MSTORE PUSH22 0x125B9D985B1A590818DB1D5CDD195C8818DBDB5B5A5D PUSH1 0x52 SHL PUSH1 0x44 DUP3 ADD MSTORE PUSH1 0x64 ADD PUSH2 0x62C JUMP JUMPDEST DUP1 ISZERO PUSH2 0x1A0E JUMPI PUSH1 0x40 MLOAD PUSH3 0x461BCD PUSH1 0xE5 SHL DUP2 MSTORE PUSH1 0x20 PUSH1 0x4 DUP3 ADD MSTORE PUSH1 0x10 PUSH1 0x24 DUP3 ADD MSTORE PUSH16 0x105B1C9958591E481D995C9A599A5959 PUSH1 0x82 SHL PUSH1 0x44 DUP3 ADD MSTORE PUSH1 0x64 ADD PUSH2 0x62C JUMP JUMPDEST PUSH1 0x40 MLOAD PUSH4 0x2CC42A7 PUSH1 0xE2 SHL DUP2 MSTORE PUSH1 0x4 DUP2 ADD DUP6 SWAP1 MSTORE PUSH0 SWAP1 PUSH32 0x0 PUSH1 0x1 PUSH1 0x1 PUSH1 0xA0 SHL SUB AND SWAP1 PUSH4 0xB310A9C SWAP1 PUSH1 0x24 ADD PUSH0 PUSH1 0x40 MLOAD DUP1 DUP4 SUB DUP2 DUP7 GAS STATICCALL ISZERO DUP1 ISZERO PUSH2 0x1A72 JUMPI RETURNDATASIZE PUSH0 DUP1 RETURNDATACOPY RETURNDATASIZE PUSH0 REVERT JUMPDEST POP POP POP POP PUSH1 0x40 MLOAD RETURNDATASIZE PUSH0 DUP3 RETURNDATACOPY PUSH1 0x1F RETURNDATASIZE SWAP1 DUP2 ADD PUSH1 0x1F NOT AND DUP3 ADD PUSH1 0x40 MSTORE PUSH2 0x1A99 SWAP2 SWAP1 DUP2 ADD SWAP1 PUSH2 0x3266 JUMP JUMPDEST DUP1 MLOAD SWAP1 SWAP2 POP DUP9 EQ PUSH2 0x1AE3 JUMPI PUSH1 0x40 MLOAD PUSH3 0x461BCD PUSH1 0xE5 SHL DUP2 MSTORE PUSH1 0x20 PUSH1 0x4 DUP3 ADD MSTORE PUSH1 0x14 PUSH1 0x24 DUP3 ADD MSTORE PUSH20 0x86D0C2D2DC40C6DEEADCE840DAD2E6DAC2E8C6D PUSH1 0x63 SHL PUSH1 0x44 DUP3 ADD MSTORE PUSH1 0x64 ADD PUSH2 0x62C JUMP JUMPDEST PUSH0 JUMPDEST DUP9 DUP2 LT ISZERO PUSH2 0x1B90 JUMPI PUSH0 DUP1 JUMPDEST DUP4 MLOAD DUP2 LT ISZERO PUSH2 0x1B42 JUMPI DUP4 DUP2 DUP2 MLOAD DUP2 LT PUSH2 0x1B0B JUMPI PUSH2 0x1B0B PUSH2 0x311A JUMP JUMPDEST PUSH1 0x20 MUL PUSH1 0x20 ADD ADD MLOAD DUP13 DUP13 DUP6 DUP2 DUP2 LT PUSH2 0x1B25 JUMPI PUSH2 0x1B25 PUSH2 0x311A JUMP JUMPDEST SWAP1 POP PUSH1 0x20 MUL ADD CALLDATALOAD SUB PUSH2 0x1B3A JUMPI PUSH1 0x1 SWAP2 POP PUSH2 0x1B42 JUMP JUMPDEST PUSH1 0x1 ADD PUSH2 0x1AF0 JUMP JUMPDEST POP DUP1 PUSH2 0x1B87 JUMPI PUSH1 0x40 MLOAD PUSH3 0x461BCD PUSH1 0xE5 SHL DUP2 MSTORE PUSH1 0x20 PUSH1 0x4 DUP3 ADD MSTORE PUSH1 0x14 PUSH1 0x24 DUP3 ADD MSTORE PUSH20 0x21B430B4B7103737BA1034B71031B63AB9BA32B9 PUSH1 0x61 SHL PUSH1 0x44 DUP3 ADD MSTORE PUSH1 0x64 ADD PUSH2 0x62C JUMP JUMPDEST POP PUSH1 0x1 ADD PUSH2 0x1AE5 JUMP JUMPDEST POP PUSH0 PUSH2 0x1BCD DUP9 DUP9 DUP1 DUP1 PUSH1 0x20 MUL PUSH1 0x20 ADD PUSH1 0x40 MLOAD SWAP1 DUP2 ADD PUSH1 0x40 MSTORE DUP1 SWAP4 SWAP3 SWAP2 SWAP1 DUP2 DUP2 MSTORE PUSH1 0x20 ADD DUP4 DUP4 PUSH1 0x20 MUL DUP1 DUP3 DUP5 CALLDATACOPY PUSH0 SWAP3 ADD SWAP2 SWAP1 SWAP2 MSTORE POP PUSH2 0x269C SWAP3 POP POP POP JUMP JUMPDEST SWAP1 POP DUP4 DUP2 EQ PUSH2 0x1C1E JUMPI PUSH1 0x40 MLOAD PUSH3 0x461BCD PUSH1 0xE5 SHL DUP2 MSTORE PUSH1 0x20 PUSH1 0x4 DUP3 ADD MSTORE PUSH1 0x18 PUSH1 0x24 DUP3 ADD MSTORE PUSH32 0x4167677265676174656420726F6F74206D69736D617463680000000000000000 PUSH1 0x44 DUP3 ADD MSTORE PUSH1 0x64 ADD PUSH2 0x62C JUMP JUMPDEST PUSH0 JUMPDEST DUP10 DUP2 LT ISZERO PUSH2 0x1CFB JUMPI PUSH1 0x10 PUSH0 DUP13 DUP13 DUP5 DUP2 DUP2 LT PUSH2 0x1C3D JUMPI PUSH2 0x1C3D PUSH2 0x311A JUMP JUMPDEST PUSH1 0x20 SWAP1 DUP2 MUL SWAP3 SWAP1 SWAP3 ADD CALLDATALOAD DUP4 MSTORE POP DUP2 ADD SWAP2 SWAP1 SWAP2 MSTORE PUSH1 0x40 ADD PUSH0 KECCAK256 PUSH1 0x4 ADD SLOAD PUSH1 0xFF AND PUSH2 0x1C78 JUMPI PUSH1 0x40 MLOAD PUSH3 0x461BCD PUSH1 0xE5 SHL DUP2 MSTORE PUSH1 0x4 ADD PUSH2 0x62C SWAP1 PUSH2 0x31D2 JUMP JUMPDEST DUP9 DUP9 DUP3 DUP2 DUP2 LT PUSH2 0x1C8A JUMPI PUSH2 0x1C8A PUSH2 0x311A JUMP JUMPDEST SWAP1 POP PUSH1 0x20 MUL ADD CALLDATALOAD PUSH1 0x10 PUSH0 DUP14 DUP14 DUP6 DUP2 DUP2 LT PUSH2 0x1CA6 JUMPI PUSH2 0x1CA6 PUSH2 0x311A JUMP JUMPDEST SWAP1 POP PUSH1 0x20 MUL ADD CALLDATALOAD DUP2 MSTORE PUSH1 0x20 ADD SWAP1 DUP2 MSTORE PUSH1 0x20 ADD PUSH0 KECCAK256 PUSH1 0x1 ADD DUP2 SWAP1 SSTORE POP NUMBER PUSH1 0x10 PUSH0 DUP14 DUP14 DUP6 DUP2 DUP2 LT PUSH2 0x1CD7 JUMPI PUSH2 0x1CD7 PUSH2 0x311A JUMP JUMPDEST PUSH1 0x20 SWAP1 DUP2 MUL SWAP3 SWAP1 SWAP3 ADD CALLDATALOAD DUP4 MSTORE POP DUP2 ADD SWAP2 SWAP1 SWAP2 MSTORE PUSH1 0x40 ADD PUSH0 KECCAK256 PUSH1 0x2 ADD SSTORE PUSH1 0x1 ADD PUSH2 0x1C20 JUMP JUMPDEST POP PUSH1 0x40 MLOAD PUSH4 0x12674225 PUSH1 0xE0 SHL DUP2 MSTORE PUSH1 0x4 DUP2 ADD DUP13 SWAP1 MSTORE PUSH32 0x0 PUSH1 0x1 PUSH1 0x1 PUSH1 0xA0 SHL SUB AND SWAP1 PUSH4 0x12674225 SWAP1 PUSH1 0x24 ADD PUSH0 PUSH1 0x40 MLOAD DUP1 DUP4 SUB DUP2 PUSH0 DUP8 DUP1 EXTCODESIZE ISZERO DUP1 ISZERO PUSH2 0x1D5B JUMPI PUSH0 DUP1 REVERT JUMPDEST POP GAS CALL ISZERO DUP1 ISZERO PUSH2 0x1D6D JUMPI RETURNDATASIZE PUSH0 DUP1 RETURNDATACOPY RETURNDATASIZE PUSH0 REVERT JUMPDEST POP POP PUSH1 0x40 MLOAD DUP12 DUP2 MSTORE DUP9 SWAP3 POP DUP14 SWAP2 POP PUSH32 0x620EE78A1AA2603382D2BDDED7DCF208BA16C1D45F6D61EC9BA01B38B6D7415 SWAP1 PUSH1 0x20 ADD PUSH1 0x40 MLOAD DUP1 SWAP2 SUB SWAP1 LOG3 POP POP POP POP POP POP POP POP POP POP POP JUMP JUMPDEST PUSH0 DUP6 DUP2 MSTORE PUSH1 0x10 PUSH1 0x20 MSTORE PUSH1 0x40 DUP2 KECCAK256 PUSH1 0x4 ADD SLOAD PUSH1 0xFF AND PUSH2 0x1DE5 JUMPI PUSH1 0x40 MLOAD PUSH3 0x461BCD PUSH1 0xE5 SHL DUP2 MSTORE PUSH1 0x4 ADD PUSH2 0x62C SWAP1 PUSH2 0x31D2 JUMP JUMPDEST CALLER PUSH0 SWAP1 DUP2 MSTORE PUSH1 0x16 PUSH1 0x20 MSTORE PUSH1 0x40 SWAP1 KECCAK256 SLOAD PUSH8 0xDE0B6B3A7640000 GT ISZERO PUSH2 0x1E40 JUMPI PUSH1 0x40 MLOAD PUSH3 0x461BCD PUSH1 0xE5 SHL DUP2 MSTORE PUSH1 0x20 PUSH1 0x4 DUP3 ADD MSTORE PUSH1 0x12 PUSH1 0x24 DUP3 ADD MSTORE PUSH18 0x496E73756666696369656E74207374616B65 PUSH1 0x70 SHL PUSH1 0x44 DUP3 ADD MSTORE PUSH1 0x64 ADD PUSH2 0x62C JUMP JUMPDEST PUSH1 0x40 MLOAD PUSH4 0xED00AD9 PUSH1 0xE3 SHL DUP2 MSTORE CALLER PUSH1 0x4 DUP3 ADD MSTORE PUSH32 0x0 PUSH1 0x1 PUSH1 0x1 PUSH1 0xA0 SHL SUB AND SWAP1 PUSH4 0x768056C8 SWAP1 PUSH1 0x24 ADD PUSH1 0x20 PUSH1 0x40 MLOAD DUP1 DUP4 SUB DUP2 DUP7 GAS STATICCALL ISZERO DUP1 ISZERO PUSH2 0x1EA2 JUMPI RETURNDATASIZE PUSH0 DUP1 RETURNDATACOPY RETURNDATASIZE PUSH0 REVERT JUMPDEST POP POP POP POP PUSH1 0x40 MLOAD RETURNDATASIZE PUSH1 0x1F NOT PUSH1 0x1F DUP3 ADD AND DUP3 ADD DUP1 PUSH1 0x40 MSTORE POP DUP2 ADD SWAP1 PUSH2 0x1EC6 SWAP2 SWAP1 PUSH2 0x331F JUMP JUMPDEST PUSH2 0x1F12 JUMPI PUSH1 0x40 MLOAD PUSH3 0x461BCD PUSH1 0xE5 SHL DUP2 MSTORE PUSH1 0x20 PUSH1 0x4 DUP3 ADD MSTORE PUSH1 0x1A PUSH1 0x24 DUP3 ADD MSTORE PUSH32 0x4E6F742061207265676973746572656420636F6D6D6974746572000000000000 PUSH1 0x44 DUP3 ADD MSTORE PUSH1 0x64 ADD PUSH2 0x62C JUMP JUMPDEST PUSH1 0x40 MLOAD PUSH4 0xB4A89247 PUSH1 0xE0 SHL DUP2 MSTORE CALLER PUSH1 0x4 DUP3 ADD MSTORE PUSH0 SWAP1 PUSH32 0x0 PUSH1 0x1 PUSH1 0x1 PUSH1 0xA0 SHL SUB AND SWAP1 PUSH4 0xB4A89247 SWAP1 PUSH1 0x24 ADD PUSH1 0x20 PUSH1 0x40 MLOAD DUP1 DUP4 SUB DUP2 DUP7 GAS STATICCALL ISZERO DUP1 ISZERO PUSH2 0x1F76 JUMPI RETURNDATASIZE PUSH0 DUP1 RETURNDATACOPY RETURNDATASIZE PUSH0 REVERT JUMPDEST POP POP POP POP PUSH1 0x40 MLOAD RETURNDATASIZE PUSH1 0x1F NOT PUSH1 0x1F DUP3 ADD AND DUP3 ADD DUP1 PUSH1 0x40 MSTORE POP DUP2 ADD SWAP1 PUSH2 0x1F9A SWAP2 SWAP1 PUSH2 0x3338 JUMP JUMPDEST PUSH1 0x40 MLOAD PUSH4 0x4E44D071 PUSH1 0xE1 SHL DUP2 MSTORE CALLER PUSH1 0x4 DUP3 ADD MSTORE SWAP1 SWAP2 POP PUSH0 SWAP1 PUSH1 0x1 PUSH1 0x1 PUSH1 0xA0 SHL SUB PUSH32 0x0 AND SWAP1 PUSH4 0x9C89A0E2 SWAP1 PUSH1 0x24 ADD PUSH1 0x20 PUSH1 0x40 MLOAD DUP1 DUP4 SUB DUP2 DUP7 GAS STATICCALL ISZERO DUP1 ISZERO PUSH2 0x2001 JUMPI RETURNDATASIZE PUSH0 DUP1 RETURNDATACOPY RETURNDATASIZE PUSH0 REVERT JUMPDEST POP POP POP POP PUSH1 0x40 MLOAD RETURNDATASIZE PUSH1 0x1F NOT PUSH1 0x1F DUP3 ADD AND DUP3 ADD DUP1 PUSH1 0x40 MSTORE POP DUP2 ADD SWAP1 PUSH2 0x2025 SWAP2 SWAP1 PUSH2 0x3338 JUMP JUMPDEST PUSH1 0x40 MLOAD PUSH4 0x850AED3 PUSH1 0xE2 SHL DUP2 MSTORE PUSH1 0x4 DUP2 ADD DUP11 SWAP1 MSTORE SWAP1 SWAP2 POP PUSH0 SWAP1 PUSH1 0x1 PUSH1 0x1 PUSH1 0xA0 SHL SUB PUSH32 0x0 AND SWAP1 PUSH4 0x2142BB4C SWAP1 PUSH1 0x24 ADD PUSH1 0x20 PUSH1 0x40 MLOAD DUP1 DUP4 SUB DUP2 DUP7 GAS STATICCALL ISZERO DUP1 ISZERO PUSH2 0x208D JUMPI RETURNDATASIZE PUSH0 DUP1 RETURNDATACOPY RETURNDATASIZE PUSH0 REVERT JUMPDEST POP POP POP POP PUSH1 0x40 MLOAD RETURNDATASIZE PUSH1 0x1F NOT PUSH1 0x1F DUP3 ADD AND DUP3 ADD DUP1 PUSH1 0x40 MSTORE POP DUP2 ADD SWAP1 PUSH2 0x20B1 SWAP2 SWAP1 PUSH2 0x3338 JUMP JUMPDEST PUSH1 0x40 DUP1 MLOAD CALLER PUSH1 0x20 DUP3 ADD MSTORE SWAP1 DUP2 ADD DUP12 SWAP1 MSTORE PUSH1 0x60 DUP2 ADD DUP11 SWAP1 MSTORE PUSH1 0x80 DUP2 ADD DUP10 SWAP1 MSTORE TIMESTAMP PUSH1 0xA0 DUP3 ADD MSTORE SWAP1 SWAP2 POP PUSH1 0xC0 ADD PUSH1 0x40 DUP1 MLOAD PUSH1 0x1F NOT DUP2 DUP5 SUB ADD DUP2 MSTORE DUP3 DUP3 MSTORE DUP1 MLOAD PUSH1 0x20 SWAP2 DUP3 ADD KECCAK256 PUSH2 0x100 DUP5 ADD DUP4 MSTORE CALLER DUP5 MSTORE DUP4 DUP3 ADD DUP14 DUP2 MSTORE DUP5 DUP5 ADD DUP7 DUP2 MSTORE PUSH1 0x60 DUP7 ADD DUP15 DUP2 MSTORE PUSH1 0x80 DUP8 ADD DUP15 DUP2 MSTORE TIMESTAMP PUSH1 0xA0 DUP10 ADD SWAP1 DUP2 MSTORE PUSH0 PUSH1 0xC0 DUP11 ADD DUP2 DUP2 MSTORE PUSH1 0xE0 DUP12 ADD DUP14 DUP2 MSTORE DUP9 DUP4 MSTORE PUSH1 0x12 DUP11 MSTORE DUP11 DUP4 KECCAK256 SWAP12 MLOAD DUP13 SLOAD PUSH1 0x1 PUSH1 0x1 PUSH1 0xA0 SHL SUB SWAP2 SWAP1 SWAP2 AND PUSH1 0x1 PUSH1 0x1 PUSH1 0xA0 SHL SUB NOT SWAP1 SWAP2 AND OR DUP13 SSTORE SWAP7 MLOAD PUSH1 0x1 DUP13 DUP2 ADD SWAP2 SWAP1 SWAP2 SSTORE SWAP6 MLOAD PUSH1 0x2 DUP13 ADD SSTORE SWAP4 MLOAD PUSH1 0x3 DUP12 ADD SSTORE SWAP2 MLOAD PUSH1 0x4 DUP11 ADD SSTORE MLOAD PUSH1 0x5 DUP10 ADD SSTORE SWAP1 MLOAD PUSH1 0x6 DUP9 ADD DUP1 SLOAD SWAP2 ISZERO ISZERO PUSH1 0xFF NOT SWAP1 SWAP3 AND SWAP2 SWAP1 SWAP2 OR SWAP1 SSTORE SWAP2 MLOAD PUSH1 0x7 SWAP1 SWAP7 ADD SWAP6 SWAP1 SWAP6 SSTORE PUSH1 0x13 DUP1 SLOAD SWAP6 DUP7 ADD DUP2 SSTORE DUP2 MSTORE PUSH32 0x66DE8FFDA797E3DE9C05E8FC57B3BF0EC28A930D40B0D285D93C06501CF6A090 SWAP1 SWAP5 ADD DUP2 SWAP1 SSTORE SWAP2 MLOAD SWAP2 SWAP7 POP PUSH2 0x21F7 SWAP2 DUP13 SWAP2 DUP11 SWAP2 DUP11 SWAP2 ADD SWAP3 DUP4 MSTORE PUSH1 0x20 DUP4 ADD SWAP2 SWAP1 SWAP2 MSTORE PUSH1 0x40 DUP3 ADD MSTORE PUSH1 0x60 ADD SWAP1 JUMP JUMPDEST PUSH1 0x40 DUP1 MLOAD DUP1 DUP4 SUB PUSH1 0x1F NOT ADD DUP2 MSTORE DUP3 DUP3 MSTORE DUP1 MLOAD PUSH1 0x20 SWAP2 DUP3 ADD KECCAK256 PUSH0 DUP2 DUP2 MSTORE PUSH1 0x14 DUP4 MSTORE DUP4 DUP2 KECCAK256 PUSH1 0x60 DUP7 ADD DUP6 MSTORE CALLER DUP7 MSTORE DUP4 DUP7 ADD DUP15 DUP2 MSTORE DUP7 DUP7 ADD DUP12 DUP2 MSTORE DUP3 SLOAD PUSH1 0x1 DUP1 DUP3 ADD DUP6 SSTORE SWAP4 DUP6 MSTORE DUP7 DUP6 KECCAK256 SWAP9 MLOAD PUSH1 0x3 SWAP2 DUP3 MUL SWAP1 SWAP10 ADD DUP1 SLOAD PUSH1 0x1 PUSH1 0x1 PUSH1 0xA0 SHL SUB NOT AND PUSH1 0x1 PUSH1 0x1 PUSH1 0xA0 SHL SUB SWAP1 SWAP11 AND SWAP10 SWAP1 SWAP10 OR DUP10 SSTORE SWAP2 MLOAD SWAP3 DUP9 ADD SWAP3 SWAP1 SWAP3 SSTORE SWAP1 MLOAD PUSH1 0x2 SWAP1 SWAP7 ADD SWAP6 SWAP1 SWAP6 SSTORE DUP15 DUP2 MSTORE PUSH1 0x10 SWAP1 SWAP3 MSTORE SWAP2 DUP2 KECCAK256 SWAP1 SWAP3 ADD DUP1 SLOAD SWAP2 SWAP4 POP SWAP1 SWAP2 PUSH2 0x2297 DUP4 PUSH2 0x334F JUMP JUMPDEST SWAP1 SWAP2 SSTORE POP POP PUSH1 0x40 DUP1 MLOAD DUP11 DUP2 MSTORE PUSH1 0x20 DUP2 ADD DUP11 SWAP1 MSTORE SWAP1 DUP2 ADD DUP5 SWAP1 MSTORE DUP11 SWAP1 CALLER SWAP1 DUP8 SWAP1 PUSH32 0x9A94A4A8239D5184DD76D095CEAF6D188966B7EA9B0087AC5CC303F9F0C0908C SWAP1 PUSH1 0x60 ADD PUSH1 0x40 MLOAD DUP1 SWAP2 SUB SWAP1 LOG4 POP POP POP POP SWAP6 SWAP5 POP POP POP POP POP JUMP JUMPDEST PUSH1 0x19 SLOAD PUSH1 0x1 PUSH1 0x1 PUSH1 0xA0 SHL SUB AND CALLER EQ PUSH2 0x231A JUMPI PUSH1 0x40 MLOAD PUSH3 0x461BCD PUSH1 0xE5 SHL DUP2 MSTORE PUSH1 0x4 ADD PUSH2 0x62C SWAP1 PUSH2 0x3169 JUMP JUMPDEST PUSH1 0x1 PUSH1 0x1 PUSH1 0xA0 SHL SUB DUP2 AND PUSH0 SWAP1 DUP2 MSTORE PUSH1 0x17 PUSH1 0x20 MSTORE PUSH1 0x40 SWAP1 KECCAK256 SLOAD PUSH1 0xFF AND PUSH2 0x236F JUMPI PUSH1 0x1 PUSH1 0x1 PUSH1 0xA0 SHL SUB DUP2 AND PUSH0 SWAP1 DUP2 MSTORE PUSH1 0x17 PUSH1 0x20 MSTORE PUSH1 0x40 DUP2 KECCAK256 DUP1 SLOAD PUSH1 0xFF NOT AND PUSH1 0x1 OR SWAP1 SSTORE PUSH1 0x18 DUP1 SLOAD SWAP2 PUSH2 0x2369 DUP4 PUSH2 0x334F JUMP JUMPDEST SWAP2 SWAP1 POP SSTORE POP JUMPDEST POP JUMP JUMPDEST PUSH0 DUP4 PUSH1 0x80 ADD MLOAD MLOAD DUP3 MLOAD PUSH1 0x1 PUSH2 0x2387 SWAP2 SWAP1 PUSH2 0x3156 JUMP JUMPDEST EQ PUSH2 0x23D4 JUMPI PUSH1 0x40 MLOAD PUSH3 0x461BCD PUSH1 0xE5 SHL DUP2 MSTORE PUSH1 0x20 PUSH1 0x4 DUP3 ADD MSTORE PUSH1 0x1C PUSH1 0x24 DUP3 ADD MSTORE PUSH32 0x496E76616C6964207075626C696320696E70757473206C656E67746800000000 PUSH1 0x44 DUP3 ADD MSTORE PUSH1 0x64 ADD PUSH2 0x62C JUMP JUMPDEST PUSH0 JUMPDEST DUP3 MLOAD DUP2 LT ISZERO PUSH2 0x246F JUMPI PUSH32 0x30644E72E131A029B85045B68181585D2833E84879B9709143E1F593F0000001 DUP4 DUP3 DUP2 MLOAD DUP2 LT PUSH2 0x2412 JUMPI PUSH2 0x2412 PUSH2 0x311A JUMP JUMPDEST PUSH1 0x20 MUL PUSH1 0x20 ADD ADD MLOAD LT PUSH2 0x2467 JUMPI PUSH1 0x40 MLOAD PUSH3 0x461BCD PUSH1 0xE5 SHL DUP2 MSTORE PUSH1 0x20 PUSH1 0x4 DUP3 ADD MSTORE PUSH1 0x1A PUSH1 0x24 DUP3 ADD MSTORE PUSH32 0x5075626C696320696E7075742065786365656473206669656C64000000000000 PUSH1 0x44 DUP3 ADD MSTORE PUSH1 0x64 ADD PUSH2 0x62C JUMP JUMPDEST PUSH1 0x1 ADD PUSH2 0x23D6 JUMP JUMPDEST POP PUSH0 DUP5 PUSH1 0x80 ADD MLOAD PUSH0 DUP2 MLOAD DUP2 LT PUSH2 0x2487 JUMPI PUSH2 0x2487 PUSH2 0x311A JUMP JUMPDEST PUSH1 0x20 MUL PUSH1 0x20 ADD ADD MLOAD SWAP1 POP PUSH0 JUMPDEST DUP4 MLOAD DUP2 LT ISZERO PUSH2 0x24FB JUMPI PUSH2 0x24F1 DUP3 PUSH2 0x24EC DUP9 PUSH1 0x80 ADD MLOAD DUP5 PUSH1 0x1 PUSH2 0x24B5 SWAP2 SWAP1 PUSH2 0x3156 JUMP JUMPDEST DUP2 MLOAD DUP2 LT PUSH2 0x24C5 JUMPI PUSH2 0x24C5 PUSH2 0x311A JUMP JUMPDEST PUSH1 0x20 MUL PUSH1 0x20 ADD ADD MLOAD DUP8 DUP6 DUP2 MLOAD DUP2 LT PUSH2 0x24DF JUMPI PUSH2 0x24DF PUSH2 0x311A JUMP JUMPDEST PUSH1 0x20 MUL PUSH1 0x20 ADD ADD MLOAD PUSH2 0x283C JUMP JUMPDEST PUSH2 0x28CA JUMP JUMPDEST SWAP2 POP PUSH1 0x1 ADD PUSH2 0x2493 JUMP JUMPDEST POP PUSH1 0x40 DUP1 MLOAD PUSH1 0x4 DUP1 DUP3 MSTORE PUSH1 0xA0 DUP3 ADD SWAP1 SWAP3 MSTORE PUSH0 SWAP2 DUP2 PUSH1 0x20 ADD JUMPDEST PUSH1 0x40 DUP1 MLOAD DUP1 DUP3 ADD SWAP1 SWAP2 MSTORE PUSH0 DUP1 DUP3 MSTORE PUSH1 0x20 DUP3 ADD MSTORE DUP2 MSTORE PUSH1 0x20 ADD SWAP1 PUSH1 0x1 SWAP1 SUB SWAP1 DUP2 PUSH2 0x2513 JUMPI POP POP PUSH1 0x40 DUP1 MLOAD PUSH1 0x4 DUP1 DUP3 MSTORE PUSH1 0xA0 DUP3 ADD SWAP1 SWAP3 MSTORE SWAP2 SWAP3 POP PUSH0 SWAP2 SWAP1 PUSH1 0x20 DUP3 ADD JUMPDEST PUSH2 0x255B PUSH2 0x2D7C JUMP JUMPDEST DUP2 MSTORE PUSH1 0x20 ADD SWAP1 PUSH1 0x1 SWAP1 SUB SWAP1 DUP2 PUSH2 0x2553 JUMPI POP POP DUP7 MLOAD SWAP1 SWAP2 POP PUSH2 0x257B SWAP1 PUSH2 0x2956 JUMP JUMPDEST DUP3 PUSH0 DUP2 MLOAD DUP2 LT PUSH2 0x258D JUMPI PUSH2 0x258D PUSH2 0x311A JUMP JUMPDEST PUSH1 0x20 MUL PUSH1 0x20 ADD ADD DUP2 SWAP1 MSTORE POP DUP6 PUSH1 0x20 ADD MLOAD DUP2 PUSH0 DUP2 MLOAD DUP2 LT PUSH2 0x25AF JUMPI PUSH2 0x25AF PUSH2 0x311A JUMP JUMPDEST PUSH1 0x20 MUL PUSH1 0x20 ADD ADD DUP2 SWAP1 MSTORE POP DUP7 PUSH0 ADD MLOAD DUP3 PUSH1 0x1 DUP2 MLOAD DUP2 LT PUSH2 0x25D1 JUMPI PUSH2 0x25D1 PUSH2 0x311A JUMP JUMPDEST PUSH1 0x20 MUL PUSH1 0x20 ADD ADD DUP2 SWAP1 MSTORE POP DUP7 PUSH1 0x20 ADD MLOAD DUP2 PUSH1 0x1 DUP2 MLOAD DUP2 LT PUSH2 0x25F4 JUMPI PUSH2 0x25F4 PUSH2 0x311A JUMP JUMPDEST PUSH1 0x20 MUL PUSH1 0x20 ADD ADD DUP2 SWAP1 MSTORE POP DUP3 DUP3 PUSH1 0x2 DUP2 MLOAD DUP2 LT PUSH2 0x2613 JUMPI PUSH2 0x2613 PUSH2 0x311A JUMP JUMPDEST PUSH1 0x20 MUL PUSH1 0x20 ADD ADD DUP2 SWAP1 MSTORE POP DUP7 PUSH1 0x40 ADD MLOAD DUP2 PUSH1 0x2 DUP2 MLOAD DUP2 LT PUSH2 0x2636 JUMPI PUSH2 0x2636 PUSH2 0x311A JUMP JUMPDEST PUSH1 0x20 MUL PUSH1 0x20 ADD ADD DUP2 SWAP1 MSTORE POP DUP6 PUSH1 0x40 ADD MLOAD DUP3 PUSH1 0x3 DUP2 MLOAD DUP2 LT PUSH2 0x2659 JUMPI PUSH2 0x2659 PUSH2 0x311A JUMP JUMPDEST PUSH1 0x20 MUL PUSH1 0x20 ADD ADD DUP2 SWAP1 MSTORE POP DUP7 PUSH1 0x60 ADD MLOAD DUP2 PUSH1 0x3 DUP2 MLOAD DUP2 LT PUSH2 0x267C JUMPI PUSH2 0x267C PUSH2 0x311A JUMP JUMPDEST PUSH1 0x20 MUL PUSH1 0x20 ADD ADD DUP2 SWAP1 MSTORE POP PUSH2 0x2691 DUP3 DUP3 PUSH2 0x2A0D JUMP JUMPDEST SWAP8 SWAP7 POP POP POP POP POP POP POP JUMP JUMPDEST PUSH0 DUP2 MLOAD PUSH0 SUB PUSH2 0x26AC JUMPI POP PUSH0 SWAP2 SWAP1 POP JUMP JUMPDEST DUP2 MLOAD PUSH1 0x1 SUB PUSH2 0x26D6 JUMPI DUP2 PUSH0 DUP2 MLOAD DUP2 LT PUSH2 0x26C7 JUMPI PUSH2 0x26C7 PUSH2 0x311A JUMP JUMPDEST PUSH1 0x20 MUL PUSH1 0x20 ADD ADD MLOAD SWAP1 POP SWAP2 SWAP1 POP JUMP JUMPDEST DUP2 JUMPDEST PUSH1 0x1 DUP2 MLOAD GT ISZERO PUSH2 0x281A JUMPI PUSH0 PUSH1 0x2 DUP3 MLOAD PUSH1 0x1 PUSH2 0x26F3 SWAP2 SWAP1 PUSH2 0x3156 JUMP JUMPDEST PUSH2 0x26FD SWAP2 SWAP1 PUSH2 0x337B JUMP JUMPDEST SWAP1 POP PUSH0 DUP2 PUSH8 0xFFFFFFFFFFFFFFFF DUP2 GT ISZERO PUSH2 0x2719 JUMPI PUSH2 0x2719 PUSH2 0x312E JUMP JUMPDEST PUSH1 0x40 MLOAD SWAP1 DUP1 DUP3 MSTORE DUP1 PUSH1 0x20 MUL PUSH1 0x20 ADD DUP3 ADD PUSH1 0x40 MSTORE DUP1 ISZERO PUSH2 0x2742 JUMPI DUP2 PUSH1 0x20 ADD PUSH1 0x20 DUP3 MUL DUP1 CALLDATASIZE DUP4 CALLDATACOPY ADD SWAP1 POP JUMPDEST POP SWAP1 POP PUSH0 JUMPDEST DUP3 DUP2 LT ISZERO PUSH2 0x2810 JUMPI PUSH0 PUSH2 0x275B DUP3 PUSH1 0x2 PUSH2 0x3200 JUMP JUMPDEST SWAP1 POP PUSH0 DUP6 MLOAD DUP3 PUSH1 0x1 PUSH2 0x276D SWAP2 SWAP1 PUSH2 0x3156 JUMP JUMPDEST LT PUSH2 0x2778 JUMPI DUP2 PUSH2 0x2783 JUMP JUMPDEST PUSH2 0x2783 DUP3 PUSH1 0x1 PUSH2 0x3156 JUMP JUMPDEST SWAP1 POP DUP6 DUP3 DUP2 MLOAD DUP2 LT PUSH2 0x2797 JUMPI PUSH2 0x2797 PUSH2 0x311A JUMP JUMPDEST PUSH1 0x20 MUL PUSH1 0x20 ADD ADD MLOAD DUP7 DUP3 DUP2 MLOAD DUP2 LT PUSH2 0x27B1 JUMPI PUSH2 0x27B1 PUSH2 0x311A JUMP JUMPDEST PUSH1 0x20 MUL PUSH1 0x20 ADD ADD MLOAD PUSH1 0x40 MLOAD PUSH1 0x20 ADD PUSH2 0x27D3 SWAP3 SWAP2 SWAP1 SWAP2 DUP3 MSTORE PUSH1 0x20 DUP3 ADD MSTORE PUSH1 0x40 ADD SWAP1 JUMP JUMPDEST PUSH1 0x40 MLOAD PUSH1 0x20 DUP2 DUP4 SUB SUB DUP2 MSTORE SWAP1 PUSH1 0x40 MSTORE DUP1 MLOAD SWAP1 PUSH1 0x20 ADD KECCAK256 DUP5 DUP5 DUP2 MLOAD DUP2 LT PUSH2 0x27FB JUMPI PUSH2 0x27FB PUSH2 0x311A JUMP JUMPDEST PUSH1 0x20 SWAP1 DUP2 MUL SWAP2 SWAP1 SWAP2 ADD ADD MSTORE POP POP PUSH1 0x1 ADD PUSH2 0x2747 JUMP JUMPDEST POP SWAP2 POP PUSH2 0x26D8 SWAP1 POP JUMP JUMPDEST DUP1 PUSH0 DUP2 MLOAD DUP2 LT PUSH2 0x282C JUMPI PUSH2 0x282C PUSH2 0x311A JUMP JUMPDEST PUSH1 0x20 MUL PUSH1 0x20 ADD ADD MLOAD SWAP2 POP POP SWAP2 SWAP1 POP JUMP JUMPDEST PUSH1 0x40 DUP1 MLOAD DUP1 DUP3 ADD SWAP1 SWAP2 MSTORE PUSH0 DUP1 DUP3 MSTORE PUSH1 0x20 DUP3 ADD MSTORE PUSH2 0x2857 PUSH2 0x2DA1 JUMP JUMPDEST DUP4 MLOAD DUP2 MSTORE PUSH1 0x20 DUP1 DUP6 ADD MLOAD SWAP1 DUP3 ADD MSTORE PUSH1 0x40 DUP1 DUP3 ADD DUP5 SWAP1 MSTORE PUSH0 SWAP1 DUP4 PUSH1 0x60 DUP5 PUSH1 0x7 PUSH2 0x7D0 GAS SUB STATICCALL SWAP1 POP DUP1 PUSH2 0x28C2 JUMPI PUSH1 0x40 MLOAD PUSH3 0x461BCD PUSH1 0xE5 SHL DUP2 MSTORE PUSH1 0x20 PUSH1 0x4 DUP3 ADD MSTORE PUSH1 0x15 PUSH1 0x24 DUP3 ADD MSTORE PUSH21 0x189B8C8D4D94D8D85B185C935D5B0819985A5B1959 PUSH1 0x5A SHL PUSH1 0x44 DUP3 ADD MSTORE PUSH1 0x64 ADD PUSH2 0x62C JUMP JUMPDEST POP POP SWAP3 SWAP2 POP POP JUMP JUMPDEST PUSH1 0x40 DUP1 MLOAD DUP1 DUP3 ADD SWAP1 SWAP2 MSTORE PUSH0 DUP1 DUP3 MSTORE PUSH1 0x20 DUP3 ADD MSTORE PUSH2 0x28E5 PUSH2 0x2DBF JUMP JUMPDEST DUP4 MLOAD DUP2 MSTORE PUSH1 0x20 DUP1 DUP6 ADD MLOAD DUP2 DUP4 ADD MSTORE DUP4 MLOAD PUSH1 0x40 DUP1 DUP5 ADD SWAP2 SWAP1 SWAP2 MSTORE SWAP1 DUP5 ADD MLOAD PUSH1 0x60 DUP4 ADD MSTORE PUSH0 SWAP1 DUP4 PUSH1 0x80 DUP5 PUSH1 0x6 PUSH2 0x7D0 GAS SUB STATICCALL SWAP1 POP DUP1 PUSH2 0x28C2 JUMPI PUSH1 0x40 MLOAD PUSH3 0x461BCD PUSH1 0xE5 SHL DUP2 MSTORE PUSH1 0x20 PUSH1 0x4 DUP3 ADD MSTORE PUSH1 0xF PUSH1 0x24 DUP3 ADD MSTORE PUSH15 0x189B8C8D4D9059190819985A5B1959 PUSH1 0x8A SHL PUSH1 0x44 DUP3 ADD MSTORE PUSH1 0x64 ADD PUSH2 0x62C JUMP JUMPDEST PUSH1 0x40 DUP1 MLOAD DUP1 DUP3 ADD SWAP1 SWAP2 MSTORE PUSH0 DUP1 DUP3 MSTORE PUSH1 0x20 DUP3 ADD MSTORE DUP2 MLOAD ISZERO DUP1 ISZERO PUSH2 0x297A JUMPI POP PUSH1 0x20 DUP3 ADD MLOAD ISZERO JUMPDEST ISZERO PUSH2 0x2997 JUMPI POP POP PUSH1 0x40 DUP1 MLOAD DUP1 DUP3 ADD SWAP1 SWAP2 MSTORE PUSH0 DUP1 DUP3 MSTORE PUSH1 0x20 DUP3 ADD MSTORE SWAP1 JUMP JUMPDEST PUSH1 0x40 MLOAD DUP1 PUSH1 0x40 ADD PUSH1 0x40 MSTORE DUP1 DUP4 PUSH0 ADD MLOAD DUP2 MSTORE PUSH1 0x20 ADD PUSH32 0x30644E72E131A029B85045B68181585D97816A916871CA8D3C208C16D87CFD47 DUP5 PUSH1 0x20 ADD MLOAD PUSH2 0x29DB SWAP2 SWAP1 PUSH2 0x338E JUMP JUMPDEST PUSH2 0x2A05 SWAP1 PUSH32 0x30644E72E131A029B85045B68181585D97816A916871CA8D3C208C16D87CFD47 PUSH2 0x33A1 JUMP JUMPDEST SWAP1 MSTORE SWAP3 SWAP2 POP POP JUMP JUMPDEST PUSH0 DUP2 MLOAD DUP4 MLOAD EQ PUSH2 0x2A5F JUMPI PUSH1 0x40 MLOAD PUSH3 0x461BCD PUSH1 0xE5 SHL DUP2 MSTORE PUSH1 0x20 PUSH1 0x4 DUP3 ADD MSTORE PUSH1 0x17 PUSH1 0x24 DUP3 ADD MSTORE PUSH32 0x50616972696E67206C656E677468206D69736D61746368000000000000000000 PUSH1 0x44 DUP3 ADD MSTORE PUSH1 0x64 ADD PUSH2 0x62C JUMP JUMPDEST PUSH0 DUP4 MLOAD PUSH1 0x6 PUSH2 0x2A6E SWAP2 SWAP1 PUSH2 0x3200 JUMP JUMPDEST SWAP1 POP PUSH0 DUP2 PUSH8 0xFFFFFFFFFFFFFFFF DUP2 GT ISZERO PUSH2 0x2A8A JUMPI PUSH2 0x2A8A PUSH2 0x312E JUMP JUMPDEST PUSH1 0x40 MLOAD SWAP1 DUP1 DUP3 MSTORE DUP1 PUSH1 0x20 MUL PUSH1 0x20 ADD DUP3 ADD PUSH1 0x40 MSTORE DUP1 ISZERO PUSH2 0x2AB3 JUMPI DUP2 PUSH1 0x20 ADD PUSH1 0x20 DUP3 MUL DUP1 CALLDATASIZE DUP4 CALLDATACOPY ADD SWAP1 POP JUMPDEST POP SWAP1 POP PUSH0 JUMPDEST DUP6 MLOAD DUP2 LT ISZERO PUSH2 0x2CAE JUMPI PUSH0 PUSH2 0x2ACD DUP3 PUSH1 0x6 PUSH2 0x3200 JUMP JUMPDEST SWAP1 POP DUP7 DUP3 DUP2 MLOAD DUP2 LT PUSH2 0x2AE1 JUMPI PUSH2 0x2AE1 PUSH2 0x311A JUMP JUMPDEST PUSH1 0x20 MUL PUSH1 0x20 ADD ADD MLOAD PUSH0 ADD MLOAD DUP4 DUP3 PUSH0 PUSH2 0x2AF9 SWAP2 SWAP1 PUSH2 0x3156 JUMP JUMPDEST DUP2 MLOAD DUP2 LT PUSH2 0x2B09 JUMPI PUSH2 0x2B09 PUSH2 0x311A JUMP JUMPDEST PUSH1 0x20 MUL PUSH1 0x20 ADD ADD DUP2 DUP2 MSTORE POP POP DUP7 DUP3 DUP2 MLOAD DUP2 LT PUSH2 0x2B27 JUMPI PUSH2 0x2B27 PUSH2 0x311A JUMP JUMPDEST PUSH1 0x20 MUL PUSH1 0x20 ADD ADD MLOAD PUSH1 0x20 ADD MLOAD DUP4 DUP3 PUSH1 0x1 PUSH2 0x2B41 SWAP2 SWAP1 PUSH2 0x3156 JUMP JUMPDEST DUP2 MLOAD DUP2 LT PUSH2 0x2B51 JUMPI PUSH2 0x2B51 PUSH2 0x311A JUMP JUMPDEST PUSH1 0x20 MUL PUSH1 0x20 ADD ADD DUP2 DUP2 MSTORE POP POP DUP6 DUP3 DUP2 MLOAD DUP2 LT PUSH2 0x2B6F JUMPI PUSH2 0x2B6F PUSH2 0x311A JUMP JUMPDEST PUSH1 0x20 SWAP1 DUP2 MUL SWAP2 SWAP1 SWAP2 ADD DUP2 ADD MLOAD MLOAD ADD MLOAD DUP4 PUSH2 0x2B8A DUP4 PUSH1 0x2 PUSH2 0x3156 JUMP JUMPDEST DUP2 MLOAD DUP2 LT PUSH2 0x2B9A JUMPI PUSH2 0x2B9A PUSH2 0x311A JUMP JUMPDEST PUSH1 0x20 MUL PUSH1 0x20 ADD ADD DUP2 DUP2 MSTORE POP POP DUP6 DUP3 DUP2 MLOAD DUP2 LT PUSH2 0x2BB8 JUMPI PUSH2 0x2BB8 PUSH2 0x311A JUMP JUMPDEST PUSH1 0x20 SWAP1 DUP2 MUL SWAP2 SWAP1 SWAP2 ADD ADD MLOAD MLOAD MLOAD DUP4 PUSH2 0x2BD1 DUP4 PUSH1 0x3 PUSH2 0x3156 JUMP JUMPDEST DUP2 MLOAD DUP2 LT PUSH2 0x2BE1 JUMPI PUSH2 0x2BE1 PUSH2 0x311A JUMP JUMPDEST PUSH1 0x20 MUL PUSH1 0x20 ADD ADD DUP2 DUP2 MSTORE POP POP DUP6 DUP3 DUP2 MLOAD DUP2 LT PUSH2 0x2BFF JUMPI PUSH2 0x2BFF PUSH2 0x311A JUMP JUMPDEST PUSH1 0x20 MUL PUSH1 0x20 ADD ADD MLOAD PUSH1 0x20 ADD MLOAD PUSH1 0x1 PUSH1 0x2 DUP2 LT PUSH2 0x2C1D JUMPI PUSH2 0x2C1D PUSH2 0x311A JUMP JUMPDEST PUSH1 0x20 MUL ADD MLOAD DUP4 PUSH2 0x2C2E DUP4 PUSH1 0x4 PUSH2 0x3156 JUMP JUMPDEST DUP2 MLOAD DUP2 LT PUSH2 0x2C3E JUMPI PUSH2 0x2C3E PUSH2 0x311A JUMP JUMPDEST PUSH1 0x20 MUL PUSH1 0x20 ADD ADD DUP2 DUP2 MSTORE POP POP DUP6 DUP3 DUP2 MLOAD DUP2 LT PUSH2 0x2C5C JUMPI PUSH2 0x2C5C PUSH2 0x311A JUMP JUMPDEST PUSH1 0x20 MUL PUSH1 0x20 ADD ADD MLOAD PUSH1 0x20 ADD MLOAD PUSH0 PUSH1 0x2 DUP2 LT PUSH2 0x2C79 JUMPI PUSH2 0x2C79 PUSH2 0x311A JUMP JUMPDEST PUSH1 0x20 MUL ADD MLOAD DUP4 PUSH2 0x2C8A DUP4 PUSH1 0x5 PUSH2 0x3156 JUMP JUMPDEST DUP2 MLOAD DUP2 LT PUSH2 0x2C9A JUMPI PUSH2 0x2C9A PUSH2 0x311A JUMP JUMPDEST PUSH1 0x20 SWAP1 DUP2 MUL SWAP2 SWAP1 SWAP2 ADD ADD MSTORE POP PUSH1 0x1 ADD PUSH2 0x2AB8 JUMP JUMPDEST POP PUSH2 0x2CB7 PUSH2 0x2DDD JUMP JUMPDEST PUSH0 PUSH1 0x20 DUP3 PUSH1 0x20 DUP7 MUL PUSH1 0x20 DUP7 ADD PUSH1 0x8 PUSH2 0x7D0 GAS SUB STATICCALL SWAP1 POP DUP1 PUSH2 0x2D10 JUMPI PUSH1 0x40 MLOAD PUSH3 0x461BCD PUSH1 0xE5 SHL DUP2 MSTORE PUSH1 0x20 PUSH1 0x4 DUP3 ADD MSTORE PUSH1 0x13 PUSH1 0x24 DUP3 ADD MSTORE PUSH19 0x189B8C8D4D94185A5C9A5B99C819985A5B1959 PUSH1 0x6A SHL PUSH1 0x44 DUP3 ADD MSTORE PUSH1 0x64 ADD PUSH2 0x62C JUMP JUMPDEST POP MLOAD PUSH1 0x1 EQ SWAP3 POP POP POP JUMPDEST SWAP3 SWAP2 POP POP JUMP JUMPDEST DUP3 PUSH1 0x2 DUP2 ADD SWAP3 DUP3 ISZERO PUSH2 0x2D4E JUMPI SWAP2 PUSH1 0x20 MUL DUP3 ADD JUMPDEST DUP3 DUP2 GT ISZERO PUSH2 0x2D4E JUMPI DUP3 MLOAD DUP3 SSTORE SWAP2 PUSH1 0x20 ADD SWAP2 SWAP1 PUSH1 0x1 ADD SWAP1 PUSH2 0x2D33 JUMP JUMPDEST POP PUSH2 0x2D5A SWAP3 SWAP2 POP PUSH2 0x2DFB JUMP JUMPDEST POP SWAP1 JUMP JUMPDEST POP DUP1 SLOAD PUSH0 DUP3 SSTORE PUSH1 0x2 MUL SWAP1 PUSH0 MSTORE PUSH1 0x20 PUSH0 KECCAK256 SWAP1 DUP2 ADD SWAP1 PUSH2 0x236F SWAP2 SWAP1 PUSH2 0x2E0F JUMP JUMPDEST PUSH1 0x40 MLOAD DUP1 PUSH1 0x40 ADD PUSH1 0x40 MSTORE DUP1 PUSH2 0x2D8F PUSH2 0x2E29 JUMP JUMPDEST DUP2 MSTORE PUSH1 0x20 ADD PUSH2 0x2D9C PUSH2 0x2E29 JUMP JUMPDEST SWAP1 MSTORE SWAP1 JUMP JUMPDEST PUSH1 0x40 MLOAD DUP1 PUSH1 0x60 ADD PUSH1 0x40 MSTORE DUP1 PUSH1 0x3 SWAP1 PUSH1 0x20 DUP3 MUL DUP1 CALLDATASIZE DUP4 CALLDATACOPY POP SWAP2 SWAP3 SWAP2 POP POP JUMP JUMPDEST PUSH1 0x40 MLOAD DUP1 PUSH1 0x80 ADD PUSH1 0x40 MSTORE DUP1 PUSH1 0x4 SWAP1 PUSH1 0x20 DUP3 MUL DUP1 CALLDATASIZE DUP4 CALLDATACOPY POP SWAP2 SWAP3 SWAP2 POP POP JUMP JUMPDEST PUSH1 0x40 MLOAD DUP1 PUSH1 0x20 ADD PUSH1 0x40 MSTORE DUP1 PUSH1 0x1 SWAP1 PUSH1 0x20 DUP3 MUL DUP1 CALLDATASIZE DUP4 CALLDATACOPY POP SWAP2 SWAP3 SWAP2 POP POP JUMP JUMPDEST JUMPDEST DUP1 DUP3 GT ISZERO PUSH2 0x2D5A JUMPI PUSH0 DUP2 SSTORE PUSH1 0x1 ADD PUSH2 0x2DFC JUMP JUMPDEST JUMPDEST DUP1 DUP3 GT ISZERO PUSH2 0x2D5A JUMPI PUSH0 DUP1 DUP3 SSTORE PUSH1 0x1 DUP3 ADD SSTORE PUSH1 0x2 ADD PUSH2 0x2E10 JUMP JUMPDEST PUSH1 0x40 MLOAD DUP1 PUSH1 0x40 ADD PUSH1 0x40 MSTORE DUP1 PUSH1 0x2 SWAP1 PUSH1 0x20 DUP3 MUL DUP1 CALLDATASIZE DUP4 CALLDATACOPY POP SWAP2 SWAP3 SWAP2 POP POP JUMP JUMPDEST DUP1 PUSH1 0x40 DUP2 ADD DUP4 LT ISZERO PUSH2 0x2D1A JUMPI PUSH0 DUP1 REVERT JUMPDEST DUP1 PUSH1 0x80 DUP2 ADD DUP4 LT ISZERO PUSH2 0x2D1A JUMPI PUSH0 DUP1 REVERT JUMPDEST PUSH0 DUP1 PUSH0 DUP1 PUSH2 0x120 DUP6 DUP8 SUB SLT ISZERO PUSH2 0x2E7B JUMPI PUSH0 DUP1 REVERT JUMPDEST DUP5 CALLDATALOAD SWAP4 POP PUSH2 0x2E8C DUP7 PUSH1 0x20 DUP8 ADD PUSH2 0x2E47 JUMP JUMPDEST SWAP3 POP PUSH2 0x2E9B DUP7 PUSH1 0x60 DUP8 ADD PUSH2 0x2E57 JUMP JUMPDEST SWAP2 POP PUSH2 0x2EAA DUP7 PUSH1 0xE0 DUP8 ADD PUSH2 0x2E47 JUMP JUMPDEST SWAP1 POP SWAP3 SWAP6 SWAP2 SWAP5 POP SWAP3 POP JUMP JUMPDEST PUSH0 PUSH1 0x20 DUP3 DUP5 SUB SLT ISZERO PUSH2 0x2EC5 JUMPI PUSH0 DUP1 REVERT JUMPDEST POP CALLDATALOAD SWAP2 SWAP1 POP JUMP JUMPDEST PUSH0 DUP1 DUP4 PUSH1 0x1F DUP5 ADD SLT PUSH2 0x2EDC JUMPI PUSH0 DUP1 REVERT JUMPDEST POP DUP2 CALLDATALOAD PUSH8 0xFFFFFFFFFFFFFFFF DUP2 GT ISZERO PUSH2 0x2EF3 JUMPI PUSH0 DUP1 REVERT JUMPDEST PUSH1 0x20 DUP4 ADD SWAP2 POP DUP4 PUSH1 0x20 DUP3 PUSH1 0x5 SHL DUP6 ADD ADD GT ISZERO PUSH2 0x2F0D JUMPI PUSH0 DUP1 REVERT JUMPDEST SWAP3 POP SWAP3 SWAP1 POP JUMP JUMPDEST PUSH0 DUP1 PUSH0 DUP1 PUSH0 DUP1 PUSH2 0x1E0 DUP8 DUP10 SUB SLT ISZERO PUSH2 0x2F2A JUMPI PUSH0 DUP1 REVERT JUMPDEST PUSH2 0x2F34 DUP9 DUP9 PUSH2 0x2E47 JUMP JUMPDEST SWAP6 POP PUSH2 0x2F43 DUP9 PUSH1 0x40 DUP10 ADD PUSH2 0x2E57 JUMP JUMPDEST SWAP5 POP PUSH2 0x2F52 DUP9 PUSH1 0xC0 DUP10 ADD PUSH2 0x2E57 JUMP JUMPDEST SWAP4 POP PUSH2 0x2F62 DUP9 PUSH2 0x140 DUP10 ADD PUSH2 0x2E57 JUMP JUMPDEST SWAP3 POP PUSH2 0x1C0 DUP8 ADD CALLDATALOAD PUSH8 0xFFFFFFFFFFFFFFFF DUP2 GT ISZERO PUSH2 0x2F7E JUMPI PUSH0 DUP1 REVERT JUMPDEST PUSH2 0x2F8A DUP10 DUP3 DUP11 ADD PUSH2 0x2ECC JUMP JUMPDEST SWAP8 SWAP11 SWAP7 SWAP10 POP SWAP5 SWAP8 POP SWAP3 SWAP6 SWAP4 SWAP5 SWAP3 POP POP POP JUMP JUMPDEST PUSH1 0x1 PUSH1 0x1 PUSH1 0xA0 SHL SUB DUP2 AND DUP2 EQ PUSH2 0x236F JUMPI PUSH0 DUP1 REVERT JUMPDEST PUSH0 PUSH1 0x20 DUP3 DUP5 SUB SLT ISZERO PUSH2 0x2FC0 JUMPI PUSH0 DUP1 REVERT JUMPDEST DUP2 CALLDATALOAD PUSH2 0x2FCB DUP2 PUSH2 0x2F9C JUMP JUMPDEST SWAP4 SWAP3 POP POP POP JUMP JUMPDEST PUSH0 DUP1 PUSH1 0x40 DUP4 DUP6 SUB SLT ISZERO PUSH2 0x2FE3 JUMPI PUSH0 DUP1 REVERT JUMPDEST POP POP DUP1 CALLDATALOAD SWAP3 PUSH1 0x20 SWAP1 SWAP2 ADD CALLDATALOAD SWAP2 POP JUMP JUMPDEST PUSH0 DUP1 PUSH0 DUP1 PUSH0 PUSH2 0x140 DUP7 DUP9 SUB SLT ISZERO PUSH2 0x3007 JUMPI PUSH0 DUP1 REVERT JUMPDEST DUP6 CALLDATALOAD SWAP5 POP PUSH1 0x20 DUP7 ADD CALLDATALOAD SWAP4 POP PUSH2 0x301F DUP8 PUSH1 0x40 DUP9 ADD PUSH2 0x2E47 JUMP JUMPDEST SWAP3 POP PUSH2 0x302E DUP8 PUSH1 0x80 DUP9 ADD PUSH2 0x2E57 JUMP JUMPDEST SWAP2 POP PUSH2 0x303E DUP8 PUSH2 0x100 DUP9 ADD PUSH2 0x2E47 JUMP JUMPDEST SWAP1 POP SWAP3 SWAP6 POP SWAP3 SWAP6 SWAP1 SWAP4 POP JUMP JUMPDEST PUSH0 DUP1 PUSH0 DUP1 PUSH0 PUSH1 0x60 DUP7 DUP9 SUB SLT ISZERO PUSH2 0x305E JUMPI PUSH0 DUP1 REVERT JUMPDEST DUP6 CALLDATALOAD SWAP5 POP PUSH1 0x20 DUP7 ADD CALLDATALOAD PUSH8 0xFFFFFFFFFFFFFFFF DUP1 DUP3 GT ISZERO PUSH2 0x307C JUMPI PUSH0 DUP1 REVERT JUMPDEST PUSH2 0x3088 DUP10 DUP4 DUP11 ADD PUSH2 0x2ECC JUMP JUMPDEST SWAP1 SWAP7 POP SWAP5 POP PUSH1 0x40 DUP9 ADD CALLDATALOAD SWAP2 POP DUP1 DUP3 GT ISZERO PUSH2 0x30A0 JUMPI PUSH0 DUP1 REVERT JUMPDEST POP PUSH2 0x30AD DUP9 DUP3 DUP10 ADD PUSH2 0x2ECC JUMP JUMPDEST SWAP7 SWAP10 SWAP6 SWAP9 POP SWAP4 SWAP7 POP SWAP3 SWAP5 SWAP4 SWAP3 POP POP POP JUMP JUMPDEST PUSH0 DUP1 PUSH0 DUP1 PUSH0 PUSH1 0xA0 DUP7 DUP9 SUB SLT ISZERO PUSH2 0x30D2 JUMPI PUSH0 DUP1 REVERT JUMPDEST POP POP DUP4 CALLDATALOAD SWAP6 PUSH1 0x20 DUP6 ADD CALLDATALOAD SWAP6 POP PUSH1 0x40 DUP6 ADD CALLDATALOAD SWAP5 PUSH1 0x60 DUP2 ADD CALLDATALOAD SWAP5 POP PUSH1 0x80 ADD CALLDATALOAD SWAP3 POP SWAP1 POP JUMP JUMPDEST PUSH1 0x20 DUP1 DUP3 MSTORE PUSH1 0xB SWAP1 DUP3 ADD MSTORE PUSH11 0x2737BA1030BAB234BA37B9 PUSH1 0xA9 SHL PUSH1 0x40 DUP3 ADD MSTORE PUSH1 0x60 ADD SWAP1 JUMP JUMPDEST PUSH4 0x4E487B71 PUSH1 0xE0 SHL PUSH0 MSTORE PUSH1 0x32 PUSH1 0x4 MSTORE PUSH1 0x24 PUSH0 REVERT JUMPDEST PUSH4 0x4E487B71 PUSH1 0xE0 SHL PUSH0 MSTORE PUSH1 0x41 PUSH1 0x4 MSTORE PUSH1 0x24 PUSH0 REVERT JUMPDEST PUSH4 0x4E487B71 PUSH1 0xE0 SHL PUSH0 MSTORE PUSH1 0x11 PUSH1 0x4 MSTORE PUSH1 0x24 PUSH0 REVERT JUMPDEST DUP1 DUP3 ADD DUP1 DUP3 GT ISZERO PUSH2 0x2D1A JUMPI PUSH2 0x2D1A PUSH2 0x3142 JUMP JUMPDEST PUSH1 0x20 DUP1 DUP3 MSTORE PUSH1 0x9 SWAP1 DUP3 ADD MSTORE PUSH9 0x2737BA1037BBB732B9 PUSH1 0xB9 SHL PUSH1 0x40 DUP3 ADD MSTORE PUSH1 0x60 ADD SWAP1 JUMP JUMPDEST PUSH0 DUP1 DUP4 CALLDATALOAD PUSH1 0x1E NOT DUP5 CALLDATASIZE SUB ADD DUP2 SLT PUSH2 0x31A1 JUMPI PUSH0 DUP1 REVERT JUMPDEST DUP4 ADD DUP1 CALLDATALOAD SWAP2 POP PUSH8 0xFFFFFFFFFFFFFFFF DUP3 GT ISZERO PUSH2 0x31BB JUMPI PUSH0 DUP1 REVERT JUMPDEST PUSH1 0x20 ADD SWAP2 POP PUSH1 0x5 DUP2 SWAP1 SHL CALLDATASIZE SUB DUP3 SGT ISZERO PUSH2 0x2F0D JUMPI PUSH0 DUP1 REVERT JUMPDEST PUSH1 0x20 DUP1 DUP3 MSTORE PUSH1 0x14 SWAP1 DUP3 ADD MSTORE PUSH20 0x10DA185A5B881B9BDD081C9959DA5CDD195C9959 PUSH1 0x62 SHL PUSH1 0x40 DUP3 ADD MSTORE PUSH1 0x60 ADD SWAP1 JUMP JUMPDEST DUP1 DUP3 MUL DUP2 ISZERO DUP3 DUP3 DIV DUP5 EQ OR PUSH2 0x2D1A JUMPI PUSH2 0x2D1A PUSH2 0x3142 JUMP JUMPDEST DUP1 MLOAD DUP1 ISZERO ISZERO DUP2 EQ PUSH2 0x3226 JUMPI PUSH0 DUP1 REVERT JUMPDEST SWAP2 SWAP1 POP JUMP JUMPDEST PUSH0 DUP1 PUSH0 DUP1 PUSH1 0x80 DUP6 DUP8 SUB SLT ISZERO PUSH2 0x323E JUMPI PUSH0 DUP1 REVERT JUMPDEST DUP5 MLOAD SWAP4 POP PUSH1 0x20 DUP6 ADD MLOAD PUSH2 0x3250 DUP2 PUSH2 0x2F9C JUMP JUMPDEST PUSH1 0x40 DUP7 ADD MLOAD SWAP1 SWAP4 POP SWAP2 POP PUSH2 0x2EAA PUSH1 0x60 DUP7 ADD PUSH2 0x3217 JUMP JUMPDEST PUSH0 PUSH1 0x20 DUP1 DUP4 DUP6 SUB SLT ISZERO PUSH2 0x3277 JUMPI PUSH0 DUP1 REVERT JUMPDEST DUP3 MLOAD PUSH8 0xFFFFFFFFFFFFFFFF DUP1 DUP3 GT ISZERO PUSH2 0x328E JUMPI PUSH0 DUP1 REVERT JUMPDEST DUP2 DUP6 ADD SWAP2 POP DUP6 PUSH1 0x1F DUP4 ADD SLT PUSH2 0x32A1 JUMPI PUSH0 DUP1 REVERT JUMPDEST DUP2 MLOAD DUP2 DUP2 GT ISZERO PUSH2 0x32B3 JUMPI PUSH2 0x32B3 PUSH2 0x312E JUMP JUMPDEST DUP1 PUSH1 0x5 SHL PUSH1 0x40 MLOAD PUSH1 0x1F NOT PUSH1 0x3F DUP4 ADD AND DUP2 ADD DUP2 DUP2 LT DUP6 DUP3 GT OR ISZERO PUSH2 0x32D8 JUMPI PUSH2 0x32D8 PUSH2 0x312E JUMP JUMPDEST PUSH1 0x40 MSTORE SWAP2 DUP3 MSTORE DUP5 DUP3 ADD SWAP3 POP DUP4 DUP2 ADD DUP6 ADD SWAP2 DUP9 DUP4 GT ISZERO PUSH2 0x32F5 JUMPI PUSH0 DUP1 REVERT JUMPDEST SWAP4 DUP6 ADD SWAP4 JUMPDEST DUP3 DUP6 LT ISZERO PUSH2 0x3313 JUMPI DUP5 MLOAD DUP5 MSTORE SWAP4 DUP6 ADD SWAP4 SWAP3 DUP6 ADD SWAP3 PUSH2 0x32FA JUMP JUMPDEST SWAP9 SWAP8 POP POP POP POP POP POP POP POP JUMP JUMPDEST PUSH0 PUSH1 0x20 DUP3 DUP5 SUB SLT ISZERO PUSH2 0x332F JUMPI PUSH0 DUP1 REVERT JUMPDEST PUSH2 0x2FCB DUP3 PUSH2 0x3217 JUMP JUMPDEST PUSH0 PUSH1 0x20 DUP3 DUP5 SUB SLT ISZERO PUSH2 0x3348 JUMPI PUSH0 DUP1 REVERT JUMPDEST POP MLOAD SWAP2 SWAP1 POP JUMP JUMPDEST PUSH0 PUSH1 0x1 DUP3 ADD PUSH2 0x3360 JUMPI PUSH2 0x3360 PUSH2 0x3142 JUMP JUMPDEST POP PUSH1 0x1 ADD SWAP1 JUMP JUMPDEST PUSH4 0x4E487B71 PUSH1 0xE0 SHL PUSH0 MSTORE PUSH1 0x12 PUSH1 0x4 MSTORE PUSH1 0x24 PUSH0 REVERT JUMPDEST PUSH0 DUP3 PUSH2 0x3389 JUMPI PUSH2 0x3389 PUSH2 0x3367 JUMP JUMPDEST POP DIV SWAP1 JUMP JUMPDEST PUSH0 DUP3 PUSH2 0x339C JUMPI PUSH2 0x339C PUSH2 0x3367 JUMP JUMPDEST POP MOD SWAP1 JUMP JUMPDEST DUP2 DUP2 SUB DUP2 DUP2 GT ISZERO PUSH2 0x2D1A JUMPI PUSH2 0x2D1A PUSH2 0x3142 JUMP INVALID LOG2 PUSH5 0x6970667358 0x22 SLT KECCAK256 0x1E EXTCODESIZE 0x4F 0x4E SDIV 0xDB 0x4F PUSH32 0xD6B856C43CEF71C5BCCA4BAFA235ADF5B427BAEE22666AF364736F6C63430008 XOR STOP CALLER "},"methodIdentifiers":{"MIN_STAKE()":"cb1c2b5c","acceptClusterCommit(bytes32,uint256[],bytes32[])":"c655d197","addAuditor(address)":"e429cef1","auditorCount()":"115f574c","auditors(address)":"47f9aa9f","chainList(uint256)":"70d48798","chains(uint256)":"550325b5","clusterManager()":"3d3a910e","commitGroups(bytes32,uint256)":"49c932b1","commitIds(uint256)":"8e16f159","commits(bytes32)":"47885781","committerStakes(address)":"f1f021cb","enableMockVerifier()":"533b6788","getChainRoot(uint256)":"1e4fba05","getCommitCount()":"f1bed7e0","getGroupSize(bytes32)":"67ca7391","owner()":"8da5cb5b","registerChain(uint256,bytes32)":"51d58969","reputationRegistry()":"c8db44e3","rewardPerCommit()":"6c561167","setVerifyingKey(uint256[2],uint256[2][2],uint256[2][2],uint256[2][2],uint256[][])":"42e3d4a2","stake()":"3a4b66f1","submitCommit(uint256,bytes32,bytes32,uint256,uint256)":"dd509198","useMockVerifier()":"75c18eab","verifyCommit(bytes32,uint256[2],uint256[2][2],uint256[2])":"06222e86","weightedAuditAccept(bytes32,uint256,uint256[2],uint256[2][2],uint256[2])":"58f0b780"}}}}}