{"project/contracts/ordinary_chain/ExchangeContract.sol":{"ExchangeContract":{"abi":[{"inputs":[],"stateMutability":"nonpayable","type":"constructor"},{"anonymous":false,"inputs":[{"indexed":true,"internalType":"bytes32","name":"lockId","type":"bytes32"},{"indexed":true,"internalType":"address","name":"locker","type":"address"},{"indexed":false,"internalType":"uint256","name":"amount","type":"uint256"},{"indexed":false,"internalType":"bytes32","name":"hashLock","type":"bytes32"},{"indexed":false,"internalType":"uint256","name":"timeLock","type":"uint256"}],"name":"Locked","type":"event"},{"anonymous":false,"inputs":[{"indexed":true,"internalType":"bytes32","name":"hashLock_I","type":"bytes32"},{"indexed":true,"internalType":"bytes32","name":"hashLock_II","type":"bytes32"},{"indexed":false,"internalType":"bool","name":"verified","type":"bool"}],"name":"PrepareVerified","type":"event"},{"anonymous":false,"inputs":[{"indexed":true,"internalType":"bytes32","name":"lockId","type":"bytes32"},{"indexed":true,"internalType":"address","name":"locker","type":"address"},{"indexed":false,"internalType":"uint256","name":"amount","type":"uint256"}],"name":"Refunded","type":"event"},{"anonymous":false,"inputs":[{"indexed":true,"internalType":"bytes32","name":"lockId","type":"bytes32"},{"indexed":true,"internalType":"bytes32","name":"serialNumber","type":"bytes32"},{"indexed":true,"internalType":"address","name":"unlocker","type":"address"},{"indexed":false,"internalType":"uint256","name":"amount","type":"uint256"}],"name":"Unlocked","type":"event"},{"inputs":[],"name":"TIMELOCK_T1","outputs":[{"internalType":"uint256","name":"","type":"uint256"}],"stateMutability":"view","type":"function"},{"inputs":[],"name":"TIMELOCK_T2","outputs":[{"internalType":"uint256","name":"","type":"uint256"}],"stateMutability":"view","type":"function"},{"inputs":[],"name":"getLockCount","outputs":[{"internalType":"uint256","name":"","type":"uint256"}],"stateMutability":"view","type":"function"},{"inputs":[{"internalType":"bytes32","name":"lockId","type":"bytes32"}],"name":"getLockRecord","outputs":[{"internalType":"address","name":"locker","type":"address"},{"internalType":"uint256","name":"amount","type":"uint256"},{"internalType":"bytes32","name":"hashLock","type":"bytes32"},{"internalType":"uint256","name":"timeLock","type":"uint256"},{"internalType":"bool","name":"isUnlocked","type":"bool"},{"internalType":"bool","name":"isRefunded","type":"bool"}],"stateMutability":"view","type":"function"},{"inputs":[{"internalType":"bytes32","name":"sn","type":"bytes32"}],"name":"isSerialNumberUsed","outputs":[{"internalType":"bool","name":"","type":"bool"}],"stateMutability":"view","type":"function"},{"inputs":[{"internalType":"bytes32","name":"hashLock","type":"bytes32"},{"internalType":"uint256","name":"timeLockDuration","type":"uint256"}],"name":"lock","outputs":[],"stateMutability":"payable","type":"function"},{"inputs":[{"internalType":"uint256","name":"","type":"uint256"}],"name":"lockIds","outputs":[{"internalType":"bytes32","name":"","type":"bytes32"}],"stateMutability":"view","type":"function"},{"inputs":[{"internalType":"bytes32","name":"","type":"bytes32"}],"name":"locks","outputs":[{"internalType":"address","name":"locker","type":"address"},{"internalType":"uint256","name":"amount","type":"uint256"},{"internalType":"bytes32","name":"hashLock","type":"bytes32"},{"internalType":"uint256","name":"timeLock","type":"uint256"},{"internalType":"bool","name":"isUnlocked","type":"bool"},{"internalType":"bool","name":"isRefunded","type":"bool"}],"stateMutability":"view","type":"function"},{"inputs":[],"name":"owner","outputs":[{"internalType":"address","name":"","type":"address"}],"stateMutability":"view","type":"function"},{"inputs":[{"internalType":"bytes32","name":"lockId","type":"bytes32"}],"name":"refund","outputs":[],"stateMutability":"nonpayable","type":"function"},{"inputs":[{"internalType":"uint256[2]","name":"alpha_off","type":"uint256[2]"},{"internalType":"uint256[2][2]","name":"beta_off","type":"uint256[2][2]"},{"internalType":"uint256[2][2]","name":"gamma_off","type":"uint256[2][2]"},{"internalType":"uint256[2][2]","name":"delta_off","type":"uint256[2][2]"},{"internalType":"uint256[2][]","name":"ic_off","type":"uint256[2][]"},{"internalType":"uint256[2]","name":"alpha_on","type":"uint256[2]"},{"internalType":"uint256[2][2]","name":"beta_on","type":"uint256[2][2]"},{"internalType":"uint256[2][2]","name":"gamma_on","type":"uint256[2][2]"},{"internalType":"uint256[2][2]","name":"delta_on","type":"uint256[2][2]"},{"internalType":"uint256[2][]","name":"ic_on","type":"uint256[2][]"}],"name":"setVerifyingKeys","outputs":[],"stateMutability":"nonpayable","type":"function"},{"inputs":[{"internalType":"bytes32","name":"lockId","type":"bytes32"},{"internalType":"bytes32","name":"serialNumber","type":"bytes32"},{"internalType":"bytes32","name":"merkleRoot","type":"bytes32"},{"internalType":"uint256[2]","name":"proofA","type":"uint256[2]"},{"internalType":"uint256[2][2]","name":"proofB","type":"uint256[2][2]"},{"internalType":"uint256[2]","name":"proofC","type":"uint256[2]"}],"name":"unlock","outputs":[],"stateMutability":"nonpayable","type":"function"},{"inputs":[{"internalType":"bytes32","name":"","type":"bytes32"}],"name":"usedSerialNumbers","outputs":[{"internalType":"bool","name":"","type":"bool"}],"stateMutability":"view","type":"function"},{"inputs":[{"internalType":"bytes32","name":"hashLock_I","type":"bytes32"},{"internalType":"bytes32","name":"hashLock_II","type":"bytes32"},{"internalType":"bytes32","name":"pre_I","type":"bytes32"},{"internalType":"bytes32","name":"pre_II","type":"bytes32"},{"internalType":"bytes32","name":"Z_256","type":"bytes32"},{"internalType":"uint256[2]","name":"proofA","type":"uint256[2]"},{"internalType":"uint256[2][2]","name":"proofB","type":"uint256[2][2]"},{"internalType":"uint256[2]","name":"proofC","type":"uint256[2]"}],"name":"verifyPrepare","outputs":[{"internalType":"bool","name":"","type":"bool"}],"stateMutability":"view","type":"function"},{"stateMutability":"payable","type":"receive"}],"evm":{"bytecode":{"linkReferences":{},"object":"608060405234801561000f575f80fd5b50602180546001600160a01b0319163317905561231a8061002f5f395ff3fe6080604052600436106100dc575f3560e01c8063aa7c96441161007c578063d934427b11610057578063d934427b146102f6578063db13214314610324578063e793e99414610343578063ed5e843714610358575f80fd5b8063aa7c964414610296578063b3b77a51146102b5578063b7a54b83146102c8575f80fd5b80637249fbb6116100b75780637249fbb6146101fd57806388930b6a1461021c5780638da5cb5b1461024b57806394493c4314610282575f80fd5b80633d9a3400146100e7578063528c8255146101b95780636580560a146101dc575f80fd5b366100e357005b5f80fd5b3480156100f2575f80fd5b50610179610101366004611eec565b5f908152601e6020908152604091829020825160c08101845281546001600160a01b03168082526001830154938201849052600283015494820185905260038301546060830181905260049093015460ff80821615156080850181905261010090920416151560a09093018390529095939493909190565b604080516001600160a01b039097168752602087019590955293850192909252606084015215156080830152151560a082015260c0015b60405180910390f35b3480156101c4575f80fd5b506101ce610e1081565b6040519081526020016101b0565b3480156101e7575f80fd5b506101fb6101f636600461207d565b6103b6565b005b348015610208575f80fd5b506101fb610217366004611eec565b610769565b348015610227575f80fd5b5061023b61023636600461216d565b6109ca565b60405190151581526020016101b0565b348015610256575f80fd5b5060215461026a906001600160a01b031681565b6040516001600160a01b0390911681526020016101b0565b34801561028d575f80fd5b506020546101ce565b3480156102a1575f80fd5b506101ce6102b0366004611eec565b610cfa565b6101fb6102c33660046121e0565b610d19565b3480156102d3575f80fd5b5061023b6102e2366004611eec565b601f6020525f908152604090205460ff1681565b348015610301575f80fd5b5061023b610310366004611eec565b5f908152601f602052604090205460ff1690565b34801561032f575f80fd5b506101fb61033e366004612200565b610fa9565b34801561034e575f80fd5b506101ce611c2081565b348015610363575f80fd5b50610179610372366004611eec565b601e6020525f9081526040902080546001820154600283015460038401546004909401546001600160a01b0390931693919290919060ff8082169161010090041686565b6021546001600160a01b031633146104025760405162461bcd60e51b815260206004820152600a60248201526927b7363c9037bbb732b960b11b60448201526064015b60405180910390fd5b6040805180820182528b518082526020808e01519281018390525f9190915560019190915581518083019092528a518083528b8201519183019190915260029061044e90829081611dc2565b5060208201516104649060028084019190611dc2565b50506040805180820190915289518082526020808c0151908301529091506006906104929082906002611dc2565b5060208201516104a89060028084019190611dc2565b50506040805180820190915288518082526020808b015190830152909150600a906104d69082906002611dc2565b5060208201516104ec9060028084019190611dc2565b506104fc9150600e90505f611e00565b5f5b86518110156105ad575f600e01604051806040016040528089848151811061052857610528612260565b60200260200101515f6002811061054157610541612260565b6020020151815260200189848151811061055d5761055d612260565b602002602001015160016002811061057757610577612260565b602090810291909101519091528254600181810185555f94855293829020835160029092020190815591015190820155016104fe565b506040805180820182528651808252602080890151928101839052600f919091556010919091558151808301909252855180835286820151918301919091526011906105fc9082906002611dc2565b5060208201516106129060028084019190611dc2565b5050604080518082019091528451808252602080870151908301529091506015906106409082906002611dc2565b5060208201516106569060028084019190611dc2565b5050604080518082019091528351808252602080860151908301529091506019906106849082906002611dc2565b50602082015161069a9060028084019190611dc2565b506106aa9150601d90505f611e00565b5f5b815181101561075c57600f600e0160405180604001604052808484815181106106d7576106d7612260565b60200260200101515f600281106106f0576106f0612260565b6020020151815260200184848151811061070c5761070c612260565b602002602001015160016002811061072657610726612260565b602090810291909101519091528254600181810185555f94855293829020835160029092020190815591015190820155016106ac565b5050505050505050505050565b5f818152601e6020526040902060018101546107b85760405162461bcd60e51b815260206004820152600e60248201526d131bd8dac81b9bdd08199bdd5b9960921b60448201526064016103f9565b80546001600160a01b031633146108025760405162461bcd60e51b815260206004820152600e60248201526d2737ba103a3432903637b1b5b2b960911b60448201526064016103f9565b8060030154421161084d5760405162461bcd60e51b8152602060048201526015602482015274151a5b59481b1bd8dac81b9bdd08195e1c1a5c9959605a1b60448201526064016103f9565b600481015460ff16156108955760405162461bcd60e51b815260206004820152601060248201526f105b1c9958591e481d5b9b1bd8dad95960821b60448201526064016103f9565b6004810154610100900460ff16156108e25760405162461bcd60e51b815260206004820152601060248201526f105b1c9958591e481c99599d5b99195960821b60448201526064016103f9565b60048101805461ff00191661010017905560018101546040515f9133918381818185875af1925050503d805f8114610935576040519150601f19603f3d011682016040523d82523d5f602084013e61093a565b606091505b505090508061097d5760405162461bcd60e51b815260206004820152600f60248201526e151c985b9cd9995c8819985a5b1959608a1b60448201526064016103f9565b336001600160a01b0316837ff552ca82e113ac3c539c3d617f29fcd19c172a0c75dad017555c9e109f7fe18384600101546040516109bd91815260200190565b60405180910390a3505050565b6040805160a080820183528551606083019081526020808801516080850152908352835180850185528651815286820151818301528184015283518085018552855181528582015181830152838501528351600580825260c082019095525f948593919290919083019080368337019050509050885f1c815f81518110610a5357610a53612260565b602002602001018181525050875f1c81600181518110610a7557610a75612260565b602002602001018181525050865f1c81600281518110610a9757610a97612260565b6020026020010181815250508a5f1c81600381518110610ab957610ab9612260565b602002602001018181525050895f1c81600481518110610adb57610adb612260565b6020908102919091018101919091526040805160e0810182525f805460a0830190815260015460c08401528252825160808101808552610ceb959394929385019260029183918201908390819081845b815481526020019060010190808311610b2b57505050918352505060408051808201918290526020909201919060028481019182845b815481526020019060010190808311610b61575050509190925250505081526040805160808101808352602090930192909160068501918391820190839060029082845b815481526020019060010190808311610ba557505050918352505060408051808201918290526020909201919060028481019182845b815481526020019060010190808311610bdb5750505091909252505050815260408051608081018083526020909301929091600a8501918391820190839060029082845b815481526020019060010190808311610c1f57505050918352505060408051808201918290526020909201919060028481019182845b815481526020019060010190808311610c55575050505050815250508152602001600e8201805480602002602001604051908101604052809291908181526020015f905b82821015610cdc578382905f5260205f2090600202016040518060400160405290815f820154815260200160018201548152505081526020019060010190610c99565b5050505081525050838361154b565b9b9a5050505050505050505050565b60208181548110610d09575f80fd5b5f91825260209091200154905081565b5f3411610d585760405162461bcd60e51b815260206004820152600d60248201526c09aeae6e840e6cadcc8408aa89609b1b60448201526064016103f9565b610d6134611875565b610da45760405162461bcd60e51b815260206004820152601460248201527324b73b30b634b2103232b737b6b4b730ba34b7b760611b60448201526064016103f9565b5f8111610de65760405162461bcd60e51b815260206004820152601060248201526f496e76616c69642074696d656c6f636b60801b60448201526064016103f9565b60208054604080513360601b6bffffffffffffffffffffffff191681850152603481018690524360548201526074808201939093528151808203909301835260940181528151918301919091205f818152601e90935291206001015415610e835760405162461bcd60e51b81526020600482015260116024820152702637b1b59024a21031b7b63634b9b4b7b760791b60448201526064016103f9565b6040805160c08101825233815234602082015290810184905260608101610eaa8442612288565b81525f60208083018290526040928301829052848252601e815290829020835181546001600160a01b0319166001600160a01b03909116178155838201516001808301919091558484015160028301556060808601516003840190815560808701516004909401805460a09098015161ffff1990981694151561ff001916949094176101009715159790970296909617909255825490810183557fc97bfaf2f8ee708c303a06d134f5ecd8389ae0432af62dc132a24118292866bb018590559254825134815291820187905291810191909152339183917f90b4652709ecf95c465dbc53abc979fad77829d2ccc7fe10e6e0815f9b4f303891016109bd565b5f868152601e602052604090206001810154610ff85760405162461bcd60e51b815260206004820152600e60248201526d131bd8dac81b9bdd08199bdd5b9960921b60448201526064016103f9565b600481015460ff16156110405760405162461bcd60e51b815260206004820152601060248201526f105b1c9958591e481d5b9b1bd8dad95960821b60448201526064016103f9565b6004810154610100900460ff161561108d5760405162461bcd60e51b815260206004820152601060248201526f105b1c9958591e481c99599d5b99195960821b60448201526064016103f9565b80600301544211156110d55760405162461bcd60e51b8152602060048201526011602482015270151a5b59481b1bd8dac8195e1c1a5c9959607a1b60448201526064016103f9565b5f868152601f602052604090205460ff16156111335760405162461bcd60e51b815260206004820152601a60248201527f53657269616c206e756d62657220616c7265616479207573656400000000000060448201526064016103f9565b6040805160a08101825285516060808301918252602080890151608080860191909152928452845180860186528851815288820151818301528185015284518086018652875181528782015181830152848601528451600380825293810190955292935f939092919083019080368337019050509050875f1c815f815181106111be576111be612260565b6020026020010181815250508260010154816001815181106111e2576111e2612260565b602002602001018181525050865f1c8160028151811061120457611204612260565b6020908102919091018101919091526040805160e081018252600f805460a0830190815260105460c08401528252825160808101808552601180549583019586526113f8969495939486019390918391908390600290601260608601808311610b2b57505050918352505060408051808201918290526002848101805483526020948501949293909260038701908501808311610b615750505091909252505050815260408051608081018083526006850180549383019384526020909401939192839183906002906007890160608601808311610ba557505050918352505060408051808201918290526002848101805483526020948501949293909260038701908501808311610bdb575050509190925250505081526040805160808101808352600a85018054938301938452602090940193919283918390600290600b890160608601808311610c1f57505050918352505060408051808201918290526002848101805483526020948501949293909260038701908501808311610c55575050505050815250508152602001600e8201805480602002602001604051908101604052809291908181526020015f9082821015610cdc578382905f5260205f2090600202016040518060400160405290815f820154815260200160018201548152505081526020019060010190610c99565b6114445760405162461bcd60e51b815260206004820152601760248201527f5a4b5020766572696669636174696f6e206661696c656400000000000000000060448201526064016103f9565b600483018054600160ff1991821681179092555f8a8152601f6020526040808220805490931684179092559185015490513391908381818185875af1925050503d805f81146114ae576040519150601f19603f3d011682016040523d82523d5f602084013e6114b3565b606091505b50509050806114f65760405162461bcd60e51b815260206004820152600f60248201526e151c985b9cd9995c8819985a5b1959608a1b60448201526064016103f9565b336001600160a01b0316898b7f6db00809f9edc484fed4b0b0a924a326990ff18002aa93a0a3c971886bd7e7c1876001015460405161153791815260200190565b60405180910390a450505050505050505050565b5f836080015151825160016115609190612288565b146115ad5760405162461bcd60e51b815260206004820152601c60248201527f496e76616c6964207075626c696320696e70757473206c656e6774680000000060448201526064016103f9565b5f5b8251811015611648577f30644e72e131a029b85045b68181585d2833e84879b9709143e1f593f00000018382815181106115eb576115eb612260565b6020026020010151106116405760405162461bcd60e51b815260206004820152601a60248201527f5075626c696320696e7075742065786365656473206669656c6400000000000060448201526064016103f9565b6001016115af565b505f84608001515f8151811061166057611660612260565b602002602001015190505f5b83518110156116d4576116ca826116c5886080015184600161168e9190612288565b8151811061169e5761169e612260565b60200260200101518785815181106116b8576116b8612260565b60200260200101516118e0565b61196e565b915060010161166c565b5060408051600480825260a082019092525f91816020015b604080518082019091525f80825260208201528152602001906001900390816116ec57505060408051600480825260a082019092529192505f9190602082015b611734611e21565b81526020019060019003908161172c5750508651909150611754906119fa565b825f8151811061176657611766612260565b60200260200101819052508560200151815f8151811061178857611788612260565b6020026020010181905250865f0151826001815181106117aa576117aa612260565b60200260200101819052508660200151816001815181106117cd576117cd612260565b602002602001018190525082826002815181106117ec576117ec612260565b602002602001018190525086604001518160028151811061180f5761180f612260565b602002602001018190525085604001518260038151811061183257611832612260565b602002602001018190525086606001518160038151811061185557611855612260565b602002602001018190525061186a8282611ab1565b979650505050505050565b5f66038d7ea4c680008214806118915750662386f26fc1000082145b806118a3575067016345785d8a000082145b806118b55750670de0b6b3a764000082145b806118c75750678ac7230489e8000082145b806118da575068056bc75e2d6310000082145b92915050565b604080518082019091525f80825260208201526118fb611e46565b835181526020808501519082015260408082018490525f908360608460076107d05a03fa9050806119665760405162461bcd60e51b8152602060048201526015602482015274189b8c8d4d94d8d85b185c935d5b0819985a5b1959605a1b60448201526064016103f9565b505092915050565b604080518082019091525f8082526020820152611989611e64565b835181526020808501518183015283516040808401919091529084015160608301525f908360808460066107d05a03fa9050806119665760405162461bcd60e51b815260206004820152600f60248201526e189b8c8d4d9059190819985a5b1959608a1b60448201526064016103f9565b604080518082019091525f80825260208201528151158015611a1e57506020820151155b15611a3b575050604080518082019091525f808252602082015290565b6040518060400160405280835f015181526020017f30644e72e131a029b85045b68181585d97816a916871ca8d3c208c16d87cfd478460200151611a7f919061229b565b611aa9907f30644e72e131a029b85045b68181585d97816a916871ca8d3c208c16d87cfd476122ba565b905292915050565b5f8151835114611b035760405162461bcd60e51b815260206004820152601760248201527f50616972696e67206c656e677468206d69736d6174636800000000000000000060448201526064016103f9565b5f83516006611b1291906122cd565b90505f8167ffffffffffffffff811115611b2e57611b2e611f03565b604051908082528060200260200182016040528015611b57578160200160208202803683370190505b5090505f5b8551811015611d52575f611b718260066122cd565b9050868281518110611b8557611b85612260565b60200260200101515f015183825f611b9d9190612288565b81518110611bad57611bad612260565b602002602001018181525050868281518110611bcb57611bcb612260565b60200260200101516020015183826001611be59190612288565b81518110611bf557611bf5612260565b602002602001018181525050858281518110611c1357611c13612260565b60209081029190910181015151015183611c2e836002612288565b81518110611c3e57611c3e612260565b602002602001018181525050858281518110611c5c57611c5c612260565b6020908102919091010151515183611c75836003612288565b81518110611c8557611c85612260565b602002602001018181525050858281518110611ca357611ca3612260565b602002602001015160200151600160028110611cc157611cc1612260565b602002015183611cd2836004612288565b81518110611ce257611ce2612260565b602002602001018181525050858281518110611d0057611d00612260565b6020026020010151602001515f60028110611d1d57611d1d612260565b602002015183611d2e836005612288565b81518110611d3e57611d3e612260565b602090810291909101015250600101611b5c565b50611d5b611e82565b5f602082602086026020860160086107d05a03fa905080611db45760405162461bcd60e51b8152602060048201526013602482015272189b8c8d4d94185a5c9a5b99c819985a5b1959606a1b60448201526064016103f9565b505160011495945050505050565b8260028101928215611df0579160200282015b82811115611df0578251825591602001919060010190611dd5565b50611dfc929150611ea0565b5090565b5080545f8255600202905f5260205f2090810190611e1e9190611eb4565b50565b6040518060400160405280611e34611ece565b8152602001611e41611ece565b905290565b60405180606001604052806003906020820280368337509192915050565b60405180608001604052806004906020820280368337509192915050565b60405180602001604052806001906020820280368337509192915050565b5b80821115611dfc575f8155600101611ea1565b5b80821115611dfc575f8082556001820155600201611eb5565b60405180604001604052806002906020820280368337509192915050565b5f60208284031215611efc575f80fd5b5035919050565b634e487b7160e01b5f52604160045260245ffd5b6040805190810167ffffffffffffffff81118282101715611f3a57611f3a611f03565b60405290565b5f82601f830112611f4f575f80fd5b611f57611f17565b806040840185811115611f68575f80fd5b845b81811015611f82578035845260209384019301611f6a565b509095945050505050565b5f82601f830112611f9c575f80fd5b611fa4611f17565b806080840185811115611fb5575f80fd5b845b81811015611f8257611fc98782611f40565b8452602090930192604001611fb7565b5f82601f830112611fe8575f80fd5b8135602067ffffffffffffffff8083111561200557612005611f03565b60408051601f19603f8660051b01168101818110848211171561202a5761202a611f03565b604052848152602060069590951b8701850194810192508785111561204d575f80fd5b602087015b85811015612071576120648982611f40565b8452928401928201612052565b50979650505050505050565b5f805f805f805f805f806103c08b8d031215612097575f80fd5b6120a18c8c611f40565b99506120b08c60408d01611f8d565b98506120bf8c60c08d01611f8d565b97506120cf8c6101408d01611f8d565b96506101c08b013567ffffffffffffffff808211156120ec575f80fd5b6120f88e838f01611fd9565b97506121088e6101e08f01611f40565b96506121188e6102208f01611f8d565b95506121288e6102a08f01611f8d565b94506121388e6103208f01611f8d565b93506103a08d013591508082111561214e575f80fd5b5061215b8d828e01611fd9565b9150509295989b9194979a5092959850565b5f805f805f805f806101a0898b031215612185575f80fd5b88359750602089013596506040890135955060608901359450608089013593506121b28a60a08b01611f40565b92506121c18a60e08b01611f8d565b91506121d18a6101608b01611f40565b90509295985092959890939650565b5f80604083850312156121f1575f80fd5b50508035926020909101359150565b5f805f805f806101608789031215612216575f80fd5b8635955060208701359450604087013593506122358860608901611f40565b92506122448860a08901611f8d565b9150612254886101208901611f40565b90509295509295509295565b634e487b7160e01b5f52603260045260245ffd5b634e487b7160e01b5f52601160045260245ffd5b808201808211156118da576118da612274565b5f826122b557634e487b7160e01b5f52601260045260245ffd5b500690565b818103818111156118da576118da612274565b80820281158282048414176118da576118da61227456fea2646970667358221220d48094c637eb7e65affd0281ae0603774b16b4d44ebccb1bb038f573f995208c64736f6c63430008180033","opcodes":"PUSH1 0x80 PUSH1 0x40 MSTORE CALLVALUE DUP1 ISZERO PUSH2 0xF JUMPI PUSH0 DUP1 REVERT JUMPDEST POP PUSH1 0x21 DUP1 SLOAD PUSH1 0x1 PUSH1 0x1 PUSH1 0xA0 SHL SUB NOT AND CALLER OR SWAP1 SSTORE PUSH2 0x231A DUP1 PUSH2 0x2F PUSH0 CODECOPY PUSH0 RETURN INVALID PUSH1 0x80 PUSH1 0x40 MSTORE PUSH1 0x4 CALLDATASIZE LT PUSH2 0xDC JUMPI PUSH0 CALLDATALOAD PUSH1 0xE0 SHR DUP1 PUSH4 0xAA7C9644 GT PUSH2 0x7C JUMPI DUP1 PUSH4 0xD934427B GT PUSH2 0x57 JUMPI DUP1 PUSH4 0xD934427B EQ PUSH2 0x2F6 JUMPI DUP1 PUSH4 0xDB132143 EQ PUSH2 0x324 JUMPI DUP1 PUSH4 0xE793E994 EQ PUSH2 0x343 JUMPI DUP1 PUSH4 0xED5E8437 EQ PUSH2 0x358 JUMPI PUSH0 DUP1 REVERT JUMPDEST DUP1 PUSH4 0xAA7C9644 EQ PUSH2 0x296 JUMPI DUP1 PUSH4 0xB3B77A51 EQ PUSH2 0x2B5 JUMPI DUP1 PUSH4 0xB7A54B83 EQ PUSH2 0x2C8 JUMPI PUSH0 DUP1 REVERT JUMPDEST DUP1 PUSH4 0x7249FBB6 GT PUSH2 0xB7 JUMPI DUP1 PUSH4 0x7249FBB6 EQ PUSH2 0x1FD JUMPI DUP1 PUSH4 0x88930B6A EQ PUSH2 0x21C JUMPI DUP1 PUSH4 0x8DA5CB5B EQ PUSH2 0x24B JUMPI DUP1 PUSH4 0x94493C43 EQ PUSH2 0x282 JUMPI PUSH0 DUP1 REVERT JUMPDEST DUP1 PUSH4 0x3D9A3400 EQ PUSH2 0xE7 JUMPI DUP1 PUSH4 0x528C8255 EQ PUSH2 0x1B9 JUMPI DUP1 PUSH4 0x6580560A EQ PUSH2 0x1DC JUMPI PUSH0 DUP1 REVERT JUMPDEST CALLDATASIZE PUSH2 0xE3 JUMPI STOP JUMPDEST PUSH0 DUP1 REVERT JUMPDEST CALLVALUE DUP1 ISZERO PUSH2 0xF2 JUMPI PUSH0 DUP1 REVERT JUMPDEST POP PUSH2 0x179 PUSH2 0x101 CALLDATASIZE PUSH1 0x4 PUSH2 0x1EEC JUMP JUMPDEST PUSH0 SWAP1 DUP2 MSTORE PUSH1 0x1E PUSH1 0x20 SWAP1 DUP2 MSTORE PUSH1 0x40 SWAP2 DUP3 SWAP1 KECCAK256 DUP3 MLOAD PUSH1 0xC0 DUP2 ADD DUP5 MSTORE DUP2 SLOAD PUSH1 0x1 PUSH1 0x1 PUSH1 0xA0 SHL SUB AND DUP1 DUP3 MSTORE PUSH1 0x1 DUP4 ADD SLOAD SWAP4 DUP3 ADD DUP5 SWAP1 MSTORE PUSH1 0x2 DUP4 ADD SLOAD SWAP5 DUP3 ADD DUP6 SWAP1 MSTORE PUSH1 0x3 DUP4 ADD SLOAD PUSH1 0x60 DUP4 ADD DUP2 SWAP1 MSTORE PUSH1 0x4 SWAP1 SWAP4 ADD SLOAD PUSH1 0xFF DUP1 DUP3 AND ISZERO ISZERO PUSH1 0x80 DUP6 ADD DUP2 SWAP1 MSTORE PUSH2 0x100 SWAP1 SWAP3 DIV AND ISZERO ISZERO PUSH1 0xA0 SWAP1 SWAP4 ADD DUP4 SWAP1 MSTORE SWAP1 SWAP6 SWAP4 SWAP5 SWAP4 SWAP1 SWAP2 SWAP1 JUMP JUMPDEST PUSH1 0x40 DUP1 MLOAD PUSH1 0x1 PUSH1 0x1 PUSH1 0xA0 SHL SUB SWAP1 SWAP8 AND DUP8 MSTORE PUSH1 0x20 DUP8 ADD SWAP6 SWAP1 SWAP6 MSTORE SWAP4 DUP6 ADD SWAP3 SWAP1 SWAP3 MSTORE PUSH1 0x60 DUP5 ADD MSTORE ISZERO ISZERO PUSH1 0x80 DUP4 ADD MSTORE ISZERO ISZERO PUSH1 0xA0 DUP3 ADD MSTORE PUSH1 0xC0 ADD JUMPDEST PUSH1 0x40 MLOAD DUP1 SWAP2 SUB SWAP1 RETURN JUMPDEST CALLVALUE DUP1 ISZERO PUSH2 0x1C4 JUMPI PUSH0 DUP1 REVERT JUMPDEST POP PUSH2 0x1CE PUSH2 0xE10 DUP2 JUMP JUMPDEST PUSH1 0x40 MLOAD SWAP1 DUP2 MSTORE PUSH1 0x20 ADD PUSH2 0x1B0 JUMP JUMPDEST CALLVALUE DUP1 ISZERO PUSH2 0x1E7 JUMPI PUSH0 DUP1 REVERT JUMPDEST POP PUSH2 0x1FB PUSH2 0x1F6 CALLDATASIZE PUSH1 0x4 PUSH2 0x207D JUMP JUMPDEST PUSH2 0x3B6 JUMP JUMPDEST STOP JUMPDEST CALLVALUE DUP1 ISZERO PUSH2 0x208 JUMPI PUSH0 DUP1 REVERT JUMPDEST POP PUSH2 0x1FB PUSH2 0x217 CALLDATASIZE PUSH1 0x4 PUSH2 0x1EEC JUMP JUMPDEST PUSH2 0x769 JUMP JUMPDEST CALLVALUE DUP1 ISZERO PUSH2 0x227 JUMPI PUSH0 DUP1 REVERT JUMPDEST POP PUSH2 0x23B PUSH2 0x236 CALLDATASIZE PUSH1 0x4 PUSH2 0x216D JUMP JUMPDEST PUSH2 0x9CA JUMP JUMPDEST PUSH1 0x40 MLOAD SWAP1 ISZERO ISZERO DUP2 MSTORE PUSH1 0x20 ADD PUSH2 0x1B0 JUMP JUMPDEST CALLVALUE DUP1 ISZERO PUSH2 0x256 JUMPI PUSH0 DUP1 REVERT JUMPDEST POP PUSH1 0x21 SLOAD PUSH2 0x26A SWAP1 PUSH1 0x1 PUSH1 0x1 PUSH1 0xA0 SHL SUB AND DUP2 JUMP JUMPDEST PUSH1 0x40 MLOAD PUSH1 0x1 PUSH1 0x1 PUSH1 0xA0 SHL SUB SWAP1 SWAP2 AND DUP2 MSTORE PUSH1 0x20 ADD PUSH2 0x1B0 JUMP JUMPDEST CALLVALUE DUP1 ISZERO PUSH2 0x28D JUMPI PUSH0 DUP1 REVERT JUMPDEST POP PUSH1 0x20 SLOAD PUSH2 0x1CE JUMP JUMPDEST CALLVALUE DUP1 ISZERO PUSH2 0x2A1 JUMPI PUSH0 DUP1 REVERT JUMPDEST POP PUSH2 0x1CE PUSH2 0x2B0 CALLDATASIZE PUSH1 0x4 PUSH2 0x1EEC JUMP JUMPDEST PUSH2 0xCFA JUMP JUMPDEST PUSH2 0x1FB PUSH2 0x2C3 CALLDATASIZE PUSH1 0x4 PUSH2 0x21E0 JUMP JUMPDEST PUSH2 0xD19 JUMP JUMPDEST CALLVALUE DUP1 ISZERO PUSH2 0x2D3 JUMPI PUSH0 DUP1 REVERT JUMPDEST POP PUSH2 0x23B PUSH2 0x2E2 CALLDATASIZE PUSH1 0x4 PUSH2 0x1EEC JUMP JUMPDEST PUSH1 0x1F PUSH1 0x20 MSTORE PUSH0 SWAP1 DUP2 MSTORE PUSH1 0x40 SWAP1 KECCAK256 SLOAD PUSH1 0xFF AND DUP2 JUMP JUMPDEST CALLVALUE DUP1 ISZERO PUSH2 0x301 JUMPI PUSH0 DUP1 REVERT JUMPDEST POP PUSH2 0x23B PUSH2 0x310 CALLDATASIZE PUSH1 0x4 PUSH2 0x1EEC JUMP JUMPDEST PUSH0 SWAP1 DUP2 MSTORE PUSH1 0x1F PUSH1 0x20 MSTORE PUSH1 0x40 SWAP1 KECCAK256 SLOAD PUSH1 0xFF AND SWAP1 JUMP JUMPDEST CALLVALUE DUP1 ISZERO PUSH2 0x32F JUMPI PUSH0 DUP1 REVERT JUMPDEST POP PUSH2 0x1FB PUSH2 0x33E CALLDATASIZE PUSH1 0x4 PUSH2 0x2200 JUMP JUMPDEST PUSH2 0xFA9 JUMP JUMPDEST CALLVALUE DUP1 ISZERO PUSH2 0x34E JUMPI PUSH0 DUP1 REVERT JUMPDEST POP PUSH2 0x1CE PUSH2 0x1C20 DUP2 JUMP JUMPDEST CALLVALUE DUP1 ISZERO PUSH2 0x363 JUMPI PUSH0 DUP1 REVERT JUMPDEST POP PUSH2 0x179 PUSH2 0x372 CALLDATASIZE PUSH1 0x4 PUSH2 0x1EEC JUMP JUMPDEST PUSH1 0x1E PUSH1 0x20 MSTORE PUSH0 SWAP1 DUP2 MSTORE PUSH1 0x40 SWAP1 KECCAK256 DUP1 SLOAD PUSH1 0x1 DUP3 ADD SLOAD PUSH1 0x2 DUP4 ADD SLOAD PUSH1 0x3 DUP5 ADD SLOAD PUSH1 0x4 SWAP1 SWAP5 ADD SLOAD PUSH1 0x1 PUSH1 0x1 PUSH1 0xA0 SHL SUB SWAP1 SWAP4 AND SWAP4 SWAP2 SWAP3 SWAP1 SWAP2 SWAP1 PUSH1 0xFF DUP1 DUP3 AND SWAP2 PUSH2 0x100 SWAP1 DIV AND DUP7 JUMP JUMPDEST PUSH1 0x21 SLOAD PUSH1 0x1 PUSH1 0x1 PUSH1 0xA0 SHL SUB AND CALLER EQ PUSH2 0x402 JUMPI PUSH1 0x40 MLOAD PUSH3 0x461BCD PUSH1 0xE5 SHL DUP2 MSTORE PUSH1 0x20 PUSH1 0x4 DUP3 ADD MSTORE PUSH1 0xA PUSH1 0x24 DUP3 ADD MSTORE PUSH10 0x27B7363C9037BBB732B9 PUSH1 0xB1 SHL PUSH1 0x44 DUP3 ADD MSTORE PUSH1 0x64 ADD JUMPDEST PUSH1 0x40 MLOAD DUP1 SWAP2 SUB SWAP1 REVERT JUMPDEST PUSH1 0x40 DUP1 MLOAD DUP1 DUP3 ADD DUP3 MSTORE DUP12 MLOAD DUP1 DUP3 MSTORE PUSH1 0x20 DUP1 DUP15 ADD MLOAD SWAP3 DUP2 ADD DUP4 SWAP1 MSTORE PUSH0 SWAP2 SWAP1 SWAP2 SSTORE PUSH1 0x1 SWAP2 SWAP1 SWAP2 SSTORE DUP2 MLOAD DUP1 DUP4 ADD SWAP1 SWAP3 MSTORE DUP11 MLOAD DUP1 DUP4 MSTORE DUP12 DUP3 ADD MLOAD SWAP2 DUP4 ADD SWAP2 SWAP1 SWAP2 MSTORE PUSH1 0x2 SWAP1 PUSH2 0x44E SWAP1 DUP3 SWAP1 DUP2 PUSH2 0x1DC2 JUMP JUMPDEST POP PUSH1 0x20 DUP3 ADD MLOAD PUSH2 0x464 SWAP1 PUSH1 0x2 DUP1 DUP5 ADD SWAP2 SWAP1 PUSH2 0x1DC2 JUMP JUMPDEST POP POP PUSH1 0x40 DUP1 MLOAD DUP1 DUP3 ADD SWAP1 SWAP2 MSTORE DUP10 MLOAD DUP1 DUP3 MSTORE PUSH1 0x20 DUP1 DUP13 ADD MLOAD SWAP1 DUP4 ADD MSTORE SWAP1 SWAP2 POP PUSH1 0x6 SWAP1 PUSH2 0x492 SWAP1 DUP3 SWAP1 PUSH1 0x2 PUSH2 0x1DC2 JUMP JUMPDEST POP PUSH1 0x20 DUP3 ADD MLOAD PUSH2 0x4A8 SWAP1 PUSH1 0x2 DUP1 DUP5 ADD SWAP2 SWAP1 PUSH2 0x1DC2 JUMP JUMPDEST POP POP PUSH1 0x40 DUP1 MLOAD DUP1 DUP3 ADD SWAP1 SWAP2 MSTORE DUP9 MLOAD DUP1 DUP3 MSTORE PUSH1 0x20 DUP1 DUP12 ADD MLOAD SWAP1 DUP4 ADD MSTORE SWAP1 SWAP2 POP PUSH1 0xA SWAP1 PUSH2 0x4D6 SWAP1 DUP3 SWAP1 PUSH1 0x2 PUSH2 0x1DC2 JUMP JUMPDEST POP PUSH1 0x20 DUP3 ADD MLOAD PUSH2 0x4EC SWAP1 PUSH1 0x2 DUP1 DUP5 ADD SWAP2 SWAP1 PUSH2 0x1DC2 JUMP JUMPDEST POP PUSH2 0x4FC SWAP2 POP PUSH1 0xE SWAP1 POP PUSH0 PUSH2 0x1E00 JUMP JUMPDEST PUSH0 JUMPDEST DUP7 MLOAD DUP2 LT ISZERO PUSH2 0x5AD JUMPI PUSH0 PUSH1 0xE ADD PUSH1 0x40 MLOAD DUP1 PUSH1 0x40 ADD PUSH1 0x40 MSTORE DUP1 DUP10 DUP5 DUP2 MLOAD DUP2 LT PUSH2 0x528 JUMPI PUSH2 0x528 PUSH2 0x2260 JUMP JUMPDEST PUSH1 0x20 MUL PUSH1 0x20 ADD ADD MLOAD PUSH0 PUSH1 0x2 DUP2 LT PUSH2 0x541 JUMPI PUSH2 0x541 PUSH2 0x2260 JUMP JUMPDEST PUSH1 0x20 MUL ADD MLOAD DUP2 MSTORE PUSH1 0x20 ADD DUP10 DUP5 DUP2 MLOAD DUP2 LT PUSH2 0x55D JUMPI PUSH2 0x55D PUSH2 0x2260 JUMP JUMPDEST PUSH1 0x20 MUL PUSH1 0x20 ADD ADD MLOAD PUSH1 0x1 PUSH1 0x2 DUP2 LT PUSH2 0x577 JUMPI PUSH2 0x577 PUSH2 0x2260 JUMP JUMPDEST PUSH1 0x20 SWAP1 DUP2 MUL SWAP2 SWAP1 SWAP2 ADD MLOAD SWAP1 SWAP2 MSTORE DUP3 SLOAD PUSH1 0x1 DUP2 DUP2 ADD DUP6 SSTORE PUSH0 SWAP5 DUP6 MSTORE SWAP4 DUP3 SWAP1 KECCAK256 DUP4 MLOAD PUSH1 0x2 SWAP1 SWAP3 MUL ADD SWAP1 DUP2 SSTORE SWAP2 ADD MLOAD SWAP1 DUP3 ADD SSTORE ADD PUSH2 0x4FE JUMP JUMPDEST POP PUSH1 0x40 DUP1 MLOAD DUP1 DUP3 ADD DUP3 MSTORE DUP7 MLOAD DUP1 DUP3 MSTORE PUSH1 0x20 DUP1 DUP10 ADD MLOAD SWAP3 DUP2 ADD DUP4 SWAP1 MSTORE PUSH1 0xF SWAP2 SWAP1 SWAP2 SSTORE PUSH1 0x10 SWAP2 SWAP1 SWAP2 SSTORE DUP2 MLOAD DUP1 DUP4 ADD SWAP1 SWAP3 MSTORE DUP6 MLOAD DUP1 DUP4 MSTORE DUP7 DUP3 ADD MLOAD SWAP2 DUP4 ADD SWAP2 SWAP1 SWAP2 MSTORE PUSH1 0x11 SWAP1 PUSH2 0x5FC SWAP1 DUP3 SWAP1 PUSH1 0x2 PUSH2 0x1DC2 JUMP JUMPDEST POP PUSH1 0x20 DUP3 ADD MLOAD PUSH2 0x612 SWAP1 PUSH1 0x2 DUP1 DUP5 ADD SWAP2 SWAP1 PUSH2 0x1DC2 JUMP JUMPDEST POP POP PUSH1 0x40 DUP1 MLOAD DUP1 DUP3 ADD SWAP1 SWAP2 MSTORE DUP5 MLOAD DUP1 DUP3 MSTORE PUSH1 0x20 DUP1 DUP8 ADD MLOAD SWAP1 DUP4 ADD MSTORE SWAP1 SWAP2 POP PUSH1 0x15 SWAP1 PUSH2 0x640 SWAP1 DUP3 SWAP1 PUSH1 0x2 PUSH2 0x1DC2 JUMP JUMPDEST POP PUSH1 0x20 DUP3 ADD MLOAD PUSH2 0x656 SWAP1 PUSH1 0x2 DUP1 DUP5 ADD SWAP2 SWAP1 PUSH2 0x1DC2 JUMP JUMPDEST POP POP PUSH1 0x40 DUP1 MLOAD DUP1 DUP3 ADD SWAP1 SWAP2 MSTORE DUP4 MLOAD DUP1 DUP3 MSTORE PUSH1 0x20 DUP1 DUP7 ADD MLOAD SWAP1 DUP4 ADD MSTORE SWAP1 SWAP2 POP PUSH1 0x19 SWAP1 PUSH2 0x684 SWAP1 DUP3 SWAP1 PUSH1 0x2 PUSH2 0x1DC2 JUMP JUMPDEST POP PUSH1 0x20 DUP3 ADD MLOAD PUSH2 0x69A SWAP1 PUSH1 0x2 DUP1 DUP5 ADD SWAP2 SWAP1 PUSH2 0x1DC2 JUMP JUMPDEST POP PUSH2 0x6AA SWAP2 POP PUSH1 0x1D SWAP1 POP PUSH0 PUSH2 0x1E00 JUMP JUMPDEST PUSH0 JUMPDEST DUP2 MLOAD DUP2 LT ISZERO PUSH2 0x75C JUMPI PUSH1 0xF PUSH1 0xE ADD PUSH1 0x40 MLOAD DUP1 PUSH1 0x40 ADD PUSH1 0x40 MSTORE DUP1 DUP5 DUP5 DUP2 MLOAD DUP2 LT PUSH2 0x6D7 JUMPI PUSH2 0x6D7 PUSH2 0x2260 JUMP JUMPDEST PUSH1 0x20 MUL PUSH1 0x20 ADD ADD MLOAD PUSH0 PUSH1 0x2 DUP2 LT PUSH2 0x6F0 JUMPI PUSH2 0x6F0 PUSH2 0x2260 JUMP JUMPDEST PUSH1 0x20 MUL ADD MLOAD DUP2 MSTORE PUSH1 0x20 ADD DUP5 DUP5 DUP2 MLOAD DUP2 LT PUSH2 0x70C JUMPI PUSH2 0x70C PUSH2 0x2260 JUMP JUMPDEST PUSH1 0x20 MUL PUSH1 0x20 ADD ADD MLOAD PUSH1 0x1 PUSH1 0x2 DUP2 LT PUSH2 0x726 JUMPI PUSH2 0x726 PUSH2 0x2260 JUMP JUMPDEST PUSH1 0x20 SWAP1 DUP2 MUL SWAP2 SWAP1 SWAP2 ADD MLOAD SWAP1 SWAP2 MSTORE DUP3 SLOAD PUSH1 0x1 DUP2 DUP2 ADD DUP6 SSTORE PUSH0 SWAP5 DUP6 MSTORE SWAP4 DUP3 SWAP1 KECCAK256 DUP4 MLOAD PUSH1 0x2 SWAP1 SWAP3 MUL ADD SWAP1 DUP2 SSTORE SWAP2 ADD MLOAD SWAP1 DUP3 ADD SSTORE ADD PUSH2 0x6AC JUMP JUMPDEST POP POP POP POP POP POP POP POP POP POP POP JUMP JUMPDEST PUSH0 DUP2 DUP2 MSTORE PUSH1 0x1E PUSH1 0x20 MSTORE PUSH1 0x40 SWAP1 KECCAK256 PUSH1 0x1 DUP2 ADD SLOAD PUSH2 0x7B8 JUMPI PUSH1 0x40 MLOAD PUSH3 0x461BCD PUSH1 0xE5 SHL DUP2 MSTORE PUSH1 0x20 PUSH1 0x4 DUP3 ADD MSTORE PUSH1 0xE PUSH1 0x24 DUP3 ADD MSTORE PUSH14 0x131BD8DAC81B9BDD08199BDD5B99 PUSH1 0x92 SHL PUSH1 0x44 DUP3 ADD MSTORE PUSH1 0x64 ADD PUSH2 0x3F9 JUMP JUMPDEST DUP1 SLOAD PUSH1 0x1 PUSH1 0x1 PUSH1 0xA0 SHL SUB AND CALLER EQ PUSH2 0x802 JUMPI PUSH1 0x40 MLOAD PUSH3 0x461BCD PUSH1 0xE5 SHL DUP2 MSTORE PUSH1 0x20 PUSH1 0x4 DUP3 ADD MSTORE PUSH1 0xE PUSH1 0x24 DUP3 ADD MSTORE PUSH14 0x2737BA103A3432903637B1B5B2B9 PUSH1 0x91 SHL PUSH1 0x44 DUP3 ADD MSTORE PUSH1 0x64 ADD PUSH2 0x3F9 JUMP JUMPDEST DUP1 PUSH1 0x3 ADD SLOAD TIMESTAMP GT PUSH2 0x84D JUMPI PUSH1 0x40 MLOAD PUSH3 0x461BCD PUSH1 0xE5 SHL DUP2 MSTORE PUSH1 0x20 PUSH1 0x4 DUP3 ADD MSTORE PUSH1 0x15 PUSH1 0x24 DUP3 ADD MSTORE PUSH21 0x151A5B59481B1BD8DAC81B9BDD08195E1C1A5C9959 PUSH1 0x5A SHL PUSH1 0x44 DUP3 ADD MSTORE PUSH1 0x64 ADD PUSH2 0x3F9 JUMP JUMPDEST PUSH1 0x4 DUP2 ADD SLOAD PUSH1 0xFF AND ISZERO PUSH2 0x895 JUMPI PUSH1 0x40 MLOAD PUSH3 0x461BCD PUSH1 0xE5 SHL DUP2 MSTORE PUSH1 0x20 PUSH1 0x4 DUP3 ADD MSTORE PUSH1 0x10 PUSH1 0x24 DUP3 ADD MSTORE PUSH16 0x105B1C9958591E481D5B9B1BD8DAD959 PUSH1 0x82 SHL PUSH1 0x44 DUP3 ADD MSTORE PUSH1 0x64 ADD PUSH2 0x3F9 JUMP JUMPDEST PUSH1 0x4 DUP2 ADD SLOAD PUSH2 0x100 SWAP1 DIV PUSH1 0xFF AND ISZERO PUSH2 0x8E2 JUMPI PUSH1 0x40 MLOAD PUSH3 0x461BCD PUSH1 0xE5 SHL DUP2 MSTORE PUSH1 0x20 PUSH1 0x4 DUP3 ADD MSTORE PUSH1 0x10 PUSH1 0x24 DUP3 ADD MSTORE PUSH16 0x105B1C9958591E481C99599D5B991959 PUSH1 0x82 SHL PUSH1 0x44 DUP3 ADD MSTORE PUSH1 0x64 ADD PUSH2 0x3F9 JUMP JUMPDEST PUSH1 0x4 DUP2 ADD DUP1 SLOAD PUSH2 0xFF00 NOT AND PUSH2 0x100 OR SWAP1 SSTORE PUSH1 0x1 DUP2 ADD SLOAD PUSH1 0x40 MLOAD PUSH0 SWAP2 CALLER SWAP2 DUP4 DUP2 DUP2 DUP2 DUP6 DUP8 GAS CALL SWAP3 POP POP POP RETURNDATASIZE DUP1 PUSH0 DUP2 EQ PUSH2 0x935 JUMPI PUSH1 0x40 MLOAD SWAP2 POP PUSH1 0x1F NOT PUSH1 0x3F RETURNDATASIZE ADD AND DUP3 ADD PUSH1 0x40 MSTORE RETURNDATASIZE DUP3 MSTORE RETURNDATASIZE PUSH0 PUSH1 0x20 DUP5 ADD RETURNDATACOPY PUSH2 0x93A JUMP JUMPDEST PUSH1 0x60 SWAP2 POP JUMPDEST POP POP SWAP1 POP DUP1 PUSH2 0x97D JUMPI PUSH1 0x40 MLOAD PUSH3 0x461BCD PUSH1 0xE5 SHL DUP2 MSTORE PUSH1 0x20 PUSH1 0x4 DUP3 ADD MSTORE PUSH1 0xF PUSH1 0x24 DUP3 ADD MSTORE PUSH15 0x151C985B9CD9995C8819985A5B1959 PUSH1 0x8A SHL PUSH1 0x44 DUP3 ADD MSTORE PUSH1 0x64 ADD PUSH2 0x3F9 JUMP JUMPDEST CALLER PUSH1 0x1 PUSH1 0x1 PUSH1 0xA0 SHL SUB AND DUP4 PUSH32 0xF552CA82E113AC3C539C3D617F29FCD19C172A0C75DAD017555C9E109F7FE183 DUP5 PUSH1 0x1 ADD SLOAD PUSH1 0x40 MLOAD PUSH2 0x9BD SWAP2 DUP2 MSTORE PUSH1 0x20 ADD SWAP1 JUMP JUMPDEST PUSH1 0x40 MLOAD DUP1 SWAP2 SUB SWAP1 LOG3 POP POP POP JUMP JUMPDEST PUSH1 0x40 DUP1 MLOAD PUSH1 0xA0 DUP1 DUP3 ADD DUP4 MSTORE DUP6 MLOAD PUSH1 0x60 DUP4 ADD SWAP1 DUP2 MSTORE PUSH1 0x20 DUP1 DUP9 ADD MLOAD PUSH1 0x80 DUP6 ADD MSTORE SWAP1 DUP4 MSTORE DUP4 MLOAD DUP1 DUP6 ADD DUP6 MSTORE DUP7 MLOAD DUP2 MSTORE DUP7 DUP3 ADD MLOAD DUP2 DUP4 ADD MSTORE DUP2 DUP5 ADD MSTORE DUP4 MLOAD DUP1 DUP6 ADD DUP6 MSTORE DUP6 MLOAD DUP2 MSTORE DUP6 DUP3 ADD MLOAD DUP2 DUP4 ADD MSTORE DUP4 DUP6 ADD MSTORE DUP4 MLOAD PUSH1 0x5 DUP1 DUP3 MSTORE PUSH1 0xC0 DUP3 ADD SWAP1 SWAP6 MSTORE PUSH0 SWAP5 DUP6 SWAP4 SWAP2 SWAP3 SWAP1 SWAP2 SWAP1 DUP4 ADD SWAP1 DUP1 CALLDATASIZE DUP4 CALLDATACOPY ADD SWAP1 POP POP SWAP1 POP DUP9 PUSH0 SHR DUP2 PUSH0 DUP2 MLOAD DUP2 LT PUSH2 0xA53 JUMPI PUSH2 0xA53 PUSH2 0x2260 JUMP JUMPDEST PUSH1 0x20 MUL PUSH1 0x20 ADD ADD DUP2 DUP2 MSTORE POP POP DUP8 PUSH0 SHR DUP2 PUSH1 0x1 DUP2 MLOAD DUP2 LT PUSH2 0xA75 JUMPI PUSH2 0xA75 PUSH2 0x2260 JUMP JUMPDEST PUSH1 0x20 MUL PUSH1 0x20 ADD ADD DUP2 DUP2 MSTORE POP POP DUP7 PUSH0 SHR DUP2 PUSH1 0x2 DUP2 MLOAD DUP2 LT PUSH2 0xA97 JUMPI PUSH2 0xA97 PUSH2 0x2260 JUMP JUMPDEST PUSH1 0x20 MUL PUSH1 0x20 ADD ADD DUP2 DUP2 MSTORE POP POP DUP11 PUSH0 SHR DUP2 PUSH1 0x3 DUP2 MLOAD DUP2 LT PUSH2 0xAB9 JUMPI PUSH2 0xAB9 PUSH2 0x2260 JUMP JUMPDEST PUSH1 0x20 MUL PUSH1 0x20 ADD ADD DUP2 DUP2 MSTORE POP POP DUP10 PUSH0 SHR DUP2 PUSH1 0x4 DUP2 MLOAD DUP2 LT PUSH2 0xADB JUMPI PUSH2 0xADB PUSH2 0x2260 JUMP JUMPDEST PUSH1 0x20 SWAP1 DUP2 MUL SWAP2 SWAP1 SWAP2 ADD DUP2 ADD SWAP2 SWAP1 SWAP2 MSTORE PUSH1 0x40 DUP1 MLOAD PUSH1 0xE0 DUP2 ADD DUP3 MSTORE PUSH0 DUP1 SLOAD PUSH1 0xA0 DUP4 ADD SWAP1 DUP2 MSTORE PUSH1 0x1 SLOAD PUSH1 0xC0 DUP5 ADD MSTORE DUP3 MSTORE DUP3 MLOAD PUSH1 0x80 DUP2 ADD DUP1 DUP6 MSTORE PUSH2 0xCEB SWAP6 SWAP4 SWAP5 SWAP3 SWAP4 DUP6 ADD SWAP3 PUSH1 0x2 SWAP2 DUP4 SWAP2 DUP3 ADD SWAP1 DUP4 SWAP1 DUP2 SWAP1 DUP2 DUP5 JUMPDEST DUP2 SLOAD DUP2 MSTORE PUSH1 0x20 ADD SWAP1 PUSH1 0x1 ADD SWAP1 DUP1 DUP4 GT PUSH2 0xB2B JUMPI POP POP POP SWAP2 DUP4 MSTORE POP POP PUSH1 0x40 DUP1 MLOAD DUP1 DUP3 ADD SWAP2 DUP3 SWAP1 MSTORE PUSH1 0x20 SWAP1 SWAP3 ADD SWAP2 SWAP1 PUSH1 0x2 DUP5 DUP2 ADD SWAP2 DUP3 DUP5 JUMPDEST DUP2 SLOAD DUP2 MSTORE PUSH1 0x20 ADD SWAP1 PUSH1 0x1 ADD SWAP1 DUP1 DUP4 GT PUSH2 0xB61 JUMPI POP POP POP SWAP2 SWAP1 SWAP3 MSTORE POP POP POP DUP2 MSTORE PUSH1 0x40 DUP1 MLOAD PUSH1 0x80 DUP2 ADD DUP1 DUP4 MSTORE PUSH1 0x20 SWAP1 SWAP4 ADD SWAP3 SWAP1 SWAP2 PUSH1 0x6 DUP6 ADD SWAP2 DUP4 SWAP2 DUP3 ADD SWAP1 DUP4 SWAP1 PUSH1 0x2 SWAP1 DUP3 DUP5 JUMPDEST DUP2 SLOAD DUP2 MSTORE PUSH1 0x20 ADD SWAP1 PUSH1 0x1 ADD SWAP1 DUP1 DUP4 GT PUSH2 0xBA5 JUMPI POP POP POP SWAP2 DUP4 MSTORE POP POP PUSH1 0x40 DUP1 MLOAD DUP1 DUP3 ADD SWAP2 DUP3 SWAP1 MSTORE PUSH1 0x20 SWAP1 SWAP3 ADD SWAP2 SWAP1 PUSH1 0x2 DUP5 DUP2 ADD SWAP2 DUP3 DUP5 JUMPDEST DUP2 SLOAD DUP2 MSTORE PUSH1 0x20 ADD SWAP1 PUSH1 0x1 ADD SWAP1 DUP1 DUP4 GT PUSH2 0xBDB JUMPI POP POP POP SWAP2 SWAP1 SWAP3 MSTORE POP POP POP DUP2 MSTORE PUSH1 0x40 DUP1 MLOAD PUSH1 0x80 DUP2 ADD DUP1 DUP4 MSTORE PUSH1 0x20 SWAP1 SWAP4 ADD SWAP3 SWAP1 SWAP2 PUSH1 0xA DUP6 ADD SWAP2 DUP4 SWAP2 DUP3 ADD SWAP1 DUP4 SWAP1 PUSH1 0x2 SWAP1 DUP3 DUP5 JUMPDEST DUP2 SLOAD DUP2 MSTORE PUSH1 0x20 ADD SWAP1 PUSH1 0x1 ADD SWAP1 DUP1 DUP4 GT PUSH2 0xC1F JUMPI POP POP POP SWAP2 DUP4 MSTORE POP POP PUSH1 0x40 DUP1 MLOAD DUP1 DUP3 ADD SWAP2 DUP3 SWAP1 MSTORE PUSH1 0x20 SWAP1 SWAP3 ADD SWAP2 SWAP1 PUSH1 0x2 DUP5 DUP2 ADD SWAP2 DUP3 DUP5 JUMPDEST DUP2 SLOAD DUP2 MSTORE PUSH1 0x20 ADD SWAP1 PUSH1 0x1 ADD SWAP1 DUP1 DUP4 GT PUSH2 0xC55 JUMPI POP POP POP POP POP DUP2 MSTORE POP POP DUP2 MSTORE PUSH1 0x20 ADD PUSH1 0xE DUP3 ADD DUP1 SLOAD DUP1 PUSH1 0x20 MUL PUSH1 0x20 ADD PUSH1 0x40 MLOAD SWAP1 DUP2 ADD PUSH1 0x40 MSTORE DUP1 SWAP3 SWAP2 SWAP1 DUP2 DUP2 MSTORE PUSH1 0x20 ADD PUSH0 SWAP1 JUMPDEST DUP3 DUP3 LT ISZERO PUSH2 0xCDC JUMPI DUP4 DUP3 SWAP1 PUSH0 MSTORE PUSH1 0x20 PUSH0 KECCAK256 SWAP1 PUSH1 0x2 MUL ADD PUSH1 0x40 MLOAD DUP1 PUSH1 0x40 ADD PUSH1 0x40 MSTORE SWAP1 DUP2 PUSH0 DUP3 ADD SLOAD DUP2 MSTORE PUSH1 0x20 ADD PUSH1 0x1 DUP3 ADD SLOAD DUP2 MSTORE POP POP DUP2 MSTORE PUSH1 0x20 ADD SWAP1 PUSH1 0x1 ADD SWAP1 PUSH2 0xC99 JUMP JUMPDEST POP POP POP POP DUP2 MSTORE POP POP DUP4 DUP4 PUSH2 0x154B JUMP JUMPDEST SWAP12 SWAP11 POP POP POP POP POP POP POP POP POP POP POP JUMP JUMPDEST PUSH1 0x20 DUP2 DUP2 SLOAD DUP2 LT PUSH2 0xD09 JUMPI PUSH0 DUP1 REVERT JUMPDEST PUSH0 SWAP2 DUP3 MSTORE PUSH1 0x20 SWAP1 SWAP2 KECCAK256 ADD SLOAD SWAP1 POP DUP2 JUMP JUMPDEST PUSH0 CALLVALUE GT PUSH2 0xD58 JUMPI PUSH1 0x40 MLOAD PUSH3 0x461BCD PUSH1 0xE5 SHL DUP2 MSTORE PUSH1 0x20 PUSH1 0x4 DUP3 ADD MSTORE PUSH1 0xD PUSH1 0x24 DUP3 ADD MSTORE PUSH13 0x9AEAE6E840E6CADCC8408AA89 PUSH1 0x9B SHL PUSH1 0x44 DUP3 ADD MSTORE PUSH1 0x64 ADD PUSH2 0x3F9 JUMP JUMPDEST PUSH2 0xD61 CALLVALUE PUSH2 0x1875 JUMP JUMPDEST PUSH2 0xDA4 JUMPI PUSH1 0x40 MLOAD PUSH3 0x461BCD PUSH1 0xE5 SHL DUP2 MSTORE PUSH1 0x20 PUSH1 0x4 DUP3 ADD MSTORE PUSH1 0x14 PUSH1 0x24 DUP3 ADD MSTORE PUSH20 0x24B73B30B634B2103232B737B6B4B730BA34B7B7 PUSH1 0x61 SHL PUSH1 0x44 DUP3 ADD MSTORE PUSH1 0x64 ADD PUSH2 0x3F9 JUMP JUMPDEST PUSH0 DUP2 GT PUSH2 0xDE6 JUMPI PUSH1 0x40 MLOAD PUSH3 0x461BCD PUSH1 0xE5 SHL DUP2 MSTORE PUSH1 0x20 PUSH1 0x4 DUP3 ADD MSTORE PUSH1 0x10 PUSH1 0x24 DUP3 ADD MSTORE PUSH16 0x496E76616C69642074696D656C6F636B PUSH1 0x80 SHL PUSH1 0x44 DUP3 ADD MSTORE PUSH1 0x64 ADD PUSH2 0x3F9 JUMP JUMPDEST PUSH1 0x20 DUP1 SLOAD PUSH1 0x40 DUP1 MLOAD CALLER PUSH1 0x60 SHL PUSH12 0xFFFFFFFFFFFFFFFFFFFFFFFF NOT AND DUP2 DUP6 ADD MSTORE PUSH1 0x34 DUP2 ADD DUP7 SWAP1 MSTORE NUMBER PUSH1 0x54 DUP3 ADD MSTORE PUSH1 0x74 DUP1 DUP3 ADD SWAP4 SWAP1 SWAP4 MSTORE DUP2 MLOAD DUP1 DUP3 SUB SWAP1 SWAP4 ADD DUP4 MSTORE PUSH1 0x94 ADD DUP2 MSTORE DUP2 MLOAD SWAP2 DUP4 ADD SWAP2 SWAP1 SWAP2 KECCAK256 PUSH0 DUP2 DUP2 MSTORE PUSH1 0x1E SWAP1 SWAP4 MSTORE SWAP2 KECCAK256 PUSH1 0x1 ADD SLOAD ISZERO PUSH2 0xE83 JUMPI PUSH1 0x40 MLOAD PUSH3 0x461BCD PUSH1 0xE5 SHL DUP2 MSTORE PUSH1 0x20 PUSH1 0x4 DUP3 ADD MSTORE PUSH1 0x11 PUSH1 0x24 DUP3 ADD MSTORE PUSH17 0x2637B1B59024A21031B7B63634B9B4B7B7 PUSH1 0x79 SHL PUSH1 0x44 DUP3 ADD MSTORE PUSH1 0x64 ADD PUSH2 0x3F9 JUMP JUMPDEST PUSH1 0x40 DUP1 MLOAD PUSH1 0xC0 DUP2 ADD DUP3 MSTORE CALLER DUP2 MSTORE CALLVALUE PUSH1 0x20 DUP3 ADD MSTORE SWAP1 DUP2 ADD DUP5 SWAP1 MSTORE PUSH1 0x60 DUP2 ADD PUSH2 0xEAA DUP5 TIMESTAMP PUSH2 0x2288 JUMP JUMPDEST DUP2 MSTORE PUSH0 PUSH1 0x20 DUP1 DUP4 ADD DUP3 SWAP1 MSTORE PUSH1 0x40 SWAP3 DUP4 ADD DUP3 SWAP1 MSTORE DUP5 DUP3 MSTORE PUSH1 0x1E DUP2 MSTORE SWAP1 DUP3 SWAP1 KECCAK256 DUP4 MLOAD DUP2 SLOAD PUSH1 0x1 PUSH1 0x1 PUSH1 0xA0 SHL SUB NOT AND PUSH1 0x1 PUSH1 0x1 PUSH1 0xA0 SHL SUB SWAP1 SWAP2 AND OR DUP2 SSTORE DUP4 DUP3 ADD MLOAD PUSH1 0x1 DUP1 DUP4 ADD SWAP2 SWAP1 SWAP2 SSTORE DUP5 DUP5 ADD MLOAD PUSH1 0x2 DUP4 ADD SSTORE PUSH1 0x60 DUP1 DUP7 ADD MLOAD PUSH1 0x3 DUP5 ADD SWAP1 DUP2 SSTORE PUSH1 0x80 DUP8 ADD MLOAD PUSH1 0x4 SWAP1 SWAP5 ADD DUP1 SLOAD PUSH1 0xA0 SWAP1 SWAP9 ADD MLOAD PUSH2 0xFFFF NOT SWAP1 SWAP9 AND SWAP5 ISZERO ISZERO PUSH2 0xFF00 NOT AND SWAP5 SWAP1 SWAP5 OR PUSH2 0x100 SWAP8 ISZERO ISZERO SWAP8 SWAP1 SWAP8 MUL SWAP7 SWAP1 SWAP7 OR SWAP1 SWAP3 SSTORE DUP3 SLOAD SWAP1 DUP2 ADD DUP4 SSTORE PUSH32 0xC97BFAF2F8EE708C303A06D134F5ECD8389AE0432AF62DC132A24118292866BB ADD DUP6 SWAP1 SSTORE SWAP3 SLOAD DUP3 MLOAD CALLVALUE DUP2 MSTORE SWAP2 DUP3 ADD DUP8 SWAP1 MSTORE SWAP2 DUP2 ADD SWAP2 SWAP1 SWAP2 MSTORE CALLER SWAP2 DUP4 SWAP2 PUSH32 0x90B4652709ECF95C465DBC53ABC979FAD77829D2CCC7FE10E6E0815F9B4F3038 SWAP2 ADD PUSH2 0x9BD JUMP JUMPDEST PUSH0 DUP7 DUP2 MSTORE PUSH1 0x1E PUSH1 0x20 MSTORE PUSH1 0x40 SWAP1 KECCAK256 PUSH1 0x1 DUP2 ADD SLOAD PUSH2 0xFF8 JUMPI PUSH1 0x40 MLOAD PUSH3 0x461BCD PUSH1 0xE5 SHL DUP2 MSTORE PUSH1 0x20 PUSH1 0x4 DUP3 ADD MSTORE PUSH1 0xE PUSH1 0x24 DUP3 ADD MSTORE PUSH14 0x131BD8DAC81B9BDD08199BDD5B99 PUSH1 0x92 SHL PUSH1 0x44 DUP3 ADD MSTORE PUSH1 0x64 ADD PUSH2 0x3F9 JUMP JUMPDEST PUSH1 0x4 DUP2 ADD SLOAD PUSH1 0xFF AND ISZERO PUSH2 0x1040 JUMPI PUSH1 0x40 MLOAD PUSH3 0x461BCD PUSH1 0xE5 SHL DUP2 MSTORE PUSH1 0x20 PUSH1 0x4 DUP3 ADD MSTORE PUSH1 0x10 PUSH1 0x24 DUP3 ADD MSTORE PUSH16 0x105B1C9958591E481D5B9B1BD8DAD959 PUSH1 0x82 SHL PUSH1 0x44 DUP3 ADD MSTORE PUSH1 0x64 ADD PUSH2 0x3F9 JUMP JUMPDEST PUSH1 0x4 DUP2 ADD SLOAD PUSH2 0x100 SWAP1 DIV PUSH1 0xFF AND ISZERO PUSH2 0x108D JUMPI PUSH1 0x40 MLOAD PUSH3 0x461BCD PUSH1 0xE5 SHL DUP2 MSTORE PUSH1 0x20 PUSH1 0x4 DUP3 ADD MSTORE PUSH1 0x10 PUSH1 0x24 DUP3 ADD MSTORE PUSH16 0x105B1C9958591E481C99599D5B991959 PUSH1 0x82 SHL PUSH1 0x44 DUP3 ADD MSTORE PUSH1 0x64 ADD PUSH2 0x3F9 JUMP JUMPDEST DUP1 PUSH1 0x3 ADD SLOAD TIMESTAMP GT ISZERO PUSH2 0x10D5 JUMPI PUSH1 0x40 MLOAD PUSH3 0x461BCD PUSH1 0xE5 SHL DUP2 MSTORE PUSH1 0x20 PUSH1 0x4 DUP3 ADD MSTORE PUSH1 0x11 PUSH1 0x24 DUP3 ADD MSTORE PUSH17 0x151A5B59481B1BD8DAC8195E1C1A5C9959 PUSH1 0x7A SHL PUSH1 0x44 DUP3 ADD MSTORE PUSH1 0x64 ADD PUSH2 0x3F9 JUMP JUMPDEST PUSH0 DUP7 DUP2 MSTORE PUSH1 0x1F PUSH1 0x20 MSTORE PUSH1 0x40 SWAP1 KECCAK256 SLOAD PUSH1 0xFF AND ISZERO PUSH2 0x1133 JUMPI PUSH1 0x40 MLOAD PUSH3 0x461BCD PUSH1 0xE5 SHL DUP2 MSTORE PUSH1 0x20 PUSH1 0x4 DUP3 ADD MSTORE PUSH1 0x1A PUSH1 0x24 DUP3 ADD MSTORE PUSH32 0x53657269616C206E756D62657220616C72656164792075736564000000000000 PUSH1 0x44 DUP3 ADD MSTORE PUSH1 0x64 ADD PUSH2 0x3F9 JUMP JUMPDEST PUSH1 0x40 DUP1 MLOAD PUSH1 0xA0 DUP2 ADD DUP3 MSTORE DUP6 MLOAD PUSH1 0x60 DUP1 DUP4 ADD SWAP2 DUP3 MSTORE PUSH1 0x20 DUP1 DUP10 ADD MLOAD PUSH1 0x80 DUP1 DUP7 ADD SWAP2 SWAP1 SWAP2 MSTORE SWAP3 DUP5 MSTORE DUP5 MLOAD DUP1 DUP7 ADD DUP7 MSTORE DUP9 MLOAD DUP2 MSTORE DUP9 DUP3 ADD MLOAD DUP2 DUP4 ADD MSTORE DUP2 DUP6 ADD MSTORE DUP5 MLOAD DUP1 DUP7 ADD DUP7 MSTORE DUP8 MLOAD DUP2 MSTORE DUP8 DUP3 ADD MLOAD DUP2 DUP4 ADD MSTORE DUP5 DUP7 ADD MSTORE DUP5 MLOAD PUSH1 0x3 DUP1 DUP3 MSTORE SWAP4 DUP2 ADD SWAP1 SWAP6 MSTORE SWAP3 SWAP4 PUSH0 SWAP4 SWAP1 SWAP3 SWAP2 SWAP1 DUP4 ADD SWAP1 DUP1 CALLDATASIZE DUP4 CALLDATACOPY ADD SWAP1 POP POP SWAP1 POP DUP8 PUSH0 SHR DUP2 PUSH0 DUP2 MLOAD DUP2 LT PUSH2 0x11BE JUMPI PUSH2 0x11BE PUSH2 0x2260 JUMP JUMPDEST PUSH1 0x20 MUL PUSH1 0x20 ADD ADD DUP2 DUP2 MSTORE POP POP DUP3 PUSH1 0x1 ADD SLOAD DUP2 PUSH1 0x1 DUP2 MLOAD DUP2 LT PUSH2 0x11E2 JUMPI PUSH2 0x11E2 PUSH2 0x2260 JUMP JUMPDEST PUSH1 0x20 MUL PUSH1 0x20 ADD ADD DUP2 DUP2 MSTORE POP POP DUP7 PUSH0 SHR DUP2 PUSH1 0x2 DUP2 MLOAD DUP2 LT PUSH2 0x1204 JUMPI PUSH2 0x1204 PUSH2 0x2260 JUMP JUMPDEST PUSH1 0x20 SWAP1 DUP2 MUL SWAP2 SWAP1 SWAP2 ADD DUP2 ADD SWAP2 SWAP1 SWAP2 MSTORE PUSH1 0x40 DUP1 MLOAD PUSH1 0xE0 DUP2 ADD DUP3 MSTORE PUSH1 0xF DUP1 SLOAD PUSH1 0xA0 DUP4 ADD SWAP1 DUP2 MSTORE PUSH1 0x10 SLOAD PUSH1 0xC0 DUP5 ADD MSTORE DUP3 MSTORE DUP3 MLOAD PUSH1 0x80 DUP2 ADD DUP1 DUP6 MSTORE PUSH1 0x11 DUP1 SLOAD SWAP6 DUP4 ADD SWAP6 DUP7 MSTORE PUSH2 0x13F8 SWAP7 SWAP5 SWAP6 SWAP4 SWAP5 DUP7 ADD SWAP4 SWAP1 SWAP2 DUP4 SWAP2 SWAP1 DUP4 SWAP1 PUSH1 0x2 SWAP1 PUSH1 0x12 PUSH1 0x60 DUP7 ADD DUP1 DUP4 GT PUSH2 0xB2B JUMPI POP POP POP SWAP2 DUP4 MSTORE POP POP PUSH1 0x40 DUP1 MLOAD DUP1 DUP3 ADD SWAP2 DUP3 SWAP1 MSTORE PUSH1 0x2 DUP5 DUP2 ADD DUP1 SLOAD DUP4 MSTORE PUSH1 0x20 SWAP5 DUP6 ADD SWAP5 SWAP3 SWAP4 SWAP1 SWAP3 PUSH1 0x3 DUP8 ADD SWAP1 DUP6 ADD DUP1 DUP4 GT PUSH2 0xB61 JUMPI POP POP POP SWAP2 SWAP1 SWAP3 MSTORE POP POP POP DUP2 MSTORE PUSH1 0x40 DUP1 MLOAD PUSH1 0x80 DUP2 ADD DUP1 DUP4 MSTORE PUSH1 0x6 DUP6 ADD DUP1 SLOAD SWAP4 DUP4 ADD SWAP4 DUP5 MSTORE PUSH1 0x20 SWAP1 SWAP5 ADD SWAP4 SWAP2 SWAP3 DUP4 SWAP2 DUP4 SWAP1 PUSH1 0x2 SWAP1 PUSH1 0x7 DUP10 ADD PUSH1 0x60 DUP7 ADD DUP1 DUP4 GT PUSH2 0xBA5 JUMPI POP POP POP SWAP2 DUP4 MSTORE POP POP PUSH1 0x40 DUP1 MLOAD DUP1 DUP3 ADD SWAP2 DUP3 SWAP1 MSTORE PUSH1 0x2 DUP5 DUP2 ADD DUP1 SLOAD DUP4 MSTORE PUSH1 0x20 SWAP5 DUP6 ADD SWAP5 SWAP3 SWAP4 SWAP1 SWAP3 PUSH1 0x3 DUP8 ADD SWAP1 DUP6 ADD DUP1 DUP4 GT PUSH2 0xBDB JUMPI POP POP POP SWAP2 SWAP1 SWAP3 MSTORE POP POP POP DUP2 MSTORE PUSH1 0x40 DUP1 MLOAD PUSH1 0x80 DUP2 ADD DUP1 DUP4 MSTORE PUSH1 0xA DUP6 ADD DUP1 SLOAD SWAP4 DUP4 ADD SWAP4 DUP5 MSTORE PUSH1 0x20 SWAP1 SWAP5 ADD SWAP4 SWAP2 SWAP3 DUP4 SWAP2 DUP4 SWAP1 PUSH1 0x2 SWAP1 PUSH1 0xB DUP10 ADD PUSH1 0x60 DUP7 ADD DUP1 DUP4 GT PUSH2 0xC1F JUMPI POP POP POP SWAP2 DUP4 MSTORE POP POP PUSH1 0x40 DUP1 MLOAD DUP1 DUP3 ADD SWAP2 DUP3 SWAP1 MSTORE PUSH1 0x2 DUP5 DUP2 ADD DUP1 SLOAD DUP4 MSTORE PUSH1 0x20 SWAP5 DUP6 ADD SWAP5 SWAP3 SWAP4 SWAP1 SWAP3 PUSH1 0x3 DUP8 ADD SWAP1 DUP6 ADD DUP1 DUP4 GT PUSH2 0xC55 JUMPI POP POP POP POP POP DUP2 MSTORE POP POP DUP2 MSTORE PUSH1 0x20 ADD PUSH1 0xE DUP3 ADD DUP1 SLOAD DUP1 PUSH1 0x20 MUL PUSH1 0x20 ADD PUSH1 0x40 MLOAD SWAP1 DUP2 ADD PUSH1 0x40 MSTORE DUP1 SWAP3 SWAP2 SWAP1 DUP2 DUP2 MSTORE PUSH1 0x20 ADD PUSH0 SWAP1 DUP3 DUP3 LT ISZERO PUSH2 0xCDC JUMPI DUP4 DUP3 SWAP1 PUSH0 MSTORE PUSH1 0x20 PUSH0 KECCAK256 SWAP1 PUSH1 0x2 MUL ADD PUSH1 0x40 MLOAD DUP1 PUSH1 0x40 ADD PUSH1 0x40 MSTORE SWAP1 DUP2 PUSH0 DUP3 ADD SLOAD DUP2 MSTORE PUSH1 0x20 ADD PUSH1 0x1 DUP3 ADD SLOAD DUP2 MSTORE POP POP DUP2 MSTORE PUSH1 0x20 ADD SWAP1 PUSH1 0x1 ADD SWAP1 PUSH2 0xC99 JUMP JUMPDEST PUSH2 0x1444 JUMPI PUSH1 0x40 MLOAD PUSH3 0x461BCD PUSH1 0xE5 SHL DUP2 MSTORE PUSH1 0x20 PUSH1 0x4 DUP3 ADD MSTORE PUSH1 0x17 PUSH1 0x24 DUP3 ADD MSTORE PUSH32 0x5A4B5020766572696669636174696F6E206661696C6564000000000000000000 PUSH1 0x44 DUP3 ADD MSTORE PUSH1 0x64 ADD PUSH2 0x3F9 JUMP JUMPDEST PUSH1 0x4 DUP4 ADD DUP1 SLOAD PUSH1 0x1 PUSH1 0xFF NOT SWAP2 DUP3 AND DUP2 OR SWAP1 SWAP3 SSTORE PUSH0 DUP11 DUP2 MSTORE PUSH1 0x1F PUSH1 0x20 MSTORE PUSH1 0x40 DUP1 DUP3 KECCAK256 DUP1 SLOAD SWAP1 SWAP4 AND DUP5 OR SWAP1 SWAP3 SSTORE SWAP2 DUP6 ADD SLOAD SWAP1 MLOAD CALLER SWAP2 SWAP1 DUP4 DUP2 DUP2 DUP2 DUP6 DUP8 GAS CALL SWAP3 POP POP POP RETURNDATASIZE DUP1 PUSH0 DUP2 EQ PUSH2 0x14AE JUMPI PUSH1 0x40 MLOAD SWAP2 POP PUSH1 0x1F NOT PUSH1 0x3F RETURNDATASIZE ADD AND DUP3 ADD PUSH1 0x40 MSTORE RETURNDATASIZE DUP3 MSTORE RETURNDATASIZE PUSH0 PUSH1 0x20 DUP5 ADD RETURNDATACOPY PUSH2 0x14B3 JUMP JUMPDEST PUSH1 0x60 SWAP2 POP JUMPDEST POP POP SWAP1 POP DUP1 PUSH2 0x14F6 JUMPI PUSH1 0x40 MLOAD PUSH3 0x461BCD PUSH1 0xE5 SHL DUP2 MSTORE PUSH1 0x20 PUSH1 0x4 DUP3 ADD MSTORE PUSH1 0xF PUSH1 0x24 DUP3 ADD MSTORE PUSH15 0x151C985B9CD9995C8819985A5B1959 PUSH1 0x8A SHL PUSH1 0x44 DUP3 ADD MSTORE PUSH1 0x64 ADD PUSH2 0x3F9 JUMP JUMPDEST CALLER PUSH1 0x1 PUSH1 0x1 PUSH1 0xA0 SHL SUB AND DUP10 DUP12 PUSH32 0x6DB00809F9EDC484FED4B0B0A924A326990FF18002AA93A0A3C971886BD7E7C1 DUP8 PUSH1 0x1 ADD SLOAD PUSH1 0x40 MLOAD PUSH2 0x1537 SWAP2 DUP2 MSTORE PUSH1 0x20 ADD SWAP1 JUMP JUMPDEST PUSH1 0x40 MLOAD DUP1 SWAP2 SUB SWAP1 LOG4 POP POP POP POP POP POP POP POP POP POP JUMP JUMPDEST PUSH0 DUP4 PUSH1 0x80 ADD MLOAD MLOAD DUP3 MLOAD PUSH1 0x1 PUSH2 0x1560 SWAP2 SWAP1 PUSH2 0x2288 JUMP JUMPDEST EQ PUSH2 0x15AD JUMPI PUSH1 0x40 MLOAD PUSH3 0x461BCD PUSH1 0xE5 SHL DUP2 MSTORE PUSH1 0x20 PUSH1 0x4 DUP3 ADD MSTORE PUSH1 0x1C PUSH1 0x24 DUP3 ADD MSTORE PUSH32 0x496E76616C6964207075626C696320696E70757473206C656E67746800000000 PUSH1 0x44 DUP3 ADD MSTORE PUSH1 0x64 ADD PUSH2 0x3F9 JUMP JUMPDEST PUSH0 JUMPDEST DUP3 MLOAD DUP2 LT ISZERO PUSH2 0x1648 JUMPI PUSH32 0x30644E72E131A029B85045B68181585D2833E84879B9709143E1F593F0000001 DUP4 DUP3 DUP2 MLOAD DUP2 LT PUSH2 0x15EB JUMPI PUSH2 0x15EB PUSH2 0x2260 JUMP JUMPDEST PUSH1 0x20 MUL PUSH1 0x20 ADD ADD MLOAD LT PUSH2 0x1640 JUMPI PUSH1 0x40 MLOAD PUSH3 0x461BCD PUSH1 0xE5 SHL DUP2 MSTORE PUSH1 0x20 PUSH1 0x4 DUP3 ADD MSTORE PUSH1 0x1A PUSH1 0x24 DUP3 ADD MSTORE PUSH32 0x5075626C696320696E7075742065786365656473206669656C64000000000000 PUSH1 0x44 DUP3 ADD MSTORE PUSH1 0x64 ADD PUSH2 0x3F9 JUMP JUMPDEST PUSH1 0x1 ADD PUSH2 0x15AF JUMP JUMPDEST POP PUSH0 DUP5 PUSH1 0x80 ADD MLOAD PUSH0 DUP2 MLOAD DUP2 LT PUSH2 0x1660 JUMPI PUSH2 0x1660 PUSH2 0x2260 JUMP JUMPDEST PUSH1 0x20 MUL PUSH1 0x20 ADD ADD MLOAD SWAP1 POP PUSH0 JUMPDEST DUP4 MLOAD DUP2 LT ISZERO PUSH2 0x16D4 JUMPI PUSH2 0x16CA DUP3 PUSH2 0x16C5 DUP9 PUSH1 0x80 ADD MLOAD DUP5 PUSH1 0x1 PUSH2 0x168E SWAP2 SWAP1 PUSH2 0x2288 JUMP JUMPDEST DUP2 MLOAD DUP2 LT PUSH2 0x169E JUMPI PUSH2 0x169E PUSH2 0x2260 JUMP JUMPDEST PUSH1 0x20 MUL PUSH1 0x20 ADD ADD MLOAD DUP8 DUP6 DUP2 MLOAD DUP2 LT PUSH2 0x16B8 JUMPI PUSH2 0x16B8 PUSH2 0x2260 JUMP JUMPDEST PUSH1 0x20 MUL PUSH1 0x20 ADD ADD MLOAD PUSH2 0x18E0 JUMP JUMPDEST PUSH2 0x196E JUMP JUMPDEST SWAP2 POP PUSH1 0x1 ADD PUSH2 0x166C JUMP JUMPDEST POP PUSH1 0x40 DUP1 MLOAD PUSH1 0x4 DUP1 DUP3 MSTORE PUSH1 0xA0 DUP3 ADD SWAP1 SWAP3 MSTORE PUSH0 SWAP2 DUP2 PUSH1 0x20 ADD JUMPDEST PUSH1 0x40 DUP1 MLOAD DUP1 DUP3 ADD SWAP1 SWAP2 MSTORE PUSH0 DUP1 DUP3 MSTORE PUSH1 0x20 DUP3 ADD MSTORE DUP2 MSTORE PUSH1 0x20 ADD SWAP1 PUSH1 0x1 SWAP1 SUB SWAP1 DUP2 PUSH2 0x16EC JUMPI POP POP PUSH1 0x40 DUP1 MLOAD PUSH1 0x4 DUP1 DUP3 MSTORE PUSH1 0xA0 DUP3 ADD SWAP1 SWAP3 MSTORE SWAP2 SWAP3 POP PUSH0 SWAP2 SWAP1 PUSH1 0x20 DUP3 ADD JUMPDEST PUSH2 0x1734 PUSH2 0x1E21 JUMP JUMPDEST DUP2 MSTORE PUSH1 0x20 ADD SWAP1 PUSH1 0x1 SWAP1 SUB SWAP1 DUP2 PUSH2 0x172C JUMPI POP POP DUP7 MLOAD SWAP1 SWAP2 POP PUSH2 0x1754 SWAP1 PUSH2 0x19FA JUMP JUMPDEST DUP3 PUSH0 DUP2 MLOAD DUP2 LT PUSH2 0x1766 JUMPI PUSH2 0x1766 PUSH2 0x2260 JUMP JUMPDEST PUSH1 0x20 MUL PUSH1 0x20 ADD ADD DUP2 SWAP1 MSTORE POP DUP6 PUSH1 0x20 ADD MLOAD DUP2 PUSH0 DUP2 MLOAD DUP2 LT PUSH2 0x1788 JUMPI PUSH2 0x1788 PUSH2 0x2260 JUMP JUMPDEST PUSH1 0x20 MUL PUSH1 0x20 ADD ADD DUP2 SWAP1 MSTORE POP DUP7 PUSH0 ADD MLOAD DUP3 PUSH1 0x1 DUP2 MLOAD DUP2 LT PUSH2 0x17AA JUMPI PUSH2 0x17AA PUSH2 0x2260 JUMP JUMPDEST PUSH1 0x20 MUL PUSH1 0x20 ADD ADD DUP2 SWAP1 MSTORE POP DUP7 PUSH1 0x20 ADD MLOAD DUP2 PUSH1 0x1 DUP2 MLOAD DUP2 LT PUSH2 0x17CD JUMPI PUSH2 0x17CD PUSH2 0x2260 JUMP JUMPDEST PUSH1 0x20 MUL PUSH1 0x20 ADD ADD DUP2 SWAP1 MSTORE POP DUP3 DUP3 PUSH1 0x2 DUP2 MLOAD DUP2 LT PUSH2 0x17EC JUMPI PUSH2 0x17EC PUSH2 0x2260 JUMP JUMPDEST PUSH1 0x20 MUL PUSH1 0x20 ADD ADD DUP2 SWAP1 MSTORE POP DUP7 PUSH1 0x40 ADD MLOAD DUP2 PUSH1 0x2 DUP2 MLOAD DUP2 LT PUSH2 0x180F JUMPI PUSH2 0x180F PUSH2 0x2260 JUMP JUMPDEST PUSH1 0x20 MUL PUSH1 0x20 ADD ADD DUP2 SWAP1 MSTORE POP DUP6 PUSH1 0x40 ADD MLOAD DUP3 PUSH1 0x3 DUP2 MLOAD DUP2 LT PUSH2 0x1832 JUMPI PUSH2 0x1832 PUSH2 0x2260 JUMP JUMPDEST PUSH1 0x20 MUL PUSH1 0x20 ADD ADD DUP2 SWAP1 MSTORE POP DUP7 PUSH1 0x60 ADD MLOAD DUP2 PUSH1 0x3 DUP2 MLOAD DUP2 LT PUSH2 0x1855 JUMPI PUSH2 0x1855 PUSH2 0x2260 JUMP JUMPDEST PUSH1 0x20 MUL PUSH1 0x20 ADD ADD DUP2 SWAP1 MSTORE POP PUSH2 0x186A DUP3 DUP3 PUSH2 0x1AB1 JUMP JUMPDEST SWAP8 SWAP7 POP POP POP POP POP POP POP JUMP JUMPDEST PUSH0 PUSH7 0x38D7EA4C68000 DUP3 EQ DUP1 PUSH2 0x1891 JUMPI POP PUSH7 0x2386F26FC10000 DUP3 EQ JUMPDEST DUP1 PUSH2 0x18A3 JUMPI POP PUSH8 0x16345785D8A0000 DUP3 EQ JUMPDEST DUP1 PUSH2 0x18B5 JUMPI POP PUSH8 0xDE0B6B3A7640000 DUP3 EQ JUMPDEST DUP1 PUSH2 0x18C7 JUMPI POP PUSH8 0x8AC7230489E80000 DUP3 EQ JUMPDEST DUP1 PUSH2 0x18DA JUMPI POP PUSH9 0x56BC75E2D63100000 DUP3 EQ JUMPDEST SWAP3 SWAP2 POP POP JUMP JUMPDEST PUSH1 0x40 DUP1 MLOAD DUP1 DUP3 ADD SWAP1 SWAP2 MSTORE PUSH0 DUP1 DUP3 MSTORE PUSH1 0x20 DUP3 ADD MSTORE PUSH2 0x18FB PUSH2 0x1E46 JUMP JUMPDEST DUP4 MLOAD DUP2 MSTORE PUSH1 0x20 DUP1 DUP6 ADD MLOAD SWAP1 DUP3 ADD MSTORE PUSH1 0x40 DUP1 DUP3 ADD DUP5 SWAP1 MSTORE PUSH0 SWAP1 DUP4 PUSH1 0x60 DUP5 PUSH1 0x7 PUSH2 0x7D0 GAS SUB STATICCALL SWAP1 POP DUP1 PUSH2 0x1966 JUMPI PUSH1 0x40 MLOAD PUSH3 0x461BCD PUSH1 0xE5 SHL DUP2 MSTORE PUSH1 0x20 PUSH1 0x4 DUP3 ADD MSTORE PUSH1 0x15 PUSH1 0x24 DUP3 ADD MSTORE PUSH21 0x189B8C8D4D94D8D85B185C935D5B0819985A5B1959 PUSH1 0x5A SHL PUSH1 0x44 DUP3 ADD MSTORE PUSH1 0x64 ADD PUSH2 0x3F9 JUMP JUMPDEST POP POP SWAP3 SWAP2 POP POP JUMP JUMPDEST PUSH1 0x40 DUP1 MLOAD DUP1 DUP3 ADD SWAP1 SWAP2 MSTORE PUSH0 DUP1 DUP3 MSTORE PUSH1 0x20 DUP3 ADD MSTORE PUSH2 0x1989 PUSH2 0x1E64 JUMP JUMPDEST DUP4 MLOAD DUP2 MSTORE PUSH1 0x20 DUP1 DUP6 ADD MLOAD DUP2 DUP4 ADD MSTORE DUP4 MLOAD PUSH1 0x40 DUP1 DUP5 ADD SWAP2 SWAP1 SWAP2 MSTORE SWAP1 DUP5 ADD MLOAD PUSH1 0x60 DUP4 ADD MSTORE PUSH0 SWAP1 DUP4 PUSH1 0x80 DUP5 PUSH1 0x6 PUSH2 0x7D0 GAS SUB STATICCALL SWAP1 POP DUP1 PUSH2 0x1966 JUMPI PUSH1 0x40 MLOAD PUSH3 0x461BCD PUSH1 0xE5 SHL DUP2 MSTORE PUSH1 0x20 PUSH1 0x4 DUP3 ADD MSTORE PUSH1 0xF PUSH1 0x24 DUP3 ADD MSTORE PUSH15 0x189B8C8D4D9059190819985A5B1959 PUSH1 0x8A SHL PUSH1 0x44 DUP3 ADD MSTORE PUSH1 0x64 ADD PUSH2 0x3F9 JUMP JUMPDEST PUSH1 0x40 DUP1 MLOAD DUP1 DUP3 ADD SWAP1 SWAP2 MSTORE PUSH0 DUP1 DUP3 MSTORE PUSH1 0x20 DUP3 ADD MSTORE DUP2 MLOAD ISZERO DUP1 ISZERO PUSH2 0x1A1E JUMPI POP PUSH1 0x20 DUP3 ADD MLOAD ISZERO JUMPDEST ISZERO PUSH2 0x1A3B JUMPI POP POP PUSH1 0x40 DUP1 MLOAD DUP1 DUP3 ADD SWAP1 SWAP2 MSTORE PUSH0 DUP1 DUP3 MSTORE PUSH1 0x20 DUP3 ADD MSTORE SWAP1 JUMP JUMPDEST PUSH1 0x40 MLOAD DUP1 PUSH1 0x40 ADD PUSH1 0x40 MSTORE DUP1 DUP4 PUSH0 ADD MLOAD DUP2 MSTORE PUSH1 0x20 ADD PUSH32 0x30644E72E131A029B85045B68181585D97816A916871CA8D3C208C16D87CFD47 DUP5 PUSH1 0x20 ADD MLOAD PUSH2 0x1A7F SWAP2 SWAP1 PUSH2 0x229B JUMP JUMPDEST PUSH2 0x1AA9 SWAP1 PUSH32 0x30644E72E131A029B85045B68181585D97816A916871CA8D3C208C16D87CFD47 PUSH2 0x22BA JUMP JUMPDEST SWAP1 MSTORE SWAP3 SWAP2 POP POP JUMP JUMPDEST PUSH0 DUP2 MLOAD DUP4 MLOAD EQ PUSH2 0x1B03 JUMPI PUSH1 0x40 MLOAD PUSH3 0x461BCD PUSH1 0xE5 SHL DUP2 MSTORE PUSH1 0x20 PUSH1 0x4 DUP3 ADD MSTORE PUSH1 0x17 PUSH1 0x24 DUP3 ADD MSTORE PUSH32 0x50616972696E67206C656E677468206D69736D61746368000000000000000000 PUSH1 0x44 DUP3 ADD MSTORE PUSH1 0x64 ADD PUSH2 0x3F9 JUMP JUMPDEST PUSH0 DUP4 MLOAD PUSH1 0x6 PUSH2 0x1B12 SWAP2 SWAP1 PUSH2 0x22CD JUMP JUMPDEST SWAP1 POP PUSH0 DUP2 PUSH8 0xFFFFFFFFFFFFFFFF DUP2 GT ISZERO PUSH2 0x1B2E JUMPI PUSH2 0x1B2E PUSH2 0x1F03 JUMP JUMPDEST PUSH1 0x40 MLOAD SWAP1 DUP1 DUP3 MSTORE DUP1 PUSH1 0x20 MUL PUSH1 0x20 ADD DUP3 ADD PUSH1 0x40 MSTORE DUP1 ISZERO PUSH2 0x1B57 JUMPI DUP2 PUSH1 0x20 ADD PUSH1 0x20 DUP3 MUL DUP1 CALLDATASIZE DUP4 CALLDATACOPY ADD SWAP1 POP JUMPDEST POP SWAP1 POP PUSH0 JUMPDEST DUP6 MLOAD DUP2 LT ISZERO PUSH2 0x1D52 JUMPI PUSH0 PUSH2 0x1B71 DUP3 PUSH1 0x6 PUSH2 0x22CD JUMP JUMPDEST SWAP1 POP DUP7 DUP3 DUP2 MLOAD DUP2 LT PUSH2 0x1B85 JUMPI PUSH2 0x1B85 PUSH2 0x2260 JUMP JUMPDEST PUSH1 0x20 MUL PUSH1 0x20 ADD ADD MLOAD PUSH0 ADD MLOAD DUP4 DUP3 PUSH0 PUSH2 0x1B9D SWAP2 SWAP1 PUSH2 0x2288 JUMP JUMPDEST DUP2 MLOAD DUP2 LT PUSH2 0x1BAD JUMPI PUSH2 0x1BAD PUSH2 0x2260 JUMP JUMPDEST PUSH1 0x20 MUL PUSH1 0x20 ADD ADD DUP2 DUP2 MSTORE POP POP DUP7 DUP3 DUP2 MLOAD DUP2 LT PUSH2 0x1BCB JUMPI PUSH2 0x1BCB PUSH2 0x2260 JUMP JUMPDEST PUSH1 0x20 MUL PUSH1 0x20 ADD ADD MLOAD PUSH1 0x20 ADD MLOAD DUP4 DUP3 PUSH1 0x1 PUSH2 0x1BE5 SWAP2 SWAP1 PUSH2 0x2288 JUMP JUMPDEST DUP2 MLOAD DUP2 LT PUSH2 0x1BF5 JUMPI PUSH2 0x1BF5 PUSH2 0x2260 JUMP JUMPDEST PUSH1 0x20 MUL PUSH1 0x20 ADD ADD DUP2 DUP2 MSTORE POP POP DUP6 DUP3 DUP2 MLOAD DUP2 LT PUSH2 0x1C13 JUMPI PUSH2 0x1C13 PUSH2 0x2260 JUMP JUMPDEST PUSH1 0x20 SWAP1 DUP2 MUL SWAP2 SWAP1 SWAP2 ADD DUP2 ADD MLOAD MLOAD ADD MLOAD DUP4 PUSH2 0x1C2E DUP4 PUSH1 0x2 PUSH2 0x2288 JUMP JUMPDEST DUP2 MLOAD DUP2 LT PUSH2 0x1C3E JUMPI PUSH2 0x1C3E PUSH2 0x2260 JUMP JUMPDEST PUSH1 0x20 MUL PUSH1 0x20 ADD ADD DUP2 DUP2 MSTORE POP POP DUP6 DUP3 DUP2 MLOAD DUP2 LT PUSH2 0x1C5C JUMPI PUSH2 0x1C5C PUSH2 0x2260 JUMP JUMPDEST PUSH1 0x20 SWAP1 DUP2 MUL SWAP2 SWAP1 SWAP2 ADD ADD MLOAD MLOAD MLOAD DUP4 PUSH2 0x1C75 DUP4 PUSH1 0x3 PUSH2 0x2288 JUMP JUMPDEST DUP2 MLOAD DUP2 LT PUSH2 0x1C85 JUMPI PUSH2 0x1C85 PUSH2 0x2260 JUMP JUMPDEST PUSH1 0x20 MUL PUSH1 0x20 ADD ADD DUP2 DUP2 MSTORE POP POP DUP6 DUP3 DUP2 MLOAD DUP2 LT PUSH2 0x1CA3 JUMPI PUSH2 0x1CA3 PUSH2 0x2260 JUMP JUMPDEST PUSH1 0x20 MUL PUSH1 0x20 ADD ADD MLOAD PUSH1 0x20 ADD MLOAD PUSH1 0x1 PUSH1 0x2 DUP2 LT PUSH2 0x1CC1 JUMPI PUSH2 0x1CC1 PUSH2 0x2260 JUMP JUMPDEST PUSH1 0x20 MUL ADD MLOAD DUP4 PUSH2 0x1CD2 DUP4 PUSH1 0x4 PUSH2 0x2288 JUMP JUMPDEST DUP2 MLOAD DUP2 LT PUSH2 0x1CE2 JUMPI PUSH2 0x1CE2 PUSH2 0x2260 JUMP JUMPDEST PUSH1 0x20 MUL PUSH1 0x20 ADD ADD DUP2 DUP2 MSTORE POP POP DUP6 DUP3 DUP2 MLOAD DUP2 LT PUSH2 0x1D00 JUMPI PUSH2 0x1D00 PUSH2 0x2260 JUMP JUMPDEST PUSH1 0x20 MUL PUSH1 0x20 ADD ADD MLOAD PUSH1 0x20 ADD MLOAD PUSH0 PUSH1 0x2 DUP2 LT PUSH2 0x1D1D JUMPI PUSH2 0x1D1D PUSH2 0x2260 JUMP JUMPDEST PUSH1 0x20 MUL ADD MLOAD DUP4 PUSH2 0x1D2E DUP4 PUSH1 0x5 PUSH2 0x2288 JUMP JUMPDEST DUP2 MLOAD DUP2 LT PUSH2 0x1D3E JUMPI PUSH2 0x1D3E PUSH2 0x2260 JUMP JUMPDEST PUSH1 0x20 SWAP1 DUP2 MUL SWAP2 SWAP1 SWAP2 ADD ADD MSTORE POP PUSH1 0x1 ADD PUSH2 0x1B5C JUMP JUMPDEST POP PUSH2 0x1D5B PUSH2 0x1E82 JUMP JUMPDEST PUSH0 PUSH1 0x20 DUP3 PUSH1 0x20 DUP7 MUL PUSH1 0x20 DUP7 ADD PUSH1 0x8 PUSH2 0x7D0 GAS SUB STATICCALL SWAP1 POP DUP1 PUSH2 0x1DB4 JUMPI PUSH1 0x40 MLOAD PUSH3 0x461BCD PUSH1 0xE5 SHL DUP2 MSTORE PUSH1 0x20 PUSH1 0x4 DUP3 ADD MSTORE PUSH1 0x13 PUSH1 0x24 DUP3 ADD MSTORE PUSH19 0x189B8C8D4D94185A5C9A5B99C819985A5B1959 PUSH1 0x6A SHL PUSH1 0x44 DUP3 ADD MSTORE PUSH1 0x64 ADD PUSH2 0x3F9 JUMP JUMPDEST POP MLOAD PUSH1 0x1 EQ SWAP6 SWAP5 POP POP POP POP POP JUMP JUMPDEST DUP3 PUSH1 0x2 DUP2 ADD SWAP3 DUP3 ISZERO PUSH2 0x1DF0 JUMPI SWAP2 PUSH1 0x20 MUL DUP3 ADD JUMPDEST DUP3 DUP2 GT ISZERO PUSH2 0x1DF0 JUMPI DUP3 MLOAD DUP3 SSTORE SWAP2 PUSH1 0x20 ADD SWAP2 SWAP1 PUSH1 0x1 ADD SWAP1 PUSH2 0x1DD5 JUMP JUMPDEST POP PUSH2 0x1DFC SWAP3 SWAP2 POP PUSH2 0x1EA0 JUMP JUMPDEST POP SWAP1 JUMP JUMPDEST POP DUP1 SLOAD PUSH0 DUP3 SSTORE PUSH1 0x2 MUL SWAP1 PUSH0 MSTORE PUSH1 0x20 PUSH0 KECCAK256 SWAP1 DUP2 ADD SWAP1 PUSH2 0x1E1E SWAP2 SWAP1 PUSH2 0x1EB4 JUMP JUMPDEST POP JUMP JUMPDEST PUSH1 0x40 MLOAD DUP1 PUSH1 0x40 ADD PUSH1 0x40 MSTORE DUP1 PUSH2 0x1E34 PUSH2 0x1ECE JUMP JUMPDEST DUP2 MSTORE PUSH1 0x20 ADD PUSH2 0x1E41 PUSH2 0x1ECE JUMP JUMPDEST SWAP1 MSTORE SWAP1 JUMP JUMPDEST PUSH1 0x40 MLOAD DUP1 PUSH1 0x60 ADD PUSH1 0x40 MSTORE DUP1 PUSH1 0x3 SWAP1 PUSH1 0x20 DUP3 MUL DUP1 CALLDATASIZE DUP4 CALLDATACOPY POP SWAP2 SWAP3 SWAP2 POP POP JUMP JUMPDEST PUSH1 0x40 MLOAD DUP1 PUSH1 0x80 ADD PUSH1 0x40 MSTORE DUP1 PUSH1 0x4 SWAP1 PUSH1 0x20 DUP3 MUL DUP1 CALLDATASIZE DUP4 CALLDATACOPY POP SWAP2 SWAP3 SWAP2 POP POP JUMP JUMPDEST PUSH1 0x40 MLOAD DUP1 PUSH1 0x20 ADD PUSH1 0x40 MSTORE DUP1 PUSH1 0x1 SWAP1 PUSH1 0x20 DUP3 MUL DUP1 CALLDATASIZE DUP4 CALLDATACOPY POP SWAP2 SWAP3 SWAP2 POP POP JUMP JUMPDEST JUMPDEST DUP1 DUP3 GT ISZERO PUSH2 0x1DFC JUMPI PUSH0 DUP2 SSTORE PUSH1 0x1 ADD PUSH2 0x1EA1 JUMP JUMPDEST JUMPDEST DUP1 DUP3 GT ISZERO PUSH2 0x1DFC JUMPI PUSH0 DUP1 DUP3 SSTORE PUSH1 0x1 DUP3 ADD SSTORE PUSH1 0x2 ADD PUSH2 0x1EB5 JUMP JUMPDEST PUSH1 0x40 MLOAD DUP1 PUSH1 0x40 ADD PUSH1 0x40 MSTORE DUP1 PUSH1 0x2 SWAP1 PUSH1 0x20 DUP3 MUL DUP1 CALLDATASIZE DUP4 CALLDATACOPY POP SWAP2 SWAP3 SWAP2 POP POP JUMP JUMPDEST PUSH0 PUSH1 0x20 DUP3 DUP5 SUB SLT ISZERO PUSH2 0x1EFC JUMPI PUSH0 DUP1 REVERT JUMPDEST POP CALLDATALOAD SWAP2 SWAP1 POP JUMP JUMPDEST PUSH4 0x4E487B71 PUSH1 0xE0 SHL PUSH0 MSTORE PUSH1 0x41 PUSH1 0x4 MSTORE PUSH1 0x24 PUSH0 REVERT JUMPDEST PUSH1 0x40 DUP1 MLOAD SWAP1 DUP2 ADD PUSH8 0xFFFFFFFFFFFFFFFF DUP2 GT DUP3 DUP3 LT OR ISZERO PUSH2 0x1F3A JUMPI PUSH2 0x1F3A PUSH2 0x1F03 JUMP JUMPDEST PUSH1 0x40 MSTORE SWAP1 JUMP JUMPDEST PUSH0 DUP3 PUSH1 0x1F DUP4 ADD SLT PUSH2 0x1F4F JUMPI PUSH0 DUP1 REVERT JUMPDEST PUSH2 0x1F57 PUSH2 0x1F17 JUMP JUMPDEST DUP1 PUSH1 0x40 DUP5 ADD DUP6 DUP2 GT ISZERO PUSH2 0x1F68 JUMPI PUSH0 DUP1 REVERT JUMPDEST DUP5 JUMPDEST DUP2 DUP2 LT ISZERO PUSH2 0x1F82 JUMPI DUP1 CALLDATALOAD DUP5 MSTORE PUSH1 0x20 SWAP4 DUP5 ADD SWAP4 ADD PUSH2 0x1F6A JUMP JUMPDEST POP SWAP1 SWAP6 SWAP5 POP POP POP POP POP JUMP JUMPDEST PUSH0 DUP3 PUSH1 0x1F DUP4 ADD SLT PUSH2 0x1F9C JUMPI PUSH0 DUP1 REVERT JUMPDEST PUSH2 0x1FA4 PUSH2 0x1F17 JUMP JUMPDEST DUP1 PUSH1 0x80 DUP5 ADD DUP6 DUP2 GT ISZERO PUSH2 0x1FB5 JUMPI PUSH0 DUP1 REVERT JUMPDEST DUP5 JUMPDEST DUP2 DUP2 LT ISZERO PUSH2 0x1F82 JUMPI PUSH2 0x1FC9 DUP8 DUP3 PUSH2 0x1F40 JUMP JUMPDEST DUP5 MSTORE PUSH1 0x20 SWAP1 SWAP4 ADD SWAP3 PUSH1 0x40 ADD PUSH2 0x1FB7 JUMP JUMPDEST PUSH0 DUP3 PUSH1 0x1F DUP4 ADD SLT PUSH2 0x1FE8 JUMPI PUSH0 DUP1 REVERT JUMPDEST DUP2 CALLDATALOAD PUSH1 0x20 PUSH8 0xFFFFFFFFFFFFFFFF DUP1 DUP4 GT ISZERO PUSH2 0x2005 JUMPI PUSH2 0x2005 PUSH2 0x1F03 JUMP JUMPDEST PUSH1 0x40 DUP1 MLOAD PUSH1 0x1F NOT PUSH1 0x3F DUP7 PUSH1 0x5 SHL ADD AND DUP2 ADD DUP2 DUP2 LT DUP5 DUP3 GT OR ISZERO PUSH2 0x202A JUMPI PUSH2 0x202A PUSH2 0x1F03 JUMP JUMPDEST PUSH1 0x40 MSTORE DUP5 DUP2 MSTORE PUSH1 0x20 PUSH1 0x6 SWAP6 SWAP1 SWAP6 SHL DUP8 ADD DUP6 ADD SWAP5 DUP2 ADD SWAP3 POP DUP8 DUP6 GT ISZERO PUSH2 0x204D JUMPI PUSH0 DUP1 REVERT JUMPDEST PUSH1 0x20 DUP8 ADD JUMPDEST DUP6 DUP2 LT ISZERO PUSH2 0x2071 JUMPI PUSH2 0x2064 DUP10 DUP3 PUSH2 0x1F40 JUMP JUMPDEST DUP5 MSTORE SWAP3 DUP5 ADD SWAP3 DUP3 ADD PUSH2 0x2052 JUMP JUMPDEST POP SWAP8 SWAP7 POP POP POP POP POP POP POP JUMP JUMPDEST PUSH0 DUP1 PUSH0 DUP1 PUSH0 DUP1 PUSH0 DUP1 PUSH0 DUP1 PUSH2 0x3C0 DUP12 DUP14 SUB SLT ISZERO PUSH2 0x2097 JUMPI PUSH0 DUP1 REVERT JUMPDEST PUSH2 0x20A1 DUP13 DUP13 PUSH2 0x1F40 JUMP JUMPDEST SWAP10 POP PUSH2 0x20B0 DUP13 PUSH1 0x40 DUP14 ADD PUSH2 0x1F8D JUMP JUMPDEST SWAP9 POP PUSH2 0x20BF DUP13 PUSH1 0xC0 DUP14 ADD PUSH2 0x1F8D JUMP JUMPDEST SWAP8 POP PUSH2 0x20CF DUP13 PUSH2 0x140 DUP14 ADD PUSH2 0x1F8D JUMP JUMPDEST SWAP7 POP PUSH2 0x1C0 DUP12 ADD CALLDATALOAD PUSH8 0xFFFFFFFFFFFFFFFF DUP1 DUP3 GT ISZERO PUSH2 0x20EC JUMPI PUSH0 DUP1 REVERT JUMPDEST PUSH2 0x20F8 DUP15 DUP4 DUP16 ADD PUSH2 0x1FD9 JUMP JUMPDEST SWAP8 POP PUSH2 0x2108 DUP15 PUSH2 0x1E0 DUP16 ADD PUSH2 0x1F40 JUMP JUMPDEST SWAP7 POP PUSH2 0x2118 DUP15 PUSH2 0x220 DUP16 ADD PUSH2 0x1F8D JUMP JUMPDEST SWAP6 POP PUSH2 0x2128 DUP15 PUSH2 0x2A0 DUP16 ADD PUSH2 0x1F8D JUMP JUMPDEST SWAP5 POP PUSH2 0x2138 DUP15 PUSH2 0x320 DUP16 ADD PUSH2 0x1F8D JUMP JUMPDEST SWAP4 POP PUSH2 0x3A0 DUP14 ADD CALLDATALOAD SWAP2 POP DUP1 DUP3 GT ISZERO PUSH2 0x214E JUMPI PUSH0 DUP1 REVERT JUMPDEST POP PUSH2 0x215B DUP14 DUP3 DUP15 ADD PUSH2 0x1FD9 JUMP JUMPDEST SWAP2 POP POP SWAP3 SWAP6 SWAP9 SWAP12 SWAP2 SWAP5 SWAP8 SWAP11 POP SWAP3 SWAP6 SWAP9 POP JUMP JUMPDEST PUSH0 DUP1 PUSH0 DUP1 PUSH0 DUP1 PUSH0 DUP1 PUSH2 0x1A0 DUP10 DUP12 SUB SLT ISZERO PUSH2 0x2185 JUMPI PUSH0 DUP1 REVERT JUMPDEST DUP9 CALLDATALOAD SWAP8 POP PUSH1 0x20 DUP10 ADD CALLDATALOAD SWAP7 POP PUSH1 0x40 DUP10 ADD CALLDATALOAD SWAP6 POP PUSH1 0x60 DUP10 ADD CALLDATALOAD SWAP5 POP PUSH1 0x80 DUP10 ADD CALLDATALOAD SWAP4 POP PUSH2 0x21B2 DUP11 PUSH1 0xA0 DUP12 ADD PUSH2 0x1F40 JUMP JUMPDEST SWAP3 POP PUSH2 0x21C1 DUP11 PUSH1 0xE0 DUP12 ADD PUSH2 0x1F8D JUMP JUMPDEST SWAP2 POP PUSH2 0x21D1 DUP11 PUSH2 0x160 DUP12 ADD PUSH2 0x1F40 JUMP JUMPDEST SWAP1 POP SWAP3 SWAP6 SWAP9 POP SWAP3 SWAP6 SWAP9 SWAP1 SWAP4 SWAP7 POP JUMP JUMPDEST PUSH0 DUP1 PUSH1 0x40 DUP4 DUP6 SUB SLT ISZERO PUSH2 0x21F1 JUMPI PUSH0 DUP1 REVERT JUMPDEST POP POP DUP1 CALLDATALOAD SWAP3 PUSH1 0x20 SWAP1 SWAP2 ADD CALLDATALOAD SWAP2 POP JUMP JUMPDEST PUSH0 DUP1 PUSH0 DUP1 PUSH0 DUP1 PUSH2 0x160 DUP8 DUP10 SUB SLT ISZERO PUSH2 0x2216 JUMPI PUSH0 DUP1 REVERT JUMPDEST DUP7 CALLDATALOAD SWAP6 POP PUSH1 0x20 DUP8 ADD CALLDATALOAD SWAP5 POP PUSH1 0x40 DUP8 ADD CALLDATALOAD SWAP4 POP PUSH2 0x2235 DUP9 PUSH1 0x60 DUP10 ADD PUSH2 0x1F40 JUMP JUMPDEST SWAP3 POP PUSH2 0x2244 DUP9 PUSH1 0xA0 DUP10 ADD PUSH2 0x1F8D JUMP JUMPDEST SWAP2 POP PUSH2 0x2254 DUP9 PUSH2 0x120 DUP10 ADD PUSH2 0x1F40 JUMP JUMPDEST SWAP1 POP SWAP3 SWAP6 POP SWAP3 SWAP6 POP SWAP3 SWAP6 JUMP JUMPDEST PUSH4 0x4E487B71 PUSH1 0xE0 SHL PUSH0 MSTORE PUSH1 0x32 PUSH1 0x4 MSTORE PUSH1 0x24 PUSH0 REVERT JUMPDEST PUSH4 0x4E487B71 PUSH1 0xE0 SHL PUSH0 MSTORE PUSH1 0x11 PUSH1 0x4 MSTORE PUSH1 0x24 PUSH0 REVERT JUMPDEST DUP1 DUP3 ADD DUP1 DUP3 GT ISZERO PUSH2 0x18DA JUMPI PUSH2 0x18DA PUSH2 0x2274 JUMP JUMPDEST PUSH0 DUP3 PUSH2 0x22B5 JUMPI PUSH4 0x4E487B71 PUSH1 0xE0 SHL PUSH0 MSTORE PUSH1 0x12 PUSH1 0x4 MSTORE PUSH1 0x24 PUSH0 REVERT JUMPDEST POP MOD SWAP1 JUMP JUMPDEST DUP2 DUP2 SUB DUP2 DUP2 GT ISZERO PUSH2 0x18DA JUMPI PUSH2 0x18DA PUSH2 0x2274 JUMP JUMPDEST DUP1 DUP3 MUL DUP2 ISZERO DUP3 DUP3 DIV DUP5 EQ OR PUSH2 0x18DA JUMPI PUSH2 0x18DA PUSH2 0x2274 JUMP INVALID LOG2 PUSH5 0x6970667358 0x22 SLT KECCAK256 0xD4 DUP1 SWAP5 0xC6 CALLDATACOPY 0xEB PUSH31 0x65AFFD0281AE0603774B16B4D44EBCCB1BB038F573F995208C64736F6C6343 STOP ADDMOD XOR STOP CALLER "},"methodIdentifiers":{"TIMELOCK_T1()":"e793e994","TIMELOCK_T2()":"528c8255","getLockCount()":"94493c43","getLockRecord(bytes32)":"3d9a3400","isSerialNumberUsed(bytes32)":"d934427b","lock(bytes32,uint256)":"b3b77a51","lockIds(uint256)":"aa7c9644","locks(bytes32)":"ed5e8437","owner()":"8da5cb5b","refund(bytes32)":"7249fbb6","setVerifyingKeys(uint256[2],uint256[2][2],uint256[2][2],uint256[2][2],uint256[2][],uint256[2],uint256[2][2],uint256[2][2],uint256[2][2],uint256[2][])":"6580560a","unlock(bytes32,bytes32,bytes32,uint256[2],uint256[2][2],uint256[2])":"db132143","usedSerialNumbers(bytes32)":"b7a54b83","verifyPrepare(bytes32,bytes32,bytes32,bytes32,bytes32,uint256[2],uint256[2][2],uint256[2])":"88930b6a"}}}}}