{
  "_format": "hh3-artifact-1",
  "contractName": "AuditContractV2",
  "sourceName": "contracts/audit_chain/AuditContractV2.sol",
  "abi": [
    {
      "inputs": [
        {
          "internalType": "address",
          "name": "_reputationRegistry",
          "type": "address"
        },
        {
          "internalType": "address",
          "name": "_clusterManager",
          "type": "address"
        }
      ],
      "stateMutability": "nonpayable",
      "type": "constructor"
    },
    {
      "anonymous": false,
      "inputs": [
        {
          "indexed": true,
          "internalType": "uint256",
          "name": "chainId",
          "type": "uint256"
        },
        {
          "indexed": false,
          "internalType": "bytes32",
          "name": "initialRoot",
          "type": "bytes32"
        }
      ],
      "name": "ChainRegistered",
      "type": "event"
    },
    {
      "anonymous": false,
      "inputs": [
        {
          "indexed": true,
          "internalType": "bytes32",
          "name": "clusterCommitId",
          "type": "bytes32"
        },
        {
          "indexed": true,
          "internalType": "uint256",
          "name": "clusterId",
          "type": "uint256"
        },
        {
          "indexed": false,
          "internalType": "uint256",
          "name": "chainsCount",
          "type": "uint256"
        }
      ],
      "name": "ClusterCommitAccepted",
      "type": "event"
    },
    {
      "anonymous": false,
      "inputs": [
        {
          "indexed": true,
          "internalType": "bytes32",
          "name": "commitId",
          "type": "bytes32"
        },
        {
          "indexed": true,
          "internalType": "address",
          "name": "committer",
          "type": "address"
        },
        {
          "indexed": true,
          "internalType": "uint256",
          "name": "chainId",
          "type": "uint256"
        },
        {
          "indexed": false,
          "internalType": "bytes32",
          "name": "oldRoot",
          "type": "bytes32"
        },
        {
          "indexed": false,
          "internalType": "bytes32",
          "name": "newRoot",
          "type": "bytes32"
        },
        {
          "indexed": false,
          "internalType": "uint256",
          "name": "reputationSnapshot",
          "type": "uint256"
        }
      ],
      "name": "CommitSubmitted",
      "type": "event"
    },
    {
      "anonymous": false,
      "inputs": [
        {
          "indexed": true,
          "internalType": "bytes32",
          "name": "commitId",
          "type": "bytes32"
        },
        {
          "indexed": true,
          "internalType": "address",
          "name": "committer",
          "type": "address"
        },
        {
          "indexed": false,
          "internalType": "uint256",
          "name": "reward",
          "type": "uint256"
        }
      ],
      "name": "CommitVerified",
      "type": "event"
    },
    {
      "anonymous": false,
      "inputs": [
        {
          "indexed": true,
          "internalType": "address",
          "name": "committer",
          "type": "address"
        },
        {
          "indexed": false,
          "internalType": "uint256",
          "name": "amount",
          "type": "uint256"
        }
      ],
      "name": "CommitterStaked",
      "type": "event"
    },
    {
      "anonymous": false,
      "inputs": [
        {
          "indexed": true,
          "internalType": "bytes32",
          "name": "groupId",
          "type": "bytes32"
        },
        {
          "indexed": false,
          "internalType": "bytes32",
          "name": "acceptedRoot",
          "type": "bytes32"
        },
        {
          "indexed": false,
          "internalType": "uint256",
          "name": "totalWeight",
          "type": "uint256"
        },
        {
          "indexed": false,
          "internalType": "uint256",
          "name": "acceptedWeight",
          "type": "uint256"
        }
      ],
      "name": "WeightedAuditAccepted",
      "type": "event"
    },
    {
      "stateMutability": "payable",
      "type": "fallback"
    },
    {
      "inputs": [],
      "name": "MIN_STAKE",
      "outputs": [
        {
          "internalType": "uint256",
          "name": "",
          "type": "uint256"
        }
      ],
      "stateMutability": "view",
      "type": "function"
    },
    {
      "inputs": [
        {
          "internalType": "bytes32",
          "name": "clusterCommitId",
          "type": "bytes32"
        },
        {
          "internalType": "uint256[]",
          "name": "chainIds",
          "type": "uint256[]"
        },
        {
          "internalType": "bytes32[]",
          "name": "newRoots",
          "type": "bytes32[]"
        }
      ],
      "name": "acceptClusterCommit",
      "outputs": [],
      "stateMutability": "nonpayable",
      "type": "function"
    },
    {
      "inputs": [
        {
          "internalType": "address",
          "name": "auditor",
          "type": "address"
        }
      ],
      "name": "addAuditor",
      "outputs": [],
      "stateMutability": "nonpayable",
      "type": "function"
    },
    {
      "inputs": [],
      "name": "auditorCount",
      "outputs": [
        {
          "internalType": "uint256",
          "name": "",
          "type": "uint256"
        }
      ],
      "stateMutability": "view",
      "type": "function"
    },
    {
      "inputs": [
        {
          "internalType": "address",
          "name": "",
          "type": "address"
        }
      ],
      "name": "auditors",
      "outputs": [
        {
          "internalType": "bool",
          "name": "",
          "type": "bool"
        }
      ],
      "stateMutability": "view",
      "type": "function"
    },
    {
      "inputs": [
        {
          "internalType": "uint256",
          "name": "",
          "type": "uint256"
        }
      ],
      "name": "chainList",
      "outputs": [
        {
          "internalType": "uint256",
          "name": "",
          "type": "uint256"
        }
      ],
      "stateMutability": "view",
      "type": "function"
    },
    {
      "inputs": [
        {
          "internalType": "uint256",
          "name": "",
          "type": "uint256"
        }
      ],
      "name": "chains",
      "outputs": [
        {
          "internalType": "uint256",
          "name": "chainId",
          "type": "uint256"
        },
        {
          "internalType": "bytes32",
          "name": "latestStateRoot",
          "type": "bytes32"
        },
        {
          "internalType": "uint256",
          "name": "lastUpdateBlock",
          "type": "uint256"
        },
        {
          "internalType": "uint256",
          "name": "totalCommits",
          "type": "uint256"
        },
        {
          "internalType": "bool",
          "name": "isActive",
          "type": "bool"
        }
      ],
      "stateMutability": "view",
      "type": "function"
    },
    {
      "inputs": [],
      "name": "clusterManager",
      "outputs": [
        {
          "internalType": "contract ClusterManager",
          "name": "",
          "type": "address"
        }
      ],
      "stateMutability": "view",
      "type": "function"
    },
    {
      "inputs": [
        {
          "internalType": "bytes32",
          "name": "",
          "type": "bytes32"
        },
        {
          "internalType": "uint256",
          "name": "",
          "type": "uint256"
        }
      ],
      "name": "commitGroups",
      "outputs": [
        {
          "internalType": "address",
          "name": "committer",
          "type": "address"
        },
        {
          "internalType": "bytes32",
          "name": "submittedRoot",
          "type": "bytes32"
        },
        {
          "internalType": "uint256",
          "name": "weight",
          "type": "uint256"
        }
      ],
      "stateMutability": "view",
      "type": "function"
    },
    {
      "inputs": [
        {
          "internalType": "uint256",
          "name": "",
          "type": "uint256"
        }
      ],
      "name": "commitIds",
      "outputs": [
        {
          "internalType": "bytes32",
          "name": "",
          "type": "bytes32"
        }
      ],
      "stateMutability": "view",
      "type": "function"
    },
    {
      "inputs": [
        {
          "internalType": "bytes32",
          "name": "",
          "type": "bytes32"
        }
      ],
      "name": "commits",
      "outputs": [
        {
          "internalType": "address",
          "name": "committer",
          "type": "address"
        },
        {
          "internalType": "uint256",
          "name": "chainId",
          "type": "uint256"
        },
        {
          "internalType": "uint256",
          "name": "clusterId",
          "type": "uint256"
        },
        {
          "internalType": "bytes32",
          "name": "oldStateRoot",
          "type": "bytes32"
        },
        {
          "internalType": "bytes32",
          "name": "newStateRoot",
          "type": "bytes32"
        },
        {
          "internalType": "uint256",
          "name": "timestamp",
          "type": "uint256"
        },
        {
          "internalType": "bool",
          "name": "isVerified",
          "type": "bool"
        },
        {
          "internalType": "uint256",
          "name": "reputationAtSubmit",
          "type": "uint256"
        }
      ],
      "stateMutability": "view",
      "type": "function"
    },
    {
      "inputs": [
        {
          "internalType": "address",
          "name": "",
          "type": "address"
        }
      ],
      "name": "committerStakes",
      "outputs": [
        {
          "internalType": "uint256",
          "name": "",
          "type": "uint256"
        }
      ],
      "stateMutability": "view",
      "type": "function"
    },
    {
      "inputs": [],
      "name": "enableMockVerifier",
      "outputs": [],
      "stateMutability": "nonpayable",
      "type": "function"
    },
    {
      "inputs": [
        {
          "internalType": "uint256",
          "name": "chainId",
          "type": "uint256"
        }
      ],
      "name": "getChainRoot",
      "outputs": [
        {
          "internalType": "bytes32",
          "name": "",
          "type": "bytes32"
        }
      ],
      "stateMutability": "view",
      "type": "function"
    },
    {
      "inputs": [],
      "name": "getCommitCount",
      "outputs": [
        {
          "internalType": "uint256",
          "name": "",
          "type": "uint256"
        }
      ],
      "stateMutability": "view",
      "type": "function"
    },
    {
      "inputs": [
        {
          "internalType": "bytes32",
          "name": "groupId",
          "type": "bytes32"
        }
      ],
      "name": "getGroupSize",
      "outputs": [
        {
          "internalType": "uint256",
          "name": "",
          "type": "uint256"
        }
      ],
      "stateMutability": "view",
      "type": "function"
    },
    {
      "inputs": [],
      "name": "owner",
      "outputs": [
        {
          "internalType": "address",
          "name": "",
          "type": "address"
        }
      ],
      "stateMutability": "view",
      "type": "function"
    },
    {
      "inputs": [
        {
          "internalType": "uint256",
          "name": "chainId",
          "type": "uint256"
        },
        {
          "internalType": "bytes32",
          "name": "initialRoot",
          "type": "bytes32"
        }
      ],
      "name": "registerChain",
      "outputs": [],
      "stateMutability": "nonpayable",
      "type": "function"
    },
    {
      "inputs": [],
      "name": "reputationRegistry",
      "outputs": [
        {
          "internalType": "contract ReputationRegistry",
          "name": "",
          "type": "address"
        }
      ],
      "stateMutability": "view",
      "type": "function"
    },
    {
      "inputs": [],
      "name": "rewardPerCommit",
      "outputs": [
        {
          "internalType": "uint256",
          "name": "",
          "type": "uint256"
        }
      ],
      "stateMutability": "view",
      "type": "function"
    },
    {
      "inputs": [
        {
          "internalType": "uint256[2]",
          "name": "alpha",
          "type": "uint256[2]"
        },
        {
          "internalType": "uint256[2][2]",
          "name": "beta",
          "type": "uint256[2][2]"
        },
        {
          "internalType": "uint256[2][2]",
          "name": "gamma",
          "type": "uint256[2][2]"
        },
        {
          "internalType": "uint256[2][2]",
          "name": "delta",
          "type": "uint256[2][2]"
        },
        {
          "internalType": "uint256[][]",
          "name": "ic",
          "type": "uint256[][]"
        }
      ],
      "name": "setVerifyingKey",
      "outputs": [],
      "stateMutability": "nonpayable",
      "type": "function"
    },
    {
      "inputs": [],
      "name": "stake",
      "outputs": [],
      "stateMutability": "payable",
      "type": "function"
    },
    {
      "inputs": [
        {
          "internalType": "uint256",
          "name": "chainId",
          "type": "uint256"
        },
        {
          "internalType": "bytes32",
          "name": "oldRoot",
          "type": "bytes32"
        },
        {
          "internalType": "bytes32",
          "name": "newRoot",
          "type": "bytes32"
        },
        {
          "internalType": "uint256",
          "name": "blockStart",
          "type": "uint256"
        },
        {
          "internalType": "uint256",
          "name": "blockEnd",
          "type": "uint256"
        }
      ],
      "name": "submitCommit",
      "outputs": [
        {
          "internalType": "bytes32",
          "name": "commitId",
          "type": "bytes32"
        }
      ],
      "stateMutability": "nonpayable",
      "type": "function"
    },
    {
      "inputs": [],
      "name": "useMockVerifier",
      "outputs": [
        {
          "internalType": "bool",
          "name": "",
          "type": "bool"
        }
      ],
      "stateMutability": "view",
      "type": "function"
    },
    {
      "inputs": [
        {
          "internalType": "bytes32",
          "name": "commitId",
          "type": "bytes32"
        },
        {
          "internalType": "uint256[2]",
          "name": "proofA",
          "type": "uint256[2]"
        },
        {
          "internalType": "uint256[2][2]",
          "name": "proofB",
          "type": "uint256[2][2]"
        },
        {
          "internalType": "uint256[2]",
          "name": "proofC",
          "type": "uint256[2]"
        }
      ],
      "name": "verifyCommit",
      "outputs": [],
      "stateMutability": "nonpayable",
      "type": "function"
    },
    {
      "inputs": [
        {
          "internalType": "bytes32",
          "name": "groupId",
          "type": "bytes32"
        },
        {
          "internalType": "uint256",
          "name": "chainId",
          "type": "uint256"
        },
        {
          "internalType": "uint256[2]",
          "name": "proofA",
          "type": "uint256[2]"
        },
        {
          "internalType": "uint256[2][2]",
          "name": "proofB",
          "type": "uint256[2][2]"
        },
        {
          "internalType": "uint256[2]",
          "name": "proofC",
          "type": "uint256[2]"
        }
      ],
      "name": "weightedAuditAccept",
      "outputs": [],
      "stateMutability": "nonpayable",
      "type": "function"
    },
    {
      "stateMutability": "payable",
      "type": "receive"
    }
  ],
  "bytecode": "0x60c0604052600f805460ff1916905566038d7ea4c6800060155534801562000025575f80fd5b5060405162003530380380620035308339810160408190526200004891620000af565b601980546001600160a01b031916339081179091555f908152601760205260409020805460ff191660019081179091556018556001600160a01b039182166080521660a052620000e5565b80516001600160a01b0381168114620000aa575f80fd5b919050565b5f8060408385031215620000c1575f80fd5b620000cc8362000093565b9150620000dc6020840162000093565b90509250929050565b60805160a0516133ea620001465f395f8181610209015281816118e901528181611a2601528181611d12015261204801525f818161054401528181610b07015281816116f201528181611e5501528181611f290152611fbc01526133ea5ff3fe608060405260043610610172575f3560e01c806367ca7391116100c7578063c655d19711610083578063dd50919811610060578063dd50919814610581578063e429cef1146105a0578063f1bed7e0146105bf578063f1f021cb146105d357005b8063c655d19714610514578063c8db44e314610533578063cb1c2b5c1461056657005b806367ca73911461045e5780636c5611671461048957806370d487981461049e57806375c18eab146104bd5780638da5cb5b146104d65780638e16f159146104f557005b8063478857811161012e57806351d589691161010b57806351d5896914610397578063533b6788146103b6578063550325b5146103ca57806358f0b7801461043f57005b8063478857811461026257806347f9aa9f1461031557806349c932b11461035357005b806306222e861461017b578063115f574c1461019a5780631e4fba05146101c25780633a4b66f1146101f05780633d3a910e146101f857806342e3d4a21461024357005b3661017957005b005b348015610186575f80fd5b50610179610195366004612e67565b6105fe565b3480156101a5575f80fd5b506101af60185481565b6040519081526020015b60405180910390f35b3480156101cd575f80fd5b506101af6101dc366004612eb5565b5f9081526010602052604090206001015490565b610179610bf2565b348015610203575f80fd5b5061022b7f000000000000000000000000000000000000000000000000000000000000000081565b6040516001600160a01b0390911681526020016101b9565b34801561024e575f80fd5b5061017961025d366004612f14565b610c99565b34801561026d575f80fd5b506102ce61027c366004612eb5565b60126020525f9081526040902080546001820154600283015460038401546004850154600586015460068701546007909701546001600160a01b03909616969495939492939192909160ff9091169088565b604080516001600160a01b0390991689526020890197909752958701949094526060860192909252608085015260a0840152151560c083015260e0820152610100016101b9565b348015610320575f80fd5b5061034361032f366004612fb0565b60176020525f908152604090205460ff1681565b60405190151581526020016101b9565b34801561035e575f80fd5b5061037261036d366004612fd2565b610f3c565b604080516001600160a01b0390941684526020840192909252908201526060016101b9565b3480156103a2575f80fd5b506101796103b1366004612fd2565b610f84565b3480156103c1575f80fd5b506101796110d1565b3480156103d5575f80fd5b506104156103e4366004612eb5565b60106020525f9081526040902080546001820154600283015460038401546004909401549293919290919060ff1685565b6040805195865260208601949094529284019190915260608301521515608082015260a0016101b9565b34801561044a575f80fd5b50610179610459366004612ff2565b61110a565b348015610469575f80fd5b506101af610478366004612eb5565b5f9081526014602052604090205490565b348015610494575f80fd5b506101af60155481565b3480156104a9575f80fd5b506101af6104b8366004612eb5565b611802565b3480156104c8575f80fd5b50600f546103439060ff1681565b3480156104e1575f80fd5b5060195461022b906001600160a01b031681565b348015610500575f80fd5b506101af61050f366004612eb5565b611821565b34801561051f575f80fd5b5061017961052e36600461304a565b611830565b34801561053e575f80fd5b5061022b7f000000000000000000000000000000000000000000000000000000000000000081565b348015610571575f80fd5b506101af670de0b6b3a764000081565b34801561058c575f80fd5b506101af61059b3660046130be565b611db5565b3480156105ab575f80fd5b506101796105ba366004612fb0565b6122f0565b3480156105ca575f80fd5b506013546101af565b3480156105de575f80fd5b506101af6105ed366004612fb0565b60166020525f908152604090205481565b335f9081526017602052604090205460ff166106355760405162461bcd60e51b815260040161062c906130f5565b60405180910390fd5b5f848152601260205260409020600681015460ff161561068a5760405162461bcd60e51b815260206004820152601060248201526f105b1c9958591e481d995c9a599a595960821b604482015260640161062c565b60018101545f9081526010602052604090206004015460ff166106e25760405162461bcd60e51b815260206004820152601060248201526f436861696e206e6f742061637469766560801b604482015260640161062c565b6001808201545f908152601060205260409020015460038201541461073d5760405162461bcd60e51b815260206004820152601160248201527009ed8c840e4dedee840dad2e6dac2e8c6d607b1b604482015260640161062c565b6040805160a081018252853560608201908152602080880135608080850191909152918352835191820184525f939083019190819081810190899060029083908390808284375f920191909152505050815260408051808201825260209092019190808a019060029083908390808284375f92018290525092909352509183525060408051808201825287358152602080890135818301529384015280516002808252606082018352949550919391928301908036833701905050905082600301545f1c815f815181106108135761081361311a565b60200260200101818152505082600401545f1c816001815181106108395761083961311a565b6020908102919091010152600f5460ff1680610a5157506040805160e0810182525f805460a0830190815260015460c08401528252825160808101808552610a51946020850192916002918391908201908390819081845b81548152602001906001019080831161089157505050918352505060408051808201918290526020909201919060028481019182845b8154815260200190600101908083116108c7575050509190925250505081526040805160808101808352602090930192909160068501918391820190839060029082845b81548152602001906001019080831161090b57505050918352505060408051808201918290526020909201919060028481019182845b8154815260200190600101908083116109415750505091909252505050815260408051608081018083526020909301929091600a8501918391820190839060029082845b81548152602001906001019080831161098557505050918352505060408051808201918290526020909201919060028481019182845b8154815260200190600101908083116109bb575050505050815250508152602001600e8201805480602002602001604051908101604052809291908181526020015f905b82821015610a42578382905f5260205f2090600202016040518060400160405290815f8201548152602001600182015481525050815260200190600101906109ff565b50505050815250508383612372565b610a975760405162461bcd60e51b81526020600482015260176024820152761692d4081d995c9a599a58d85d1a5bdb8819985a5b1959604a1b604482015260640161062c565b60068301805460ff1916600190811790915560048085015482860180545f90815260106020526040808220860193909355905481528190204360029091015585549051638d56276d60e01b81526001600160a01b03918216928101929092526024820183905260448201929092527f000000000000000000000000000000000000000000000000000000000000000090911690638d56276d906064015f604051808303815f87803b158015610b4a575f80fd5b505af1158015610b5c573d5f803e3d5ffd5b505050506015544710610ba35782546015546040516001600160a01b039092169181156108fc0291905f818181858888f19350505050158015610ba1573d5f803e3d5ffd5b505b82546015546040519081526001600160a01b039091169088907f21e03427df8ec7c4583a19e42161339f975e9ea2570116bad55b2a55f3398a5a9060200160405180910390a350505050505050565b670de0b6b3a7640000341015610c3f5760405162461bcd60e51b8152602060048201526012602482015271496e73756666696369656e74207374616b6560701b604482015260640161062c565b335f9081526016602052604081208054349290610c5d908490613156565b909155505060405134815233907f0996b041421105b7431ca7b8a8372f29bda1e574c3614b1f91e4cdcf82e9502b9060200160405180910390a2565b6019546001600160a01b03163314610cc35760405162461bcd60e51b815260040161062c90613169565b60408051808201825287358082526020808a013592018290525f55600155805160808101825290819081810190889060029083908390808284375f9201919091525050508152604080518082018252602090920191908089019060029083908390808284375f92019190915250505090528051600290610d4590829081612d20565b506020820151610d5b9060028084019190612d20565b5050604080516080810182529150819081810190879060029083908390808284375f9201919091525050508152604080518082018252602090920191908088019060029083908390808284375f92019190915250505090528051600690610dc59082906002612d20565b506020820151610ddb9060028084019190612d20565b5050604080516080810182529150819081810190869060029083908390808284375f9201919091525050508152604080518082018252602090920191908087019060029083908390808284375f92019190915250505090528051600a90610e459082906002612d20565b506020820151610e5b9060028084019190612d20565b50610e6b9150600e90505f612d5e565b5f5b81811015610f33575f600e016040518060400160405280858585818110610e9657610e9661311a565b9050602002810190610ea8919061318c565b5f818110610eb857610eb861311a565b905060200201358152602001858585818110610ed657610ed661311a565b9050602002810190610ee8919061318c565b6001818110610ef957610ef961311a565b602090810292909201359092528354600181810186555f958652948290208451600290920201908155920151918301919091555001610e6d565b50505050505050565b6014602052815f5260405f208181548110610f55575f80fd5b5f9182526020909120600390910201805460018201546002909201546001600160a01b03909116935090915083565b6019546001600160a01b03163314610fae5760405162461bcd60e51b815260040161062c90613169565b5f8281526010602052604090206004015460ff16156110045760405162461bcd60e51b8152602060048201526012602482015271105b1c9958591e481c9959da5cdd195c995960721b604482015260640161062c565b6040805160a0810182528381526020808201848152438385019081525f606085018181526001608087018181528a845260108752888420975188559451878201559251600287015551600386015591516004909401805460ff19169415159490941790935560118054938401815590527f31ecc21a745e3968a04e9570e4425bc18fa8019c68028196b546d1669c200c68909101849055905182815283917f02c698cb2acce446d2f91f2b451c3776e20fd161c697ab5d1cf06c6b1dac1f2f910160405180910390a25050565b6019546001600160a01b031633146110fb5760405162461bcd60e51b815260040161062c90613169565b600f805460ff19166001179055565b335f9081526017602052604090205460ff166111385760405162461bcd60e51b815260040161062c906130f5565b5f8481526010602052604090206004015460ff166111685760405162461bcd60e51b815260040161062c906131d2565b5f85815260146020526040902080546111b85760405162461bcd60e51b81526020600482015260126024820152710456d70747920636f6d6d69742067726f75760741b604482015260640161062c565b5f805b82548110156111fb578281815481106111d6576111d661311a565b905f5260205f20906003020160020154826111f19190613156565b91506001016111bb565b505f811161123f5760405162461bcd60e51b815260206004820152601160248201527016995c9bc81d1bdd185b081dd95a59da1d607a1b604482015260640161062c565b5f80805b8454811015611317575f85828154811061125f5761125f61311a565b905f5260205f2090600302016001015490505f805b87548110156112dd57828882815481106112905761129061311a565b905f5260205f20906003020160010154036112d5578781815481106112b7576112b761311a565b905f5260205f20906003020160020154826112d29190613156565b91505b600101611274565b506112e9866002613200565b6112f4826003613200565b1015801561130157508381115b1561130d578194508093505b5050600101611243565b50816113655760405162461bcd60e51b815260206004820152601860248201527f4e6f20322f33207765696768746564206d616a6f726974790000000000000000604482015260640161062c565b6040805160a0810182528835606082019081526020808b0135608080850191909152918352835191820184525f9390830191908190818101908c9060029083908390808284375f920191909152505050815260408051808201825260209092019190808d019060029083908390808284375f9201829052509290935250918352506040805180820182528a3581526020808c013581830152938401528051600280825260608201835294955091939192830190803683375050505f8b8152601060205260408120600101548251929350918391906114455761144561311a565b602002602001018181525050835f1c816001815181106114675761146761311a565b6020908102919091010152600f5460ff168061165e57506040805160e0810182525f805460a0830190815260015460c084015282528251608081018085526002805495830195865261165e9560208601939283919083908190600360608601808311610891575050509183525050604080518082019182905260028481018054835260209485019492939092600387019085018083116108c7575050509190925250505081526040805160808101808352600685018054938301938452602090940193919283918390600290600789016060860180831161090b57505050918352505060408051808201918290526002848101805483526020948501949293909260038701908501808311610941575050509190925250505081526040805160808101808352600a85018054938301938452602090940193919283918390600290600b890160608601808311610985575050509183525050604080518082019182905260028481018054835260209485019492939092600387019085018083116109bb575050505050815250508152602001600e8201805480602002602001604051908101604052809291908181526020015f9082821015610a42578382905f5260205f2090600202016040518060400160405290815f8201548152602001600182015481525050815260200190600101906109ff565b6116a45760405162461bcd60e51b81526020600482015260176024820152761692d4081d995c9a599a58d85d1a5bdb8819985a5b1959604a1b604482015260640161062c565b5f8a815260106020526040812060018101869055436002909101555b86548110156117b1575f858883815481106116dd576116dd61311a565b905f5260205f209060030201600101541490507f00000000000000000000000000000000000000000000000000000000000000006001600160a01b0316638d56276d8984815481106117315761173161311a565b5f91825260209091206003909102015460405160e083901b6001600160e01b03191681526001600160a01b0390911660048201528315156024820152600160448201526064015f604051808303815f87803b15801561178e575f80fd5b505af11580156117a0573d5f803e3d5ffd5b5050600190930192506116c0915050565b5060408051858152602081018790529081018490528b907f9fe75e55e3d79ccc700a1376ed0d73782a6d56a9049c63cc3b01b8659200e4c79060600160405180910390a25050505050505050505050565b60118181548110611811575f80fd5b5f91825260209091200154905081565b60138181548110611811575f80fd5b335f9081526017602052604090205460ff1661185e5760405162461bcd60e51b815260040161062c906130f5565b82811461189f5760405162461bcd60e51b815260206004820152600f60248201526e098cadccee8d040dad2e6dac2e8c6d608b1b604482015260640161062c565b826118e35760405162461bcd60e51b8152602060048201526014602482015273115b5c1d1e4818db1d5cdd195c8818dbdb5b5a5d60621b604482015260640161062c565b5f805f807f00000000000000000000000000000000000000000000000000000000000000006001600160a01b031663ea181a9e8a6040518263ffffffff1660e01b815260040161193591815260200190565b608060405180830381865afa158015611950573d5f803e3d5ffd5b505050506040513d601f19601f82011682018060405250810190611974919061322b565b929650909450925090506001600160a01b0383166119cd5760405162461bcd60e51b8152602060048201526016602482015275125b9d985b1a590818db1d5cdd195c8818dbdb5b5a5d60521b604482015260640161062c565b8015611a0e5760405162461bcd60e51b815260206004820152601060248201526f105b1c9958591e481d995c9a599a595960821b604482015260640161062c565b6040516302cc42a760e21b8152600481018590525f907f00000000000000000000000000000000000000000000000000000000000000006001600160a01b031690630b310a9c906024015f60405180830381865afa158015611a72573d5f803e3d5ffd5b505050506040513d5f823e601f3d908101601f19168201604052611a999190810190613266565b80519091508814611ae35760405162461bcd60e51b8152602060048201526014602482015273086d0c2d2dc40c6deeadce840dad2e6dac2e8c6d60631b604482015260640161062c565b5f5b88811015611b90575f805b8351811015611b4257838181518110611b0b57611b0b61311a565b60200260200101518c8c85818110611b2557611b2561311a565b9050602002013503611b3a5760019150611b42565b600101611af0565b5080611b875760405162461bcd60e51b815260206004820152601460248201527321b430b4b7103737ba1034b71031b63ab9ba32b960611b604482015260640161062c565b50600101611ae5565b505f611bcd8888808060200260200160405190810160405280939291908181526020018383602002808284375f9201919091525061269c92505050565b9050838114611c1e5760405162461bcd60e51b815260206004820152601860248201527f4167677265676174656420726f6f74206d69736d617463680000000000000000604482015260640161062c565b5f5b89811015611cfb5760105f8c8c84818110611c3d57611c3d61311a565b602090810292909201358352508101919091526040015f206004015460ff16611c785760405162461bcd60e51b815260040161062c906131d2565b888882818110611c8a57611c8a61311a565b9050602002013560105f8d8d85818110611ca657611ca661311a565b9050602002013581526020019081526020015f20600101819055504360105f8d8d85818110611cd757611cd761311a565b602090810292909201358352508101919091526040015f2060020155600101611c20565b50604051631267422560e01b8152600481018c90527f00000000000000000000000000000000000000000000000000000000000000006001600160a01b0316906312674225906024015f604051808303815f87803b158015611d5b575f80fd5b505af1158015611d6d573d5f803e3d5ffd5b50506040518b81528892508d91507f0620ee78a1aa2603382d2bdded7dcf208ba16c1d45f6d61ec9ba01b38b6d74159060200160405180910390a35050505050505050505050565b5f8581526010602052604081206004015460ff16611de55760405162461bcd60e51b815260040161062c906131d2565b335f90815260166020526040902054670de0b6b3a76400001115611e405760405162461bcd60e51b8152602060048201526012602482015271496e73756666696369656e74207374616b6560701b604482015260640161062c565b604051630ed00ad960e31b81523360048201527f00000000000000000000000000000000000000000000000000000000000000006001600160a01b03169063768056c890602401602060405180830381865afa158015611ea2573d5f803e3d5ffd5b505050506040513d601f19601f82011682018060405250810190611ec6919061331f565b611f125760405162461bcd60e51b815260206004820152601a60248201527f4e6f742061207265676973746572656420636f6d6d6974746572000000000000604482015260640161062c565b60405163b4a8924760e01b81523360048201525f907f00000000000000000000000000000000000000000000000000000000000000006001600160a01b03169063b4a8924790602401602060405180830381865afa158015611f76573d5f803e3d5ffd5b505050506040513d601f19601f82011682018060405250810190611f9a9190613338565b604051634e44d07160e11b81523360048201529091505f906001600160a01b037f00000000000000000000000000000000000000000000000000000000000000001690639c89a0e290602401602060405180830381865afa158015612001573d5f803e3d5ffd5b505050506040513d601f19601f820116820180604052508101906120259190613338565b604051630850aed360e21b8152600481018a90529091505f906001600160a01b037f00000000000000000000000000000000000000000000000000000000000000001690632142bb4c90602401602060405180830381865afa15801561208d573d5f803e3d5ffd5b505050506040513d601f19601f820116820180604052508101906120b19190613338565b604080513360208201529081018b9052606081018a9052608081018990524260a082015290915060c00160408051601f198184030181528282528051602091820120610100840183523384528382018d8152848401868152606086018e8152608087018e81524260a089019081525f60c08a0181815260e08b018d815288835260128a528a83209b518c546001600160a01b03919091166001600160a01b0319909116178c55965160018c810191909155955160028c0155935160038b0155915160048a0155516005890155905160068801805491151560ff19909216919091179055915160079096019590955560138054958601815581527f66de8ffda797e3de9c05e8fc57b3bf0ec28a930d40b0d285d93c06501cf6a09090940181905591519196506121f7918c918a918a91019283526020830191909152604082015260600190565b60408051808303601f1901815282825280516020918201205f818152601483528381206060860185523386528386018e81528686018b81528254600180820185559385528685209851600391820290990180546001600160a01b0319166001600160a01b03909a1699909917895591519288019290925590516002909601959095558e81526010909252918120909201805491935090916122978361334f565b9091555050604080518a8152602081018a90529081018490528a90339087907f9a94a4a8239d5184dd76d095ceaf6d188966b7ea9b0087ac5cc303f9f0c0908c9060600160405180910390a45050505095945050505050565b6019546001600160a01b0316331461231a5760405162461bcd60e51b815260040161062c90613169565b6001600160a01b0381165f9081526017602052604090205460ff1661236f576001600160a01b0381165f908152601760205260408120805460ff1916600117905560188054916123698361334f565b91905055505b50565b5f836080015151825160016123879190613156565b146123d45760405162461bcd60e51b815260206004820152601c60248201527f496e76616c6964207075626c696320696e70757473206c656e67746800000000604482015260640161062c565b5f5b825181101561246f577f30644e72e131a029b85045b68181585d2833e84879b9709143e1f593f00000018382815181106124125761241261311a565b6020026020010151106124675760405162461bcd60e51b815260206004820152601a60248201527f5075626c696320696e7075742065786365656473206669656c64000000000000604482015260640161062c565b6001016123d6565b505f84608001515f815181106124875761248761311a565b602002602001015190505f5b83518110156124fb576124f1826124ec88608001518460016124b59190613156565b815181106124c5576124c561311a565b60200260200101518785815181106124df576124df61311a565b602002602001015161283c565b6128ca565b9150600101612493565b5060408051600480825260a082019092525f91816020015b604080518082019091525f808252602082015281526020019060019003908161251357505060408051600480825260a082019092529192505f9190602082015b61255b612d7c565b815260200190600190039081612553575050865190915061257b90612956565b825f8151811061258d5761258d61311a565b60200260200101819052508560200151815f815181106125af576125af61311a565b6020026020010181905250865f0151826001815181106125d1576125d161311a565b60200260200101819052508660200151816001815181106125f4576125f461311a565b602002602001018190525082826002815181106126135761261361311a565b60200260200101819052508660400151816002815181106126365761263661311a565b60200260200101819052508560400151826003815181106126595761265961311a565b602002602001018190525086606001518160038151811061267c5761267c61311a565b60200260200101819052506126918282612a0d565b979650505050505050565b5f81515f036126ac57505f919050565b81516001036126d657815f815181106126c7576126c761311a565b60200260200101519050919050565b815b60018151111561281a575f6002825160016126f39190613156565b6126fd919061337b565b90505f8167ffffffffffffffff8111156127195761271961312e565b604051908082528060200260200182016040528015612742578160200160208202803683370190505b5090505f5b82811015612810575f61275b826002613200565b90505f855182600161276d9190613156565b106127785781612783565b612783826001613156565b90508582815181106127975761279761311a565b60200260200101518682815181106127b1576127b161311a565b60200260200101516040516020016127d3929190918252602082015260400190565b604051602081830303815290604052805190602001208484815181106127fb576127fb61311a565b60209081029190910101525050600101612747565b5091506126d89050565b805f8151811061282c5761282c61311a565b6020026020010151915050919050565b604080518082019091525f8082526020820152612857612da1565b835181526020808501519082015260408082018490525f908360608460076107d05a03fa9050806128c25760405162461bcd60e51b8152602060048201526015602482015274189b8c8d4d94d8d85b185c935d5b0819985a5b1959605a1b604482015260640161062c565b505092915050565b604080518082019091525f80825260208201526128e5612dbf565b835181526020808501518183015283516040808401919091529084015160608301525f908360808460066107d05a03fa9050806128c25760405162461bcd60e51b815260206004820152600f60248201526e189b8c8d4d9059190819985a5b1959608a1b604482015260640161062c565b604080518082019091525f8082526020820152815115801561297a57506020820151155b15612997575050604080518082019091525f808252602082015290565b6040518060400160405280835f015181526020017f30644e72e131a029b85045b68181585d97816a916871ca8d3c208c16d87cfd4784602001516129db919061338e565b612a05907f30644e72e131a029b85045b68181585d97816a916871ca8d3c208c16d87cfd476133a1565b905292915050565b5f8151835114612a5f5760405162461bcd60e51b815260206004820152601760248201527f50616972696e67206c656e677468206d69736d61746368000000000000000000604482015260640161062c565b5f83516006612a6e9190613200565b90505f8167ffffffffffffffff811115612a8a57612a8a61312e565b604051908082528060200260200182016040528015612ab3578160200160208202803683370190505b5090505f5b8551811015612cae575f612acd826006613200565b9050868281518110612ae157612ae161311a565b60200260200101515f015183825f612af99190613156565b81518110612b0957612b0961311a565b602002602001018181525050868281518110612b2757612b2761311a565b60200260200101516020015183826001612b419190613156565b81518110612b5157612b5161311a565b602002602001018181525050858281518110612b6f57612b6f61311a565b60209081029190910181015151015183612b8a836002613156565b81518110612b9a57612b9a61311a565b602002602001018181525050858281518110612bb857612bb861311a565b6020908102919091010151515183612bd1836003613156565b81518110612be157612be161311a565b602002602001018181525050858281518110612bff57612bff61311a565b602002602001015160200151600160028110612c1d57612c1d61311a565b602002015183612c2e836004613156565b81518110612c3e57612c3e61311a565b602002602001018181525050858281518110612c5c57612c5c61311a565b6020026020010151602001515f60028110612c7957612c7961311a565b602002015183612c8a836005613156565b81518110612c9a57612c9a61311a565b602090810291909101015250600101612ab8565b50612cb7612ddd565b5f602082602086026020860160086107d05a03fa905080612d105760405162461bcd60e51b8152602060048201526013602482015272189b8c8d4d94185a5c9a5b99c819985a5b1959606a1b604482015260640161062c565b5051600114925050505b92915050565b8260028101928215612d4e579160200282015b82811115612d4e578251825591602001919060010190612d33565b50612d5a929150612dfb565b5090565b5080545f8255600202905f5260205f209081019061236f9190612e0f565b6040518060400160405280612d8f612e29565b8152602001612d9c612e29565b905290565b60405180606001604052806003906020820280368337509192915050565b60405180608001604052806004906020820280368337509192915050565b60405180602001604052806001906020820280368337509192915050565b5b80821115612d5a575f8155600101612dfc565b5b80821115612d5a575f8082556001820155600201612e10565b60405180604001604052806002906020820280368337509192915050565b8060408101831015612d1a575f80fd5b8060808101831015612d1a575f80fd5b5f805f806101208587031215612e7b575f80fd5b84359350612e8c8660208701612e47565b9250612e9b8660608701612e57565b9150612eaa8660e08701612e47565b905092959194509250565b5f60208284031215612ec5575f80fd5b5035919050565b5f8083601f840112612edc575f80fd5b50813567ffffffffffffffff811115612ef3575f80fd5b6020830191508360208260051b8501011115612f0d575f80fd5b9250929050565b5f805f805f806101e08789031215612f2a575f80fd5b612f348888612e47565b9550612f438860408901612e57565b9450612f528860c08901612e57565b9350612f62886101408901612e57565b92506101c087013567ffffffffffffffff811115612f7e575f80fd5b612f8a89828a01612ecc565b979a9699509497509295939492505050565b6001600160a01b038116811461236f575f80fd5b5f60208284031215612fc0575f80fd5b8135612fcb81612f9c565b9392505050565b5f8060408385031215612fe3575f80fd5b50508035926020909101359150565b5f805f805f6101408688031215613007575f80fd5b853594506020860135935061301f8760408801612e47565b925061302e8760808801612e57565b915061303e876101008801612e47565b90509295509295909350565b5f805f805f6060868803121561305e575f80fd5b85359450602086013567ffffffffffffffff8082111561307c575f80fd5b61308889838a01612ecc565b909650945060408801359150808211156130a0575f80fd5b506130ad88828901612ecc565b969995985093965092949392505050565b5f805f805f60a086880312156130d2575f80fd5b505083359560208501359550604085013594606081013594506080013592509050565b6020808252600b908201526a2737ba1030bab234ba37b960a91b604082015260600190565b634e487b7160e01b5f52603260045260245ffd5b634e487b7160e01b5f52604160045260245ffd5b634e487b7160e01b5f52601160045260245ffd5b80820180821115612d1a57612d1a613142565b6020808252600990820152682737ba1037bbb732b960b91b604082015260600190565b5f808335601e198436030181126131a1575f80fd5b83018035915067ffffffffffffffff8211156131bb575f80fd5b6020019150600581901b3603821315612f0d575f80fd5b60208082526014908201527310da185a5b881b9bdd081c9959da5cdd195c995960621b604082015260600190565b8082028115828204841417612d1a57612d1a613142565b80518015158114613226575f80fd5b919050565b5f805f806080858703121561323e575f80fd5b84519350602085015161325081612f9c565b60408601519093509150612eaa60608601613217565b5f6020808385031215613277575f80fd5b825167ffffffffffffffff8082111561328e575f80fd5b818501915085601f8301126132a1575f80fd5b8151818111156132b3576132b361312e565b8060051b604051601f19603f830116810181811085821117156132d8576132d861312e565b6040529182528482019250838101850191888311156132f5575f80fd5b938501935b82851015613313578451845293850193928501926132fa565b98975050505050505050565b5f6020828403121561332f575f80fd5b612fcb82613217565b5f60208284031215613348575f80fd5b5051919050565b5f6001820161336057613360613142565b5060010190565b634e487b7160e01b5f52601260045260245ffd5b5f8261338957613389613367565b500490565b5f8261339c5761339c613367565b500690565b81810381811115612d1a57612d1a61314256fea26469706673582212201e3b4f4e05db4f7fd6b856c43cef71c5bcca4bafa235adf5b427baee22666af364736f6c63430008180033",
  "linkReferences": {},
  "deployedLinkReferences": {},
  "immutableReferences": {
    "1539": [
      {
        "length": 32,
        "start": 1348
      },
      {
        "length": 32,
        "start": 2823
      },
      {
        "length": 32,
        "start": 5874
      },
      {
        "length": 32,
        "start": 7765
      },
      {
        "length": 32,
        "start": 7977
      },
      {
        "length": 32,
        "start": 8124
      }
    ],
    "1542": [
      {
        "length": 32,
        "start": 521
      },
      {
        "length": 32,
        "start": 6377
      },
      {
        "length": 32,
        "start": 6694
      },
      {
        "length": 32,
        "start": 7442
      },
      {
        "length": 32,
        "start": 8264
      }
    ]
  },
  "inputSourceName": "project/contracts/audit_chain/AuditContractV2.sol",
  "buildInfoId": "solc-0_8_24-ba828cc3e29caeee2779b63b0600a648c5ede39f"
}