{
  "_format": "hh3-artifact-1",
  "contractName": "ClusterManager",
  "sourceName": "contracts/audit_chain/ClusterManager.sol",
  "abi": [
    {
      "inputs": [
        {
          "internalType": "address",
          "name": "_reputationRegistry",
          "type": "address"
        }
      ],
      "stateMutability": "nonpayable",
      "type": "constructor"
    },
    {
      "anonymous": false,
      "inputs": [
        {
          "indexed": true,
          "internalType": "bytes32",
          "name": "commitId",
          "type": "bytes32"
        },
        {
          "indexed": true,
          "internalType": "uint256",
          "name": "clusterId",
          "type": "uint256"
        },
        {
          "indexed": false,
          "internalType": "bytes32",
          "name": "aggregatedRoot",
          "type": "bytes32"
        }
      ],
      "name": "ClusterCommitSubmitted",
      "type": "event"
    },
    {
      "anonymous": false,
      "inputs": [
        {
          "indexed": true,
          "internalType": "bytes32",
          "name": "commitId",
          "type": "bytes32"
        },
        {
          "indexed": false,
          "internalType": "uint256",
          "name": "clusterId",
          "type": "uint256"
        }
      ],
      "name": "ClusterCommitVerified",
      "type": "event"
    },
    {
      "anonymous": false,
      "inputs": [
        {
          "indexed": true,
          "internalType": "uint256",
          "name": "clusterId",
          "type": "uint256"
        },
        {
          "indexed": false,
          "internalType": "uint256[]",
          "name": "chainIds",
          "type": "uint256[]"
        }
      ],
      "name": "ClusterCreated",
      "type": "event"
    },
    {
      "anonymous": false,
      "inputs": [
        {
          "indexed": true,
          "internalType": "uint256",
          "name": "clusterId",
          "type": "uint256"
        },
        {
          "indexed": true,
          "internalType": "address",
          "name": "newHead",
          "type": "address"
        },
        {
          "indexed": false,
          "internalType": "uint256",
          "name": "round",
          "type": "uint256"
        }
      ],
      "name": "ClusterHeadElected",
      "type": "event"
    },
    {
      "anonymous": false,
      "inputs": [
        {
          "indexed": false,
          "internalType": "uint256",
          "name": "epoch",
          "type": "uint256"
        },
        {
          "indexed": false,
          "internalType": "bytes32",
          "name": "vrfSeed",
          "type": "bytes32"
        }
      ],
      "name": "ClustersReshuffled",
      "type": "event"
    },
    {
      "anonymous": false,
      "inputs": [
        {
          "indexed": true,
          "internalType": "bytes32",
          "name": "challengeId",
          "type": "bytes32"
        },
        {
          "indexed": false,
          "internalType": "address",
          "name": "challenger",
          "type": "address"
        },
        {
          "indexed": false,
          "internalType": "uint256",
          "name": "clusterId",
          "type": "uint256"
        },
        {
          "indexed": false,
          "internalType": "uint256",
          "name": "missingChainId",
          "type": "uint256"
        }
      ],
      "name": "DAChallengeFiled",
      "type": "event"
    },
    {
      "anonymous": false,
      "inputs": [
        {
          "indexed": true,
          "internalType": "bytes32",
          "name": "challengeId",
          "type": "bytes32"
        },
        {
          "indexed": false,
          "internalType": "bool",
          "name": "valid",
          "type": "bool"
        }
      ],
      "name": "DAChallengeResolved",
      "type": "event"
    },
    {
      "inputs": [],
      "name": "CHALLENGE_WINDOW",
      "outputs": [
        {
          "internalType": "uint256",
          "name": "",
          "type": "uint256"
        }
      ],
      "stateMutability": "view",
      "type": "function"
    },
    {
      "inputs": [],
      "name": "EPOCH_LENGTH",
      "outputs": [
        {
          "internalType": "uint256",
          "name": "",
          "type": "uint256"
        }
      ],
      "stateMutability": "view",
      "type": "function"
    },
    {
      "inputs": [
        {
          "internalType": "uint256",
          "name": "clusterId",
          "type": "uint256"
        },
        {
          "internalType": "address",
          "name": "member",
          "type": "address"
        }
      ],
      "name": "addMember",
      "outputs": [],
      "stateMutability": "nonpayable",
      "type": "function"
    },
    {
      "inputs": [],
      "name": "advanceRound",
      "outputs": [],
      "stateMutability": "nonpayable",
      "type": "function"
    },
    {
      "inputs": [
        {
          "internalType": "uint256",
          "name": "",
          "type": "uint256"
        },
        {
          "internalType": "uint256",
          "name": "",
          "type": "uint256"
        }
      ],
      "name": "chainSubmittedInRound",
      "outputs": [
        {
          "internalType": "bool",
          "name": "",
          "type": "bool"
        }
      ],
      "stateMutability": "view",
      "type": "function"
    },
    {
      "inputs": [
        {
          "internalType": "uint256",
          "name": "",
          "type": "uint256"
        }
      ],
      "name": "chainToCluster",
      "outputs": [
        {
          "internalType": "uint256",
          "name": "",
          "type": "uint256"
        }
      ],
      "stateMutability": "view",
      "type": "function"
    },
    {
      "inputs": [
        {
          "internalType": "uint256",
          "name": "",
          "type": "uint256"
        }
      ],
      "name": "challengeIds",
      "outputs": [
        {
          "internalType": "bytes32",
          "name": "",
          "type": "bytes32"
        }
      ],
      "stateMutability": "view",
      "type": "function"
    },
    {
      "inputs": [
        {
          "internalType": "bytes32",
          "name": "",
          "type": "bytes32"
        }
      ],
      "name": "challenges",
      "outputs": [
        {
          "internalType": "address",
          "name": "challenger",
          "type": "address"
        },
        {
          "internalType": "uint256",
          "name": "clusterId",
          "type": "uint256"
        },
        {
          "internalType": "uint256",
          "name": "missingChainId",
          "type": "uint256"
        },
        {
          "internalType": "uint256",
          "name": "round",
          "type": "uint256"
        },
        {
          "internalType": "uint256",
          "name": "filedAt",
          "type": "uint256"
        },
        {
          "internalType": "bool",
          "name": "resolved",
          "type": "bool"
        },
        {
          "internalType": "bool",
          "name": "valid",
          "type": "bool"
        }
      ],
      "stateMutability": "view",
      "type": "function"
    },
    {
      "inputs": [
        {
          "internalType": "bytes32",
          "name": "",
          "type": "bytes32"
        }
      ],
      "name": "clusterCommits",
      "outputs": [
        {
          "internalType": "uint256",
          "name": "clusterId",
          "type": "uint256"
        },
        {
          "internalType": "address",
          "name": "clusterHead",
          "type": "address"
        },
        {
          "internalType": "bytes32",
          "name": "aggregatedRoot",
          "type": "bytes32"
        },
        {
          "internalType": "uint256",
          "name": "round",
          "type": "uint256"
        },
        {
          "internalType": "bool",
          "name": "isVerified",
          "type": "bool"
        },
        {
          "internalType": "uint256",
          "name": "timestamp",
          "type": "uint256"
        }
      ],
      "stateMutability": "view",
      "type": "function"
    },
    {
      "inputs": [
        {
          "internalType": "uint256",
          "name": "",
          "type": "uint256"
        }
      ],
      "name": "clusterIds",
      "outputs": [
        {
          "internalType": "uint256",
          "name": "",
          "type": "uint256"
        }
      ],
      "stateMutability": "view",
      "type": "function"
    },
    {
      "inputs": [
        {
          "internalType": "uint256",
          "name": "",
          "type": "uint256"
        }
      ],
      "name": "clusters",
      "outputs": [
        {
          "internalType": "uint256",
          "name": "clusterId",
          "type": "uint256"
        },
        {
          "internalType": "address",
          "name": "clusterHead",
          "type": "address"
        },
        {
          "internalType": "uint256",
          "name": "lastElectionRound",
          "type": "uint256"
        },
        {
          "internalType": "uint256",
          "name": "totalProofsAggregated",
          "type": "uint256"
        },
        {
          "internalType": "bool",
          "name": "isActive",
          "type": "bool"
        }
      ],
      "stateMutability": "view",
      "type": "function"
    },
    {
      "inputs": [
        {
          "internalType": "uint256",
          "name": "",
          "type": "uint256"
        }
      ],
      "name": "commitHistory",
      "outputs": [
        {
          "internalType": "bytes32",
          "name": "",
          "type": "bytes32"
        }
      ],
      "stateMutability": "view",
      "type": "function"
    },
    {
      "inputs": [
        {
          "internalType": "uint256[]",
          "name": "chainIds",
          "type": "uint256[]"
        },
        {
          "internalType": "address[]",
          "name": "members",
          "type": "address[]"
        }
      ],
      "name": "createCluster",
      "outputs": [
        {
          "internalType": "uint256",
          "name": "",
          "type": "uint256"
        }
      ],
      "stateMutability": "nonpayable",
      "type": "function"
    },
    {
      "inputs": [
        {
          "internalType": "address[]",
          "name": "committerAddrs",
          "type": "address[]"
        },
        {
          "internalType": "bytes32[]",
          "name": "submittedRoots",
          "type": "bytes32[]"
        },
        {
          "internalType": "bool[]",
          "name": "aliveFlags",
          "type": "bool[]"
        }
      ],
      "name": "crossReferenceAndUpdate",
      "outputs": [],
      "stateMutability": "nonpayable",
      "type": "function"
    },
    {
      "inputs": [],
      "name": "currentEpoch",
      "outputs": [
        {
          "internalType": "uint256",
          "name": "",
          "type": "uint256"
        }
      ],
      "stateMutability": "view",
      "type": "function"
    },
    {
      "inputs": [],
      "name": "currentRound",
      "outputs": [
        {
          "internalType": "uint256",
          "name": "",
          "type": "uint256"
        }
      ],
      "stateMutability": "view",
      "type": "function"
    },
    {
      "inputs": [
        {
          "internalType": "uint256",
          "name": "clusterId",
          "type": "uint256"
        }
      ],
      "name": "electClusterHead",
      "outputs": [],
      "stateMutability": "nonpayable",
      "type": "function"
    },
    {
      "inputs": [
        {
          "internalType": "uint256",
          "name": "clusterId",
          "type": "uint256"
        },
        {
          "internalType": "uint256",
          "name": "missingChainId",
          "type": "uint256"
        },
        {
          "internalType": "uint256",
          "name": "round",
          "type": "uint256"
        }
      ],
      "name": "fileDAChallenge",
      "outputs": [],
      "stateMutability": "nonpayable",
      "type": "function"
    },
    {
      "inputs": [
        {
          "internalType": "uint256",
          "name": "clusterId",
          "type": "uint256"
        }
      ],
      "name": "getClusterChains",
      "outputs": [
        {
          "internalType": "uint256[]",
          "name": "",
          "type": "uint256[]"
        }
      ],
      "stateMutability": "view",
      "type": "function"
    },
    {
      "inputs": [
        {
          "internalType": "bytes32",
          "name": "commitId",
          "type": "bytes32"
        }
      ],
      "name": "getClusterCommitInfo",
      "outputs": [
        {
          "internalType": "uint256",
          "name": "clusterId",
          "type": "uint256"
        },
        {
          "internalType": "address",
          "name": "clusterHead",
          "type": "address"
        },
        {
          "internalType": "bytes32",
          "name": "aggregatedRoot",
          "type": "bytes32"
        },
        {
          "internalType": "bool",
          "name": "isVerified",
          "type": "bool"
        }
      ],
      "stateMutability": "view",
      "type": "function"
    },
    {
      "inputs": [],
      "name": "getClusterCount",
      "outputs": [
        {
          "internalType": "uint256",
          "name": "",
          "type": "uint256"
        }
      ],
      "stateMutability": "view",
      "type": "function"
    },
    {
      "inputs": [
        {
          "internalType": "uint256",
          "name": "clusterId",
          "type": "uint256"
        }
      ],
      "name": "getClusterHead",
      "outputs": [
        {
          "internalType": "address",
          "name": "",
          "type": "address"
        }
      ],
      "stateMutability": "view",
      "type": "function"
    },
    {
      "inputs": [
        {
          "internalType": "uint256",
          "name": "clusterId",
          "type": "uint256"
        }
      ],
      "name": "getClusterMembers",
      "outputs": [
        {
          "internalType": "address[]",
          "name": "",
          "type": "address[]"
        }
      ],
      "stateMutability": "view",
      "type": "function"
    },
    {
      "inputs": [
        {
          "internalType": "uint256",
          "name": "totalChains",
          "type": "uint256"
        }
      ],
      "name": "getComplexityInfo",
      "outputs": [
        {
          "internalType": "uint256",
          "name": "clusterCount",
          "type": "uint256"
        },
        {
          "internalType": "uint256",
          "name": "proofPerAuditor",
          "type": "uint256"
        },
        {
          "internalType": "uint256",
          "name": "reduction",
          "type": "uint256"
        }
      ],
      "stateMutability": "pure",
      "type": "function"
    },
    {
      "inputs": [],
      "name": "nextClusterId",
      "outputs": [
        {
          "internalType": "uint256",
          "name": "",
          "type": "uint256"
        }
      ],
      "stateMutability": "view",
      "type": "function"
    },
    {
      "inputs": [],
      "name": "owner",
      "outputs": [
        {
          "internalType": "address",
          "name": "",
          "type": "address"
        }
      ],
      "stateMutability": "view",
      "type": "function"
    },
    {
      "inputs": [],
      "name": "reputationRegistry",
      "outputs": [
        {
          "internalType": "contract ReputationRegistry",
          "name": "",
          "type": "address"
        }
      ],
      "stateMutability": "view",
      "type": "function"
    },
    {
      "inputs": [
        {
          "internalType": "uint256[]",
          "name": "allChainIds",
          "type": "uint256[]"
        }
      ],
      "name": "reshuffleClusters",
      "outputs": [],
      "stateMutability": "nonpayable",
      "type": "function"
    },
    {
      "inputs": [
        {
          "internalType": "bytes32",
          "name": "challengeId",
          "type": "bytes32"
        },
        {
          "internalType": "bool",
          "name": "valid",
          "type": "bool"
        }
      ],
      "name": "resolveDAChallenge",
      "outputs": [],
      "stateMutability": "nonpayable",
      "type": "function"
    },
    {
      "inputs": [
        {
          "internalType": "uint256",
          "name": "clusterId",
          "type": "uint256"
        },
        {
          "internalType": "bytes32[]",
          "name": "chainRoots",
          "type": "bytes32[]"
        }
      ],
      "name": "submitClusterCommit",
      "outputs": [
        {
          "internalType": "bytes32",
          "name": "commitId",
          "type": "bytes32"
        }
      ],
      "stateMutability": "nonpayable",
      "type": "function"
    },
    {
      "inputs": [
        {
          "internalType": "bytes32",
          "name": "commitId",
          "type": "bytes32"
        }
      ],
      "name": "verifyClusterCommit",
      "outputs": [],
      "stateMutability": "nonpayable",
      "type": "function"
    }
  ],
  "bytecode": "0x60a0604052600160025534801562000015575f80fd5b50604051620029c9380380620029c9833981016040819052620000389162000061565b6001600160a01b0316608052600780546001600160a01b03191633179055600160065562000090565b5f6020828403121562000072575f80fd5b81516001600160a01b038116811462000089575f80fd5b9392505050565b6080516128ef620000da5f395f81816104d50152818161081d015281816108ef01528181611224015281816114b101528181611b1601528181611ee001526120e801526128ef5ff3fe608060405234801561000f575f80fd5b50600436106101dc575f3560e01c80638a19c8bc11610109578063c8db44e31161009e578063da995fa21161006e578063da995fa214610525578063e5502fa314610538578063ea181a9e146105bf578063fa39b1c61461062e575f80fd5b8063c8db44e3146104d0578063ca9d9bbe146104f7578063ce5b796e1461050a578063d62aad291461051d575f80fd5b8063ac4746ab116100d9578063ac4746ab14610412578063af0e17611461041a578063c1712d9f14610422578063c1e69b6614610435575f80fd5b80638a19c8bc146103385780638da5cb5b14610341578063919500c01461036c57806392824228146103e7575f80fd5b80633f7e59061161017f5780635b9781611161014f5780635b978161146102f657806374d0a67614610309578063766718081461031c5780637fd8a9c914610325575f80fd5b80633f7e59061461029957806340b05d42146102ac5780634983dc44146102da578063579d26c6146102e3575f80fd5b80631ba9998b116101ba5780631ba9998b1461023e5780632142bb4c1461024657806323f6bfb2146102735780633e79ccf914610286575f80fd5b8063069d0339146101e05780630b310a9c146102095780631267422514610229575b5f80fd5b6101f36101ee3660046123b4565b61066b565b60405161020091906123cb565b60405180910390f35b61021c6102173660046123b4565b6106d5565b6040516102009190612417565b61023c6102373660046123b4565b610734565b005b61023c6108af565b6102656102543660046123b4565b60056020525f908152604090205481565b604051908152602001610200565b6102656102813660046123b4565b61095d565b610265610294366004612496565b61097c565b6102656102a73660046123b4565b610c49565b6102bf6102ba3660046123b4565b610c58565b60408051938452602084019290925290820152606001610200565b61026560025481565b61023c6102f13660046124de565b610c8a565b610265610304366004612507565b610fc8565b61023c610317366004612589565b6111db565b61026560085481565b61023c6103333660046123b4565b611318565b61026560065481565b600754610354906001600160a01b031681565b6040516001600160a01b039091168152602001610200565b6103b561037a3660046123b4565b5f602081905290815260409020805460018201546004830154600584015460069094015492936001600160a01b039092169290919060ff1685565b604080519586526001600160a01b0390941660208601529284019190915260608301521515608082015260a001610200565b6103546103f53660046123b4565b5f908152602081905260409020600101546001600160a01b031690565b610265606481565b600154610265565b6102656104303660046123b4565b6113b7565b61048d6104433660046123b4565b60096020525f90815260409020805460018201546002830154600384015460048501546005909501546001600160a01b039094169492939192909160ff8082169161010090041687565b604080516001600160a01b03909816885260208801969096529486019390935260608501919091526080840152151560a0830152151560c082015260e001610200565b6103547f000000000000000000000000000000000000000000000000000000000000000081565b61023c6105053660046125c0565b6113c6565b61023c6105183660046125ee565b611558565b610265600a81565b61023c61053336600461262d565b61199c565b6105886105463660046123b4565b600360208190525f918252604090912080546001820154928201546004830154600584015460069094015492946001600160a01b0316939192909160ff169086565b604080519687526001600160a01b0390951660208701529385019290925260608401521515608083015260a082015260c001610200565b6106046105cd3660046123b4565b5f908152600360208190526040909120805460018201549282015460059092015490936001600160a01b039093169260ff90911690565b604080519485526001600160a01b0390931660208501529183015215156060820152608001610200565b61065b61063c3660046126c0565b600b60209081525f928352604080842090915290825290205460ff1681565b6040519015158152602001610200565b5f81815260208181526040918290206002018054835181840281018401909452808452606093928301828280156106c957602002820191905f5260205f20905b81546001600160a01b031681526001909101906020018083116106ab575b50505050509050919050565b5f81815260208181526040918290206003018054835181840281018401909452808452606093928301828280156106c957602002820191905f5260205f20905b8154815260200190600101908083116107155750505050509050919050565b6007546001600160a01b031633146107845760405162461bcd60e51b815260206004820152600e60248201526d139bdd08185d5d1a1bdc9a5e995960921b60448201526064015b60405180910390fd5b5f818152600360205260409020600581015460ff16156107d95760405162461bcd60e51b815260206004820152601060248201526f105b1c9958591e481d995c9a599a595960821b604482015260640161077b565b60058101805460ff1916600190811790915580820154604051638d56276d60e01b81526001600160a01b0391821660048201526024810183905260448101929092527f00000000000000000000000000000000000000000000000000000000000000001690638d56276d906064015f604051808303815f87803b15801561085e575f80fd5b505af1158015610870573d5f803e3d5ffd5b505082546040519081528492507f24b715063691c8b273f3378856f3a3c798fbbd734cb7d8c15e0129dd53a82123915060200160405180910390a25050565b6007546001600160a01b031633146108d95760405162461bcd60e51b815260040161077b906126e0565b60068054905f6108e883612717565b91905055507f00000000000000000000000000000000000000000000000000000000000000006001600160a01b0316631ba9998b6040518163ffffffff1660e01b81526004015f604051808303815f87803b158015610945575f80fd5b505af1158015610957573d5f803e3d5ffd5b50505050565b600a818154811061096c575f80fd5b5f91825260209091200154905081565b5f838152602081905260408120600681015460ff166109ad5760405162461bcd60e51b815260040161077b9061272f565b60018101546001600160a01b031633146109fc5760405162461bcd60e51b815260206004820152601060248201526f139bdd0818db1d5cdd195c881a19585960821b604482015260640161077b565b60038101548314610a455760405162461bcd60e51b81526020600482015260136024820152720a4dedee840c6deeadce840dad2e6dac2e8c6d606b1b604482015260640161077b565b5f610a818585808060200260200160405190810160405280939291908181526020018383602002808284375f92019190915250611c0c92505050565b60065460408051602081018a9052908101839052606081019190915242608082015290915060a00160408051601f19818403018152828252805160209182012060e08401835289845233848301528251888302818101840185528982529197509284019291899189918291908501908490808284375f92018290525093855250505060208083018590526006546040808501919091526060840183905242608090940193909352868252600381529082902083518155838201516001820180546001600160a01b0319166001600160a01b03909216919091179055918301518051610b729260028501920190612300565b5060608201516003820155608082015160048083019190915560a08301516005808401805460ff19169215159290921790915560c09093015160069092019190915580546001810182555f9182527f8a35acfbc15ff81a39ae7d344fd709f28e8600b4aa8c65c6b64bfe7fe36bd19b01859055908301805491610bf483612717565b9190505550610c0586600654611dac565b85837fef2d5fc1072cf3eaa76db678c5a3a9be305337942a73f758f40db71504b429aa83604051610c3891815260200190565b60405180910390a350509392505050565b6004818154811061096c575f80fd5b5f805f610c6484611e1e565b92508291508115610c755782610c78565b60015b610c82908561276f565b929491935050565b610c95600a82612782565b6006541115610ce65760405162461bcd60e51b815260206004820152601860248201527f4368616c6c656e67652077696e646f7720657870697265640000000000000000604482015260640161077b565b5f8381526020819052604090206006015460ff16610d165760405162461bcd60e51b815260040161077b9061272f565b5f838152602081905260408120600301815b8154811015610d635784828281548110610d4457610d4461279b565b905f5260205f20015403610d5b5760019250610d63565b600101610d28565b5081610db15760405162461bcd60e51b815260206004820152601960248201527f436861696e206e6f7420696e207468697320636c757374657200000000000000604482015260640161077b565b5f838152600b6020908152604080832087845290915290205460ff1615610e105760405162461bcd60e51b815260206004820152601360248201527210da185a5b881dd85cc81cdd589b5a5d1d1959606a1b604482015260640161077b565b6040805160208101879052908101859052606081018490523360808201525f9060a00160408051601f1981840301815291815281516020928301205f818152600990935291206005015490915060ff1615610ea05760405162461bcd60e51b815260206004820152601060248201526f4368616c6c656e67652065786973747360801b604482015260640161077b565b6040805160e0810182523380825260208083018a81528385018a815260608086018b8152600654608088019081525f60a0890181815260c08a018281528c8352600989528b83209a518b546001600160a01b0319166001600160a01b03909116178b5596516001808c0191909155955160028b0155925160038a015590516004890155905160059097018054945161ffff1990951697151561ff001916979097176101009415159490940293909317909555600a805491820181559091527fc65a7bb8d6351c1cf70c95a316cc6a92839c986682d98bc35f958f4883f9d2a8018590558351918252810189905291820187905282917f802e641d2a33c008827b471787ab0a52a56423669f220a66cd353529cfe6e13d910160405180910390a2505050505050565b6007545f906001600160a01b03163314610ff45760405162461bcd60e51b815260040161077b906126e0565b8361102d5760405162461bcd60e51b81526020600482015260096024820152684e6f20636861696e7360b81b604482015260640161077b565b816110675760405162461bcd60e51b815260206004820152600a6024820152694e6f206d656d6265727360b01b604482015260640161077b565b600280545f918261107783612717565b909155505f81815260208190526040902081815590915061109c600382018888612349565b5060068101805460ff191660011790555f5b868110156110ed578260055f8a8a858181106110cc576110cc61279b565b602090810292909201358352508101919091526040015f20556001016110ae565b505f5b8481101561115a578160020186868381811061110e5761110e61279b565b905060200201602081019061112391906127af565b8154600180820184555f93845260209093200180546001600160a01b0319166001600160a01b0392909216919091179055016110f0565b506001805480820182555f919091527fb10e2d527612073b26eecdfd717e6a320cf44b4afac2b0732d9fcbe2b7fa0cf60182905561119782611e84565b817f9d2e65931105fcf88122f6ddd8af148176e3359fdfc7dae75c639d12c413c4cd88886040516111c99291906127cf565b60405180910390a25095945050505050565b6007546001600160a01b031633146112055760405162461bcd60e51b815260040161077b906126e0565b604051630ed00ad960e31b81526001600160a01b0382811660048301527f0000000000000000000000000000000000000000000000000000000000000000169063768056c890602401602060405180830381865afa158015611269573d5f803e3d5ffd5b505050506040513d601f19601f8201168201806040525081019061128d9190612806565b6112d95760405162461bcd60e51b815260206004820152601a60248201527f4e6f742061207265676973746572656420636f6d6d6974746572000000000000604482015260640161077b565b5f9182526020828152604083206002018054600181018255908452922090910180546001600160a01b0319166001600160a01b03909216919091179055565b5f818152602081905260409020600681015460ff166113495760405162461bcd60e51b815260040161077b9061272f565b600481015461135990600a612782565b60065410156113aa5760405162461bcd60e51b815260206004820152601860248201527f546f6f20736f6f6e20666f722072652d656c656374696f6e0000000000000000604482015260640161077b565b6113b382611e84565b5050565b6001818154811061096c575f80fd5b6007546001600160a01b031633146113f05760405162461bcd60e51b815260040161077b906126e0565b5f828152600960205260409020600581015460ff16156114455760405162461bcd60e51b815260206004820152601060248201526f105b1c9958591e481c995cdbdb1d995960821b604482015260640161077b565b600581018054831580156101000261ffff1990921691909117600117909155611517576001818101545f90815260208190526040808220909201549151638d56276d60e01b81526001600160a01b039283166004820181905260248201839052604482019290925290917f00000000000000000000000000000000000000000000000000000000000000001690638d56276d906064015f604051808303815f87803b1580156114f2575f80fd5b505af1158015611504573d5f803e3d5ffd5b505050506115158260010154611e84565b505b827f3294d0deef76eab620f7e49eec172b07438cbd0f0060eb2150d6c4e3eed99b2d8360405161154b911515815260200190565b60405180910390a2505050565b6007546001600160a01b031633146115825760405162461bcd60e51b815260040161077b906126e0565b606460085460016115939190612782565b61159d9190612821565b60065410156115e05760405162461bcd60e51b815260206004820152600f60248201526e115c1bd8da081b9bdd08195b991959608a1b604482015260640161077b565b808061161a5760405162461bcd60e51b81526020600482015260096024820152684e6f20636861696e7360b81b604482015260640161077b565b5f611626600143612838565b60085460408051924060208401528201524260608201526080016040516020818303038152906040528051906020012090505f8267ffffffffffffffff8111156116725761167261284b565b60405190808252806020026020018201604052801561169b578160200160208202803683370190505b5090505f5b838110156116e6578585828181106116ba576116ba61279b565b905060200201358282815181106116d3576116d361279b565b60209081029190910101526001016116a0565b505f6116f3600185612838565b90505b80156117c9575f611708826001612782565b6040805160208101879052908101849052606001604051602081830303815290604052805190602001205f1c61173e919061285f565b90505f8383815181106117535761175361279b565b6020026020010151905083828151811061176f5761176f61279b565b60200260200101518484815181106117895761178961279b565b602002602001018181525050808483815181106117a8576117a861279b565b602002602001018181525050505080806117c190612872565b9150506116f6565b506001548061180e5760405162461bcd60e51b8152602060048201526011602482015270139bc818db1d5cdd195c9cc8195e1a5cdd607a1b604482015260640161077b565b5f5b81811015611859575f806001838154811061182d5761182d61279b565b905f5260205f20015481526020019081526020015f206003015f6118519190612382565b600101611810565b505f5b8481101561190c575f6001611871848461285f565b815481106118815761188161279b565b905f5260205f20015490505f808281526020019081526020015f206003018483815181106118b1576118b161279b565b60209081029190910181015182546001810184555f93845291832090910155845182916005918790869081106118e9576118e961279b565b60209081029190910181015182528101919091526040015f20555060010161185c565b5060088054905f61191c83612717565b91905055505f5b818110156119575761194f600182815481106119415761194161279b565b905f5260205f200154611e84565b600101611923565b5060085460408051918252602082018590527fefe0f328ea8bc827541a9592664cbabb81fc6ef3d60a58a017dfad337fcaf423910160405180910390a1505050505050565b6007546001600160a01b03163314806119ef57507f05b8ccbb9d4d8fb16ea74ce3c29a41f1b461fbdaff4714a0d9a8eb05499746bc545f908152602081905260409020600101546001600160a01b031633145b611a2c5760405162461bcd60e51b815260206004820152600e60248201526d139bdd08185d5d1a1bdc9a5e995960921b604482015260640161077b565b848314611a6d5760405162461bcd60e51b815260206004820152600f60248201526e098cadccee8d040dad2e6dac2e8c6d608b1b604482015260640161077b565b848114611aae5760405162461bcd60e51b815260206004820152600f60248201526e098cadccee8d040dad2e6dac2e8c6d608b1b604482015260640161077b565b5f611aea8585808060200260200160405190810160405280939291908181526020018383602002808284375f9201919091525061225092505050565b90505f5b86811015611c02575f82878784818110611b0a57611b0a61279b565b905060200201351490507f00000000000000000000000000000000000000000000000000000000000000006001600160a01b0316638d56276d8a8a85818110611b5557611b5561279b565b9050602002016020810190611b6a91906127af565b83888887818110611b7d57611b7d61279b565b9050602002016020810190611b929190612887565b6040516001600160e01b031960e086901b1681526001600160a01b0390931660048401529015156024830152151560448201526064015f604051808303815f87803b158015611bdf575f80fd5b505af1158015611bf1573d5f803e3d5ffd5b505060019093019250611aee915050565b5050505050505050565b5f81515f03611c1c57505f919050565b8151600103611c4657815f81518110611c3757611c3761279b565b60200260200101519050919050565b815b600181511115611d8a575f600282516001611c639190612782565b611c6d919061276f565b90505f8167ffffffffffffffff811115611c8957611c8961284b565b604051908082528060200260200182016040528015611cb2578160200160208202803683370190505b5090505f5b82811015611d80575f611ccb826002612821565b90505f8551826001611cdd9190612782565b10611ce85781611cf3565b611cf3826001612782565b9050858281518110611d0757611d0761279b565b6020026020010151868281518110611d2157611d2161279b565b6020026020010151604051602001611d43929190918252602082015260400190565b60405160208183030381529060405280519060200120848481518110611d6b57611d6b61279b565b60209081029190910101525050600101611cb7565b509150611c489050565b805f81518110611d9c57611d9c61279b565b6020026020010151915050919050565b5f828152602081905260408120600301905b8154811015610957575f838152600b60205260408120835460019290859085908110611dec57611dec61279b565b5f9182526020808320919091015483528201929092526040019020805460ff1916911515919091179055600101611dbe565b5f815f03611e2d57505f919050565b5f6002611e3b846001612782565b611e45919061276f565b90508291505b81811015611e7e57905080600281611e63818661276f565b611e6d9190612782565b611e77919061276f565b9050611e4b565b50919050565b5f8181526020819052604090206002810154611ecf5760405162461bcd60e51b815260206004820152600a6024820152694e6f206d656d6265727360b01b604482015260640161077b565b5f805b6002830154811015611fa7577f00000000000000000000000000000000000000000000000000000000000000006001600160a01b031663b4a89247846002018381548110611f2257611f2261279b565b5f9182526020909120015460405160e083901b6001600160e01b03191681526001600160a01b039091166004820152602401602060405180830381865afa158015611f6f573d5f803e3d5ffd5b505050506040513d601f19601f82011682018060405250810190611f9391906128a2565b611f9d9083612782565b9150600101611ed2565b50805f0361205f57816002015f81548110611fc457611fc461279b565b5f9182526020822001546001840180546001600160a01b0319166001600160a01b03909216919091179055600654600484015560028301805490919061200c5761200c61279b565b5f91825260209182902001546006546040519081526001600160a01b039091169185917fa07c8fe85c7dc30de11c888e730cc378b1a005094cecf07f0c3bb400b8132315910160405180910390a3505050565b5f61206b600143612838565b60065460408051924060208401528201869052606082015260800160408051601f19818403018152919052805160209091012090505f6120ab838361285f565b90505f80856002015f815481106120c4576120c461279b565b5f9182526020822001546001600160a01b031691505b60028701548110156121e7577f00000000000000000000000000000000000000000000000000000000000000006001600160a01b031663b4a8924788600201838154811061212a5761212a61279b565b5f9182526020909120015460405160e083901b6001600160e01b03191681526001600160a01b039091166004820152602401602060405180830381865afa158015612177573d5f803e3d5ffd5b505050506040513d601f19601f8201168201806040525081019061219b91906128a2565b6121a59084612782565b9250828410156121df578660020181815481106121c4576121c461279b565b5f918252602090912001546001600160a01b031691506121e7565b6001016120da565b506001860180546001600160a01b0319166001600160a01b0383169081179091556006546004880181905560405190815288907fa07c8fe85c7dc30de11c888e730cc378b1a005094cecf07f0c3bb400b81323159060200160405180910390a350505050505050565b5f81515f0361226057505f919050565b5f805b83518110156122f9575f805b85518110156122c75785838151811061228a5761228a61279b565b60200260200101518682815181106122a4576122a461279b565b6020026020010151036122bf57816122bb81612717565b9250505b60010161226f565b50828111156122f0578092508482815181106122e5576122e561279b565b602002602001015193505b50600101612263565b5050919050565b828054828255905f5260205f20908101928215612339579160200282015b8281111561233957825182559160200191906001019061231e565b506123459291506123a0565b5090565b828054828255905f5260205f20908101928215612339579160200282015b82811115612339578235825591602001919060010190612367565b5080545f8255905f5260205f209081019061239d91906123a0565b50565b5b80821115612345575f81556001016123a1565b5f602082840312156123c4575f80fd5b5035919050565b602080825282518282018190525f9190848201906040850190845b8181101561240b5783516001600160a01b0316835292840192918401916001016123e6565b50909695505050505050565b602080825282518282018190525f9190848201906040850190845b8181101561240b57835183529284019291840191600101612432565b5f8083601f84011261245e575f80fd5b50813567ffffffffffffffff811115612475575f80fd5b6020830191508360208260051b850101111561248f575f80fd5b9250929050565b5f805f604084860312156124a8575f80fd5b83359250602084013567ffffffffffffffff8111156124c5575f80fd5b6124d18682870161244e565b9497909650939450505050565b5f805f606084860312156124f0575f80fd5b505081359360208301359350604090920135919050565b5f805f806040858703121561251a575f80fd5b843567ffffffffffffffff80821115612531575f80fd5b61253d8883890161244e565b90965094506020870135915080821115612555575f80fd5b506125628782880161244e565b95989497509550505050565b80356001600160a01b0381168114612584575f80fd5b919050565b5f806040838503121561259a575f80fd5b823591506125aa6020840161256e565b90509250929050565b801515811461239d575f80fd5b5f80604083850312156125d1575f80fd5b8235915060208301356125e3816125b3565b809150509250929050565b5f80602083850312156125ff575f80fd5b823567ffffffffffffffff811115612615575f80fd5b6126218582860161244e565b90969095509350505050565b5f805f805f8060608789031215612642575f80fd5b863567ffffffffffffffff80821115612659575f80fd5b6126658a838b0161244e565b9098509650602089013591508082111561267d575f80fd5b6126898a838b0161244e565b909650945060408901359150808211156126a1575f80fd5b506126ae89828a0161244e565b979a9699509497509295939492505050565b5f80604083850312156126d1575f80fd5b50508035926020909101359150565b6020808252600990820152682737ba1037bbb732b960b91b604082015260600190565b634e487b7160e01b5f52601160045260245ffd5b5f6001820161272857612728612703565b5060010190565b602080825260129082015271436c7573746572206e6f742061637469766560701b604082015260600190565b634e487b7160e01b5f52601260045260245ffd5b5f8261277d5761277d61275b565b500490565b8082018082111561279557612795612703565b92915050565b634e487b7160e01b5f52603260045260245ffd5b5f602082840312156127bf575f80fd5b6127c88261256e565b9392505050565b602080825281018290525f6001600160fb1b038311156127ed575f80fd5b8260051b80856040850137919091016040019392505050565b5f60208284031215612816575f80fd5b81516127c8816125b3565b808202811582820484141761279557612795612703565b8181038181111561279557612795612703565b634e487b7160e01b5f52604160045260245ffd5b5f8261286d5761286d61275b565b500690565b5f8161288057612880612703565b505f190190565b5f60208284031215612897575f80fd5b81356127c8816125b3565b5f602082840312156128b2575f80fd5b505191905056fea264697066735822122028df7157ba99ec35a782eba60437fba3fc1b24eb244ee6163b4757b5741b584b64736f6c63430008180033",
  "linkReferences": {},
  "deployedLinkReferences": {},
  "immutableReferences": {
    "2971": [
      {
        "length": 32,
        "start": 1237
      },
      {
        "length": 32,
        "start": 2077
      },
      {
        "length": 32,
        "start": 2287
      },
      {
        "length": 32,
        "start": 4644
      },
      {
        "length": 32,
        "start": 5297
      },
      {
        "length": 32,
        "start": 6934
      },
      {
        "length": 32,
        "start": 7904
      },
      {
        "length": 32,
        "start": 8424
      }
    ]
  },
  "inputSourceName": "project/contracts/audit_chain/ClusterManager.sol",
  "buildInfoId": "solc-0_8_24-ba828cc3e29caeee2779b63b0600a648c5ede39f"
}